:020000040800F2
:1000000008090020450100085D2100085F21000863
:1000100063210008672100086B2100080000000030
:100020000000000000000000000000006F21000838
:1000300071210008000000007321000875210008EC
:100040005F0100085F0100085F0100085F01000810
:100050005F0100085F0100085F0100085F01000800
:100060005F0100085F0100085F0100085F010008F0
:100070005F0100085F0100085F0100085F010008E0
:100080005F0100085F0100085F0100085F010008D0
:100090005F0100085F0100085F0100085F010008C0
:1000A0005F0100085F0100085F0100085F010008B0
:1000B000772100085F0100085F0100085F01000868
:1000C0005F0100085F0100085F0100085F01000890
:1000D0005F0100085F0100085F0100085F01000880
:1000E0005F0100085F0100085F0100085F01000870
:1000F0005F0100085F0100085F0100085F01000860
:100100005F0100085F0100085F0100085F0100084F
:100110005F0100085F0100085F0100085F0100083F
:100120005F0100085F0100085F0100085F0100082F
:10013000DFF80CD003F052FE0048004755200008BD
:10014000080900200648804706480047FEE7FEE70A
:10015000FEE7FEE7FEE7FEE7FEE7FEE7FEE7FEE777
:1001600047020008310100080CB500200190009002
:100170006C48006840F480306A49086000BF6948F4
:10018000006800F4003000900198401C0190009835
:1001900018B90198B0F5A06FF1D16248006800F479
:1001A000003010B10120009001E000200090009884
:1001B000012843D15C48006840F010005A490860AB
:1001C0000846006820F0030008600846006840F018
:1001D0000200086053484068524948600846406839
:1001E00048600846406840F48060486008464068BF
:1001F00020F47C1048600846406840F4E8104860ED
:100200000846006840F08070086000BF45480068FC
:1002100000F000700028F9D04248406820F0030048
:10022000404948600846406840F00200486000BF0E
:100230003C48406800F00C000828F9D10CBD10B50E
:10024000FFF792FF10BD10B53648006840F001007E
:1002500034490860084640683449084031494860DC
:1002600008460068324908402E4908600846006880
:1002700020F4802008600846406820F4FE004860B2
:100280004FF41F008860FFF7DAFF4FF00060294944
:10029000086010BD10B5002100200022214B5B68D2
:1002A00003F00C0121B1042906D0082928D107E068
:1002B000214B224C236027E01F4B204C236023E07E
:1002C000184B5B6803F47010164B5B6803F48032C4
:1002D000022303EB904022B9194B4343174C236090
:1002E0000DE0104B5B6803F4003323B1144B434320
:1002F000124C236003E0104B4343104C236003E097
:100300000D4B0E4C236000BF00BF064B5B68C3F370
:1003100003130C4CE15C094B1B68CB40074C23607A
:1003200010BD000000100240002002400000FFF855
:10033000FFFFF6FE08ED00E000127A00000000204A
:1003400000093D000400002031490143314A116099
:10035000704770B5002100230F22C47804B32D4CE0
:10036000246804F4E064C4F5E064210AC1F10403E4
:10037000CA40447804FA03F1847814402143090107
:10038000254C0678A155047804F01F050124AC40E3
:1003900005786D11AD0005F1E025C5F8004109E0D3
:1003A000047804F01F050124AC401C4D067876113A
:1003B00045F8264070BD1A4A0A400243154B1B1FE0
:1003C0001A60704739B1134A121D12680243114B6B
:1003D0001B1D1A6006E00F4A121D126882430D4B66
:1003E0001B1D1A607047042808D14FF0E0210969ED
:1003F00041F004014FF0E022116107E04FF0E021ED
:10040000096921F004014FF0E022116170470000FA
:100410000000FA050CED00E000E400E080E100E0FF
:1004200080FFFF1F10B50446CC48844208D101214B
:10043000042000F02DFB0021042000F029FB46E001
:10044000C748844208D10121082000F021FB002187
:10045000082000F01DFB3AE0C248844208D1012187
:10046000102000F015FB0021102000F011FB2EE001
:10047000BD48844208D10121202000F009FB002161
:10048000202000F005FB22E0B848844208D1012179
:10049000402000F0FDFA0021402000F0F9FA16E0BB
:1004A000B348844208D10121802000F0F1FA0021F4
:1004B000802000F0EDFA0AE0AE48844207D1012125
:1004C000801500F0E5FA0021A01500F0E1FA10BD5A
:1004D00010B50121084600F0DBFA0021012000F0F0
:1004E000D7FA10BD2DE9F041024600250026002074
:1004F00000230024002791F803C00CF00F0591F8A9
:1005000003C00CF0100CBCF1000F03D091F802C036
:100510004CEA050591F800C0BCF1000F31D0146819
:1005200000202BE04FF0010C0CFA00F3B1F800C0F2
:100530000CEA03069E4220D183004FF00F0C0CFA08
:1005400003F7BC4305FA03FC4CEA040491F803C02A
:10055000BCF1280F06D14FF0010C0CFA00FCC2F8D8
:1005600014C00AE091F803C0BCF1480F05D14FF068
:10057000010C0CFA00FCC2F810C0401C0828D1D3B2
:100580001460B1F800C0BCF1FF0F34DD54680020E6
:100590002EE000F1080C4FF0010808FA0CF3B1F856
:1005A00000C00CEA03069E4221D183004FF00F0CDD
:1005B0000CFA03F7BC4305FA03FC4CEA040491F877
:1005C00003C0BCF1280F05D100F1080C08FA0CF8A3
:1005D000C2F8148091F803C0BCF1480F07D100F1B4
:1005E000080C4FF0010808FA0CF8C2F81080401C03
:1005F0000828CED35460BDE8F0814FF6FF7101802A
:10060000022181700421C170704702460020936866
:100610000B400BB1012000E00020704701468868C4
:1006200080B2704702460020D3680B400BB1012016
:1006300000E0002070470146C86880B27047016141
:100640007047416170470AB1016100E04161704744
:10065000C16070474FF480320A43826181618261D8
:1006600082698269704702460020434B18684FF642
:100670008073184040EA021008433F4B18607047EF
:100680003E49C8617047F0B50A46002300240021A6
:10069000002500F00046B6F1004F02D1364EF16958
:1006A00001E0354E7168C0F3034583B200F4401693
:1006B000B6F5401F08D121F070612F4E766826F004
:1006C00070662D4F7E6012E000F48016B6F5801F34
:1006D00006D1032606FA05F4A14341F0706106E055
:1006E000460D360103FA06F6B14341F0706122B1BE
:1006F000460D360103FA06F6314300F00046B6F126
:10070000004F02D11C4EF16101E01B4E7160F0BD43
:1007100030B500228B071C0F0F2303FA04F2164B8F
:1007200008338C1053F824309343134C08348D1045
:1007300044F8253023468C1053F824308C07240FBE
:1007400000FA04F423430C4C08348D1044F825308F
:1007500030BD0A49DC3108607047000000080140E4
:10076000000C01400010014000140140001801403D
:10077000001C014000200140000001400000204218
:10078000DF48006840F00100DD4908600846406825
:10079000DC490840DA49486008460068DA49084000
:1007A000D74908600846006820F4802008600846A1
:1007B000406820F4FE0048604FF41F0088607047D6
:1007C000CF49096821F48031CD4A1160114609688A
:1007D00021F480211160B0F5803F03D0B0F5802F67
:1007E0000ED106E0C649096841F48031C44A11605F
:1007F00007E0C349096841F4A021C14A116000E043
:1008000000BF00BF704710B5014600220023002042
:100810004A11012A02D1BA4C236806E0022A02D109
:10082000B74C236A01E0B64C636A01F01F02012451
:1008300094401C400CB1012000E0002010BD38B5F0
:10084000002000900024002500BF3120FFF7DBFFCF
:1008500005460098401C00900098B0F5A06F01D0AC
:10086000002DF2D03120FFF7CEFF08B1012400E0C7
:100870000024204638BD01460020A14A106820F01F
:10088000F80040EAC10010607047A0490860704756
:10089000024600209A4B586820F47C1042EA01037B
:1008A0001843974B5860704798490866704701464F
:1008B0000020934A506820F00300084350607047BE
:1008C0008F48406800F00C007047014600208C4AB9
:1008D000506820F0F0000843506070470146002047
:1008E000874A506820F4E060084350607047014632
:1008F0000020834A506820F4605040EAC1005060F4
:10090000704729B17E4A527A02437D4B5A7204E005
:100910007B4A527A82437A4B5A7270477B49D8316C
:100920000860704701460020754A506820F4404036
:100930000843506070470021714A20321170704A9C
:1009400082F82010012802D004280AD104E00121F5
:100950006B4A2032117005E00521694A203211707E
:1009600000E000BF00BF70476949086070476449F4
:10097000096A0143624A1162704765494439086057
:10098000704730B500210022002400235C4D6D68C3
:1009900005F00C0121B1042905D0082923D105E077
:1009A0005C4D056022E05B4D05601FE0544D6D68B5
:1009B00005F47012524D6D6805F48034022505EB84
:1009C00092421CB9544D554305600BE04C4D6D6887
:1009D00005F400351DB1504D5543056002E04D4D05
:1009E0005543056002E04B4D056000BF00BF444D1C
:1009F0006D6805F0F0010909484D6B5C0568DD4044
:100A000045603F4D6D6805F4E061090A434D6B5C3C
:100A10004568DD4085603A4D6D6805F46051C90A4E
:100A20003E4D6B5C4568DD40C560354D6D6805F435
:100A30004041890B3A4D6B5CC568B5FBF3F5056128
:100A400030BD29B12E4A526902432D4B5A6104E050
:100A50002B4A526982432A4B5A61704729B1284A6E
:100A600092690243264B9A6104E0254A92698243C7
:100A7000234B9A61704729B1214AD2690243204B26
:100A8000DA6104E01E4AD26982431D4BDA61704785
:100A900029B11B4AD2680243194BDA6004E0184AB4
:100AA000D2688243164BDA60704729B1144A126942
:100AB0000243134B1A6104E0114A12698243104B3E
:100AC0001A61704712494039086070470F49C8647D
:100AD00070470B49C87170470948406A40F0807000
:100AE00007494862704701460020054A92680A405B
:100AF0000AB1012000E00020704701498872704768
:100B0000001002400000FFF8FFFFF6FE0000424226
:100B10008004424200127A0000093D0014000020C7
:100B20002400002010B50446BE48844208D10121AB
:100B30008014FFF7ADFF0021A014FFF7A9FF16E016
:100B4000B948844208D101210014FFF7AEFF00210B
:100B50002014FFF7AAFF0AE0B448844207D101211C
:100B6000C013FFF7A2FF0021E013FFF79EFF10BDA7
:100B700010B50022028802F441520B884C882343AE
:100B80008C882343CC8823430C8923434C892343FB
:100B90008C892343CC8923431A430280838B4FF2F1
:100BA000FF74234083830B8A038210BD2DE9F04F2D
:100BB00085B005460C464FF0000902274FF00008AB
:100BC0004FF0010B0026B246A88B4FF240010840BF
:100BD000A88302202884B5F81C90A068022801D1BF
:100BE00000BF38E0A08810B94FF0010B01E04FF0D2
:100BF000020B8D48854200D100E000BF6846FFF738
:100C0000C0FEDDF800A0E088B0F5007F0AD14FEA11
:100C10001A2000EB80004000A168B0FBF1F0401DFD
:100C200086B20BE04FEA4B10BAFBF0F000EB80000D
:100C30004000A168B0FBF1F0401D86B20A20B6FB6F
:100C4000F0F606F00108A6EB0800C0F34F074FF6D8
:100C5000FF7000EA0828022F01DBFF2F02DD0227C8
:100C60004FF00008E08840EA080038432884A08854
:100C7000A1890843618808432188084340F4006043
:100C800040EA0909A5F81C9005B0BDE8F08F0021E5
:100C9000018041808180C180018141818181C18148
:100CA0000721018270470021018041808180C1803D
:100CB0000221816000218181704721B1028842F0C8
:100CC0004002028004E002884FF6BF731A4002809F
:100CD000704721B1828B42F48062828304E0828B70
:100CE0004FF6FF331A408283704730B5002400234B
:100CF0000C110125A540ABB21AB185881D43858032
:100D000002E085889D43858030BD1AB183880B43FE
:100D1000838002E083888B438380704781817047A2
:100D20000146888970474FF6FF62914204D00288DD
:100D300042F48072028004E002884FF6FF631A409A
:100D40000280704721B1828842F00402828004E070
:100D500082884FF6FB731A408280704702884FF2F8
:100D6000FF731A40028002880A430280704701889C
:100D700041F480510180704721B1028842F4005251
:100D8000028004E002884DF6FF731A40028070472B
:100D900002460020012901D0108B00E0908A7047A4
:100DA0000146088A7047B1F5804F04D1028842F4A9
:100DB0008042028004E002884BF6FF731A400280F2
:100DC00070470246002013890B400BB1012000E060
:100DD00000207047CA4302817047F0B502460020E8
:100DE00000240023002501F00F070126BE40B4B205
:100DF0000B1101269E40B3B2968806EA03051689B8
:100E0000264016B10DB1012000E00020F0BD10B564
:100E1000002201F00F040123A3409AB2D3430381BF
:100E200010BD00000030014000380040003C004090
:100E300010B50446FE48844208D10121C014FFF7D2
:100E400027FE0021E014FFF723FEC4E0B4F1804F39
:100E500008D101210846FFF728FE00210120FFF7F5
:100E600024FEB8E0F348844208D101210220FFF7B4
:100E70001CFE00210220FFF718FEACE0EE48844281
:100E800008D101210420FFF710FE00210420FFF704
:100E90000CFEA0E0E948844208D101210820FFF7B8
:100EA00004FE00210820FFF700FE94E0E44884429D
:100EB00008D101211020FFF7F8FD00211020FFF7D5
:100EC000F4FD88E0DF48844208D101212020FFF7AB
:100ED000ECFD00212020FFF7E8FD7CE0DA488442A9
:100EE00008D101214014FFF7D3FD00216014FFF762
:100EF000CFFD70E0D548844209D10121C804FFF735
:100F0000C7FD00214FF40020FFF7C2FD63E0D04889
:100F1000844209D101210805FFF7BAFD00214FF4F1
:100F20008010FFF7B5FD56E0CA48844209D101217F
:100F30004805FFF7ADFD00214FF40010FFF7A8FDB5
:100F400049E0C548844208D101214020FFF7ADFDAA
:100F500000214020FFF7A9FD3DE0C048844208D1B0
:100F600001218020FFF7A1FD00218020FFF79DFDDA
:100F700031E0BB48844208D101218015FFF795FD7F
:100F80000021A015FFF791FD25E0B648844209D164
:100F900001210804FFF77CFD00214FF48030FFF7AA
:100FA00077FD18E0B048844209D101214804FFF7D9
:100FB0006FFD00214FF40030FFF76AFD0BE0AB48F6
:100FC000844208D101218804FFF762FD00214FF41B
:100FD0008020FFF75DFD10BD00220288944B9842EF
:100FE0000ED0994B98420BD0B0F1804F08D0914B66
:100FF000984205D0904B984202D0904B984204D131
:101000004FF68F731A404B881A438D4B984207D086
:101010008C4B984204D04FF6FF431A40CB881A43BA
:1010200002808B8883850B880385814B98420BD087
:10103000854B984208D08B4B984205D08A4B9842FA
:1010400002D08A4B984201D10B7A03860123838216
:10105000704770B5002400220023058C4FF6FE7601
:1010600035400584028C8388048B4FF68F752C40A5
:10107000B51E2C400D882C43751E2A400D892A432D
:101080004D882A436A4DA8420BD06F4DA84208D024
:10109000744DA84205D0744DA84202D0734DA842A9
:1010A00013D14FF6F7752A404D892A434FF6FB7549
:1010B0002A408D882A434FF6FF652B404FF6FF5597
:1010C0002B408D892B43CD892B4383800483CD888E
:1010D0008586028470BD70B5002400220023058C33
:1010E0004FF6EF7635400584028C8388048B48F6F2
:1010F000FF752C404FF6FF452C400D884FF6FF76CC
:1011000006EA05252C434FF6DF752A400D8906EACD
:1011100005152A434D8806EA05152A43444DA84281
:1011200002D0494DA8421DD14FF67F752A404D8906
:101130004FF6FF7606EA05152A434FF6BF752A409B
:101140008D8806EA05152A434FF6FF352B404FF2EE
:10115000FF752B408D8906EA85052B43CD8906EA6C
:1011600085052B4383800483CD880587028470BD69
:1011700070B5002400220023058C4FF6FF66354031
:101180000584028C8388848B4FF68F752C404FF634
:10119000FC752C400D882C434FF6FF552A400D89D5
:1011A0004FF6FF7606EA05252A434D8806EA05250F
:1011B0002A431F4DA84202D0234DA8421DD14FF211
:1011C000FF752A404D894FF6FF7606EA05252A432A
:1011D0004FF6FF352A408D8806EA05252A434EF64C
:1011E000FF752B404DF6FF752B408D8906EA0515DE
:1011F0002B43CD8906EA05152B4383808483CD8854
:101200008587028470BD70B5002200230024058C00
:101210004EF6FF7635400584038C8488828B48F631
:10122000FF752A404FF6FF452A400D8820E0000058
:10123000002C01400004004000080040000C004069
:10124000001000400014004000340140004C0140F8
:10125000005001400054014000180040001C0040B4
:10126000002000400040014000440140004801408F
:101270004FF6FF7606EA05252A434DF6FF752B400B
:101280000D8906EA05352B434D8806EA05352B43C3
:10129000FA4DA84202D0FA4DA84208D14BF6FF758C
:1012A0002C408D894FF6FF7606EA85152C43848005
:1012B0008283CD88A0F84050038470BD828B4FF2AA
:1012C000FF331A408283828B4FF6FF7303EA0123B8
:1012D0001A4382837047F0B50C4615460022002160
:1012E0000026078C4EF6FF7C07EA0C070784828BEA
:1012F000018C4FF6FF7707EA043640F6FF473A4085
:101300004FF6FF7707EA05273A434FF6FF7707EADC
:1013100003373A43D94FB8420ED0D94FB8420BD019
:10132000B0F1804F08D0D74FB84205D0D64FB84261
:1013300002D0D64FB84206D14DF6FF77394046F479
:101340008057394305E047F6FF57394044F480574A
:10135000394382830184F0BD828B4FF6F3731A40C8
:101360008283828B0A4382837047F0B50C46154610
:10137000002200210026078C4FF6FF6C07EA0C07BD
:101380000784828B018C4FF6FF7707EA04264FF61D
:101390000C773A404FF6FF7707EA03172F433A439B
:1013A000B64FB8420ED0B64FB8420BD0B0F1804F16
:1013B00008D0B44FB84205D0B34FB84202D0B34FB3
:1013C000B84206D14FF6FF57394046F4807739438B
:1013D00005E04FF2FF57394044F480773943828368
:1013E0000184F0BD028B4FF2FF331A400283028B5F
:1013F0004FF6FF7303EA01231A4302837047F0B5E7
:101400000C461546002200210026078C4FF6EF7C83
:1014100007EA0C070784028B018C4FF6FF7707EA77
:10142000041640F6FF473A404FF6FF7707EA0337C6
:101430003A434FF6FF7707EA05273A438F4FB84202
:101440000ED08F4FB8420BD0B0F1804F08D08D4FE7
:10145000B84205D08C4FB84202D08C4FB84206D16A
:101460004FF6DF77394046F01007394305E04FF675
:101470005F77394044F01007394302830184F0BD9F
:10148000028B4FF6F3731A400283028B0A430283E6
:101490007047F0B50C46154600220021068C4FF629
:1014A000FE773E400684028B018C4FF60C7632406C
:1014B0007E1C06EA03162E433243704EB0420ED015
:1014C0006F4EB0420BD0B0F1804F08D06D4EB0429D
:1014D00005D06D4EB04202D06C4EB04206D14FF6F0
:1014E000FD76314044F00106314305E04FF6F576D4
:1014F000314044F00106314302830184F0BD70B5F0
:1015000005460C465D4885420ED05D4885420BD0AD
:10151000B5F1804F08D05B48854205D05A488542D6
:1015200002D05A48854200D100E000BF208850B95F
:101530002389A28861882846FFF7ABFFE188284607
:10154000FFF79EFF25E0208804280AD12389A2887E
:1015500061882846FFF753FFE1882846FFF742FFDE
:1015600017E0208808280AD12389A28861882846A4
:10157000FFF7FBFEE1882846FFF7EEFE09E023892E
:10158000A28861882846FFF7A6FEE1882846FFF773
:1015900095FE70BD2DE9F04105460C460026012759
:1015A000608808B9022600E00026A088012801D141
:1015B000022700E001272088A0B92389A28861883A
:1015C0002846FFF766FFE1882846FFF759FF238981
:1015D0003A4631462846FFF712FFE1882846FFF7D2
:1015E00001FF13E02389A28861882846FFF707FFDF
:1015F000E1882846FFF7F6FE23893A463146284619
:10160000FFF747FFE1882846FFF73AFFBDE8F08182
:101610000A884B881A438B881A43CB881A430B8954
:101620001A434B891A438B891A43A0F84420704708
:101630004FF6FF71818000210180C18041800172DD
:1016400070470021018041808180C18001814181FA
:101650008181C18170470021018041800121818009
:101660000021C1800181704700210180418081807B
:10167000C18001814181818170470000002C0140BF
:10168000003401400004004000080040000C00400D
:1016900021B1028842F00102028004E002884FF684
:1016A000FE731A400280704731B1B0F8442042F412
:1016B0000042A0F8442005E0B0F84420C2F30E0236
:1016C000A0F8442070471AB183890B43838102E05C
:1016D00083898B43838170478182704741EA02038B
:1016E000A0F8483070471AB183890B43838102E028
:1016F00083898B438381704701894FF6F8721140CB
:10170000018170470A46002101894FF68F73194005
:1017100011430181704730B504460D4629462046E5
:10172000FFF7F0FF208940F00700208130BD2DE950
:10173000F04104460D4616461F46602D06D13B4635
:10174000012231462046FFF75AFE05E03B460122C2
:1017500031462046FFF79DFE29462046FFF7D2FF7F
:10176000208940F007002081BDE8F08130B50C46AB
:1017700000210189C9B24FF6FF7505EA032515431B
:1017800025432943018130BD2DE9F04105460E4630
:1017900017469846002443463A4631462846FFF706
:1017A000E5FF2C894FF6F870044044F007044FF62B
:1017B0008F70044044F070042C81BDE8F081F0B5D6
:1017C00004460D4616461F463B46324629462046ED
:1017D000FFF7CCFF208940F480402081F0BD0185D7
:1017E000828270470A46002101884FF68F731940A4
:1017F000114301807047F0B50C4615461E46002186
:10180000002200230189028B038C4FF6F8773940C0
:1018100021434FF6FC473A4040F201173A434FF656
:10182000DD773B404FF6FF7707EA06172F433B4330
:10183000018102830384F0BD0A460021018B4FF62B
:101840008F7319401143018370470A460021018BB1
:1018500048F6FF7319404FF6FF7303EA022319435A
:10186000018370470A460021818B4FF68F73194020
:101870001143818370470A460021818B48F6FF732C
:1018800019404FF6FF7303EA02231943818370471F
:1018900021B1028842F08002028004E002884FF603
:1018A0007F731A400280704721B1828842F004029F
:1018B000828004E082884FF6FB731A408280704772
:1018C00021B1828842F00802828004E082884FF6CB
:1018D000F7731A408280704721B1828842F001027A
:1018E000828004E082884FF6FE731A40828070473F
:1018F0000A460021018B4FF6F7731940114301830B
:1019000070470A460021018B4FF2FF7319404FF6D2
:10191000FF7303EA02231943018370470A4600213B
:10192000818B4FF6F77319401143818370470A4644
:101930000021818B4FF2FF7319404FF6FF7303EACA
:1019400002231943818370470A460021018B4FF619
:10195000FB7319401143018370470A460021018B34
:101960004FF6FF3319404FF6FF7303EA0223194382
:10197000018370470A460021818B4FF6FB731940A3
:101980001143818370470A460021818B4FF6FF3354
:1019900019404FF6FF7303EA02231943818370470E
:1019A0000A460021018B4FF67F73194011430183D2
:1019B00070470A460021018BC1F30E014FF6FF73F9
:1019C00003EA02231943018370470A460021818BF1
:1019D0004FF67F7319401143818370470A460021F7
:1019E000818BC1F30E014FF6FF7303EA0223194303
:1019F000818370470A460021018C4FF6FD73194020
:101A00001143018470470A460021018C4FF6F77399
:101A100019401143018470470A460021018C4FF69A
:101A2000DF7319404FF6FF7303EA02131943018471
:101A300070470A460021018C4FF67F7319404FF61C
:101A4000FF7303EA02131943018470470A46002119
:101A5000018C4FF6FF5319404FF6FF7303EA022340
:101A60001943018470470A460021018C4FF2FF732D
:101A700019404FF6FF7303EA0223194301847047AC
:101A80000A460021018C4DF6FF7319404FF6FF7393
:101A900003EA023319430184704730B5002301245F
:101AA0008C40A3B2048C9C430484048C02FA01F59C
:101AB000ADB22C43048430BD30B5002304248C40E7
:101AC000A3B2048C9C430484048C02FA01F5ADB2E9
:101AD0002C43048430BD70B5034600200024184612
:101AE000183001258D40ACB21D8CA5431D8409B171
:101AF000082909D100EB6100056825F07005056033
:101B00000568154305600EE00D1FC5F34E0528441A
:101B1000056825F4E045056005684FF6FF7606EA9E
:101B200002263543056070BD21B1028842F00202F1
:101B3000028004E002884FF6FD731A40028070476D
:101B400021B1028842F00402028004E002884FF6CC
:101B5000FB731A400280704721B1828842F08002F4
:101B6000828004E082884FF67F731A40828070473B
:101B700002884FF6F7731A40028002880A430280F7
:101B8000704782884FF68F731A40828082880A439A
:101B90008280704702894FF6F8731A4002810289E9
:101BA0000A430281704702894FF67F731A4002810F
:101BB00002890A430281704781847047818570479A
:101BC000818670470187704781877047A0F8401071
:101BD000704702884FF6FF431A40028002880A438A
:101BE000028070470146888E70470146088F704713
:101BF0000146888F70470146B1F8400070470146A2
:101C0000888C70470146088D704702460020138A71
:101C10000B400BB1012000E000207047CA43028254
:101C2000704730B50246002000230024158A05EADB
:101C30000103958905EA010413B10CB1012000E00C
:101C4000002030BDCA4302827047000010B5044630
:101C5000FB48844209D101218803FEF719FF0021C6
:101C60004FF48040FEF714FF32E0F648844209D179
:101C700001214804FEF719FF00214FF40030FEF760
:101C800014FF25E0F048844209D101218804FEF7C1
:101C90000CFF00214FF48020FEF707FF18E0EB480F
:101CA000844209D10121C804FEF7FFFE00214FF450
:101CB0000020FEF7FAFE0BE0E548844208D101213E
:101CC0000805FEF7F2FE00214FF48010FEF7EDFE4E
:101CD00010BD2DE9F04786B005460E460024A24609
:101CE00000BFA1460027B08900B100BF2F462C8A53
:101CF0004CF6FF700440F08804432C82AC894EF609
:101D0000F3100440B08831890843718908430443C3
:101D1000AC81AC8A4FF6FF400440B0890443AC82EA
:101D200001A8FEF72EFEC648874202D1DDF810A0BA
:101D300001E0DDF80CA0A88900F4004040B10AEBF6
:101D4000CA0000EB0A1031684900B0FBF1F807E067
:101D50000AEBCA0000EB0A1031688900B0FBF1F809
:101D60006420B8FBF0F004012009642101FB108914
:101D7000A88900F4004040B1322000EBC900B0FB5C
:101D8000F1F000F00700044308E0322000EB0910F6
:101D90006421B0FBF1F000F00F0004432C8106B089
:101DA000BDE8F0874FF41651016000218180C180A9
:101DB00001810C21418100218181704710B50246CB
:101DC0000020108A4FF2FF0318400B884C882343F1
:101DD0008C882343CC8823431843108210BD0021F4
:101DE000018041808180C180704721B1828942F4A5
:101DF0000052828104E082894DF6FF731A4082818D
:101E00007047F0B50346002400260025002040F668
:101E10006A17B94200D100BF1846C1F3421401F05D
:101E20001F06012707FA06F5012C01D10C3004E04A
:101E3000022C01D1103000E014301AB107682F4392
:101E4000076002E00768AF430760F0BD1AB1838AFC
:101E50000B43838202E0838A8B4383827047028A2A
:101E60004FF6F0731A400282028A0A4302827047D8
:101E700082894FF2FF731A40828182890A438281EC
:101E8000704721B1828942F00202828104E0828996
:101E90004FF6FD731A4082817047028A4FF6DF7356
:101EA0001A400282028A0A430282704721B1028AE2
:101EB00042F48042028204E0028A4BF6FF731A4029
:101EC00002827047C1F30802828070470146888809
:101ED000C0F308007047818941F00101818170479A
:101EE000028BD2B20283028B42EA01220283704744
:101EF000028B02F47F420283028B0A430283704703
:101F000021B1828A42F02002828204E0828A4FF666
:101F1000DF731A408282704721B1828A42F0100238
:101F2000828204E0828A4FF6EF731A408282704701
:101F300021B1828A42F00802828204E0828A4FF64E
:101F4000F7731A408282704721B1828942F40042BD
:101F5000828103E08289C2F30E028281704721B13F
:101F6000828A42F40062828204E0828A4FF2FF7326
:101F70001A4082827047828A4FF6FB731A4082822F
:101F8000828A0A438282704721B1828A42F0020229
:101F9000828204E0828A4FF6FD731A408282704783
:101FA00002460020B1F5007F00D100BF13880B402E
:101FB0000BB1012000E00020704701F40072B2F57F
:101FC000007F00D100BFCA430280704770B502464F
:101FD000002400230025002040F66A16B14200D1FB
:101FE00000BFC1F3421501F01F03012606FA03F3F7
:101FF000012D02D19689334006E0022D02D1168AC6
:10200000334001E0968A33400C12012606FA04F4AC
:102010001688344013B10CB1012000E0002070BDDF
:1020200010B50022002340F66A14A14200D100BF7F
:102030000A1201249440A3B2DC43048010BD0000C6
:10204000003801400044004000480040004C00407F
:1020500000500040482001F0B5FB00F099F800F076
:1020600022FB11A001F0ECFE00F030FE00F0BAFE01
:1020700000F01CFE00F073FD1249134800F0F4FC60
:1020800012A001F0DDFE1948018819A001F0D8FE68
:102090001D4801881DA001F0D3FE21A001F0D0FE53
:1020A00001E001F0B9FDFCE7CDF8C2E7B3F5CABC29
:1020B000BBAF205443505F434C69656E74CAB5D1C1
:1020C000E90D0A0030000020280000205735353087
:1020D00030BFC9D2D4BACDB5E7C4D4B5C455445085
:1020E000B6CBBFDACDA8D1B60D0A00004E00002055
:1020F0005735353030B5C4B1BEB5D8B6CBBFDACE62
:10210000AA3A25640D0A000054000020D4B6B6CBCC
:10211000B6CBBFDACEAAA3BA25640D0A0000000030
:10212000C1ACBDD3B3C9B9A6BAF3A3AC5043BBFA93
:10213000B7A2CBCDCAFDBEDDB8F85735353030A3D8
:10214000AC5735353030BDABB7B5BBD8B6D4D3A658
:10215000B5C4CAFDBEDD0D0A00000000704700BF17
:10216000FEE700BFFEE700BFFEE700BFFEE77047E7
:1021700070477047704710B501218807FFF751FD80
:1021800028B100F0ACFF01218807FFF75BFD10BD0F
:1021900000B585B001210420FEF760FC0121880311
:1021A000FEF75CFC18208DF813004FF40070ADF8BA
:1021B000100003208DF8120004A92148FEF792F9BF
:1021C00004208DF813000002ADF8100004A91C488B
:1021D000FEF788F94FF4E13000900020ADF80400DC
:1021E000ADF80600ADF80800ADF80C000C20ADF815
:1021F0000A0069461348FFF76CFD01211148FFF7FB
:10220000F4FD05B000BD70B504460D46E1B20D48C1
:10221000FFF758FE00BF80210A48FFF7C1FE0028E3
:10222000F9D0204670BD10B5044600BF20210548F6
:10223000FFF7B6FE0028F9D00248FFF747FE10BDB1
:10224000000801400038014010B5A02000F041FA1C
:1022500008B9012010BD00F08DF90020FAE72DE942
:10226000F04106460F46154600F06FF9A02000F039
:102270008FF900F0D4F900B125E0F8B200F088F948
:1022800000F0CDF900B11EE000F05FF9A12000F0F0
:102290007FF900F0C4F900B115E000240CE000F073
:1022A0009FF93055681EA04202D000F0D4F901E039
:1022B00000F0E7F9601C84B2AC42F0DB00F05AF9A0
:1022C0000120BDE8F08100F055F90020F9E72DE983
:1022D000F047074688469146464600242CE014B154
:1022E00006F00700E8B900F045F900250AE000F023
:1022F0002CF9A02000F04CF900F091F900B904E0AD
:10230000681C85B2B5F57A7FF1DB00BFB5F57A7F41
:1023100000D118E0F0B200F03BF900F080F900B114
:1023200011E0385D00F034F900F079F900B10AE00D
:10233000701C86B2601C84B24C45D0DB00F01AF9E8
:102340000120BDE8F08700F015F90020F9E710B58D
:10235000C0B0002404E0FF200DF80400601C84B22B
:10236000FF2CF8DD4FF4807200216846FFF7AFFFC5
:1023700020B938A001F064FD40B010BD3AA001F0D2
:102380005FFD00BFF8E701B502E00098401E009035
:1023900000980028F9D108BD10B5ADF5007DFFF714
:1023A00053FF30B935A001F04BFD00200DF5007D45
:1023B00010BD002403E040A90C55601C84B2FF2C22
:1023C000F9DD4FF48072002140A8FFF780FF20B9AB
:1023D00030A001F035FD0020E8E733A001F030FD2A
:1023E0003648FFF7D0FF4FF4807200216846FFF7B0
:1023F00036FF20B932A001F023FD0020D6E735A03A
:1024000001F01EFD00241DE01DF8040040A9095D37
:10241000884209D01DF8041035A001F011FD36A046
:1024200001F00EFD0020C1E71DF804103BA001F0F3
:1024300007FD04F00F000F2802D10AA001F000FDF3
:10244000601C84B2FF2CDFDD36A001F0F9FC012016
:10245000ACE70000B2C1B3FD656570726F6DB3F695
:10246000B4EDA3A10D0A0000B2C1B3FD65657072A1
:102470006F6DB3C9B9A6A3A10D0A0000C3BBD3D029
:10248000BCECB2E2B5BDB4AED0D0454550524F4DD4
:10249000210D0A00D0B4656570726F6DB3F6B4EDAE
:1024A000A3A10D0A00000000D0B4656570726F6DC5
:1024B000B3C9B9A6A3A10D0A00000000FFFF0F00D9
:1024C000B6C1656570726F6DB3F6B4EDA3A10D0A68
:1024D00000000000B6C1656570726F6DB3C9B9A622
:1024E000A3ACCAFDBEDDC8E7CFC2A3BA0D0A000087
:1024F0003078253032582000B4EDCEF33A454550BF
:10250000524F4DB6C1B3F6D3EBD0B4C8EBB5C4CA85
:10251000FDBEDDB2BBD2BBD6C200000020253032EA
:1025200058000000656570726F6DB6C1D0B4B2E23C
:10253000CAD4B3C9B9A60D0A00000000002001E00A
:10254000411CC8B20A28FBDB704710B580206949DE
:10255000086040200860FFF7F1FF80206549091DF1
:102560000860FFF7EBFF40206249091D0860FFF794
:10257000E5FF10BD10B580205E49091D08604020B0
:10258000091F0860FFF7DAFF80205A49086010BD74
:1025900070B50446002520E004F0800018B18020CA
:1025A0005449086003E080205249091D0860FFF784
:1025B000C5FF40204F490860FFF7C0FF40204D494C
:1025C000091D0860072D02D18020091F08606006E0
:1025D000040EFFF7B3FF681CC5B2082DDCDB70BD2D
:1025E00070B50024002516E06006040E4020414925
:1025F0000860FFF7A3FF3F480838006800F080003C
:1026000008B1601CC4B240203A49091D0860FFF7B8
:1026100095FF681CC5B2082DE6DB204670BD10B5DD
:10262000802034490860FFF789FF40203149086065
:10263000FFF784FF2F480838006800F0800008B1D9
:10264000012400E0002440202A49091D0860FFF70A
:1026500075FF204610BD10B580202649091D086071
:10266000FFF76CFF402023490860FFF767FF402019
:102670002049091D0860FFF761FF80201D4908609F
:1026800010BD10B580201B490860FFF757FF4020A0
:1026900018490860FFF752FF40201649091D0860DD
:1026A000FFF74CFF10BD08B501210820FEF7D6F951
:1026B000C020ADF8000003208DF8020014208DF832
:1026C000030069460B481038FDF70CFFFFF752FF77
:1026D00008BD70B50446FFF7E6FFFFF736FF20465A
:1026E000FFF756FFFFF79BFF0546FFF743FF28461E
:1026F00070BD0000100C014008B54FF4E060FDF71C
:1027000023FE1C208DF8000000208DF8010003201E
:102710008DF8020001208DF803006846FDF719FED0
:1027200008BD0EB501210846FEF7A5F940F2E730D5
:10273000ADF804004720ADF8000069464FF0804036
:10274000FEF74AFC01218807FFF768FA01221146CB
:102750009007FEF7B8FF01218807FEF799FF0021D7
:102760000120FEF788F90EBD10B504462146002071
:1027700000F068FB10BD10B58020FFF7F5FF10BD1D
:102780000146DA4830F8110070470146D84830F861
:102790001100704710B5044604222146900100F054
:1027A00082FB10BD10B5044604222146900100F0C2
:1027B000A2FB10BD10B50446042221464FF4A060D0
:1027C00000F071FB10BD10B50446042221464FF401
:1027D000A06000F090FB10BD10B504460622214613
:1027E0004FF4106000F05FFB10BD10B504460622E8
:1027F00021464FF4106000F07EFB10BD10B504467A
:10280000042221464FF4706000F04DFB10BD10B55E
:102810000446042221464FF4706000F06CFB10BDAA
:1028200010B54FF4A85000F026FB10BD10B50446BB
:10283000210A4FF4C85000F005FBE1B24FF4C85034
:1028400000F000FB10BD10B5044621464FF4D850EF
:1028500000F0F8FA10BD70B50446FFF7E1FF60EA3A
:102860000400C5B229464FF4A85000F0EBFA70BD41
:1028700070B504460D46290A41F2082202EB4410C5
:1028800000F0E0FAE9B241F2083202EB441000F045
:10289000D9FA70BD70B504460D4641F2086101EBEE
:1028A0004410294600F0CEFA70BD10B504464FF42E
:1028B000027101EB441000F0DEFA10BD70B5044661
:1028C0000D464FF4027101EB4410294600F0BAFAAC
:1028D00070BD10B504464FF4427101EB441000F096
:1028E000CAFA10BD70B5044600BF42F2080101EB00
:1028F000441000F0C0FA054642F2081101EB441002
:1029000000F0B9FA00EB052085B27DB142F2080172
:1029100001EB441000F0AFFA064642F2081101EB59
:10292000441000F0A8FA00EB052086B2AE42DCD1DC
:10293000304670BD70B5044600BF42F2086101EB3D
:10294000441000F098FA054642F2087101EB441079
:1029500000F091FA00EB052085B27DB142F20861EA
:1029600001EB441000F087FA064642F2087101EBD1
:10297000441000F080FA00EB052086B2AE42DCD1B4
:10298000304670BD2DE9F04104460F46164600253D
:10299000A8462EB9214657A001F052FABDE8F081B1
:1029A00042F2084101EB441000F065FA054642F29C
:1029B000285000F060FA00EB052085B2280200EBF9
:1029C000441000F1100832463946404600F06BFAD8
:1029D000A81985B2EAB2111242F2084202EB441081
:1029E00000F030FAE9B242F2085202EB441000F073
:1029F00029FA00BFD2E72DE9F04104460F461646FA
:102A00000025A8462EB9214642A001F019FABDE8DA
:102A1000F08142F6080101EB441000F02CFA054663
:102A200042F6281000F027FA00EB052085B22802B4
:102A300000EB441000F1100832463946404600F0E1
:102A400032FAA81985B2EAB2111242F6080202EB74
:102A5000441000F0F7F9E9B242F6081202EB441014
:102A600000F0F0F900BFD2E72DE9F04105460E462F
:102A70000027B846002433E0295D41F6087202EBD6
:102A8000441000F0DFF9315D41F6086202EB4410BA
:102A900000F0D8F90020164921F81400134921F854
:102AA0001400B7F5804F07DC285D4FF6FF7101EA8F
:102AB00080200F4921F81400B8F5804F07DC305D05
:102AC0004FF6FF7101EA8020084921F814000848F8
:102AD00030F814000744054830F814008044641CA2
:102AE00040F2B4508442C7DBBDE8F0818000002092
:102AF000700000204348203A20256420556E6578F8
:102B000070656374656431206C656E67746820302D
:102B10000D0A00004348203A20256420556E657850
:102B200070656374656432206C656E67746820300C
:102B30000D0A000010B5002412222146FB48FFF7C1
:102B4000C6FB0A2000F076FE10BD10B5122200214F
:102B5000F748FFF784FB0A2000F050FE10BD08B5CF
:102B6000F248F4490A68026089888180F24909685C
:102B7000C0F80610F1490968C0F80A10F049096860
:102B8000C0F80E10EF490968C0F81210EE4800783E
:102B900010B9EEA001F054F9EB480078022825D1D5
:102BA000FFF7D3FFE2480078D8B9E1484078082819
:102BB00017D1DF488078DC2813D1ECA001F040F970
:102BC000DA48DB49D1F80610C0F80610D849D1F828
:102BD0000A10C0F80A10D649D1F80E10C0F80E102D
:102BE00004E0E7A001F02CF9FFF7A4FFD648007835
:102BF000012822D1F0480078012818D1EFA001F077
:102C00001FF9CA48F149D1F80610C0F80610EF497B
:102C1000D1F80A10C0F80A10EC49D1F80E10C0F82B
:102C20000E10EA49D1F81210C0F8121005E0E8A021
:102C300001F006F9EEA001F003F90120BB49887606
:102C40000021BA48C1760A30FFF7B4FDB7480E300C
:102C5000FFF7A0FDB548801DFFF7D0FDB648FFF790
:102C6000CDFDB548C0780090B348837842780178AC
:102C7000E6A001F0E5F8B148FFF7A5FDAF48C07840
:102C80000090AE48837842780178E7A001F0D8F848
:102C9000AB48FFF787FDAA48C0780090A848837822
:102CA00042780178E8A001F0CBF808BD10B59F4844
:102CB000A0490A68026089888180FFF78DFDC348BA
:102CC0009C490A6802608988818010BD00B587B080
:102CD00001218803FDF7CFFE01211820FDF7BEFE7C
:102CE0004FF40050ADF8180018208DF81B00032099
:102CF0008DF81A0006A9DB48FDF7F4FB4FF480407D
:102D0000ADF8180006A9D748FDF7ECFB4FF40040DA
:102D1000ADF8180006A9D348FDF7E4FB4FF4805046
:102D2000ADF8180010208DF81B0006A9CD48FDF75E
:102D3000D9FB8020ADF8180010208DF81B0003206F
:102D40008DF81A0006A9C848FDF7CCFB8021C648BB
:102D5000FDF775FC4020ADF8180048208DF81B00E9
:102D600003208DF81A0006A9BF48FDF7BBFB082019
:102D7000ADF810000120ADF80C000220ADF80A00FB
:102D80000720ADF814000020ADF80800ADF80400ED
:102D9000ADF812004FF48270ADF806004FF40070E9
:102DA000ADF80E000121B148FDF787FF07B000BD67
:102DB00010B50446012C04D10103AA48FDF73FFCDD
:102DC00005E024B94FF48051A648FDF73AFC10BD48
:102DD00010B50020FFF7ECFF10BD10B50120FFF784
:102DE000E7FF10BD10B580219F48FDF72AFC0220A7
:102DF00000F004FD80219C48FDF721FC4FF4C860E1
:102E000000F018FD10BD10B5044600BF0221974820
:102E1000FDF7D7FF0028F9D021469448FDF77EFF43
:102E200000BF01219148FDF7CCFF0028F9D08F4861
:102E3000FDF776FFC0B210BD10B504462046FFF77F
:102E4000E2FF10BD70B504460D46FFF7C1FFC4F3A5
:102E50000740FFF7F1FFC4F30720FFF7EDFF04F091
:102E6000F801091DC8B2FFF7E7FF2846FFF7E4FFA6
:102E7000FFF7B3FF70BD70B50446FFF7A9FFC4F3B9
:102E80000740FFF7D9FFC4F30720FFF7D5FF04F091
:102E9000F800FFF7D1FF0020FFF7CEFF0546FFF750
:102EA0009CFF284670BD2DE9F04104460F461546AB
:102EB000002615B96EA000F0C3FFFFF789FFC4F329
:102EC0000740FFF7B9FFC4F30720FFF7B5FF04F091
:102ED000F801091DC8B2FFF7AFFF002604E0B85D96
:102EE000FFF7AAFF701C86B2AE42F8DBFFF775FF52
:102EF0002846BDE8F0812DE9F04104460F4615460D
:102F0000002615B960A000F09BFFFFF761FFC4F336
:102F10000740FFF791FFC4F30720FFF78DFF04F090
:102F2000F800FFF789FF0026C0E0000090000020B5
:102F3000AC000020380000203E00002042000020AD
:102F4000460000204A00002056000020CAB9D3C322
:102F5000B6A8D2E5B5C44950D0C5CFA2C5E4D6C302
:102F60005735353030200D0A0000000049502066EA
:102F7000726F6D20454550524F4D200D0A000000E4
:102F8000454550524F4DCEB4C5E4D6C3A3ACCAB9E3
:102F9000D3C3B6A8D2E5B5C44950D0C5CFA2C5E4C5
:102FA000D6C35735353030A3ACB2A2D0B4C8EB4548
:102FB0004550524F4D0D0A005700002049502066E1
:102FC000726F6D2044484350200D0A00EE0000202F
:102FD00044484350D7D3B3CCD0F2CEB4D4CBD0D026
:102FE000A3ACBBF2D5DFB2BBB3C9B9A60D0A0000D2
:102FF000CAB9D3C3B6A8D2E5B5C44950D0C5CFA28B
:10300000C5E4D6C357353530300D0A005735353055
:1030100030204950B5D8D6B73A25642E25642E25E0
:10302000642E25640D0A0000573535303020D7D383
:10303000CDF8D1DAC2EB3A25642E25642E25642E14
:1030400025640D0A00000000573535303020CDF8DA
:10305000B9D83A25642E25642E25642E25640D0AE0
:1030600000000000000C014000100140003800404A
:10307000556E6578706563746564206C656E677401
:103080006820300D0A000000556E65787065637425
:10309000656432206C656E67746820300D0A00002C
:1030A0000020FFF7C9FEB855701C86B2AE42F7DBB0
:1030B000FFF793FE2846BDE8F08110B5FFF731FB1E
:1030C000FFF71AFB01210846FDF7D5FC10BD10B52E
:1030D000FFF7F3FF10BD10B5FFF7EFFF10BD10486D
:1030E0000068401C0E49086008460068B0F57A7F09
:1030F0000BD3002008600B480068401C0949086099
:1031000009480078401C08490870704770B507A04E
:1031100000F096FE002044682546A84770BD0000D8
:10312000580000205C00002060000020CFB5CDB327
:10313000D6D8C6F4D6D02E2E2E2E2E0D0A00000084
:1031400010B504464FF4847101EB44101021FFF7D1
:1031500079FE00BF4FF4847101EB4410FFF78BFE42
:103160000028F7D14FF4027101EB4410FF21FFF763
:1031700069FE10BD2DE9F04704460D4616469946F6
:103180004FF0000805F00F0001280FD005F00F00E8
:1031900002280BD005F00F00032807D005F00F0020
:1031A000042803D005F00F0005283FD12046FFF783
:1031B000C7FF45EA0901082202EB4410FFF742FE6F
:1031C00076B1310A4FF4816202EB4410FFF73AFE08
:1031D000F1B24FF4A16202EB4410FFF733FE13E0AB
:1031E00008F101001FFA80F84FEA18214FF48162BC
:1031F00002EB4410FFF726FE08F0FF014FF4A16236
:1032000002EB4410FFF71EFE4FF4847101EB4410F3
:103210000121FFF717FE00BF4FF4847101EB44104A
:10322000FFF729FE0028F7D1012700E000273846E4
:10323000BDE8F08770B504464FF4427101EB4410CD
:10324000FFF719FE132811D14FF4847101EB4410DC
:103250000221FFF7F7FD00BF4FF4847101EB44102A
:10326000FFF709FE0028F7D1012500E000252846D8
:1032700070BD2DE9F04105460C4616462078FF2822
:1032800008D16078FF2805D1A078FF2802D1E07826
:10329000FF2808D0207828B9607818B9A07808B934
:1032A000E07800B10EB9002755E00127217840F6FB
:1032B000084202EB4510FFF7C5FD617840F6085261
:1032C00002EB4510FFF7BEFDA17840F6086202EB65
:1032D0004510FFF7B7FDE17840F6087202EB4510A4
:1032E000FFF7B0FD310A41F2080202EB4510FFF78B
:1032F000A9FDF1B241F2081202EB4510FFF7A2FD61
:1033000000BF4FF4847101EB4510FFF7B4FD0028B6
:10331000F7D117E04FF4427101EB4510FFF7ABFD19
:10332000172800D116E02846FFF7BFFA00F0080082
:1033300040B14FF4027101EB45100821FFF782FD07
:10334000002707E04FF4427101EB4510FFF793FDB2
:103350001528DFD100BF3846BDE8F08110B504461E
:103360004FF4847101EB44100821FFF76BFD00BF9F
:103370004FF4847101EB4410FFF77DFD0028F7D175
:1033800010BD2DE9F04704460F4615460026B0460D
:10339000B1462046FFF7F9F9A84204DA2046FFF7C4
:1033A000F4F9804600E0A84600BF2046FFF79AFAED
:1033B00081464FF4427101EB4410FFF75CFD064675
:1033C000172E04D01C2E02D04FF0000801E0A945B2
:1033D000EBDB00BF2A4639462046FFF7D3FA4FF40D
:1033E000847101EB44102021FFF72CFD00BF4FF446
:1033F000847101EB4410FFF73EFD0028F7D113E084
:103400004FF4427101EB4410FFF735FD0646172ECD
:103410000AD01C2E08D0DFA000F012FD2046FFF7D6
:103420008FFE0020BDE8F0874FF4027101EB4410DD
:10343000FFF721FD00F010001028E1D14FF40271D8
:1034400001EB44101021FFF7FDFC4FF4027101EB7A
:1034500044101021FFF7F6FC4046E3E72DE9F04168
:1034600004460E4615460027002D15DD2A46314636
:103470002046FFF7C0FA4FF4847101EB441040215D
:10348000FFF7E0FC00BF4FF4847101EB4410FFF73D
:10349000F2FC0028F7D12F463846BDE8F0812DE92F
:1034A000F0470446894616461D46089F4FF000081F
:1034B0002046FFF76AF9B04204DA2046FFF765F9C3
:1034C000804600E0B046287828B9687818B9A8780E
:1034D00008B9E87800B117B94FF0000863E029781F
:1034E00040F6084202EB4410FFF7ACFC697840F666
:1034F000085202EB4410FFF7A5FCA97840F60862D9
:1035000002EB4410FFF79EFCE97840F6087202EBEC
:103510004410FFF797FC390A41F2080202EB44100D
:10352000FFF790FCF9B241F2081202EB4410FFF7EA
:1035300089FC424649462046FFF724FA4FF484713D
:1035400001EB44102021FFF77DFC00BF4FF4847194
:1035500001EB4410FFF78FFC0028F7D112E04FF485
:10356000027101EB4410FFF786FC00F0080048B13F
:103570004FF4027101EB44101821FFF763FC0020A7
:10358000BDE8F0874FF4027101EB4410FFF773FCC4
:1035900000F010001028E2D14FF4027101EB44104A
:1035A0001021FFF74FFC4046EAE72DE9FC5F054696
:1035B0008A4691461E46DDF8308000270024A34647
:1035C000B9F1000F7DDD42F6080101EB4510FFF770
:1035D00052FC044642F6081101EB4510FFF74BFC84
:1035E00000EB0420204484B2200200EB451000F1DF
:1035F000180B082101EB4510FFF73DFC00F0070018
:10360000022804D0032844D0042879D179E0082284
:1036100069465846FFF76FFC04F1080084B29DF834
:10362000000030709DF8010070709DF80200B070CD
:103630009DF80300F0709DF80400A8F800009DF8C4
:10364000050098F8001000EB0120A8F800009DF894
:1036500006709DF8070000EB072087B2200200EB00
:10366000451000F1180B3A4651465846FFF743FC07
:10367000E01984B2210A42F6080202EB4510FFF776
:10368000E1FBE1B242F6081202EB4510FFF7DAFB6C
:103690006BE0062269465846FFF72DFCA01D84B258
:1036A0009DF8000030709DF8010070709DF80200D8
:1036B000B0709DF80300F0709DF804709DF805004F
:1036C00000E063E000EB072087B2200200EB45102A
:1036D00000F1180B3A4651465846FFF70CFCE0192A
:1036E00084B2210A42F6080202EB4510FFF7AAFB5A
:1036F000E1B242F6081202EB4510FFF7A3FB34E0FB
:1037000032E0022269465846FFF7F5FBA01C84B25E
:103710009DF800709DF8010000EB0720801E87B225
:1037200040F2EA50874204DD20A000F089FB00BF90
:10373000FEE7200200EB451000F1180B3A46514617
:103740005846FFF7D8FBE01984B2210A42F6080276
:1037500002EB4510FFF776FBE1B242F6081202EBEE
:103760004510FFF76FFB00E000BF00BF4FF484710E
:1037700001EB45104021FFF765FB00BF4FF484715A
:1037800001EB4510FFF777FB0028F7D13846BDE87D
:10379000FC9F000053454E445F4F4B2070726F6298
:1037A0006C656D0D0A2121210000000064617461C7
:1037B0005F6C656E206F76657220313531340D0A8D
:1037C000000000004FF0E021096921F004014FF0F2
:1037D000E0221161C21700EB5272C2F3C702FE4B26
:1037E0001A701946097801EB4102C2EBC1114FF67C
:1037F000FF7202EAC101F94A118070470146F64A98
:1038000012784A434FF0E0235A6100229A61012264
:103810001A6100BF4FF0E022106900F001021AB1F6
:1038200000F48032002AF5D000224FF0E0231A6124
:103830009A6170470146E94A12884A434FF0E023F3
:103840005A6100229A6101221A6100BF4FF0E02202
:10385000106900F001021AB100F48032002AF5D09C
:1038600000224FF0E0231A619A61704710B50446B8
:1038700004E04FF47A70FFF7DDFF641E002CF8D1EE
:1038800010BD0146302905DB392903DCA1F13000E8
:10389000C0B27047612905DB662903DCA1F157003E
:1038A000C0B2F6E7412905DB462903DCA1F1370068
:1038B000C0B2EEE70846ECE710B50B46002104E085
:1038C000445C9C4200D14254491C445C002CF7D11A
:1038D00010BD30B502460B46002405E012F8010B7E
:1038E000FFF7CFFF04FB030410780028F6D1A0B245
:1038F00030BD30B502460B46002405E012F8010B3E
:10390000FFF7BFFF04FB030410780028F6D1204620
:1039100030BD2DE9F04104460D461646701EC7B273
:1039200020223146284600F0C5F900BF0A2094FB4A
:10393000F0F100FB11403030C2B23846791ECFB2F0
:103940002A540A2094FBF0F080B2041EEEDCBDE89D
:10395000F0812DE9F04104460F46904626460CB111
:10396000207810B90020BDE8F0810BE03078FFF737
:1039700088FF0546002D03DBBD4201DA761C01E01D
:103980000020F0E730780028F0D1B9B22046FFF7E8
:10399000A0FFC8F800000120E5E7014600200A0664
:1039A000100C40EA11207047014600200806C1F3C0
:1039B000072240EA0240C1F3074240EA022040EAFF
:1039C000116070472DE9F04781460E4617461C46A8
:1039D0003146484600F080F90546304600F09AF935
:1039E00005443946484600F077F98246AAEB0500BF
:1039F0001FFA80F842462946204600F07FF9002051
:103A000004F80800BDE8F0872DE9F04188B00646CB
:103A10000F463146684600F084F96C4600251BE0ED
:103A20006FA1204600F086F904462078302809D19D
:103A30006078782806D11021A01CFFF74AFF00F01B
:103A4000FF0805E00A212046FFF743FF00F0FF08CA
:103A500007F8058000246D1C042DE1DB08B0BDE8EB
:103A6000F0811CB5044620215E4800F02AF9E0B23E
:103A7000C4F30721220EC4F30743CDE900105AA175
:103A8000584800F0EDF957481CBD1CB504461021FC
:103A9000584800F016F9E0B2C4F30721220EC4F32F
:103AA0000743CDE9001054A1524800F0D9F951481C
:103AB0001CBDF0B58FB006460F4602AC314602A8D9
:103AC00000F02FF900252AE045A1204600F032F948
:103AD000044614B900200FB0F0BD207830280AD178
:103AE0006078782807D101AA1021A01CFFF731FFC8
:103AF00048B90020EFE701AA0A212046FFF729FF75
:103B000008B90020E7E7019878550198002802DB02
:103B10000198FF2801DD0020DDE700246D1C042D45
:103B2000D2DB0120D7E700B503461846FFF735FF83
:103B300000BD00B503461846FFF736FF00BD10B5BF
:103B400004462046FFF7EFFF10BD10B5044620469F
:103B5000FFF7EFFF10BDF0B502460D46C5F34F0667
:103B6000002400210EE012F811304FF6FF7707EA2B
:103B70000323012707EB4107D75D1F44BBB21C4459
:103B80004F1CB9B2B142EEDB05F001071FB112F8CC
:103B9000113004EB0324A0B200EB1447FF43B8B28A
:103BA000F0BDF1B500246D4600BF30E004F5A06023
:103BB000FFF761F9295D00EA010704F57060FFF77E
:103BC0005AF9064604F5A060FFF755F90640B742DA
:103BD0001CD00120F8BD000062000020640000201D
:103BE0002E000000BE00002025642E25642E2564D2
:103BF0002E256400DE000020253033642E2530336E
:103C0000642E253033642E2530336400641C042C6C
:103C1000CCDB0020F8BD000010B5ADF6080D002487
:103C20000220FEF756FE10B1222835D107E000230E
:103C30001B48028801210220FFF79CFA2CE0022099
:103C4000FEF733FE00F0040018B104210220FEF755
:103C500035FE0220FEF76EFE0446002C1BDD1148E7
:103C6000114B224602A900900220FFF79EFC002182
:103C7000A4F1080002AA115402A90CA000F0E0F877
:103C8000084800880090A4F1080082B2064B02A9FF
:103C90000220FFF704FC00BF00BF0DF6080D10BDA9
:103CA0004E000020540000205000002025730D0A13
:103CB00000000000D2B201E000F8012B491EFBD247
:103CC00070470022F6E710B513460A460446194627
:103CD000FFF7F0FF204610BD30B505462A460B46DB
:103CE00012F8010B13F8014B08B1A042F8D01CB137
:103CF000002802D06D1CF1E7284630BD10B50446FF
:103D000004E00B7800F8013B03B1491C521EF8D2C5
:103D1000204610BD421C10F8011B0029FBD1801A5F
:103D20007047034611F8012B00F8012B002AF9D146
:103D30001846704770B50F4D00B92868002412E08E
:103D40000A4602E09E4203D0521C1378002BF9D1A0
:103D5000DAB2224305D02BB124B1002100F8011BB7
:103D600004E00446401C0678002EE9D12860204675
:103D700070BD0000680000202DE9F05F05460020BE
:103D800092469B4688460646814640241BE02846CC
:103D900041464746224600F042F853465A46C01A6A
:103DA000914110D311461846224600F029F82D1AE9
:103DB00067EB01084F4622460120002100F020F861
:103DC00017EB00094E41201EA4F10104DFDC484638
:103DD00031462A464346BDE8F09F0000064C074D99
:103DE00006E0E06840F0010394E8070098471034CB
:103DF000AC42F6D3FCF7A0F91443000834430008A2
:103E0000202A04DB203A00FA02F10020704791409A
:103E1000C2F1200320FA03F3194390407047202A8F
:103E200004DB203A21FA02F00021704721FA02F364
:103E3000D040C2F12002914008431946704700006B
:103E40000FB4054B10B503A9044A029800F02CF8F2
:103E500010BC5DF814FB0000072200086C00002075
:103E60000FB4084B10B504A902AA039800F01CF87F
:103E7000044602A9002000F048FA204610BC5DF874
:103E800014FB00000B43000802E008C8121F08C121
:103E9000002AFAD170477047002001E001C1121FCB
:103EA000002AFBD1704700002DE9FF4F8DB00F466F
:103EB0000546002606E025280BD0DDE90F129047C5
:103EC0006D1C761C28780028F5D111B03046BDE86D
:103ED000F08F0024A246A1460122EC4900E00443F1
:103EE00015F8013F203B02FA03F00842F7D1287889
:103EF0002A2810D06FF02F022878A0F1300109296C
:103F000014D80AEB8A0102EB410144F0020400EBF1
:103F1000010A6D1CF0E701CF5FEA000A03D544F403
:103F20000054CAF1000A44F002046D1C28782E28BF
:103F300017D115F8010F44F004042A280ED06FF0B1
:103F40002F022878A0F1300109290AD809EB89014C
:103F500002EB410100EB01096D1CF2E757F8049BED
:103F60006D1C28786C280FD006DC4C2817D06828E8
:103F70000DD06A2814D104E0742810D07A280FD10B
:103F80000DE044F400140AE044F4801401E044F429
:103F900040146978814202D104F580146D1C6D1CB7
:103FA0002A786E2A1FD00CDC632A31D004DC002A68
:103FB0008BD0582A11D1A3E0642A68D0692A0CD189
:103FC00065E0732A2ED004DC6F2A73D0702A04D1E6
:103FD0009BE0752A6FD0782A6ED01046DDE90F126B
:103FE0009047761C50E1C4F30250022806D0032803
:103FF00009D0042801CF09D0066045E101CFF117AF
:10400000C0E9006140E101CF06803DE106703BE17F
:1040100017F8040B8DF8000000208DF80100EB4626
:10402000012003E057F804BB4FF0FF3061074FF069
:10403000000102D40DE008F10101884649450FDA7C
:104040008045F8DB1BF808100029F4D108E008F1DE
:10405000010188468142FADB1BF808100029F6D1DD
:10406000DDE90F23AAEB08008146214600F036F96E
:10407000304400EB080604E0DDE90F121BF8010BE9
:104080009047B8F10108F7D221464846F7E00A21E7
:10409000C4F302534FF0000B0891022B04D001CF60
:1040A000C117032B09D00AE0FF1D27F00707F7E827
:1040B000020108E032E01FE020E000B2C117042B4B
:1040C00001D140B2C117031E71F1000307DA4FF0AE
:1040D000000CD0EB0C006CEB01012D2302E023055A
:1040E00004D52B238DF82430012303E0E30701D00E
:1040F0002023F7E7984658E00A2110E010210EE04F
:1041000010204FF0000B08900CE010214FF0000B36
:1041100044F004044FF00809089103E008214FF02F
:10412000000B0891C4F30253022B04D001CF0021ED
:10413000032B06D006E0FF1D27F00707F7E8020172
:1041400003E080B2042B00D1C0B24FF00008230777
:104150002BD5702A07D0DDF820C08CF0100C5CEA5B
:104160000B0C05D00EE040238DF82430012308E02D
:1041700050EA010306D030238DF824308DF8252035
:1041800002239846DDF820C08CF0080C5CEA0B0C8A
:104190000BD150EA010301D1630706D530238DF816
:1041A00024304FF00108A9F10109582A04D038A29F
:1041B0000B9208AA0A920BE03AA2F9E75B46089A2A
:1041C000FFF7DAFD0B9B9B5C0A9A521E0A92137052
:1041D00050EA0102F2D10A98ADEB000000F1200B89
:1041E000600702D524F4803401E04FF00109D9457D
:1041F00002DDA9EB0B0000E0002000EB0B014144C5
:104200000890AAEB010AE00306D4DDE90F2321465A
:10421000504600F063F806444FF0000908E009A991
:1042200011F80900DDE90F12904709F10109761C28
:10423000C145F4DBE0030CD5DDE90F2321465046F0
:1042400000F04CF8064404E0DDE90F1230209047FE
:10425000761C0899481E08900029F5DC08E00A98A9
:104260000A990078491C0A91DDE90F129047761CE3
:10427000BBF10001ABF1010BF1DC21465046DDE959
:104280000F2300F019F806446D1C1BE609280100F5
:1042900030313233343536373839616263646566BC
:1042A000000000003031323334353637383941427E
:1042B00043444546000000002DE9F0410446002536
:1042C0001E461746880404D405E039462020B0472E
:1042D0006D1C641EF9D52846BDE8F0812DE9F0413A
:1042E000044600251E469046C80301D5302700E04D
:1042F0002027880404D505E041463846B0476D1CA8
:10430000641EF9D52846BDE8F0810A68531C0B608D
:104310001070704734430008000000207000000057
:10432000883E0008A44300087000002098080000A0
:10433000983E000800A24A040000000000000000AF
:10434000010203040607080900000000010203043B
:104350000102030406070809020406080202020219
:104360000202020202020202020202020008DC1140
:104370001111C0A80358FFFFFF00C0A8030172720B
:1043800072728813C0A803088813000000000000A0
:10439000000000000000000000000000000000001D
:0443A0000000000019
:0400000508000131BD
:00000001FF
