:020000040800F2
:100000008004002045010008351500083715000858
:100010003B1500083F1500084315000800000000CC
:10002000000000000000000000000000471500086C
:1000300049150008000000004B1500084D15000888
:100040005F0100085F0100085F0100085F01000810
:100050005F0100085F0100085F0100085F01000800
:100060005F0100085F0100085F0100085F010008F0
:100070005F0100085F0100085F0100085F010008E0
:100080005F0100085F0100085F0100085F010008D0
:100090005F0100085F0100085F0100085F010008C0
:1000A0005F0100085F0100085F0100085F010008B0
:1000B0005F0100085F0100085F0100085F010008A0
:1000C0005F0100085F0100085F0100085F01000890
:1000D0005F0100085F0100085F0100085F01000880
:1000E0005F0100085F0100085F0100085F01000870
:1000F0005F0100085F0100085F0100085F01000860
:100100005F0100085F0100085F0100085F0100084F
:100110005F0100085F0100085F0100085F0100083F
:100120005F0100085F0100085F0100085F0100082F
:10013000DFF80CD001F0A8FE00480047D5120008F7
:10014000800400200648804706480047FEE7FEE797
:10015000FEE7FEE7FEE7FEE7FEE7FEE7FEE7FEE777
:1001600047020008310100080CB500200190009002
:100170006C48006840F480306A49086000BF6948F4
:10018000006800F4003000900198401C0190009835
:1001900018B90198B0F5A06FF1D16248006800F479
:1001A000003010B10120009001E000200090009884
:1001B000012843D15C48006840F010005A490860AB
:1001C0000846006820F0030008600846006840F018
:1001D0000200086053484068524948600846406839
:1001E00048600846406840F48060486008464068BF
:1001F00020F47C1048600846406840F4E8104860ED
:100200000846006840F08070086000BF45480068FC
:1002100000F000700028F9D04248406820F0030048
:10022000404948600846406840F00200486000BF0E
:100230003C48406800F00C000828F9D10CBD10B50E
:10024000FFF792FF10BD10B53648006840F001007E
:1002500034490860084640683449084031494860DC
:1002600008460068324908402E4908600846006880
:1002700020F4802008600846406820F4FE004860B2
:100280004FF41F008860FFF7DAFF4FF00060294944
:10029000086010BD10B5002100200022214B5B68D2
:1002A00003F00C0121B1042906D0082928D107E068
:1002B000214B224C236027E01F4B204C236023E07E
:1002C000184B5B6803F47010164B5B6803F48032C4
:1002D000022303EB904022B9194B4343174C236090
:1002E0000DE0104B5B6803F4003323B1144B434320
:1002F000124C236003E0104B4343104C236003E097
:100300000D4B0E4C236000BF00BF064B5B68C3F370
:1003100003130C4CE15C094B1B68CB40074C23607A
:1003200010BD000000100240002002400000FFF855
:10033000FFFFF6FE08ED00E000127A00000000204A
:1003400000093D000400002010B50446CC4884425A
:1003500008D10121042000F02DFB0021042000F031
:1003600029FB46E0C748844208D10121082000F05B
:1003700021FB0021082000F01DFB3AE0C248844226
:1003800008D10121102000F015FB0021102000F001
:1003900011FB2EE0BD48844208D10121202000F04D
:1003A00009FB0021202000F005FB22E0B848844230
:1003B00008D10121402000F0FDFA0021402000F08A
:1003C000F9FA16E0B348844208D10121802000F0F8
:1003D000F1FA0021802000F0EDFA0AE0AE488442F4
:1003E00007D10121801500F0E5FA0021A01500F0E9
:1003F000E1FA10BD10B50121084600F0DBFA00213A
:10040000012000F0D7FA10BD2DE9F0410246002589
:100410000026002000230024002791F803C00CF0E0
:100420000F0591F803C00CF0100CBCF1000F03D0C5
:1004300091F802C04CEA050591F800C0BCF1000F2C
:1004400031D0146800202BE04FF0010C0CFA00F3BF
:10045000B1F800C00CEA03069E4220D183004FF0A1
:100460000F0C0CFA03F7BC4305FA03FC4CEA040436
:1004700091F803C0BCF1280F06D14FF0010C0CFA23
:1004800000FCC2F814C00AE091F803C0BCF1480FA8
:1004900005D14FF0010C0CFA00FCC2F810C0401C52
:1004A0000828D1D31460B1F800C0BCF1FF0F34DDCF
:1004B000546800202EE000F1080C4FF0010808FA03
:1004C0000CF3B1F800C00CEA03069E4221D1830070
:1004D0004FF00F0C0CFA03F7BC4305FA03FC4CEA8F
:1004E000040491F803C0BCF1280F05D100F1080CF9
:1004F00008FA0CF8C2F8148091F803C0BCF1480F58
:1005000007D100F1080C4FF0010808FA0CF8C2F806
:100510001080401C0828CED35460BDE8F0814FF60F
:10052000FF710180022181700421C1707047024671
:10053000002093680B400BB1012000E000207047C1
:100540000146886880B2704702460020D3680B409D
:100550000BB1012000E0002070470146C86880B25E
:10056000704701617047416170470AB1016100E065
:1005700041617047C16070474FF480320A43826125
:100580008161826182698269704702460020434B23
:1005900018684FF68073184040EA021008433F4B3A
:1005A000186070473E49C8617047F0B50A4600239D
:1005B00000240021002500F00046B6F1004F02D1D2
:1005C000364EF16901E0354E7168C0F3034583B2E0
:1005D00000F44016B6F5401F08D121F070612F4E8F
:1005E000766826F070662D4F7E6012E000F480166B
:1005F000B6F5801F06D1032606FA05F4A14341F0A3
:10060000706106E0460D360103FA06F6B14341F08B
:10061000706122B1460D360103FA06F6314300F04F
:100620000046B6F1004F02D11C4EF16101E01B4EB5
:100630007160F0BD30B500228B071C0F0F2303FA49
:1006400004F2164B08338C1053F824309343134CA8
:1006500008348D1044F8253023468C1053F824308C
:100660008C07240F00FA04F423430C4C08348D103B
:1006700044F8253030BD0A49DC310860704700007D
:1006800000080140000C014000100140001401402E
:1006900000180140001C0140002001400000014002
:1006A00000002042DF48006840F00100DD4908609A
:1006B00008464068DC490840DA4948600846006856
:1006C000DA490840D74908600846006820F48020CD
:1006D00008600846406820F4FE0048604FF41F00A0
:1006E00088607047CF49096821F48031CD4A116094
:1006F0001146096821F480211160B0F5803F03D0D4
:10070000B0F5802F0ED106E0C649096841F480316A
:10071000C44A116007E0C349096841F4A021C14AF5
:10072000116000E000BF00BF704710B50146002215
:10073000002300204A11012A02D1BA4C236806E0A6
:10074000022A02D1B74C236A01E0B64C636A01F079
:100750001F02012494401C400CB1012000E0002045
:1007600010BD38B5002000900024002500BF3120C6
:10077000FFF7DBFF05460098401C00900098B0F59D
:10078000A06F01D0002DF2D03120FFF7CEFF08B1CD
:10079000012400E00024204638BD01460020A14A83
:1007A000106820F0F80040EAC10010607047A049CE
:1007B00008607047024600209A4B586820F47C106D
:1007C00042EA01031843974B5860704798490866FE
:1007D000704701460020934A506820F00300084308
:1007E000506070478F48406800F00C007047014629
:1007F00000208C4A506820F0F00008435060704799
:1008000001460020874A506820F4E06008435060A9
:10081000704701460020834A506820F4605040EA47
:10082000C1005060704729B17E4A527A02437D4B25
:100830005A7204E07B4A527A82437A4B5A7270476A
:100840007B49D8310860704701460020754A5068DE
:1008500020F440400843506070470021714A203224
:100860001170704A82F82010012802D004280AD1A1
:1008700004E001216B4A2032117005E00521694A2C
:100880002032117000E000BF00BF70476949086066
:1008900070476449096A0143624A116270476549B9
:1008A00044390860704730B500210022002400233D
:1008B0005C4D6D6805F00C0121B1042905D00829B3
:1008C00023D105E05C4D056022E05B4D05601FE033
:1008D000544D6D6805F47012524D6D6805F4803406
:1008E000022505EB92421CB9544D554305600BE0BF
:1008F0004C4D6D6805F400351DB1504D55430560F4
:1009000002E04D4D5543056002E04B4D056000BFD0
:1009100000BF444D6D6805F0F0010909484D6B5C5E
:100920000568DD4045603F4D6D6805F4E061090AEA
:10093000434D6B5C4568DD4085603A4D6D6805F45C
:100940006051C90A3E4D6B5C4568DD40C560354D60
:100950006D6805F44041890B3A4D6B5CC568B5FB89
:10096000F3F5056130BD29B12E4A526902432D4B82
:100970005A6104E02B4A526982432A4B5A617047FC
:1009800029B1284A92690243264B9A6104E0254A1C
:1009900092698243234B9A61704729B1214AD269F7
:1009A0000243204BDA6104E01E4AD26982431D4BA8
:1009B000DA61704729B11B4AD2680243194BDA60E9
:1009C00004E0184AD2688243164BDA60704729B1B6
:1009D000144A12690243134B1A6104E0114A126966
:1009E0008243104B1A6170471249403908607047C2
:1009F0000F49C86470470B49C87170470948406A7D
:100A000040F0807007494862704701460020054A5F
:100A100092680A400AB1012000E0002070470149B5
:100A200088727047001002400000FFF8FFFFF6FEDA
:100A3000000042428004424200127A0000093D0058
:100A4000140000202400002010B50446BE48844253
:100A500008D101218014FFF7ADFF0021A014FFF79A
:100A6000A9FF16E0B948844208D101210014FFF71C
:100A7000AEFF00212014FFF7AAFF0AE0B448844229
:100A800007D10121C013FFF7A2FF0021E013FFF7F8
:100A90009EFF10BD10B50022028802F441520B885F
:100AA0004C8823438C882343CC8823430C892343DD
:100AB0004C8923438C892343CC8923431A430280E6
:100AC000838B4FF2FF74234083830B8A038210BD14
:100AD0002DE9F04F85B005460C464FF0000902277E
:100AE0004FF000084FF0010B0026B246A88B4FF2E2
:100AF00040010840A88302202884B5F81C90A06813
:100B0000022801D100BF38E0A08810B94FF0010BD6
:100B100001E04FF0020B8D48854200D100E000BF9C
:100B20006846FFF7C0FEDDF800A0E088B0F5007F62
:100B30000AD14FEA1A2000EB80004000A168B0FB08
:100B4000F1F0401D86B20BE04FEA4B10BAFBF0F01B
:100B500000EB80004000A168B0FBF1F0401D86B2C0
:100B60000A20B6FBF0F606F00108A6EB0800C0F379
:100B70004F074FF6FF7000EA0828022F01DBFF2F16
:100B800002DD02274FF00008E08840EA0800384301
:100B90002884A088A18908436188084321880843E4
:100BA00040F4006040EA0909A5F81C9005B0BDE8D2
:100BB000F08F0021018041808180C18001814181CD
:100BC0008181C1810721018270470021018041801C
:100BD0008180C1800221816000218181704721B123
:100BE000028842F04002028004E002884FF6BF73A0
:100BF0001A400280704721B1828B42F48062828366
:100C000004E0828B4FF6FF331A408283704730B581
:100C1000002400230C110125A540ABB21AB1858830
:100C20001D43858002E085889D43858030BD1AB1D3
:100C300083880B43838002E083888B4383807047E3
:100C4000818170470146888970474FF6FF62914263
:100C500004D0028842F48072028004E002884FF6D9
:100C6000FF631A400280704721B1828842F004027B
:100C7000828004E082884FF6FB731A4082807047BE
:100C800002884FF2FF731A40028002880A430280F2
:100C90007047018841F480510180704721B102887A
:100CA00042F40052028004E002884DF6FF731A40BD
:100CB0000280704702460020012901D0108B00E01D
:100CC000908A70470146088A7047B1F5804F04D179
:100CD000028842F48042028004E002884BF6FF73EF
:100CE0001A40028070470246002013890B400BB166
:100CF000012000E000207047CA4302817047F0B530
:100D00000246002000240023002501F00F070126E1
:100D1000BE40B4B20B1101269E40B3B2968806EADB
:100D200003051689264016B10DB1012000E0002010
:100D3000F0BD10B5002201F00F040123A3409AB2C8
:100D4000D343038110BD0000003001400038004053
:100D5000003C004010B50446FB48844209D1012103
:100D60008803FFF727FE00214FF48040FFF722FEA3
:100D700032E0F648844209D101214804FFF727FEFA
:100D800000214FF40030FFF722FE25E0F0488442B6
:100D900009D101218804FFF71AFE00214FF48020B9
:100DA000FFF715FE18E0EB48844209D10121C80481
:100DB000FFF70DFE00214FF40020FFF708FE0BE0C7
:100DC000E548844208D101210805FFF700FE002113
:100DD0004FF48010FFF7FBFD10BD2DE9F04786B002
:100DE00005460E460024A24600BFA1460027B08952
:100DF00000B100BF2F462C8A4CF6FF700440F088EB
:100E000004432C82AC894EF6F3100440B08831893B
:100E10000843718908430443AC81AC8A4FF6FF4014
:100E20000440B0890443AC8201A8FFF73CFDC648EA
:100E3000874202D1DDF810A001E0DDF80CA0A889FE
:100E400000F4004040B10AEBCA0000EB0A10316820
:100E50004900B0FBF1F807E00AEBCA0000EB0A100A
:100E600031688900B0FBF1F86420B8FBF0F00401B0
:100E70002009642101FB1089A88900F4004040B1D9
:100E8000322000EBC900B0FBF1F000F00700044392
:100E900008E0322000EB09106421B0FBF1F000F013
:100EA0000F0004432C8106B0BDE8F0874FF41651C3
:100EB000016000218180C18001810C2141810021DC
:100EC0008181704710B502460020108A4FF2FF035F
:100ED00018400B884C8823438C882343CC882343B9
:100EE0001843108210BD0021018041808180C180A3
:100EF000704721B1828942F40052828104E08289E4
:100F00004DF6FF731A4082817047F0B50346002406
:100F100000260025002040F66A17B94200D100BF24
:100F20001846C1F3421401F01F06012707FA06F51F
:100F3000012C01D10C3004E0022C01D1103000E072
:100F400014301AB107682F43076002E00768AF4307
:100F50000760F0BD1AB1838A0B43838202E0838A63
:100F60008B4383827047028A4FF6F0731A400282E5
:100F7000028A0A430282704782894FF2FF731A4045
:100F8000828182890A438281704721B1828942F03D
:100F90000202828104E082894FF6FD731A40828149
:100FA0007047028A4FF6DF731A400282028A0A43B0
:100FB0000282704721B1028A42F48042028204E038
:100FC000028A4BF6FF731A4002827047C1F308028F
:100FD0008280704701468888C0F308007047818985
:100FE00041F0010181817047028BD2B20283028BF2
:100FF00042EA012202837047028B02F47F4202839D
:10100000028B0A430283704721B1828A42F0200298
:10101000828204E0828A4FF6DF731A408282704730
:1010200021B1828A42F01002828204E0828A4FF665
:10103000EF731A408282704721B1828A42F008021F
:10104000828204E0828A4FF6F7731A4082827047E8
:1010500021B1828942F40042828103E08289C2F395
:101060000E028281704721B1828A42F4006282823C
:1010700004E0828A4FF2FF731A4082827047828AAC
:101080004FF6FB731A408282828A0A43828270473B
:1010900021B1828A42F00202828204E0828A4FF603
:1010A000FD731A408282704702460020B1F5007F2E
:1010B00000D100BF13880B400BB1012000E00020DD
:1010C000704701F40072B2F5007F00D100BFCA433F
:1010D0000280704770B502460024002300250020DE
:1010E00040F66A16B14200D100BFC1F3421501F0CB
:1010F0001F03012606FA03F3012D02D1968933401E
:1011000006E0022D02D1168A334001E0968A334070
:101110000C12012606FA04F41688344013B10CB1FF
:10112000012000E0002070BD10B50022002340F631
:101130006A14A14200D100BF0A1201249440A3B254
:10114000DC43048010BD0000003801400044004032
:1011500000480040004C00400050004000F09CFB64
:101160006649087008460078012803D164A000F0A1
:101170009DFE02E06CA000F099FE00F08AFD5F4940
:10118000087008460078012803D171A000F08EFE97
:1011900002E079A000F08AFE00F027FB00F022FDBB
:1011A00000207F4908600AE07D4800787D497C4A3C
:1011B000126888547A480068401C79490860784869
:1011C00000682028F0DB84E0774800F0B5FB4B494D
:1011D000087008460078402819D10020704908603E
:1011E0000BE071486E4A1268815C70A000F05EFEF0
:1011F0006B480068401C6A490860694800682028FC
:10120000EFDB71A000F052FE77A000F04FFE01214D
:101210007D4800F0BCF9012818D100F00DFB6148B1
:1012200000F05CFB3549087008460078202803D19F
:1012300076A000F03BFE04E03048017878A000F092
:1012400035FE7DA000F032FE00F0CFFA564800F0E7
:1012500072FD7E49087008460078402819D10020A8
:101260004F4908600BE050484D4A1268815C78A0F5
:1012700000F01CFE4A480068401C49490860484884
:1012800000682028EFDB50A000F010FE56A000F010
:101290000DFE4FF40051754800F079F9012818D17E
:1012A00000F0C7FC3F4800F017FD68490870084689
:1012B0000078202803D16EA000F0F8FD04E0634818
:1012C000017871A000F0F2FD76A000F0EFFD00F0D3
:1012D00089FC79E700F07DF900F059FB00F062FD30
:1012E00000F036F975A000F0E1FD7EA000F0DEFD13
:1012F00085A000F0DBFDFFF731FF00002800002093
:101300000D0A204E524631D3EB4D4355C1ACBDD3EF
:10131000B3C9B9A6A3A120B0B44B31B7A2CBCDCAF3
:10132000FDBEDD200D0A00000D0A204E524631D3CD
:10133000EB4D4355C1ACBDD3CAA7B0DCA3A1C7EBED
:10134000D6D8D0C2BCECB2E9C1ACCFDF200D0A00C8
:101350000D0A204E524632D3EB4D4355C1ACBDD39E
:10136000B3C9B9A6A3A120B0B44B32B7A2CBCDCAA2
:10137000FDBEDD200D0A00000D0A204E524632D37C
:10138000EB4D4355C1ACBDD3CAA7B0DCA3A1C7EB9D
:10139000D6D8D0C2BCECB2E9C1ACCFDF200D0A0078
:1013A0002C00002040000020600000200D0A204E8C
:1013B000524631BDD3CAD5B5C4CAFDBEDDCEAAA33F
:1013C000BA2564200D0A00000D0A20B0B44B31BCD0
:1013D000FCCAB9D3C34E524631B7A2CBCDCAFDBE6B
:1013E000DD200D0A000000000D0A20B0B44B32BC15
:1013F000FCCAB9D3C34E524632B7A2CBCDCAFDBE4A
:10140000DD200D0A00000000000801400D0A20B791
:10141000A2CBCDCAFDBEDDB3C9B9A6200D0A00001E
:101420000D0A20B7A2CBCDCAFDBEDDCAA7B0DC2015
:1014300020202564200D0A000D0A20BDF8C8EBBD50
:10144000D3CAD5C4A3CABD200D0A000029000020BC
:101450000D0A204E524632BDD3CAD5B5C4CAFDBE10
:10146000DDCEAAA3BA2564200D0A000000100140B9
:101470000D0A204E524632B7A2CBCDCAFDBEDDB317
:10148000C9B9A6200D0A00000D0A204E524632B7F7
:10149000A2CBCDCAFDBEDDCAA7B0DC2020202564CA
:1014A000200D0A000D0A204E52463220BDF8C8EB2E
:1014B000BDD3CAD5C4A3CABD200D0A000D0A20D5CC
:1014C000E2CAC7D2BBB8F6204E524632344C303155
:1014D00020CEDECFDFB4ABCAE4CAB5D1E9200D0A15
:1014E000000000000D0A20D5E2CAC7CEDECFDFB46F
:1014F000ABCAE420D6F7BBFAB6CB20B5C4B7B4C0AC
:10150000A1D0C5CFA20D0A000D0A202020D5FDD400
:10151000DABCECB2E24E5246D3EB4D4355CAC7B7E4
:10152000F1D5FDB3A3C1ACBDD3A1A3A1A3A1A30DCC
:101530000A000000704700BFFEE700BFFEE700BFE3
:10154000FEE700BFFEE77047704770477047000036
:1015500008B501210420FFF713FA0120ADF80000BF
:1015600004208DF8030069461348FEF74DFF012162
:101570001020FFF705FA4FF40050ADF800000420EA
:101580008DF8030069460D48FEF73EFF08BD70B5B3
:1015900004460D4629462046FEF7C9FF012808D11A
:1015A00000BF29462046FEF7C2FF0028F9D00120DF
:1015B00070BD0020FCE70000000801400010014061
:1015C00001B502E00098401E009000980028F9D173
:1015D00008BD00B587B001211420FFF7D1F9012122
:1015E0000803FFF7CDF92020ADF8180018208DF87A
:1015F0001B0001208DF81A0006A9FE48FEF704FF23
:101600004020ADF8180018208DF81B0001208DF83F
:101610001A0006A9F748FEF7F7FE8020ADF818007B
:1016200018208DF81B0001208DF81A0006A9F1483A
:10163000FEF7EAFE4020ADF8180010208DF81B00E0
:1016400001208DF81A0006A9EB48FEF7DDFE2020E8
:10165000ADF8180010208DF81B0001208DF81A003D
:1016600006A9E548FEF7D0FE1020ADF81800482086
:101670008DF81B0001208DF81A0006A9DE48FEF740
:10168000C3FE4021DC48FEF76CFF1020ADF81000CF
:101690000020ADF80C00ADF80A000720ADF81400EA
:1016A0000020ADF80800ADF80400ADF812004FF4CA
:1016B0008270ADF806004FF40070ADF80E0001A97D
:1016C000CE48FFF7E7F90121CC48FFF788FA07B0C9
:1016D00000BD10B5044600BF0221C848FFF703FB58
:1016E0000028F9D02146C548FFF7AAFA00BF01211A
:1016F000C248FFF7F8FA0028F9D0C048FFF7A2FA6D
:10170000C0B210BD70B505460C462021BA48FEF7A0
:101710002AFF4021B848FEF726FF2846FFF7D9FFE9
:1017200006462046FFF7D5FF4021B348FEF719FFD4
:10173000304670BD70B504462021AF48FEF713FF58
:101740004021AD48FEF70FFF2046FFF7C2FFFF2004
:10175000FFF7F0FF05464021A748FEF702FF2846A5
:1017600070BD2DE9F04107460C4615462021A248E0
:10177000FEF7F9FE4021A048FEF7F5FE3846FFF7D8
:10178000A8FF8046002605E014F8010BFFF7A1FF33
:10179000701CC6B2AE42F7DB40219748FEF7E1FE6F
:1017A0004046BDE8F0812DE9F04107460D4616465A
:1017B00020219148FEF7D7FE40218F48FEF7D3FE47
:1017C0003846FFF786FF8046002405E0FF20FFF73C
:1017D00080FF2855601CC4B2B442F7DB4021864824
:1017E000FEF7BFFE4046BDE8F08110B520218248DB
:1017F000FEF7B9FE052282492A20FFF7B2FF012138
:101800002120FFF77FFF01212220FFF77BFF282106
:101810002520FFF777FF20213120FFF773FF0F21ED
:101820002620FFF76FFF0F212020FFF76BFF2021FD
:101830007148FEF796FE10BD10B520216E48FEF7E8
:1018400092FE05226F493020FFF78BFF05226C497D
:101850002A20FFF786FF01212120FFF753FF0121F6
:101860002220FFF74FFF1A212420FFF74BFF2821EA
:101870002520FFF747FF0F212620FFF743FF0E210A
:101880002020FFF73FFF20215B48FEF76AFE4FF65E
:10189000FF70FFF795FE10BD1FB55BA103C9CDE931
:1018A0000201052202A93020FFF75BFF05226946ED
:1018B0001020FFF778FF002406E01DF80400C2287E
:1018C00000D003E0601CC4B2052CF6DB00BF052C81
:1018D00002D1012004B010BD0020FBE770B5054621
:1018E00020214548FEF73FFE20222946A020FFF791
:1018F00038FF20214048FEF734FE00BF10213E484B
:10190000FEF715FE0028F9D10720FFF713FF044664
:1019100021462720FFF7F6FEFF21E120FFF7F2FE28
:1019200004F0100008B1102070BD04F0200008B1D0
:101930002020F9E70020F7E770B5054620212E4862
:10194000FEF70FFE1BE020212B48FEF70CFE0720C0
:10195000FFF7F0FE044621462720FFF7D3FE04F0F0
:10196000400050B1202229466120FFF71CFFFF21D3
:10197000E220FFF7C7FE402070BD0020FCE71021E9
:101980001D48FEF7D4FD0028DDD00020F4E700B5A7
:1019900087B001211820FEF7F3FF01218803FEF72D
:1019A000FCFF4FF40050ADF8180018208DF81B0014
:1019B00001208DF81A0006A91548FEF725FD4FF401
:1019C0008040ADF8180018208DF81B0001208DF81C
:1019D0001A0006A90E48FEF717FD4FF40040ADF8B7
:1019E000180018208DF81B0001208DF81A0006A998
:1019F00007480FE00008014000100140003001409E
:101A00003500002030000020C2C2C2C2C200000067
:101A1000000C0140FEF7F8FC4FF48070ADF81800A0
:101A200010208DF81B0001208DF81A0006A9D84857
:101A3000FEF7EAFC8020ADF8180010208DF81B009E
:101A400001208DF81A0006A9D248FEF7DDFC4FF4FC
:101A50008050ADF8180048208DF81B0001208DF84B
:101A60001A0006A9CA48FEF7CFFC4FF48071C84897
:101A7000FEF777FD1020ADF810000020ADF80C0047
:101A8000ADF80A000720ADF814000020ADF80800FA
:101A9000ADF80400ADF812004FF48270ADF8060006
:101AA0004FF40070ADF80E0001A9BB48FEF7F2FF3D
:101AB0000121B948FFF793F807B000BD10B50446FF
:101AC00000BF0221B448FFF70EF90028F9D02146E3
:101AD000B148FFF7B5F800BF0121AF48FFF703F9A0
:101AE0000028F9D0AC48FFF7ADF8C0B210BD70B512
:101AF00005460C468021A748FEF735FD4FF480715E
:101B0000A348FEF730FD2846FFF7D8FF06462046DB
:101B1000FFF7D4FF4FF480719D48FEF722FD304659
:101B200070BD70B5044680219A48FEF71CFD4FF445
:101B300080719748FEF717FD2046FFF7BFFFFF2093
:101B4000FFF7EFFF05464FF480719148FEF709FD5E
:101B5000284670BD2DE9F04107460C461546802108
:101B60008C48FEF700FD4FF480718948FEF7FBFCBE
:101B70003846FFF7A3FF8046002605E014F8010B66
:101B8000FFF79CFF701CC6B2AE42F7DB4FF48071CA
:101B90007F48FEF7E6FC4046BDE8F0812DE9F041C4
:101BA00007460D46164680217A48FEF7DCFC4FF4C6
:101BB00080717748FEF7D7FC3846FFF77FFF8046F5
:101BC000002405E0FF20FFF779FF2855601CC4B210
:101BD000B442F7DB4FF480716D48FEF7C2FC40461B
:101BE000BDE8F08110B520216A48FEF7BCFC052253
:101BF0006A492A20FFF7AEFF01212120FFF777FF76
:101C000001212220FFF773FF28212520FFF76FFF16
:101C100020213120FFF76BFF0F212620FFF767FF00
:101C20000F212020FFF763FF80215A48FEF799FC1F
:101C300010BD10B580215748FEF795FC0522584984
:101C40003020FFF787FF052254492A20FFF782FF43
:101C500001212120FFF74BFF01212220FFF747FF41
:101C60001A212420FFF743FF28212520FFF73FFFFB
:101C70000F212620FFF73BFF0E212020FFF737FF23
:101C800080214448FEF76DFC4FF6FF70FFF798FC8B
:101C900010BD1FB5AFF2902103C9CDE902010522A5
:101CA00002A93020FFF756FF052269461020FFF7F2
:101CB00075FF002406E01DF80400C22800D003E0F0
:101CC000601CC4B2052CF6DB00BF052C02D101203C
:101CD00004B010BD0020FBE770B5054680212D48FB
:101CE000FEF741FC20222946A020FFF733FF802188
:101CF0002848FEF736FC00BF4FF480512448FEF719
:101D000016FC0028F8D10720FFF70BFF04462146F8
:101D10002720FFF7ECFEFF21E120FFF7E8FE04F0AB
:101D2000100008B1102070BD04F0200008B1202080
:101D3000F9E70020F7E770B5054680211548FEF762
:101D400010FC1BE080211348FEF70DFC0720FFF775
:101D5000E8FE044621462720FFF7C9FE04F04000B4
:101D600050B1202229466120FFF718FFFF21E22011
:101D7000FFF7BDFE402070BD0020FCE74FF480510E
:101D80000348FEF7D4FB0028DCD00020F3E7000076
:101D9000000C0140001001400038004035000020D8
:101DA0003000002000B585B001210420FEF7E8FDD9
:101DB00001218803FEF7E4FD18208DF813004FF48D
:101DC0000070ADF8100003208DF8120004A921481E
:101DD000FEF71AFB04208DF813000002ADF8100086
:101DE00004A91C48FEF710FB4FF4E13000900020DE
:101DF000ADF80400ADF80600ADF80800ADF80C0031
:101E00000C20ADF80A0069461348FEF7E6FF0121F1
:101E10001148FFF76EF805B000BD70B504460D46D9
:101E2000E1B20D48FFF7D2F800BF80210A48FFF762
:101E30003BF90028F9D0204670BD10B5044600BF1C
:101E400020210548FFF730F90028F9D00248FFF7B4
:101E5000C1F810BD000801400038014030B50B4604
:101E6000014600202022012409E021FA02F59D42CA
:101E700005D303FA02F5491B04FA02F52844151E9E
:101E8000A2F10102F1DC30BD064C074D06E0E0682E
:101E900040F0010394E8070098471034AC42F6D3B1
:101EA000FEF74AF940200008602000080FB4054BF7
:101EB00010B503A9044A029800F018F810BC5DF8A8
:101EC00014FB00001B1E00083C00002002E008C8B4
:101ED000121F08C1002AFAD170477047002001E0A4
:101EE00001C1121F002AFBD1704700002DE9FF4FEE
:101EF00089B09B460446002506E025280BD05A46AB
:101F00000B999047641C6D1C20780028F5D10DB00A
:101F10002846BDE8F08F0027B8460122474900E077
:101F2000074314F8013F203B02FA03F00842F7D1BF
:101F300020782E2819D114F8010F47F004072A2819
:101F40000ED06FF02F022078A0F1300109290CD8B3
:101F500008EB880102EB410100EB0108641CF2E789
:101F60000A98641C50F8048B0A9020780028CED080
:101F7000642808D0692806D075281ED05A460B99C7
:101F800090476D1C58E00A994FF00A0901C90A915F
:101F9000002802DA40422D2102E0390504D52B2128
:101FA0008DF82010012103E0F90704D02021F7E784
:101FB0008A4608AE0DE00021FAE70A994FF00A09B7
:101FC00001C90A91F7E74946FFF748FF303106F8A3
:101FD000011D0028F7D1ADEB060000F120097807BC
:101FE00001D44FF00108C84502DDA8EB090000E06C
:101FF00000208046002706E008A85A46C05D0B99DD
:1020000090476D1C7F1C5745F6DB04E030205A4694
:102010000B9990476D1CB8F10001A8F10108F5DC9F
:1020200005E016F8010B5A460B9990476D1CB9F163
:102030000001A9F10109F4DC641C65E7092801002D
:10204000602000080000002040000000CC1E0008B6
:10205000A02000084000002040040000DC1E000812
:1020600000A24A0400000000000000000102030476
:10207000060708090000000001020304010203042E
:10208000060708090204060800000000000000001E
:102090003443101001344310100100000000000010
:0400000508000131BD
:00000001FF
