:020000040800F2
:10000000484A002045010008D51B0008D71B0008FE
:10001000DB1B0008DF1B0008E31B000800000000DA
:10002000000000000000000000000000E71B0008C6
:10003000E91B000800000000EB1B0008ED1B000896
:100040005F0100085F0100085F010008EF1B000866
:100050005F0100085F0100085F0100085F01000800
:100060005F0100085F0100085F0100085F010008F0
:100070005F0100085F0100085F0100085F010008E0
:100080005F0100085F0100085F0100085F010008D0
:100090005F0100085F0100085F0100085F010008C0
:1000A0005F0100085F0100085F0100085F010008B0
:1000B0005F0100085F0100085F0100085F010008A0
:1000C0005F0100085F0100085F0100085F01000890
:1000D0005F0100085F0100085F0100085F01000880
:1000E0005F0100085F0100085F0100085F01000870
:1000F0005F0100085F0100085F0100085F01000860
:100100005F0100085F0100085F0100085F0100084F
:100110005F0100085F0100085F0100085F0100083F
:100120005F0100085F0100085F0100085F0100082F
:10013000DFF80CD004F050FC004800471D1B0008FD
:10014000484A00200648804706480047FEE7FEE789
:10015000FEE7FEE7FEE7FEE7FEE7FEE7FEE7FEE777
:1001600047020008310100080CB500200190009002
:100170006C48006840F480306A49086000BF6948F4
:10018000006800F4003000900198401C0190009835
:1001900018B90198B0F5A06FF1D16248006800F479
:1001A000003010B10120009001E000200090009884
:1001B000012843D15C48006840F010005A490860AB
:1001C0000846006820F0030008600846006840F018
:1001D0000200086053484068524948600846406839
:1001E00048600846406840F48060486008464068BF
:1001F00020F47C1048600846406840F4E8104860ED
:100200000846006840F08070086000BF45480068FC
:1002100000F000700028F9D04248406820F0030048
:10022000404948600846406840F00200486000BF0E
:100230003C48406800F00C000828F9D10CBD10B50E
:10024000FFF792FF10BD10B53648006840F001007E
:1002500034490860084640683449084031494860DC
:1002600008460068324908402E4908600846006880
:1002700020F4802008600846406820F4FE004860B2
:100280004FF41F008860FFF7DAFF4FF00060294944
:10029000086010BD10B5002100200022214B5B68D2
:1002A00003F00C0121B1042906D0082928D107E068
:1002B000214B224C236027E01F4B204C236023E07E
:1002C000184B5B6803F47010164B5B6803F48032C4
:1002D000022303EB904022B9194B4343174C236090
:1002E0000DE0104B5B6803F4003323B1144B434320
:1002F000124C236003E0104B4343104C236003E097
:100300000D4B0E4C236000BF00BF064B5B68C3F370
:1003100003130C4CE15C094B1B68CB40074C23607A
:1003200010BD000000100240002002400000FFF855
:10033000FFFFF6FE08ED00E000127A00000000204A
:1003400000093D000400002031490143314A116099
:10035000704770B5002100230F22C47804B32D4CE0
:10036000246804F4E064C4F5E064210AC1F10403E4
:10037000CA40447804FA03F1847814402143090107
:10038000254C0678A155047804F01F050124AC40E3
:1003900005786D11AD0005F1E025C5F8004109E0D3
:1003A000047804F01F050124AC401C4D067876113A
:1003B00045F8264070BD1A4A0A400243154B1B1FE0
:1003C0001A60704739B1134A121D12680243114B6B
:1003D0001B1D1A6006E00F4A121D126882430D4B66
:1003E0001B1D1A607047042808D14FF0E0210969ED
:1003F00041F004014FF0E022116107E04FF0E021ED
:10040000096921F004014FF0E022116170470000FA
:100410000000FA050CED00E000E400E080E100E0FF
:1004200080FFFF1F10B5012000F01AFF002000F030
:1004300017FF10BD2A49086070472949091F086045
:100440007047274984310860704701460020254ADB
:1004500010884FF67F4210400843224A10807047B0
:10046000014600201F4A10884FF680721040084352
:100470001C4A1080704708B500220092194A2C3A95
:100480000092009A02440092009A116008BD08B5DB
:1004900001460020009013482C3800900098084432
:1004A00000900098008808BD0D489C300068C0B2DC
:1004B00070470C480830008840F0010009490831B5
:1004C000088070470648A0300068C0B270470548F1
:1004D0000830008840F00200024908310880704767
:1004E00004860D422C6C004030B943F2DB028100DF
:1004F000A1F1C0410A6005E043F2D2028100A1F1FE
:10050000C0410A606FF07042411C8900A1F1C041F6
:100510000A608100A1F1C041C1F804217047102890
:100520000AD118214FF020421166402151664FF048
:10053000FC319166D16610E01821F74A1160402124
:100540004FF02042C2F884104FF0FC31F24A0832DA
:1005500011604FF02042C2F88C1070471820EE490D
:100560002031086000200906C1F8A4004FF0FC30DB
:10057000E94928310860091D0860091D08607047B5
:10058000D0E901121143C268114302691143426963
:10059000114382691143C2691143026A1143426ADD
:1005A0001143826A1143C26A1143026B114302680C
:1005B0009200A2F1C0421160816808290BD1016844
:1005C0008900A1F1C041096841F040020168890039
:1005D000A1F1C0410A60416B0968426B526841EA6F
:1005E0000211426B926841EA0221426B928941EA10
:1005F0000241426B128A41EA0251426B127D41EA8A
:100600000261426B926911430268521C9200A2F18E
:10061000C0421160C16AB1F5804F1BD1816B09687E
:10062000826B526841EA0211826B926841EA0221B0
:10063000826B128A41EA0251826B127D41EA0261A9
:10064000826B9269114302689200A2F1C042C2F823
:10065000041107E06FF0704201688900A1F1C04108
:10066000C1F80421704730B50021002200234468FE
:1006700044F0080485682C43C5682C4305692C4365
:10068000456944EA4524856944EA4531C4692468DA
:10069000C5696D6844EA0524C5692D8944EA0544A5
:1006A000C5692D7B44EA0562046A2468056A6D68A1
:1006B00044EA0524056A2D8944EA0544056A2D7B30
:1006C00044EA05630468102C05D14FF020442166EC
:1006D000A266E36608E0904C21604FF02044C4F825
:1006E00088208D4C0C34236030BD016841F010012E
:1006F000426841EA4221826841EA4231864A203218
:100700001160C1680968C268526841EA0221C26882
:10071000128941EA0241C268127B41EA02617E4AC3
:1007200028321160016909680269526841EA0221B0
:100730000269128941EA02410269127B41EA0261BF
:10074000754A2C321160416909684269526841EA70
:1007500002214269128941EA02414269127B41EA5F
:1007600002614FF02042C2F8B010704700210160D2
:100770000221416000218160C160016141618161AC
:10078000C16101624FF480514162490081620021E0
:10079000C16201630F21426B1160426B5160FF2106
:1007A000426B91600F21426BD160426B1161426BD1
:1007B00051610021426B91610F21826B1160826B4C
:1007C0005160FF21826B91600F21826BD160826B3F
:1007D0001161826B51610021826B91617047102120
:1007E0000160002141608160C160016141618161FE
:1007F000FC21C2691160C2695160C2699160C2691D
:10080000D160026A1160026A5160026A9160026AF4
:10081000D16070470021016041608160FC21C268A5
:100820001160C2685160C2689160C268D16002699B
:10083000116002695160026991600269D160426988
:10084000116042695160426991604269D1607047AC
:1008500051B18200A2F1C042126842F0010382004D
:10086000A2F1C042136009E08200A2F1C042126806
:100870002A4B1A408300A3F1C0431A60704799B114
:10088000102808D14FF02042126E42F004024FF0BF
:1008900020431A661DE0204A126842F004024FF01D
:1008A0002043C3F8802014E0102809D14FF02042E3
:1008B000126E1A4BDB1E1A404FF020431A6608E0F6
:1008C000154A1268154BDB1E1A404FF02043C3F83F
:1008D0008020704748B110492031096841F0040177
:1008E0004FF02042C2F8A01009E00B4920310968FE
:1008F0000A4AD21E11404FF02042C2F8A0107047A1
:10090000B9B110280CD14FF02042126E42F04002D3
:100910004FF020431A661FE0800000A0FEFF0F008A
:10092000724A126842F040024FF02043C3F8802020
:1009300012E0102808D14FF02042126E6C4B1A4082
:100940004FF020431A6607E0684A1268684B1A4065
:100950004FF02043C3F88020704701460020102943
:1009600003D14FF02042506F02E0604A1432106809
:10097000704710B5F2B1102807D14FF020435B6EDD
:100980000B434FF02044636632E0B0F5807F08D11E
:10099000564B1B1D1B680B434FF02044C4F884309A
:1009A00026E0524B24331B680B434FF02044C4F81D
:1009B000A4301DE0102807D14FF020435B6E8B431D
:1009C0004FF02044636613E0B0F5807F08D1474BB9
:1009D0001B1D1B688B434FF02044C4F8843007E094
:1009E000424B24331B688B434FF02044C4F8A4309F
:1009F00010BD10B5024600200023102A03D14FF08D
:100A00002044636E09E0B2F5807F03D1374C241D8A
:100A1000236802E0354C2434236803EA01040CB156
:100A2000012000E0002010BD102807D14FF0204227
:100A3000526E8A434FF020435A6613E0B0F5807F30
:100A400008D12A4A121D12688A434FF02043C3F886
:100A5000842007E0254A243212688A434FF020435D
:100A6000C3F8A420704770B502460020002300247C
:100A70000025102A03D14FF02046736E09E0B2F52D
:100A8000807F03D1194E361D336802E0174E24369D
:100A9000336803EA010403EAD10514B10DB1012062
:100AA00000E0002070BD102808D14FF02042526EA7
:100AB00022EAD1024FF020435A6615E0B0F5807F5C
:100AC00009D10A4A121D126822EAD1024FF02043CE
:100AD000C3F8842008E0054A2432126822EAD102D1
:100AE0004FF02043C3F8A42070470000800000A00E
:100AF000BFFF0F0010B50446CC48844208D1012145
:100B0000042000F093FB0021042000F08FFB46E05E
:100B1000C748844208D10121082000F087FB00214A
:100B2000082000F083FB3AE0C248844208D101214A
:100B3000102000F07BFB0021102000F077FB2EE05E
:100B4000BD48844208D10121202000F06FFB002124
:100B5000202000F06BFB22E0B848844208D101213C
:100B6000402000F063FB0021402000F05FFB16E016
:100B7000B348844208D10121802000F057FB0021B6
:100B8000802000F053FB0AE0AE48844207D10121E7
:100B9000801500F04BFB0021A01500F047FB10BDB5
:100BA00010B50121084600F041FB0021012000F0B2
:100BB0003DFB10BD2DE9F041024600250026002036
:100BC00000230024002791F803C00CF00F0591F8D2
:100BD00003C00CF0100CBCF1000F03D091F802C060
:100BE0004CEA050591F800C0BCF1000F31D0146843
:100BF00000202BE04FF0010C0CFA00F3B1F800C01C
:100C00000CEA03069E4220D183004FF00F0C0CFA31
:100C100003F7BC4305FA03FC4CEA040491F803C053
:100C2000BCF1280F06D14FF0010C0CFA00FCC2F801
:100C300014C00AE091F803C0BCF1480F05D14FF091
:100C4000010C0CFA00FCC2F810C0401C0828D1D3DB
:100C50001460B1F800C0BCF1FF0F34DD546800200F
:100C60002EE000F1080C4FF0010808FA0CF3B1F87F
:100C700000C00CEA03069E4221D183004FF00F0C06
:100C80000CFA03F7BC4305FA03FC4CEA040491F8A0
:100C900003C0BCF1280F05D100F1080C08FA0CF8CC
:100CA000C2F8148091F803C0BCF1480F07D100F1DD
:100CB000080C4FF0010808FA0CF8C2F81080401C2C
:100CC0000828CED35460BDE8F0814FF6FF71018053
:100CD000022181700421C170704702460020936890
:100CE0000B400BB1012000E00020704701468868EE
:100CF00080B2704702460020D3680B400BB1012040
:100D000000E0002070470146C86880B2704701616A
:100D10007047416170470AB1016100E0416170476D
:100D2000C16070474FF480320A4382618161826101
:100D300082698269704702460020434B18684FF66B
:100D40008073184040EA021008433F4B1860704718
:100D50003E49C8617047F0B50A46002300240021CF
:100D6000002500F00046B6F1004F02D1364EF16981
:100D700001E0354E7168C0F3034583B200F44016BC
:100D8000B6F5401F08D121F070612F4E766826F02D
:100D900070662D4F7E6012E000F48016B6F5801F5D
:100DA00006D1032606FA05F4A14341F0706106E07E
:100DB000460D360103FA06F6B14341F0706122B1E7
:100DC000460D360103FA06F6314300F00046B6F14F
:100DD000004F02D11C4EF16101E01B4E7160F0BD6D
:100DE00030B500228B071C0F0F2303FA04F2164BB9
:100DF00008338C1053F824309343134C08348D106F
:100E000044F8253023468C1053F824308C07240FE7
:100E100000FA04F423430C4C08348D1044F82530B8
:100E200030BD0A49DC31086070470000000801400D
:100E3000000C014000100140001401400018014066
:100E4000001C014000200140000001400000204241
:100E500010B50121080700F0F6F900214FF080508D
:100E600000F0F1F910BD2A4908627047284908616D
:100E7000704701460020274A106820F0E000084330
:100E8000106070472249A0310860704710B50246D3
:100E90000020204B186820F00300104318601E4B00
:100EA0001B6843F004031C4C2360012901D130BFAF
:100EB00000E020BF184B1B6823F00403164C23608E
:100EC00010BD1448006840F004001249086008464C
:100ED000006840F0020008600F48006840F004001D
:100EE0000D49086000BF00BF30BF704701460020B9
:100EF000084A52680A400AB1012000E00020704709
:100F00000449096841EA8001024A11607047000003
:100F100000000E420070004010ED00E0DF48006865
:100F200040F00100DD49086008464068DC4908409F
:100F3000DA49486008460068DA490840D74908603D
:100F40000846006820F4802008600846406820F4C5
:100F5000FE0048604FF41F0088607047CF49096861
:100F600021F48031CD4A11601146096821F48021B5
:100F70001160B0F5803F03D0B0F5802F0ED106E0B0
:100F8000C649096841F48031C44A116007E0C34989
:100F9000096841F4A021C14A116000E000BF00BF10
:100FA000704710B501460022002300204A11012A93
:100FB00002D1BA4C236806E0022A02D1B74C236A58
:100FC00001E0B64C636A01F01F02012494401C400A
:100FD0000CB1012000E0002010BD38B500200090C9
:100FE0000024002500BF3120FFF7DBFF05460098F5
:100FF000401C00900098B0F5A06F01D0002DF2D0F9
:101000003120FFF7CEFF08B1012400E00024204684
:1010100038BD01460020A14A106820F0F80040EADF
:10102000C10010607047A049086070470246002068
:101030009A4B586820F47C1042EA01031843974BFE
:101040005860704798490866704701460020934AE7
:10105000506820F003000843506070478F48406894
:1010600000F00C007047014600208C4A506820F0C8
:10107000F00008435060704701460020874A5068DE
:1010800020F4E06008435060704701460020834A26
:10109000506820F4605040EAC1005060704729B1A8
:1010A0007E4A527A02437D4B5A7204E07B4A527A5E
:1010B00082437A4B5A7270477B49D8310860704737
:1010C00001460020754A506820F4404008435060B3
:1010D00070470021714A20321170704A82F8201046
:1010E000012802D004280AD104E001216B4A2032F1
:1010F000117005E00521694A2032117000E000BF3F
:1011000000BF70476949086070476449096A014334
:10111000624A11627047654944390860704730B5CA
:1011200000210022002400235C4D6D6805F00C01B5
:1011300021B1042905D0082923D105E05C4D0560C3
:1011400022E05B4D05601FE0544D6D6805F47012A0
:10115000524D6D6805F48034022505EB92421CB9AE
:10116000544D554305600BE04C4D6D6805F400355A
:101170001DB1504D5543056002E04D4D554305608E
:1011800002E04B4D056000BF00BF444D6D6805F0A7
:10119000F0010909484D6B5C0568DD4045603F4D35
:1011A0006D6805F4E061090A434D6B5C4568DD40FC
:1011B00085603A4D6D6805F46051C90A3E4D6B5C1F
:1011C0004568DD40C560354D6D6805F44041890BCB
:1011D0003A4D6B5CC568B5FBF3F5056130BD29B1CF
:1011E0002E4A526902432D4B5A6104E02B4A526940
:1011F00082432A4B5A61704729B1284A92690243B7
:10120000264B9A6104E0254A92698243234B9A61F6
:10121000704729B1214AD2690243204BDA6104E0C8
:101220001E4AD26982431D4BDA61704729B11B4ABD
:10123000D2680243194BDA6004E0184AD26882434C
:10124000164BDA60704729B1144A12690243134BF6
:101250001A6104E0114A12698243104B1A61704707
:1012600012494039086070470F49C86470470B49FC
:10127000C87170470948406A40F080700749486269
:10128000704701460020054A92680A400AB10120D1
:1012900000E000207047014988727047001002404A
:1012A0000000FFF8FFFFF6FE0000424280044242C9
:1012B00000127A0000093D001400002024000020E4
:1012C00029B1504A128802434E4B1A8004E04D4A1D
:1012D000128882434B4B1A8070474A48001D008891
:1012E00040F010004749091D088070474548001D1F
:1012F00000884FF6EF7108404249091D0880704789
:10130000002140481C300188001F008841EA00404D
:10131000704700B50246FFF7E0FF100C394918315D
:101320000880091D0A80FFF7E1FF00BD00B50246F5
:10133000FFF7D3FFC2F30340324908310880091D8B
:101340000A80FFF7D3FF00BD00B50246FFF7C5FFD7
:10135000100C2C4920310880091D0A80FFF7C6FFB8
:1013600000BD00202749103109880907080B2549CD
:10137000143109880843704700BF2248001D0088C7
:1013800000F020000028F8D070471E48001D00889B
:101390004FF6F77108401B49091D088000BF194826
:1013A000001D008800F008000028F8D070470146B2
:1013B0000020144A121D12880A400AB1012000E0E0
:1013C000002070470F49091D098881430D4A121DED
:1013D00011807047014600200A4A121D12880A40F7
:1013E000D0B2084A12880A4012B108B1012000E0C8
:1013F000002070470349091D09888143014A121DD5
:10140000118070470028004010B50446BE48844251
:1014100008D101218014FFF709FF0021A014FFF774
:1014200005FF16E0B948844208D101210014FFF7F6
:101430000AFF00212014FFF706FF0AE0B4488442A7
:1014400007D10121C013FFF7FEFE0021E013FFF7D3
:10145000FAFE10BD10B50022028802F441520B883A
:101460004C8823438C882343CC8823430C89234313
:101470004C8923438C892343CC8923431A4302801C
:10148000838B4FF2FF74234083830B8A038210BD4A
:101490002DE9F04F85B005460C464FF000090227B4
:1014A0004FF000084FF0010B0026B246A88B4FF218
:1014B00040010840A88302202884B5F81C90A06849
:1014C000022801D100BF38E0A08810B94FF0010B0D
:1014D00001E04FF0020B8D48854200D100E000BFD3
:1014E0006846FFF71CFEDDF800A0E088B0F5007F3D
:1014F0000AD14FEA1A2000EB80004000A168B0FB3F
:10150000F1F0401D86B20BE04FEA4B10BAFBF0F051
:1015100000EB80004000A168B0FBF1F0401D86B2F6
:101520000A20B6FBF0F606F00108A6EB0800C0F3AF
:101530004F074FF6FF7000EA0828022F01DBFF2F4C
:1015400002DD02274FF00008E08840EA0800384337
:101550002884A088A189084361880843218808431A
:1015600040F4006040EA0909A5F81C9005B0BDE808
:10157000F08F0021018041808180C1800181418103
:101580008181C18107210182704700210180418052
:101590008180C1800221816000218181704721B159
:1015A000028842F04002028004E002884FF6BF73D6
:1015B0001A400280704721B1828B42F4806282839C
:1015C00004E0828B4FF6FF331A408283704730B5B8
:1015D000002400230C110125A540ABB21AB1858867
:1015E0001D43858002E085889D43858030BD1AB10A
:1015F00083880B43838002E083888B43838070471A
:10160000818170470146888970474FF6FF62914299
:1016100004D0028842F48072028004E002884FF60F
:10162000FF631A400280704721B1828842F00402B1
:10163000828004E082884FF6FB731A4082807047F4
:1016400002884FF2FF731A40028002880A43028028
:101650007047018841F480510180704721B10288B0
:1016600042F40052028004E002884DF6FF731A40F3
:101670000280704702460020012901D0108B00E053
:10168000908A70470146088A7047B1F5804F04D1AF
:10169000028842F48042028004E002884BF6FF7325
:1016A0001A40028070470246002013890B400BB19C
:1016B000012000E000207047CA4302817047F0B566
:1016C0000246002000240023002501F00F07012618
:1016D000BE40B4B20B1101269E40B3B2968806EA12
:1016E00003051689264016B10DB1012000E0002047
:1016F000F0BD10B5002201F00F040123A3409AB2FF
:10170000D343038110BD0000003001400038004089
:10171000003C004010B50446FB48844209D1012139
:101720008803FFF783FD00214FF48040FFF77EFD23
:1017300032E0F648844209D101214804FFF783FDD5
:1017400000214FF40030FFF77EFD25E0F048844291
:1017500009D101218804FFF776FD00214FF4802094
:10176000FFF771FD18E0EB48844209D10121C8045C
:10177000FFF769FD00214FF40020FFF764FD0BE047
:10178000E548844208D101210805FFF75CFD0021EE
:101790004FF48010FFF757FD10BD2DE9F04786B0DC
:1017A00005460E460024A24600BFA1460027B08988
:1017B00000B100BF2F462C8A4CF6FF700440F08821
:1017C00004432C82AC894EF6F3100440B088318972
:1017D0000843718908430443AC81AC8A4FF6FF404B
:1017E0000440B0890443AC8201A8FFF798FCC648C6
:1017F000874202D1DDF810A001E0DDF80CA0A88935
:1018000000F4004040B10AEBCA0000EB0A10316856
:101810004900B0FBF1F807E00AEBCA0000EB0A1040
:1018200031688900B0FBF1F86420B8FBF0F00401E6
:101830002009642101FB1089A88900F4004040B10F
:10184000322000EBC900B0FBF1F000F007000443C8
:1018500008E0322000EB09106421B0FBF1F000F049
:101860000F0004432C8106B0BDE8F0874FF41651F9
:10187000016000218180C18001810C214181002112
:101880008181704710B502460020108A4FF2FF0395
:1018900018400B884C8823438C882343CC882343EF
:1018A0001843108210BD0021018041808180C180D9
:1018B000704721B1828942F40052828104E082891A
:1018C0004DF6FF731A4082817047F0B5034600243D
:1018D00000260025002040F66A17B94200D100BF5B
:1018E0001846C1F3421401F01F06012707FA06F556
:1018F000012C01D10C3004E0022C01D1103000E0A9
:1019000014301AB107682F43076002E00768AF433D
:101910000760F0BD1AB1838A0B43838202E0838A99
:101920008B4383827047028A4FF6F0731A4002821B
:10193000028A0A430282704782894FF2FF731A407B
:10194000828182890A438281704721B1828942F073
:101950000202828104E082894FF6FD731A4082817F
:101960007047028A4FF6DF731A400282028A0A43E6
:101970000282704721B1028A42F48042028204E06E
:10198000028A4BF6FF731A4002827047C1F30802C5
:101990008280704701468888C0F3080070478189BB
:1019A00041F0010181817047028BD2B20283028B28
:1019B00042EA012202837047028B02F47F420283D3
:1019C000028B0A430283704721B1828A42F02002CF
:1019D000828204E0828A4FF6DF731A408282704767
:1019E00021B1828A42F01002828204E0828A4FF69C
:1019F000EF731A408282704721B1828A42F0080256
:101A0000828204E0828A4FF6F7731A40828270471E
:101A100021B1828942F40042828103E08289C2F3CB
:101A20000E028281704721B1828A42F40062828272
:101A300004E0828A4FF2FF731A4082827047828AE2
:101A40004FF6FB731A408282828A0A438282704771
:101A500021B1828A42F00202828204E0828A4FF639
:101A6000FD731A408282704702460020B1F5007F64
:101A700000D100BF13880B400BB1012000E0002013
:101A8000704701F40072B2F5007F00D100BFCA4375
:101A90000280704770B50246002400230025002014
:101AA00040F66A16B14200D100BFC1F3421501F001
:101AB0001F03012606FA03F3012D02D19689334054
:101AC00006E0022D02D1168A334001E0968A3340A7
:101AD0000C12012606FA04F41688344013B10CB136
:101AE000012000E0002070BD10B50022002340F668
:101AF0006A14A14200D100BF0A1201249440A3B28B
:101B0000DC43048010BD0000003801400044004068
:101B100000480040004C00400050004088B000F0F9
:101B2000ECFC204801F0E3FA00211F2001F0E5FA67
:101B30001D4803881D4802880021084600F038FD32
:101B400001F0D8FA00241AA1204600F002FF00F0AC
:101B50005FF801F001FB01F053FF1B4801F0A5FF06
:101B60001EE01A480068012808D1FFF7C9FB0446A7
:101B7000154902F0C8F800201449086001211448F2
:101B800001F0FBFA01280BD101A801F0D4FF01A854
:101B900001F077FF4AF2A5510420FEF76CFC00BF6C
:101BA000DFE7000044000020620000206000002009
:101BB0002020202020202020204248205254432052
:101BC00064656D6F0000000028000020980100206F
:101BD00000080140704700BFFEE700BFFEE700BFFE
:101BE000FEE700BFFEE7704770477047704710B5CB
:101BF0000120FFF7EFFB38B10120FFF7FBFB0120CD
:101C000002490860FFF7B8FB10BD000098010020F2
:101C100000B585B001210420FFF7EEFA0121880309
:101C2000FFF7EAFA18208DF813004FF40070ADF8B2
:101C3000100003208DF8120004A92148FEF7BAFF16
:101C400004208DF813000002ADF8100004A91C4810
:101C5000FEF7B0FF4FF4E13000900020ADF8040033
:101C6000ADF80600ADF80800ADF80C000C20ADF89A
:101C70000A0069461348FFF790FD01211148FFF75C
:101C800018FE05B000BD70B504460D46E1B20D4822
:101C9000FFF77CFE00BF80210A48FFF7E5FE002821
:101CA000F9D0204670BD10B5044600BF202105487C
:101CB000FFF7DAFE0028F9D00248FFF76BFE10BDEF
:101CC00000080140003801402DE9F04180460C46F3
:101CD0001048007820B902F0B9FA01200D490870C7
:101CE0002512E6B2A5F1A101C1EB011202EB4111EF
:101CF00006EB4101A1390802C11700EB5171CF1069
:101D0000054839182022404602F04DFC0020BDE86D
:101D1000F08100005C0000200030180001B502E0F6
:101D20000098401E009000980028F9D108BD08B521
:101D300001216020FFF760FA18208DF803000320CE
:101D40008DF802004FF48040ADF800006946FE486F
:101D5000FEF730FF4FF40040ADF800006946FA4846
:101D6000FEF728FF0120ADF800006946F648FEF7AF
:101D700021FF0220ADF800006946F348FEF71AFF84
:101D80008020ADF800006946F048FEF713FF4FF4DD
:101D90008070ADF800006946EC48FEF70BFF4FF489
:101DA0000070ADF800006946E848FEF703FF4FF405
:101DB0008060ADF800006946E448FEF7FBFE4FF492
:101DC0000060ADF800006946E048FEF7F3FE4FF40E
:101DD0008050ADF800006946DC48FEF7EBFE4FF49A
:101DE0000050ADF800006946D848FEF7E3FE4FF416
:101DF0008040ADF800006946D448FEF7DBFE4FF4A2
:101E00000040ADF800006946D048FEF7D3FE4FF41D
:101E10008070ADF800006946CB48FEF7CBFE4FF46A
:101E20000070ADF800006946C748FEF7C3FE4FF4E6
:101E30008060ADF800006946C348FEF7BBFE18207D
:101E40008DF8030003208DF802008020ADF800001B
:101E50006946BD48FEF7AEFE2020ADF80000694699
:101E6000B948FEF7A7FE1020ADF800006946B64855
:101E7000FEF7A0FE4FF40060ADF800006946B248DE
:101E8000FEF798FE10208DF8030003208DF8020065
:101E90000220ADF800006946AC48FEF78BFE10202A
:101EA0008DF8030003208DF802004FF48050ADF848
:101EB00000006946A448FEF77DFE08BD00B597B056
:101EC0003C2108A802F099FC1C2101A802F095FC15
:101ED00001210802FFF783F90120019004200390FB
:101EE00080060790002002900490059006900890CC
:101EF000099008200A9010200B9000200C900E9062
:101F00000F9010904FF48050119000201290139079
:101F1000149001A81590169008A8FEF731FB012136
:101F20000020FEF795FC17B000BD10B5002404207A
:101F300002F070FF00BF8648008800BF8448008818
:101F400002F062FF04464FF6FF7000EA042402F03C
:101F50005BFF044348F25250844201D1204610BD39
:101F6000D32002F057FF00BF7948008800BF7848AF
:101F7000008802F049FF04464FF6FF7000EA04248F
:101F800002F042FF044349F24130844201D120462D
:101F9000E5E70020E3E710B5FFF7C7FF6D490880CC
:101FA0000846008849F2413188427CD1CF2002F0B6
:101FB00031FF002002F032FF812002F02FFF30209D
:101FC00002F02CFFED2002F025FF642002F026FF36
:101FD000032002F023FF122002F020FF812002F0F4
:101FE0001DFFE82002F016FF852002F017FF1020E9
:101FF00002F014FF782002F011FFCB2002F00AFF5C
:10200000392002F00BFF2C2002F008FF002002F024
:1020100005FF342002F002FF062002F0FFFEF72049
:1020200002F0F8FE202002F0F9FEEA2002F0F2FEB3
:10203000002002F0F3FE002002F0F0FEB12002F0DA
:10204000E9FE002002F0EAFE1B2002F0E7FEB620C7
:1020500002F0E0FE0A2002F0E1FEA22002F0DEFE25
:10206000C02002F0D7FE352002F0D8FEC12002F0D9
:10207000D1FE112002F0D2FEC52002F0CBFE452099
:1020800002F0CCFE452002F0C9FEC72002F0C2FEDD
:10209000A22002F0C3FEF22002F0BCFE002002F0FB
:1020A000BDFE262000E0A2E002F0B4FE012002F016
:1020B000B5FEE02002F0AEFE0F2002F0AFFE2620BB
:1020C00002F0ACFE242002F0A9FE0B2002F0A6FED6
:1020D0000E2002F0A3FE092002F0A0FE542002F020
:1020E0009DFEA82002F09AFE462002F097FE0C20EA
:1020F00002F094FE172002F091FE092002F08EFEFD
:102100000F2002F08BFE072002F088FE002002F074
:1021100085FEE12002F07EFE002002F07FFE192005
:1021200002F07CFE1B2002F079FE042002F076FE15
:10213000102002F073FE072002F070FE2A2002F049
:102140006DFE472008E00000001401400018014027
:10215000000002606600002002F060FE392002F0FC
:102160005DFE032002F05AFE062002F057FE062014
:1021700002F054FE302002F051FE382002F04EFEF4
:102180000F2002F04BFE362002F044FEC82002F081
:1021900045FE2A2002F03EFE002002F03FFE002015
:1021A00002F03CFE002002F039FEEF2002F036FE85
:1021B0002B2002F02FFE002002F030FE002002F063
:1021C0002DFE012002F02AFE3F2002F027FE3A20D9
:1021D00002F020FE552002F021FE112002F01AFE2E
:1021E000FD48FFF79BFD292002F014FEFBE0FB48B1
:1021F000008848F252518842F8D1CF2002F00AFEFE
:10220000002002F00BFEC12002F008FE302002F098
:1022100005FEED2002F0FEFD642002F0FFFD03202C
:1022200002F0FCFD122002F0F9FD812002F0F6FD23
:10223000E82002F0EFFD852002F0F0FD102002F012
:10224000EDFD782002F0EAFDCB2002F0E3FD39201D
:1022500002F0E4FD2C2002F0E1FD002002F0DEFDA2
:10226000342002F0DBFD022002F0D8FDF72002F05E
:10227000D1FD202002F0D2FDEA2002F0CBFD0020AB
:1022800002F0CCFD002002F0C9FDC02002F0C2FD2A
:10229000212002F0C3FDC12002F0BCFD112002F09C
:1022A000BDFDC52002F0B6FD2D2002F0B7FD3320A4
:1022B00002F0B4FD362002F0ADFD002002F0AEFDCC
:1022C0003A2002F0A7FD552002F0A8FDB12002F04F
:1022D000A1FD002002F0A2FD172002F09FFDB62014
:1022E00002F098FD0A2002F099FDA22002F096FD6E
:1022F000F62002F08FFD012002F090FD302002F068
:102300008DFDF22002F086FD002002F087FD2620E0
:1023100002F080FD012002F081FDE02002F07AFD54
:10232000D02002F07BFD002002F078FD022002F0B8
:1023300075FD072002F072FD0B2002F06FFD1A20E0
:1023400002F06CFD312002F069FD542002F066FDC0
:10235000402002F063FD292002F060FD122002F00F
:102360005DFD122002F05AFD122002F057FD1720E9
:1023700002F054FDE12002F04DFDD02002F04EFDB0
:10238000002002F04BFD022002F048FD072002F081
:1023900045FD052002F042FD252002F03FFD2D20E5
:1023A00002F03CFD442002F039FD452002F036FDEC
:1023B0001C2002F033FD182002F030FD162002F040
:1023C0002DFD1C2002F02AFD1D2002F027FD11200A
:1023D00002F020FD8048FFF7A1FC292002F01AFD41
:1023E0002C2002F017FD10BD10B50446072C00DDAF
:1023F00010BD7B480470204604EBD0714910A4EB5B
:10240000410139B9F020774908804FF4A07076492E
:10241000088006E04FF4A07072490880F0207249ED
:102420000880362002F0F6FC6C48008849F2413101
:10243000884205D1082141EA441002F0EFFC0AE08D
:102440006648008848F25251884204D1002141EA8E
:10245000441002F0E3FC2A2002F0DCFC002002F031
:10246000DDFC002002F0DAFC5E490988491EC1F358
:10247000072002F0D3FC5B490978491EC8B202F07C
:10248000CDFC2B2002F0C6FC002002F0C7FC00208F
:1024900002F0C4FC54490988491EC1F3072002F028
:1024A000BDFC51490978491EC8B202F0B7FC2C2086
:1024B00002F0B0FC00BF9BE710B502214B48FEF7CD
:1024C00028FC40F6FF20FFF729FC02214748FEF7D1
:1024D0001EFC40F6FF20FFF721FC10BD10B504469E
:1024E0002CB14FF480514248FEF713FC04E04FF446
:1024F00080513F48FEF70BFC10BD10B5FFF717FCED
:10250000FFF7DCFC0120FFF7E9FFFFF7D5FFFFF73E
:1025100042FD33480078FFF767FF10BD2DE9F04119
:1025200004460D4616461F462A2002F073FC201270
:1025300002F074FCE0B202F071FCA119491EC1F373
:102540000F2002F06BFCA119491EC8B202F066FC14
:102550002B2002F05FFC281202F060FCE8B202F0CF
:102560005DFCE919491EC1F30F2002F057FCE9197F
:10257000491EC8B202F052FCBDE8F08170B50446B5
:102580000D4601231A4629462046FFF7C7FF70BDB6
:1025900070B504460D4600262C2002F03BFC00BF1F
:1025A00003E0284602F03AFC761CA642F9D370BD3F
:1025B0002DE9F04106460F4614461D462B4622469D
:1025C00039463046FFF7AAFF04FB05F009490988A0
:1025D000FFF7DEFFBDE8F081FCBF020066000020CF
:1025E000640000206000002062000020001801400C
:1025F000001401406E00002070B505460C46FE48F0
:10260000008885420CDAFD480088844208DA2146B9
:102610002846FFF7B3FFFA4801880120FFF7B8FF0B
:1026200070BD70B5002400252E2002F0F3FB00BF22
:10263000F448008802F0E8FB044602F0E5FB05469A
:1026400004F478404FF4FC6101EAC401084340EA15
:10265000E52070BD70B504460D4629462046FFF7BB
:102660008DFFFFF7DEFF0646304670BD2DE9FF4FB8
:1026700083B081464FF0000AD3460598A0EB0905C8
:1026800004990698461ACDF8049004980090002DFD
:1026900001DD012705E00DB9002702E04FF0FF370B
:1026A0006D42002E02DD4FF0010806E016B94FF032
:1026B000000802E04FF0FF387642B54201DD2C46BB
:1026C00000E034460020029019E0DDE90010FFF739
:1026D00093FFAA44B344A24505DDAAEB040A01987E
:1026E000384480B20190A34505DDABEB040B0098A4
:1026F000404480B200900298401C80B20290611C5D
:1027000002988842E1DD07B0BDE8F08F2DE9F04185
:1027100004460D4616461F46DDF81880B8F1000F36
:102720000CD03B46324629462046FFF7F7FE06FB13
:1027300007F0B3490988FFF72BFF27E0A019401ED7
:1027400082B22B4629462046FFF790FFE819401E2B
:1027500083B2224629462046FFF788FFE819401E2B
:1027600083B2A019401E82B2E819401E81B22046F1
:10277000FFF77CFFE919491E8BB2A119491E8AB2E5
:10278000A119491E88B22946FFF770FFBDE8F08104
:102790002DE9F05F05460E4691469B4600240FFA50
:1027A00089F70320A0EB49000FFA80FA87E0BBF11C
:1027B000000F40D0A0463BE006EB080291B22A1978
:1027C00090B2FFF719FF06EB080291B22A1B90B2F4
:1027D000FFF712FF321991B2A5EB080290B2FFF792
:1027E0000BFF321B91B2A5EB080290B2FFF704FF7A
:1027F000A6EB080291B22A1B90B2FFF7FDFEA6EBF2
:10280000080291B22A1990B2FFF7F6FE321B91B27C
:1028100005EB080290B2FFF7EFFE321991B205EB1B
:10282000080290B2FFF7E8FE08F101000FFA80F805
:10283000B845C1DD2FE0F21991B22A1990B2FFF725
:10284000DBFEF21991B22A1B90B2FFF7D5FE3219C6
:1028500091B2EA1B90B2FFF7CFFE321B91B2EA1B96
:1028600090B2FFF7C9FEF21B91B22A1B90B2FFF79C
:10287000C3FEF21B91B22A1990B2FFF7BDFE321BC4
:1028800091B2EA1990B2FFF7B7FE321991B2EA1984
:1028900090B2FFF7B1FE601C04B2BAF1000F05DA86
:1028A000A000801D50440FFA80FA07E0E01B800072
:1028B0000A3050440FFA80FA781E07B200BFBC42BB
:1028C0007FF775AFBDE8F09F2DE9F05F8046894640
:1028D0001646A6F120001FFA80FA4B49096889883C
:1028E000494A1268D28801FB02F0C11700EB51710E
:1028F000C1F3C7074448006800680AFB070B424859
:102900000068C38840480068828849464046FFF70F
:1029100005FE2C2002F07EFA002416E0002510E0CF
:102920001BF8040080212941084020B13448008868
:1029300002F074FA03E03548008802F06FFA681C70
:10294000C5B2082DECDB601CC4B2BC42E6DBBDE8BE
:10295000F09F70B504460D46002624E030462A4913
:1029600009688988084424490988884205DD0026C9
:1029700025480068C088204484B22046224909685E
:10298000C98808441D490988884201DD0026A4B28F
:102990002A7821463046FFF797FF6D1C1A480068D9
:1029A0008088304486B228780028D7D170BD70B5B1
:1029B00006460C46154631E03046134909688988B9
:1029C00008440D490988884205DD00260E48006844
:1029D000C088204484B220460B490968C98808444D
:1029E00006490988884201DD0026A4B22A782146DA
:1029F0003046FFF769FF0BE0600000206200002016
:102A00006C00002000000260680000206E000020C2
:102A10006D1CFB4800688088304486B22878002806
:102A2000CAD170BD70B506460C46154624E0204656
:102A3000F3490968C9880844F2490988884205DDD4
:102A40000024EF4800688088304486B23046EC4964
:102A5000096889880844EC490988884201DD002614
:102A6000A4B22A7821463046FFF72EFF6D1CE448B9
:102A70000068C088204484B228780028D7D170BD6F
:102A80002DE9F04389B080468946174610231A463F
:102A900049464046FFF742FD2C2002F0BBF939467B
:102AA00001A8FFF711F9002422E001A810F8146032
:102AB0004FF6FF7000EA0626012000EB440001A952
:102AC000085C064300250FE04FF4004028413040E9
:102AD00020B1CE48008802F0A1F903E0CC4800887C
:102AE00002F09CF9681CC5B2102DEDDB601CC4B26D
:102AF000102CDADB09B0BDE8F0832DE9F041054682
:102B00000F4614461FE028461030BF490988884206
:102B100003DD002507F1100087B238461030B949AF
:102B20000988884201DD002500272688300200EB55
:102B3000262086B2324639462846FFF7A1FF05F126
:102B4000100085B2A41C20780028DCD1BDE8F081FB
:102B50002DE9F04105460C46002648E020787E2805
:102B600025DC3046A649096889880844A6490988B1
:102B7000884205DD0026A2480068C088284485B246
:102B800028469F490968C98808449E49098888429F
:102B900001DD00260025227829463046FFF794FE05
:102BA000974800688088304486B2641C1FE0304635
:102BB000103095490988884203DD002605F1100090
:102BC00085B2284610308F490988884201DD0026E9
:102BD00000252788380200EB272087B23A4629468D
:102BE0003046FFF74DFF06F1100086B2A41C207896
:102BF0000028B3D1BDE8F0812DE9F04105460E462D
:102C0000144648E020787E2825DC28467C4909685F
:102C1000898808447C490988884205DD0025784870
:102C20000068C088304486B2304675490968C98852
:102C3000084474490988884201DD0025002622786D
:102C400031462846FFF740FE6D48006880882844DA
:102C500085B2641C1FE0284610306B490988884201
:102C600003DD002506F1100086B2304610306549BC
:102C70000988884201DD002500262788380200EBFC
:102C8000272087B23A4631462846FFF7F9FE05F17C
:102C9000100085B2A41C20780028B3D1BDE8F081D3
:102CA0002DE9F04106460D4614462CE0284610302A
:102CB00054490988884203DD002506F1100086B2D8
:102CC0003046103050490988884201DD0026002531
:102CD00020787E2809DC227829463046FFF7F4FD6B
:102CE000641C05F1100085B20DE02788380200EB66
:102CF000272087B23A4629463046FFF7C1FE05F144
:102D0000100085B2A41C20780028CFD1BDE8F08146
:102D10002DE9FC4F0C461E464FEA004A9AFBF2FA98
:102D20000AF1010ACDF804A04FEA044A9AFBF6FA28
:102D30000AF1010ACDF800A04FF00009202801DDBA
:102D4000BDE8FC8F00FB04FABAF1000F00D1F7E7F1
:102D500000FB04FABAF5806F00DBF1E702FB06FA2C
:102D6000BAF1000F00D1EBE702FB06FABAF5804F8B
:102D700000DBE5E7274BDDF834A0BAF1000F2BD1DB
:102D800000211FE0002517E0DDF82CA01AF801A0B3
:102D90004FF0800B4BFA05FB0AEA0B0ABAF1000F61
:102DA00002D04FF0010A01E04FF0000A03F801AB36
:102DB00005F1010A1FFA8AF5082DE5DB01F1010A88
:102DC0001FFA8AF104FB00FA4FEAEA7B0AEB5B7B0D
:102DD000B1EBEB0FD6DB36E000212BE0002523E042
:102DE000DDF82CA01AF801A04FF0800B4BFA05FB80
:102DF0000AEA0B0ABAF1000F0ED04FF0010A0DE0FB
:102E00006800002062000020600000206C000020AC
:102E10006E000020484200204FF0000A03F801AB8A
:102E200005F1010A1FFA8AF5082DD9DB01F1010A23
:102E30001FFA8AF104FB00FA4FEAEA7B0AEB5B7B9C
:102E4000B1EBEB0FCADBBC4BBC4F4FF0000C1AE0F0
:102E50004FF0000A4FEA194B00FB0B3ED0460AE048
:102E60000EEB1A4B9BF800B007F808B0DDF804B081
:102E7000DA4408F101089045F2D3DDF800B0D944F6
:102E800017440CF1010CB445E2D3DFF8B0A2CDF841
:102E900030A0DDF830A00AF1010ACDF830A000BF63
:102EA0004EE72DE9F05F81468A4614461D46DDE96E
:102EB0000A6B0027B8462B46224651464846FFF784
:102EC0002DFB2C2001F0A6FF00BF14E04FF00008FE
:102ED0000EE016F8011B594504D19948008801F00D
:102EE0009DFF03E09748008801F098FF08F1010872
:102EF000A045EED37F1CAF42E8D3BDE8F09F2DE99B
:102F0000F04F8FB00646884614469946DDE9185BB7
:102F1000274669E0304638448B490988884204DDF9
:102F2000002608EB09001FFA80F84046484487490C
:102F30000988884201DD0026B0462878802825DDF2
:102F40002746B5F800A04FEA0A2000EB2A201FFA16
:102F500080FA514605A8FEF7B7FE012105AA0E9892
:102F60004B46CDE9002002913A4610210846FFF772
:102F7000CFFE72484B463A464146CDE9000B3046FB
:102F8000FFF78FFFF01986B2AD1C2DE0204604EB51
:102F9000D071C1F34F0728782038C0B20D900023BC
:102FA0006B48C288DDE90D015043694A928850435D
:102FB000C217049000EB5270654A126802EBE00001
:102FC0008DE80B004B463A4618211020FFF7A0FE73
:102FD0005A484B463A464146CDE9000B3046FFF78A
:102FE00060FFF01986B26D1C2878002892D10FB0CE
:102FF000BDE8F08F2DE9F04F8FB080460E461446A5
:103000001F46DDE9185A0E946BE0304620444E49C5
:103010000988884204DD002608EB04001FFA80F8C6
:103020004046384449490988884201DD0026B046B7
:103030002878802825DD0E94B5F800904FEA092005
:1030400000EB29201FFA80F9494604A8FEF73CFE50
:10305000012104AA0D983B46CDE9002002911021E0
:1030600008460E9AFFF754FE34483B46CDE9000A65
:10307000314640460E9AFFF714FFF01986B2AD1C98
:103080002FE0204604EBD071C1F34F010E91287858
:103090002038C0B20C9000232D48C288DDE90C0115
:1030A00050432B4A928800FB02FB4FEAEB700BEB7C
:1030B0005070274A126802EBE0008DE80B003B4697
:1030C000182110200E9AFFF723FE1C483B46CDE93D
:1030D000000A314640460E9AFFF7E3FEF01986B229
:1030E0006D1C2878002890D10FB0BDE8F08F1949E9
:1030F00008607047174800687047124A1080104AED
:10310000118070470F4A128802800D4A12880A8087
:1031100070470C490880704709490880704770B5AE
:103120000446FFF7E7FFC5882B460748028821467B
:103130000020FFF73DFA70BD484200204802002001
:103140006E0000206C000020600000206200002063
:103150004C0000206800002008B501211420FEF773
:103160004BF84FF40050ADF8000004208DF8030038
:1031700069460C48FDF71EFD08BD70B504460D46B6
:1031800029462046FDF7A9FD012808D100BF2946A0
:103190002046FDF7A2FD0128F9D0012070BD0020D6
:1031A000FCE700000010014002460E2A70D2DFE862
:1031B00002F086071019222B353F49535D67727C58
:1031C000FE48405C00F0080008B90020704701206C
:1031D000FCE7FA48405C00F0040008B90020F5E77D
:1031E0000120F3E7F548405C00F0020008B9002038
:1031F000ECE70120EAE7F148405C00F0010008B983
:103200000020E3E70120E1E7EC4B481C185C00F0EC
:10321000080008B90020D9E70120D7E7E74B481C90
:10322000185C00F0040008B90020CFE70120CDE7CA
:10323000E24B481C185C00F0020008B90020C5E70A
:103240000120C3E7DD4B481C185C00F0010008B901
:103250000020BBE70120B9E7D84B481C185C00F000
:10326000080008B90020B1E70120AFE7D34B481CA4
:10327000185C00F0040008B90020A7E70120A5E7CA
:10328000CE4B481C185C00F0020010B900209DE7EE
:1032900015E001209AE7C94B481C185C00F00100BA
:1032A00008B9002092E7012090E7C44B881C185C05
:1032B00000F0080008B9002088E7012086E7002018
:1032C00084E72DE9FF4F83B00C461E466421039826
:1032D00090FBF1F0C0B20290039890FBF1F201FB79
:1032E0001200C0B201900298132806D00298142848
:1032F00003D0002007B0BDE8F08F0298142806D153
:103300000198633000EB40001FFA80F805E0019857
:10331000401E00EB40001FFA80F8A84908F10200A7
:10332000085C00F060094FEA691908F10200085CC6
:1033300000F01F0AB9F1010F03D1AAF10100C7B2D1
:1033400002E00AF11E00C7B20A2C07DA601E9C498F
:10335000095C05980844401E85B208E0A4F10A0003
:10336000984931F8101005980844401E85B2022C87
:1033700003DD002008B1681C85B2BD423CDBE81BC0
:1033800085B20124A3460020009041465846FFF72D
:103390000BFF10B94FF01D0901E04FF01E098749DE
:1033A00011F80800C11700EB11714FEA211A1DE056
:1033B000A5EB090085B20BF1010000F0FF0B5445AD
:1033C00008D10098C043C0B20090009820B9601C9A
:1033D000C4B201E0601CC4B241465846FFF7E4FEA7
:1033E00010B94FF01D0901E04FF01E094D45DFDA1D
:1033F000681CC0B205904FE0781BC7B2019820B995
:10340000632001901320029003E00198401EC0B297
:103410000190A8F103001FFA80F80C24674911F805
:103420000800C11700EB11714FEA211ABAF1000F21
:1034300001D1A34601E04FF00D0B00200090414662
:103440005846FFF7B1FE10B94FF01D0901E04FF0EB
:103450001E091AE0A7EB0900C7B2ABF1010000F0AA
:10346000FF0B009808B9601EC4B2544503D1009800
:10347000C043C0B2009041465846FFF795FE10B9D0
:103480004FF01D0901E04FF01E094F45E2DCA9EBAA
:103490000700401CC0B20590029806F8010B019885
:1034A00006F8010B06F8014B05983070012021E762
:1034B00010B50A46B0F5F86F09DBA0F5F86398B2CD
:1034C0003C2390FBF3F403FB1403D9B20AE0C0F5EC
:1034D000F86398B23C2390FBF3F403FB1403C3F1AD
:1034E0003C03D9B2117010BD10B5002305E011F8EE
:1034F000014B00F8014B5C1CA3B29342F7DB10BDFB
:103500002DE9FC4105460E4617461C460F222EA10A
:103510002046FFF7E9FF01AB3A4631462846FFF760
:10352000D0FE08B9BDE8FC819DF805209DF8041087
:1035300001EBC10303EB011102EB81006946FFF7C8
:10354000B7FF9DF800000A2190FBF1F201FB120089
:10355000214951F82080022241462046FFF7C4FF4E
:103560009DF800000C2190FBF1F201FB12001B49B9
:1035700051F8208002224146A01CFFF7B5FF9DF8BC
:103580000600012805D1022215A1A01DFFF7ACFFFE
:1035900009E09DF80600401E124A52F8201002224F
:1035A000A01DFFF7A1FF9DF807000A2827DD9DF861
:1035B00007000A2190FBF1F00B4917E0B28B0008DD
:1035C000B88E0008C28E0008BCD7D7D3C4EAD5FD98
:1035D000D4C2B3F5D2BB0000D0000020F800002018
:1035E000D5FD0000280100205801002051F820805E
:1035F0000222414604F10A00FFF776FF05E00222AD
:103600007DA104F10A00FFF76FFF9DF80700401E3F
:103610000A2190FBF1F201FB1200784951F8208059
:103620000222414604F10C00FFF75EFF00BF79E77C
:103630002DE9F04104460D46B4F5FA6F03DB40F680
:103640000200844202DD0020BDE8F0810DB10C2DA6
:1036500001DD0020F8E7681E4006010E0F2A01DD9B
:10366000481CC1B208464FEAE17C01EB5C7C4FEAA2
:10367000EC08A4F5FA6C0CEB4C0CC444DFF8808128
:1036800018F80C704FEAE17C01EB5C7C4FEAEC0C23
:10369000A1EBCC0C07FA0CFC0CF080065948405CFE
:1036A000187086B1012905D00B2903D0122901D049
:1036B000152906D140F2FC70844202DA581C0346F8
:1036C00001E0581E034600BFBEE72DE9F84305465A
:1036D000884614461E466B46224641462846FFF75A
:1036E000A7FF10B90020BDE8F883A8F1010040064B
:1036F000070E0F2C01DD781CC7B29DF80000A04218
:1037000008D1414850F8271005223046FFF7ECFE5B
:103710000120E8E70F223DA13046FFF7E5FE9DF8C6
:103720000000A0420BDD384850F827100422B01CDE
:10373000FFF7DAFE9DF80000001BC4B24DE0781CD4
:10374000172801DD0020CEE72F4A781C52F8201000
:103750000422B01CFFF7C8FE0F2C0ADA6B460F22BA
:1037600041462846FFF764FF9DF80000001BC4B2E5
:1037700033E0A8F101002A4911F80090B8F1020FD6
:1037800017D1E91705EB91718910A5EB810181B97A
:10379000642195FBF1F201FB125131B94FF4C8716C
:1037A00095FBF1F201FB125119B909F1010000F08A
:1037B000FF0908F10100C0B280460D2801D14FF089
:1037C00001086B46012241462846FFF731FFA9EB6D
:1037D00004009DF800100844C4B20A2094FBF0F0E5
:1037E0003030B0720A2094FBF0F100FB1140303011
:1037F000F072012077E70000B3F5000028010020F7
:10380000078E0008A08E000870000020C0EBC1A247
:10381000B6ACBBB9D3D0A3BFA3BFCCEC00000000B3
:10382000D48E0008F0B58DB004463022704901A84E
:1038300000F0CAFF6069451E642195FBF1F128463E
:10384000EA1705EB9272C1EBA2014FF4C87295FB27
:10385000F2F28F186069C11700EB91718910A0EB2B
:10386000810191B96422616991FBF2F302FB1311AA
:1038700031B99200616991FBF2F302FB131121B996
:103880002169022901DD012600E0002640F26D10C9
:1038900005FB00712069401E01AA52F8200008446F
:1038A000E16808440644072096FBF0F100FB116034
:1038B000A0610DB0F0BD10B501460869801E086119
:1038C000002805DC08690C3008614869401E486121
:1038D0006423486990FBF3F04A69D31702EB9373B2
:1038E000C0EBA3004FF4C87492FBF4F3034440F21E
:1038F0006F14086960430C2490FBF4F01844CB6803
:10390000034440F26D1402FB04303A4BC01A00EB42
:1039100040008B6803EBC000C0EB00104B6803EB6A
:103920008000C0EB00100B6803EB800010BD2DE998
:10393000F04107460C463048B7FBF0F6B7FBF0F114
:1039400000FB11784FF4616098FBF0F0A0604FF439
:10395000616098FBF0F100FB11803C2190FBF1F0DD
:1039600060604FF4616098FBF0F100FB11803C2136
:1039700090FBF1F201FB1200206040F2B27509E009
:1039800005F0030010B94FF4B77001E040F26D107C
:10399000361A6D1C05F0030010B94FF4B77001E042
:1039A00040F26D10B042EBDD65616069C11700EB5C
:1039B00091718910A0EB810111B91D200F49486058
:1039C000012505E0681E0D4951F82000361A6D1CCE
:1039D000681E0A4951F82000B042F3DD1C204860FF
:1039E0002561701CE0602046FFF71CFFBDE8F081F8
:1039F000E08E00088BFA0A00805101006801002067
:103A000008B54FF4C060FCF79FFC03208DF8000060
:103A100001208DF8010000208DF8020001208DF8B2
:103A200003006846FCF795FC08BD10B501214FF076
:103A3000C050FDF7EEFB0120FDF715FAFCF7F2FC94
:103A40000120FDF75FFB00BF6120FDF7AAFA002807
:103A5000FAD04FF40070FDF758FB0120FDF75BFB37
:103A6000FDF793FCFDF788FC01210846FDF728FCD3
:103A7000FDF782FC49F63F40FDF758FCFDF77CFC62
:103A800010BD70B50446FFF7D0FFFDF775FC20466A
:103A9000FFF7C8FE2046FFF70EFFA0F5E1452846D8
:103AA000FDF737FCFDF768FC70BD10B50446042037
:103AB000FCF7EDFC4AF2A55188420ED0DAA001F0E5
:103AC000B3F9E1A001F0B0F92046FFF7DAFF4AF2BE
:103AD000A5510420FCF7CFFC2AE001214FF0C05093
:103AE000FDF797FB0120FDF7BEF90120FDF70AFB6A
:103AF00000BF6120FDF755FA0028FAD07B20FDF7C2
:103B000050FA18B1D6A001F08FF906E07A20FDF73F
:103B100048FA10B1DBA001F087F9E3A001F084F9C5
:103B2000FDF733FC01210846FDF7CAFBFDF724FC35
:103B3000FDF7A0FB10BD38B504460020009000251D
:103B4000E1A001F071F900BFEF4801F06DF969469D
:103B5000EEA000F05DFE40F2B2710098884204D3FE
:103B600040F2F6710098884204D9E9A0009901F06A
:103B70005BF906E0EFA0009901F056F9009860614A
:103B800000E0E1E700BF00BFF0A001F04DF9694699
:103B9000DEA000F03DFE009810B100980C2804D97A
:103BA000DBA0009901F040F906E0F8A0009901F0CF
:103BB0003BF90098206100E0E6E700BF20690D288E
:103BC00032D2DFE800F0310714080F09100A0B1198
:103BD0000C120D0000BF00BF00BF00BF00BF00BF40
:103BE0001F2521E000BF00BF00BF1E251CE060694B
:103BF000C11700EB91718910A0EB810191B964228A
:103C0000616991FBF2F302FB131131B99200616912
:103C100091FBF2F302FB131121B92169022901DDA5
:103C20001D2500E01C2500BF00BF00BF2946DDA008
:103C300001F0FAF86946B5A000F0EAFD009810B16D
:103C40000098A84204D9B2A0009901F0EDF806E06E
:103C5000E4A0009901F0E8F80098E06000E0E5E7F2
:103C600000BF00BFE5A001F0DFF86946A7A000F0A3
:103C7000CFFD009810B10098172804D9A4A000998E
:103C800001F0D2F806E0EDA0009901F0CDF800981F
:103C9000A06000E0E6E700BF00BFEEA001F0C4F8BE
:103CA00069469AA000F0B4FD009810B100983B2836
:103CB00004D997A0009901F0B7F806E0F5A00099A3
:103CC00001F0B2F80098606000E0E6E700BF00BFD6
:103CD000F6A001F0A9F869468CA000F099FD0098C3
:103CE00010B100983B2804D989A0009901F09CF8F4
:103CF00006E0FEA0009901F097F80098206000E02F
:103D0000E6E700BF38BDF0B5B9B005460C4605F58D
:103D1000E14621463046FFF70AFEA06818B9606800
:103D200008B9206818B1F748006800282CD0227B19
:103D3000217CA38A98B207ABFFF7C3FA9DF81F0056
:103D400000909DF81E309DF81D209DF81C10EEA0DF
:103D500001F06AF8227B217CA38A98B207ABFFF7B7
:103D6000CFFB07A9F2A001F05FF8227B217CA38A98
:103D700098B207ABFFF7A9FC18B107A9ECA001F0B6
:103D800053F80020DF4908606069C01E0C2190FBD9
:103D9000F1F201FB1200EB4951F82070DFF8A8C3E3
:103DA000A3695CF8233094E80700CDE90232CDE93D
:103DB0000410D4E90310CDE900013B462946E3484D
:103DC000626901F031F82A46E1A107A801F03CF848
:103DD000FFF790F9C08800EB400087B207A938468A
:103DE000FEF7B7FDE0680090DEA107A8D4E9043231
:103DF00001F02AF8FFF77EF9C08800EB800087B257
:103E000007A93846FEF7A5FD6069C01E0C2190FB8E
:103E1000F1F201FB1200D84951F820703A46D7A1BF
:103E200007A801F011F8B3E10D0A0D0A205254431E
:103E3000206E6F742079657420636F6E6669677594
:103E40007265642E2E2E2E000D0A0D0A2052544348
:103E500020636F6E666967757265642E2E2E2E0064
:103E60000D0A0D0A20506F776572204F6E20526543
:103E7000736574206F636375727265642E2E2E2EC7
:103E8000000000000D0A0D0A2045787465726E610D
:103E90006C205265736574206F636375727265641C
:103EA0002E2E2E2E000000000D0A204E6F206E6573
:103EB000656420746F20636F6E6669677572652034
:103EC0005254432E2E2E2E000D0A3D3D3D3D3D3DCC
:103ED0003D3D3D3D3D3D3D3DC9E8D6C3CAB1BCE495
:103EE0003D3D3D3D3D3D3D3D3D3D3D3D3D3D3D3D02
:103EF0003D3D3D3D3D3D3D3D3D3D3D3D3D3D3D3DF2
:103F00003D3D3D3D3D0000009091000825640000CE
:103F10000D0AC4FACAE4C8EBB5C4CAFDD7D6CAC7ED
:103F2000A3BA2564A3ACB2BBB7FBBACFD2AAC7F37E
:103F3000000000000A0D20C4EAB7DDB1BBC9E8D615
:103F4000C3CEAAA3BA2564200A0D00000D0A20C71B
:103F5000EBCAE4C8EBD4C2B7DD28506C6561736569
:103F600020536574204D6F6E746873292CB7B6CEDC
:103F7000A75B317E31325DA3ACC7EBCAE4C8EBD797
:103F8000D6B7FBBAF3BBD8B3B50000000A0D20D4F6
:103F9000C2B7DDB1BBC9E8D6C3CEAAA3BA25642097
:103FA0000A0D00000D0A20C7EBCAE4C8EBC8D5C64D
:103FB000DA28506C65617365205365742044617420
:103FC0006573292CB7B6CEA75B317E25645DA3ACA3
:103FD000C7EBCAE4C8EBD7D6B7FBBAF3BBD8B3B5C7
:103FE000000000000A0D20C8D5C6DAB1BBC9E8D66A
:103FF000C3CEAAA3BA2564200A0D00000D0A20C76B
:10400000EBCAE4C8EBCAB1D6D328506C65617365BE
:104010002053657420486F757273292CB7B6CEA7EC
:104020005B307E32335DA3ACC7EBCAE4C8EBD7D6B6
:10403000B7FBBAF3BBD8B3B5000000000A0D20CA25
:10404000B1D6D3B1BBC9E8D6C3CEAAA3BA256420E2
:104050000A0D00000D0A20C7EBCAE4C8EBB7D6D69C
:10406000D328506C6561736520536574204D696E6B
:1040700075746573292CB7B6CEA75B307E35395D74
:10408000A3ACC7EBCAE4C8EBD7D6B7FBBAF3BBD82F
:10409000B3B500000A0D20B7D6D6D3B1BBC9E8D658
:1040A000C3CEAAA3BA2564200A0D00000D0A20C7BA
:1040B000EBCAE4C8EBC3EB28506C65617365205311
:1040C0006574205365636F6E6473292CB7B6CEA7F1
:1040D0005B307E35395DA3ACC7EBCAE4C8EBD7D6FD
:1040E000B7FBBAF3BBD8B3B5000000000A0D20C37C
:1040F000EBB1BBC9E8D6C3CEAAA3BA2564200A0D8A
:1041000000000000340200200D0A20BDF1CCECD0EC
:10411000C2C0FAA3BA25302E326425302E32642C68
:104120002025302E32642C25302E32640D0A0000FA
:104130000D0A20BDF1CCECC5A9C0FAA3BA25730DB8
:104140000A000000B80100209C010020A090000897
:10415000554E49582054696D655374616D70203D0A
:104160002025640044617465203D2025642D25646C
:104170002D25642020200000040200204368696E81
:104180006573652025732079656172202020000009
:10419000FEF7B0FFC08800EB40004004070C07A901
:1041A0003846FEF7D6FB1A49A06951F8202019A11C
:1041B00007A800F049FEFEF79DFFC088C0EBC000D5
:1041C00087B207A93846FEF7C4FB2068009017A104
:1041D00007A8D4E9013200F037FEFEF78BFFC08854
:1041E000C004070C07A93846FEF7B3FB39B0F0BD91
:1041F00004460CE014480068012808D1FDF780F857
:1042000005462146FFF77FFD00200F490860F1E7D2
:10421000E8010020257320202020202020202020BD
:1042200020202020202020202020000054696D65BF
:104230003A202025302E32643A25302E32643A2539
:10424000302E3264202000009801002000B587B095
:1042500001210803FCF7D0FF0121D420FCF7CCFF9B
:104260000120ADF8040003208DF8060010208DF821
:10427000070001A9FE48FCF79DFC2020ADF80400D2
:1042800018208DF8070001A9FA48FCF793FC40209C
:10429000ADF8040001A9F748FCF78CFC8020ADF8CC
:1042A000040001A9F348FCF785FC0121F048FCF764
:1042B0002EFD0820ADF814000120ADF810000220FA
:1042C000ADF80E000720ADF818000020ADF80C0086
:1042D000ADF80800ADF816004FF48270ADF80A0092
:1042E0004FF40070ADF8120002A9E348FDF7B2F8F0
:1042F0000121E148FDF753F907B000BD10B50446B0
:104300002146DEA000F090FD002010BD10B504464F
:104310004FF48050E54908600AE0E4490868411E0E
:10432000E24A116020B90020FFF7E8FFC0B210BDDB
:104330000221D148FDF7B7F90028EED02146CE483A
:10434000FDF75EF94FF48050D84908600AE0D7497C
:104350000868411ED54A116020B90120FFF7CEFF41
:10436000C0B2E4E70121C448FDF79DF90028EED072
:10437000C148FDF747F9C0B2D9E710B500240121C3
:10438000BB48FCF7C6FC0520FFF7C0FF00BFFF20BD
:10439000FFF7BCFF044604F001000028F7D101211B
:1043A000B348FCF7B4FC10BD10B50121B048FCF7D0
:1043B000B0FC0620FFF7AAFF0121AD48FCF7A7FCDF
:1043C00010BD10B50446FFF7EFFFFFF7D6FF012140
:1043D000A748FCF79EFC2020FFF798FFC4F3074096
:1043E000FFF794FFC4F30720FFF790FFE0B2FFF759
:1043F0008DFF01219E48FCF78AFCFFF7BEFF10BD30
:1044000010B5FFF7D1FF01219948FCF782FCC720C6
:10441000FFF77CFF01219648FCF779FCFFF7ADFF21
:1044200010BD70B505460C461646FFF7BDFF0121CD
:104430008F48FCF76EFC0220FFF768FFC4F30740CB
:10444000FFF764FFC4F30720FFF760FFE0B2FFF758
:104450005DFFB6F5807F04DD4FF4807694A000F018
:10446000E3FC03E02878FFF751FF6D1C3000A6F154
:1044700001018EB2F6D101217D48FCF748FCFFF71F
:104480007CFF70BD2DE9F05F07460E4614464FF0E5
:104490000008C146C2460025AB4606F0FF0ACAF135
:1044A0000000C5B22046E11704EB1161C1F30728F3
:1044B000E11704EB11610912A4EB012101F0FF09DE
:1044C000BAF1000F20D1B8F1000F05D122463146D4
:1044D0003846FFF7A6FF64E009E04FF480723146EA
:1044E0003846FFF79EFF06F5807607F580775FEA8E
:1044F0000800A8F1010101F0FF08EED14A4631465B
:104500003846FFF78EFF4CE0B8F1000F18D1A845F0
:1045100010DDA9EB050000F0FF0B2A4631463846B6
:10452000FFF77FFF2E442F445A4631463846FFF7A7
:1045300078FF36E0224631463846FFF772FF30E01A
:10454000601B84B22046E11704EB1161C1F3072818
:10455000E11704EB11610912A4EB012101F0FF093D
:104560002A4631463846FFF75CFF2E442F4409E0C7
:104570004FF4807231463846FFF753FF06F58076D8
:1045800007F580775FEA0800A8F1010101F0FF0854
:10459000EED1B9F1000F04D04A4631463846FFF754
:1045A00040FFBDE8F09F70B505460C461646012158
:1045B0002F48FCF7AEFB0320FFF7A8FEC4F307402B
:1045C000FFF7A4FEC4F30720FFF7A0FEE0B2FFF759
:1045D0009DFE04E0FF20FFF799FE28706D1C30005F
:1045E000A6F101018EB2F5D101212148FCF78FFB24
:1045F00070BD2DE9F041002400250026002701218F
:104600001B48FCF786FB9F20FFF780FEFF20FFF78B
:104610007DFE0546FF20FFF779FE0646FF20FFF7E7
:1046200075FE074601211248FCF771FB280440EA99
:10463000062040EA07042046BDE8F08110B50024BA
:1046400001210B48FCF765FBAB20FFF75FFEFF2065
:10465000FFF75CFEFF20FFF759FEFF20FFF756FE35
:10466000FF20FFF753FE0446012101483AE0000015
:104670000010014000080140003001403C3C2D4644
:104680004C4153482D4552524F522D3E3E535049B6
:10469000B5C8B4FDB3ACCAB1A3A16572726F724361
:1046A0006F6465203D2025640A0000003802002068
:1046B0003C3C2D464C4153482D4552524F522D3EC5
:1046C0003E5350495F464C4153485F5061676557C0
:1046D0007269746520746F6F206C61726765210A5E
:1046E00000000000FCF713FB204610BD10B5044687
:1046F00001213248FCF70DFB0320FFF707FEC4F34E
:104700000740FFF703FEC4F30720FFF7FFFDE0B209
:10471000FFF7FCFD10BD10B5FF20FFF7F7FD10BD42
:1047200010B504464FF480502549086009E024493B
:104730000868411E224A116018B90020FFF7DEFD0B
:1047400010BD02211F48FCF7AEFF0028EFD0214624
:104750001C48FCF755FF4FF480501949086009E0E8
:1047600017490868411E164A116018B90120FFF761
:10477000C5FDE5E701211348FCF795FF0028EFD0C0
:104780001048FCF73FFFDBE710B501210B48FCF7B1
:10479000C0FAB920FFF7BAFD01210848FCF7B7FAC3
:1047A00010BD10B501210548FCF7B3FAAB20FFF7A7
:1047B000ADFD01210148FCF7AAFA10BD001001402F
:1047C000380200200030014040EA01039B0703D07B
:1047D00009E008C9121F08C0042AFAD203E011F840
:1047E000013B00F8013B521EF9D27047D2B201E002
:1047F00000F8012B491EFBD270470022F6E710B5E6
:1048000013460A4604461946FFF7F0FF204610BD3E
:104810000FB400B589B00BA800906A4603480A9906
:1048200000F0D0F809B05DF814FB00003C02002055
:104830002DE9FF5F1D464FF0FF3BD5E9014691464C
:104840005F464FF00008A9697F1C01988847296AD4
:10485000824688470028F6D1BAF1FF3F0CD024F4F5
:10486000C064002E19DD600614D5BAF12B0F09D0F3
:10487000BAF12D0F0ED103E0584604B0BDE8F09F09
:1048800044F48064A9697F1C01988847761E82469B
:10489000002E02DDBAF1300F03D0B9F1000F26D09F
:1048A00032E0A969761E44F400747F1C01988847A1
:1048B0008246002E05DDBAF1780F06D0BAF1580F06
:1048C00003D0B9F1000F10D01EE0B9F1000F02D0F3
:1048D000B9F1100F18D1A969761E24F400747F1C59
:1048E000019888478246102002E0082000E00A2054
:1048F000814609E008FB0908A969761E44F40074A2
:104900007F1C019888478246002E05DD49465046A7
:1049100000F04AF80028EDDAE96901988847A00517
:1049200002D46FF00100A8E7E00725D1600613D597
:10493000600502D5C8F1000000E0404629680A1D64
:104940002A600968220501D5087015E0220701D503
:10495000088011E008600FE02868011D29600068E8
:10496000210502D580F8008006E0210702D5A0F8D5
:10497000008001E0C0F8008038467EE730B50B4685
:10498000014600202022012409E021FA02F59D427F
:1049900005D303FA02F5491B04FA02F52844151E53
:1049A000A2F10102F1DC30BD3A2800D2303820F00B
:1049B0002002412A01D3A2F13700884201D34FF0EF
:1049C000FF307047024B9361024BD36100F032B865
:1049D000A71C0008194A0008064C074D06E0E068CD
:1049E00040F0010394E8070098471034AC42F6D336
:1049F000FBF7A2FBFC9100081C920008094910B5C6
:104A000008784C1C18B1401E0870205C10BD0021B5
:104A10000720ABBE207010BD02490878421C0A7006
:104A200070470000440200200268114413780160BE
:104A300018467047D1600449516104491162002150
:104A40001161114600F00AB8294A0008514A0008CD
:104A5000C0B24FF4F05100F097B900002DE9F34FC8
:104A60008BB04FF0000801F10C000C464FF0010B29
:104A700046460DF1080A01906269012101989047AC
:104A800005002DD0252D2CD0216A8847C0B1626940
:104A9000012101989047216A88470028F7D1411EDB
:104AA00062690198904700E0761CA1690B988847DD
:104AB000216A88470028F7D1E1690B988847DBE72E
:104AC000A1690B9888470746A84201D1761CD3E715
:104AD000E1690B9888477F1C02D1B8F1000F6FD0B5
:104AE00046E1002762693D463946019890472A28E9
:104AF00004D162690121019890470125DFF8849271
:104B00006269012101989047A0F130010A290AD277
:104B10004F45E5DC07EB870100EB4107303FDFD471
:104B200045F01005ECE7E90601D46FF000476C286A
:104B30000AD04C2814D0682815D06A280DD07428C3
:104B40001CD07A281AD01DE0626901210198904793
:104B50006C2802D045F0040514E045F002050DE094
:104B600045F020050AE06269012101989047682814
:104B700002D045F0080505E045F4006562690121B1
:104B800001989047C4E9015765283DD019DC5828A1
:104B90007AD00CDC452837D004DC252826D04128E3
:104BA00031D131E046282FD047282CD12CE05B288A
:104BB00077D0612828D063287CD0642823D15AE09C
:104BC000D0E06F2848D008DC66281DD067281BD0AD
:104BD000692821D06E2816D127E0702845D0732887
:104BE00068D0752847D078280DD14DE0A1690B9881
:104BF0008847054625283FF469AFE1690B98884747
:104C00006D1C3FF46AAFB3E023466A466FF00100C3
:104C10000B99AFF300809EE045F040006060A8076C
:104C200023464FF0000236D43EE0E8077FF447AF5A
:104C30002068011D21600068290501D506701BE769
:104C4000290701D5068017E7A90703D5F117C0E9A1
:104C5000006111E706600FE745F040006060A807BB
:104C600023464FF0080216D41EE040F60E0125EA56
:104C70000100606016E045F040006060A807234630
:104C80004FF00A0207D40FE045F040006060A8072B
:104C900008D5234610226FF001000B99AFF3008076
:104CA00059E007E0234610226FF001000B99FFF74F
:104CB000BFFD50E04FF000094F464B46632802D03D
:104CC0005B2806D040E0E80601D40120A06001275F
:104CD0003AE062690121019890475E2805D14FF0C2
:104CE00001096269494601989047216939B9002153
:104CF0000A46534643F82120491C0829FADBB0B381
:104D0000216969B9C11700EBD16253110AEB830124
:104D100022F01F02821A01200B68904003430B60AF
:104D200062690121019890475D28E8D1B9F1000F2F
:104D300009D00020514651F82020D24341F82020CC
:104D4000401C0828F7DB02AB224600976FF00100F9
:104D50000B99AFF3008000280CDA401C08D1BBF19E
:104D6000000F05D04FF0FF300DB0BDE8F08FFFE72A
:104D70004046F9E7E90701D108F1010806444FF080
:104D8000000B79E6CCCCCC0C7F2801D9002208E0BE
:104D9000064A02EB5002C007127800D1120902F055
:104DA0000F0201209040084070470000108F00085B
:104DB00070B58C1810F8015B15F0070301D110F8DD
:104DC000013B2A1106D110F8012B03E010F8016B0A
:104DD00001F8016B5B1EF9D12B0705D40023521E8D
:104DE0000DD401F8013BFAE710F8013BCB1A921CF5
:104DF00003E013F8015B01F8015B521EF9D5A142F3
:104E0000D8D3002070BD0000014800887047000022
:104E1000000002604FF0C0410880704701490880DF
:104E200070470000000002600FB4054B10B503A9E5
:104E3000044A029800F02CF810BC5DF814FB000046
:104E4000871C0008400200200FB4084B10B504A9CD
:104E500002AA039800F01CF8044602A9002000F002
:104E6000F3F8204610BC5DF814FB00004950000820
:104E700002E008C8121F08C1002AFAD17047704723
:104E8000002001E001C1121F002AFBD17047000081
:104E90002DE9FF4F8BB09A460F460546002606E0E7
:104EA00025280BD052460D9990476D1C761C28780A
:104EB0000028F5D10FB03046BDE8F08F0024A046A1
:104EC0000122604900E0044315F8013F203B02FA4B
:104ED00003F00842F7D128782E2817D115F8010FD2
:104EE00044F004042A280ED06FF02F022878A0F195
:104EF000300109290AD808EB880102EB410100EBD7
:104F000001086D1CF2E757F8048B6D1C287869289E
:104F10003ED006DC0028CDD063280BD0642804D115
:104F200036E0732810D075284BD052460D99904723
:104F3000761C85E017F8040B8DF8000000208DF832
:104F40000100E946012003E057F8049B4FF0FF30D1
:104F500061074FF0000401D40AE0641C44450DDAF7
:104F60008442FADB19F804100029F6D106E0641C2B
:104F70008442FCDB19F804100029F8D1264404E02F
:104F800019F8010B52460D999047641EF8D257E06C
:104F900001CF4FF00A0B002802DA40422D2102E037
:104FA000210504D52B218DF82410012103E0E10710
:104FB00005D02021F7E70DF1200908910CE0002130
:104FC000F9E701CF4FF00A0BF9E75946FFF7D6FC96
:104FD00001F1300209F8012D0028F6D1ADEB0900EE
:104FE00000F1200B600701D44FF00108D84502DD25
:104FF000A8EB0B0000E000208046002406E009A892
:105000005246005D0D999047641C761C08988442B6
:10501000F5DB04E0302052460D999047761CB8F13C
:105020000001A8F10108F5DC05E019F8010B524672
:105030000D999047761CBBF10001ABF1010BF4DC3C
:105040006D1C34E7092801000A68531C0B601070BE
:105050007047000000000000000000000000000099
:105060000000000000181818181818080008180088
:105070000000000000342424240000000000000090
:1050800000000000000016247F2424247E24240035
:105090000000000000083E6848681C1612127C10D0
:1050A000100000000061D296740810162949C6004D
:1050B0000000000000003C646438724ACE467F0065
:1050C0000000000000181818180000000000000080
:1050D00000000000000408181030303030101018A4
:1050E0000C04000000201008080C0404040C08182C
:1050F0001020000000080A341C6A080000000000AC
:1051000000000000000000001818187F1818180090
:105110000000000000000000000000000018180857
:1051200030000000000000000000003C0000000013
:10513000000000000000000000000000001818003F
:1051400000000000000206040C0808101020204097
:105150000000000000003C6642475B7342663C0072
:1051600000000000000018784808080808087E00C1
:105170000000000000003C460606040810207E00E7
:105180000000000000007C0606043C0202067C00D1
:105190000000000000000C1C14246444FF04040000
:1051A0000000000000007E6060607E0202067C005D
:1051B0000000000000001E306048764242623C0061
:1051C0000000000000007E0206040C0818103000E9
:1051D0000000000000003C6242361C6642423C0077
:1051E0000000000000003C664242661A020478009B
:1051F000000000000000000018180000001818004F
:105200000000000000000000181800000018180836
:10521000300000000000000004183060100C060090
:10522000000000000000000000007E007E00000082
:105230000000000000000000301804060C102000E0
:105240000000000000301C060606181000101000B8
:1052500000000000001C224141DDB5A5A5AF94C0AF
:10526000403C00000000181C342426627E43C1002C
:105270000000000000007C4642467C4242427C0026
:105280000000000000001E204040404040603E0002
:105290000000000000007C46424343434246780041
:1052A0000000000000007E6060607E6060607E0044
:1052B0000000000000007E6060607E606060600052
:1052C0000000000000001E604040CE4242623E00EE
:1052D000000000000000424242427E424242420040
:1052E0000000000000007E181818181818187E001A
:1052F0000000000000007C0404040404044478005E
:105300000000000000004244485070584C444200E5
:1053100000000000000020202020202020203E004F
:105320000000000000006266675F5B5BC1C1C100F6
:10533000000000000000626272525A4A4E46460067
:105340000000000000003C6243C3C3C343623C0052
:105350000000000000007C46424246784040400089
:105360000000000000003C6243C3C3C343623C181A
:105370000F00000000007C6662667C6C6466620060
:105380000000000000003E6040601C0602027C003D
:105390000000000000007F181818181818181800CE
:1053A00000000000000042424242424242623C0091
:1053B000000000000000C14342622624341C180093
:1053C000000000000000C1C141495B5B76666600D9
:1053D00000000000000043663418181C2466C30057
:1053E000000000000000C14266341C1818181800A4
:1053F0000000000000007E02040C181020607E00F7
:1054000000000000001C10101010101010101010E0
:10541000101C000000402020101008080C04060298
:1054200000000000003C0C0C0C0C0C0C0C0C0C0CC8
:105430000C3C00000000181C24620000000000006A
:10544000000000000000000000000000000000005C
:1054500000FF00000020100000000000000000001D
:1054600000000000000000003C06023E42467A00B8
:1054700000000000004040405C62424242427C002A
:1054800000000000000000001E20604060203E0080
:1054900000000000000202023E62424242663A0000
:1054A00000000000000000003C62427E40603E00C0
:1054B00000000000000F1810107E101010101000D7
:1054C00000000000000000003F66426658403E4376
:1054D000423C0000004040405C6242424242420086
:1054E00000000000001818007808080808087E006E
:1054F0000000000000040C007C0404040404040404
:105500000C78000000606060626C78706864620013
:1055100000000000007808080808080808087E0055
:105520000000000000000000764B4B4B4B4B4B0043
:1055300000000000000000005C6242424242420063
:1055400000000000000000003C62424342623C0058
:1055500000000000000000005C62424242427C40C9
:1055600040400000000000003E62424242663A02B3
:1055700002020000000000006E7263606060600064
:1055800000000000000000003E20203C06027C00DD
:105590000000000000001010FE10101010101E007F
:1055A00000000000000000004242424242663A0011
:1055B0000000000000000000434266243418180078
:1055C0000000000000000000C1C15B5A5E6666007A
:1055D000000000000000000062261C181C2662006B
:1055E000000000000000000043426624341C18182C
:1055F00030E00000000000007E060C1810207E0045
:1056000000000000000E1810101030701010101064
:10561000180E000008080808080808080808080804
:10562000080800000030180808080C0E08080808D0
:1056300018300000000000000000714B0600000060
:10564000000000000000000000000000000000005A
:10565000000000000000000000000000000000004A
:10566000000000000000000000000000000000003A
:105670000000000000000000000000000380018026
:105680000180018001800180018001800180018012
:105690000000000003C003C0000000000000000084
:1056A0000000000000000000000000000E700E70FE
:1056B0000E700C3000000000000000000000000030
:1056C00000000000000000000000000000000000DA
:1056D00000000000000000000000000000000618AC
:1056E000063806307FFE0C300C300C300C307FFE5C
:1056F0000C601C60186018600000000000000000D2
:105700000000000000000000000000C000C00FF812
:105710003CC831C031803D801F8003F001F8031C7C
:10572000030C031C3FF83FE00700060000000000E8
:10573000000000000000000000001C007E0E630C52
:10574000631863307E6000C001800300077C0EE6B2
:105750001CC618C630C6607C0000000000000000B7
:105760000000000000000000000000000FE01CF03E
:10577000387038701C601FC00F003F8C71CC60EC1B
:10578000607C70383CFC1FCE000000000000000070
:1057900000000000000000000000000003C00180C5
:1057A00001800180000000000000000000000000F7
:1057B00000000000000000000000000000000000E9
:1057C00000000000000000000000003000E001C008
:1057D000018003000700060006000E000E000E0008
:1057E0000E00060007000300038001C000E0003047
:1057F000000000000000000000000C000600038014
:10580000018001C000E00060006000700070007066
:105810000060006000E000C00180038006000C0012
:10582000000000000000000000000000018011885E
:105830001DB803C007E03DBC0188018000000000E6
:105840000000000000000000000000000000000058
:105850000000000000000000000000000000000048
:105860000000018001800180018001807FFE0180B5
:1058700001800180018000000000000000000000A5
:105880000000000000000000000000000000000018
:105890000000000000000000000000000000000008
:1058A000000003C003C001C001C003801F0000004E
:1058B00000000000000000000000000000000000E8
:1058C0000000000000000000000000000FF00000D9
:1058D00000000000000000000000000000000000C8
:1058E00000000000000000000000000000000000B8
:1058F00000000000000000000000000000000000A8
:10590000000003C003C003C000000000000000004E
:105910000000000000000000000000000018003837
:105920000030006000E000C001C0018003000300FF
:1059300006000E000C001C001800300000000000E3
:1059400000000000000000000000000001800FF0D7
:105950001C38381C301C707E70EE738E7E0E7C0CF2
:10596000300C381C1E780FE0000000000000000022
:10597000000000000000000000000000000007C060
:105980001FC039C001C001C001C001C001C001C0B9
:1059900001C001C03FFC3FFC00000000000000000F
:1059A00000000000000000000000000003801FF065
:1059B00018380038001800380038007001E0038003
:1059C00007001C003FFC3FFC00000000000000003E
:1059D00000000000000000000000000007801FF031
:1059E000003800380038003007E007F00038001CAD
:1059F000001C001820F83FE000000000000000003C
:105A0000000000000000000000000000000000F0A6
:105A100001B0033007300E301C30383070307FFE5C
:105A20007FFE003000300030000000000000000069
:105A300000000000000000000000000000001FF84F
:105A400018001800180018001FE000F8001C001CC7
:105A5000001C003800F01FC0000000000000000023
:105A6000000000000000000000000000000003F83B
:105A70000F001C001800300037F83C3C300C300C94
:105A8000380C381C1E380FF0000000000000000029
:105A900000000000000000000000000000003FFCCB
:105AA000001C001800380070006000E001C0018098
:105AB0000380070006000E00000000000000000048
:105AC00000000000000000000000000003C01FF8FC
:105AD000381C381C381C1C380FF007F01C78381C98
