:020000040800F2
:10000000D074002045010008491700084B1700086C
:100010004F1700085317000857170008000000008A
:100020000000000000000000000000005B17000856
:100030005D170008000000005F1700086117000846
:100040005F0100085F0100085F0100085F01000810
:100050005F0100085F0100085F0100085F01000800
:100060005F0100085F0100085F0100085F010008F0
:100070005F0100085F0100085F0100085F010008E0
:10008000631700085F0100085F0100085F010008B6
:100090005F0100085F0100085F0100085F010008C0
:1000A0005F0100085F0100085F0100085F010008B0
:1000B0005F0100085F0100085F0100085F010008A0
:1000C0005F0100085F0100085F0100085F01000890
:1000D0005F0100085F0100085F0100085F01000880
:1000E0005F0100085F0100085F0100085F01000870
:1000F0005F0100085F0100085F0100085F01000860
:100100005F010008396800085F0100085F0100080E
:100110005F0100085F0100085F0100085F0100083F
:100120005F0100085F0100085F0100085F0100082F
:10013000DFF80CD00AF0AEFC00480047611600085A
:10014000D07400200648804706480047FEE7FEE7D7
:10015000FEE7FEE7FEE7FEE7FEE7FEE7FEE7FEE777
:1001600047020008310100080CB500200190009002
:100170006C48006840F480306A49086000BF6948F4
:10018000006800F4003000900198401C0190009835
:1001900018B90198B0F5A06FF1D16248006800F479
:1001A000003010B10120009001E000200090009884
:1001B000012843D15C48006840F010005A490860AB
:1001C0000846006820F0030008600846006840F018
:1001D0000200086053484068524948600846406839
:1001E00048600846406840F48060486008464068BF
:1001F00020F47C1048600846406840F4E8104860ED
:100200000846006840F08070086000BF45480068FC
:1002100000F000700028F9D04248406820F0030048
:10022000404948600846406840F00200486000BF0E
:100230003C48406800F00C000828F9D10CBD10B50E
:10024000FFF792FF10BD10B53648006840F001007E
:1002500034490860084640683449084031494860DC
:1002600008460068324908402E4908600846006880
:1002700020F4802008600846406820F4FE004860B2
:100280004FF41F008860FFF7DAFF4FF00060294944
:10029000086010BD10B5002100200022214B5B68D2
:1002A00003F00C0121B1042906D0082928D107E068
:1002B000214B224C236027E01F4B204C236023E07E
:1002C000184B5B6803F47010164B5B6803F48032C4
:1002D000022303EB904022B9194B4343174C236090
:1002E0000DE0104B5B6803F4003323B1144B434320
:1002F000124C236003E0104B4343104C236003E097
:100300000D4B0E4C236000BF00BF064B5B68C3F370
:1003100003130C4CE15C094B1B68CB40074C23607A
:1003200010BD000000100240002002400000FFF855
:10033000FFFFF6FE08ED00E000127A00000000204A
:1003400000093D000400002031490143314A116099
:10035000704770B5002100230F22C47804B32D4CE0
:10036000246804F4E064C4F5E064210AC1F10403E4
:10037000CA40447804FA03F1847814402143090107
:10038000254C0678A155047804F01F050124AC40E3
:1003900005786D11AD0005F1E025C5F8004109E0D3
:1003A000047804F01F050124AC401C4D067876113A
:1003B00045F8264070BD1A4A0A400243154B1B1FE0
:1003C0001A60704739B1134A121D12680243114B6B
:1003D0001B1D1A6006E00F4A121D126882430D4B66
:1003E0001B1D1A607047042808D14FF0E0210969ED
:1003F00041F004014FF0E022116107E04FF0E021ED
:10040000096921F004014FF0E022116170470000FA
:100410000000FA050CED00E000E400E080E100E0FF
:1004200080FFFF1F01684FF6FE721140016000213E
:10043000016041608160C1608D49884208D18C496A
:100440000839496841F00F01894A083A51608AE049
:1004500087491431884208D185490839496841F0F3
:10046000F001834A083A51607DE081492831884291
:1004700008D17F490839496841F470617C4A083ADB
:10048000516070E07A493C31884208D17849083996
:10049000496841F47041764A083A516063E0744912
:1004A0005031884208D172490839496841F47021B5
:1004B0006F4A083A516056E06D496431884208D16C
:1004C0006B490839496841F47001694A083A51603A
:1004D00049E067497831884208D165490839496857
:1004E00041F07061624A083A51603CE061498842DB
:1004F00006D1011F096841F00F01021F116032E0AF
:100500005C491431884208D15A49091F096841F0F1
:10051000F001584A121F116025E0564928318842DF
:1005200008D15449091F096841F47061514A121FEA
:10053000116018E04F493C31884208D14D49091FEC
:10054000096841F470414B4A121F11600BE04949A0
:100550005031884207D14749091F096841F4702189
:10056000444A121F1160704710B50022026847F616
:10057000F0739A430C6A8B6823430C6923434C69DC
:1005800023438C692343CC6923434C6A23438C6AFD
:1005900023431A430260CB6843600B6883604B6857
:1005A000C36010BD0021016041608160C1600161D4
:1005B00041618161C161016241628162704721B123
:1005C000026842F00102026004E002684FF6FE7326
:1005D0001A40026070471AB103680B43036002E0DF
:1005E00003688B4303607047416070470146486869
:1005F00080B2704701460020002201F080531BB1F9
:100600001C4B083B1A6802E0194B083B1A6802EAC7
:1006100001030BB1012000E00020704700F0805181
:1006200019B11449091F086002E0114908394860EE
:10063000704701460020002201F080531BB10D4B92
:10064000083B1A6802E00A4B083B1A6802EA0103F9
:100650000BB1012000E00020704700F0805119B17B
:100660000449091F086002E00149083948607047E1
:10067000080002400804024010B50446CC488442F9
:1006800008D10121042000F02DFB0021042000F0FE
:1006900029FB46E0C748844208D10121082000F028
:1006A00021FB0021082000F01DFB3AE0C2488442F3
:1006B00008D10121102000F015FB0021102000F0CE
:1006C00011FB2EE0BD48844208D10121202000F01A
:1006D00009FB0021202000F005FB22E0B8488442FD
:1006E00008D10121402000F0FDFA0021402000F057
:1006F000F9FA16E0B348844208D10121802000F0C5
:10070000F1FA0021802000F0EDFA0AE0AE488442C0
:1007100007D10121801500F0E5FA0021A01500F0B5
:10072000E1FA10BD10B50121084600F0DBFA002106
:10073000012000F0D7FA10BD2DE9F0410246002556
:100740000026002000230024002791F803C00CF0AD
:100750000F0591F803C00CF0100CBCF1000F03D092
:1007600091F802C04CEA050591F800C0BCF1000FF9
:1007700031D0146800202BE04FF0010C0CFA00F38C
:10078000B1F800C00CEA03069E4220D183004FF06E
:100790000F0C0CFA03F7BC4305FA03FC4CEA040403
:1007A00091F803C0BCF1280F06D14FF0010C0CFAF0
:1007B00000FCC2F814C00AE091F803C0BCF1480F75
:1007C00005D14FF0010C0CFA00FCC2F810C0401C1F
:1007D0000828D1D31460B1F800C0BCF1FF0F34DD9C
:1007E000546800202EE000F1080C4FF0010808FAD0
:1007F0000CF3B1F800C00CEA03069E4221D183003D
:100800004FF00F0C0CFA03F7BC4305FA03FC4CEA5B
:10081000040491F803C0BCF1280F05D100F1080CC5
:1008200008FA0CF8C2F8148091F803C0BCF1480F24
:1008300007D100F1080C4FF0010808FA0CF8C2F8D3
:100840001080401C0828CED35460BDE8F0814FF6DC
:10085000FF710180022181700421C170704702463E
:10086000002093680B400BB1012000E0002070478E
:100870000146886880B2704702460020D3680B406A
:100880000BB1012000E0002070470146C86880B22B
:10089000704701617047416170470AB1016100E032
:1008A00041617047C16070474FF480320A438261F2
:1008B0008161826182698269704702460020434BF0
:1008C00018684FF68073184040EA021008433F4B07
:1008D000186070473E49C8617047F0B50A4600236A
:1008E00000240021002500F00046B6F1004F02D19F
:1008F000364EF16901E0354E7168C0F3034583B2AD
:1009000000F44016B6F5401F08D121F070612F4E5B
:10091000766826F070662D4F7E6012E000F4801637
:10092000B6F5801F06D1032606FA05F4A14341F06F
:10093000706106E0460D360103FA06F6B14341F058
:10094000706122B1460D360103FA06F6314300F01C
:100950000046B6F1004F02D11C4EF16101E01B4E82
:100960007160F0BD30B500228B071C0F0F2303FA16
:1009700004F2164B08338C1053F824309343134C75
:1009800008348D1044F8253023468C1053F8243059
:100990008C07240F00FA04F423430C4C08348D1008
:1009A00044F8253030BD0A49DC310860704700004A
:1009B00000080140000C01400010014000140140FB
:1009C00000180140001C01400020014000000140CF
:1009D00000002042DF48006840F00100DD49086067
:1009E00008464068DC490840DA4948600846006823
:1009F000DA490840D74908600846006820F480209A
:100A000008600846406820F4FE0048604FF41F006C
:100A100088607047CF49096821F48031CD4A116060
:100A20001146096821F480211160B0F5803F03D0A0
:100A3000B0F5802F0ED106E0C649096841F4803137
:100A4000C44A116007E0C349096841F4A021C14AC2
:100A5000116000E000BF00BF704710B501460022E2
:100A6000002300204A11012A02D1BA4C236806E073
:100A7000022A02D1B74C236A01E0B64C636A01F046
:100A80001F02012494401C400CB1012000E0002012
:100A900010BD38B5002000900024002500BF312093
:100AA000FFF7DBFF05460098401C00900098B0F56A
:100AB000A06F01D0002DF2D03120FFF7CEFF08B19A
:100AC000012400E00024204638BD01460020A14A50
:100AD000106820F0F80040EAC10010607047A0499B
:100AE00008607047024600209A4B586820F47C103A
:100AF00042EA01031843974B5860704798490866CB
:100B0000704701460020934A506820F003000843D4
:100B1000506070478F48406800F00C0070470146F5
:100B200000208C4A506820F0F00008435060704765
:100B300001460020874A506820F4E0600843506076
:100B4000704701460020834A506820F4605040EA14
:100B5000C1005060704729B17E4A527A02437D4BF2
:100B60005A7204E07B4A527A82437A4B5A72704737
:100B70007B49D8310860704701460020754A5068AB
:100B800020F440400843506070470021714A2032F1
:100B90001170704A82F82010012802D004280AD16E
:100BA00004E001216B4A2032117005E00521694AF9
:100BB0002032117000E000BF00BF70476949086033
:100BC00070476449096A0143624A11627047654986
:100BD00044390860704730B500210022002400230A
:100BE0005C4D6D6805F00C0121B1042905D0082980
:100BF00023D105E05C4D056022E05B4D05601FE000
:100C0000544D6D6805F47012524D6D6805F48034D2
:100C1000022505EB92421CB9544D554305600BE08B
:100C20004C4D6D6805F400351DB1504D55430560C0
:100C300002E04D4D5543056002E04B4D056000BF9D
:100C400000BF444D6D6805F0F0010909484D6B5C2B
:100C50000568DD4045603F4D6D6805F4E061090AB7
:100C6000434D6B5C4568DD4085603A4D6D6805F429
:100C70006051C90A3E4D6B5C4568DD40C560354D2D
:100C80006D6805F44041890B3A4D6B5CC568B5FB56
:100C9000F3F5056130BD29B12E4A526902432D4B4F
:100CA0005A6104E02B4A526982432A4B5A617047C9
:100CB00029B1284A92690243264B9A6104E0254AE9
:100CC00092698243234B9A61704729B1214AD269C4
:100CD0000243204BDA6104E01E4AD26982431D4B75
:100CE000DA61704729B11B4AD2680243194BDA60B6
:100CF00004E0184AD2688243164BDA60704729B183
:100D0000144A12690243134B1A6104E0114A126932
:100D10008243104B1A61704712494039086070478E
:100D20000F49C86470470B49C87170470948406A49
:100D300040F0807007494862704701460020054A2C
:100D400092680A400AB1012000E000207047014982
:100D500088727047001002400000FFF8FFFFF6FEA7
:100D6000000042428004424200127A0000093D0025
:100D7000140000202400002000206F490860486013
:100D80008860C86048628862C8626C4888630020D6
:100D9000C86370470021684A516847F6FF62914373
:100DA000027D83681A4343681A43C3681A43036881
:100DB0001A4303691A4311435F4A51607047002187
:100DC0000175016041608160C160016170475C49EB
:100DD000086070475849096821F00301564A1160BC
:100DE000114609680143116070475348006800F0DC
:100DF0000300704729B1504AD26B02434E4BDA636D
:100E000004E04D4AD26B82434B4BDA6370474D4945
:100E1000086070470021484B02689A601A46D16802
:100E20006FF30A01D0E901231A43C3681A43036927
:100E30001A431143404AD16070470021016041606C
:100E40008160C160016170473B480069C0B2704772
:100E500008B501460020009037481430084400903F
:100E60000098006808BD0021334B02685A6242684E
:100E70009A621A46D16A21F0F701D0E902231A4397
:100E800003691A4343691A4311432B4AD1627047DD
:100E90004FF0FF310160002141608160C16001615C
:100EA000416170472448006B7047234880300068D8
:100EB000704721498031086070471F48806C704737
:100EC00020491431086070471E4918310860704786
:100ED0001C491C31086070471A492031086070476E
:100EE0001949086070471849091D086070470121B9
:100EF0008143154A08321160704713490C3108606C
:100F00007047014600200C4A526B0A400AB101208A
:100F100000E00020704708498863704701460020C0
:100F2000054A526B0A400AB1012000E000207047D8
:100F3000014988637047000000800140FF07C0003E
:100F4000A00030428C053042AC01304210B504465E
:100F5000BE48844208D101218014FFF7C3FE00215E
:100F6000A014FFF7BFFE16E0B948844208D1012162
:100F70000014FFF7C4FE00212014FFF7C0FE0AE0B2
:100F8000B448844207D10121C013FFF7B8FE002105
:100F9000E013FFF7B4FE10BD10B50022028802F482
:100FA00041520B884C8823438C882343CC882343AD
:100FB0000C8923434C8923438C892343CC892343C5
:100FC0001A430280838B4FF2FF74234083830B8A82
:100FD000038210BD2DE9F04F85B005460C464FF059
:100FE000000902274FF000084FF0010B0026B2461F
:100FF000A88B4FF240010840A88302202884B5F84E
:101000001C90A068022801D100BF38E0A08810B968
:101010004FF0010B01E04FF0020B8D48854200D1EB
:1010200000E000BF6846FFF7D6FDDDF800A0E088CD
:10103000B0F5007F0AD14FEA1A2000EB8000400093
:10104000A168B0FBF1F0401D86B20BE04FEA4B10F7
:10105000BAFBF0F000EB80004000A168B0FBF1F0BB
:10106000401D86B20A20B6FBF0F606F00108A6EB9A
:101070000800C0F34F074FF6FF7000EA0828022F60
:1010800001DBFF2F02DD02274FF00008E08840EA75
:10109000080038432884A088A18908436188084350
:1010A0002188084340F4006040EA0909A5F81C9033
:1010B00005B0BDE8F08F0021018041808180C180B2
:1010C000018141818181C181072101827047002115
:1010D000018041808180C180022181600021818165
:1010E000704721B1028842F04002028004E0028889
:1010F0004FF6BF731A400280704721B1828B42F4D1
:101100008062828304E0828B4FF6FF331A40828331
:10111000704730B5002400230C110125A540ABB267
:101120001AB185881D43858002E085889D438580AE
:1011300030BD1AB183880B43838002E083888B43E0
:1011400083807047818170470146888970474FF6D8
:10115000FF62914204D0028842F48072028004E06F
:1011600002884FF6FF631A400280704721B18288DF
:1011700042F00402828004E082884FF6FB731A403A
:101180008280704702884FF2FF731A400280028803
:101190000A4302807047018841F480510180704702
:1011A00021B1028842F40052028004E002884DF628
:1011B000FF731A400280704702460020012901D0C7
:1011C000108B00E0908A70470146088A7047B1F59D
:1011D000804F04D1028842F48042028004E00288F9
:1011E0004BF6FF731A4002807047024600201389B5
:1011F0000B400BB1012000E000207047CA43028180
:101200007047F0B50246002000240023002501F0BD
:101210000F070126BE40B4B20B1101269E40B3B2A7
:10122000968806EA03051689264016B10DB10120FD
:1012300000E00020F0BD10B5002201F00F040123F2
:10124000A3409AB2D343038110BD00000030014097
:1012500000380040003C004010B50446FB48844282
:1012600009D101218803FFF73DFD00214FF48040A3
:10127000FFF738FD32E0F648844209D101214804E5
:10128000FFF73DFD00214FF40030FFF738FD25E06A
:10129000F048844209D101218804FFF730FD002184
:1012A0004FF48020FFF72BFD18E0EB48844209D172
:1012B0000121C804FFF723FD00214FF40020FFF7B0
:1012C0001EFD0BE0E548844208D101210805FFF727
:1012D00016FD00214FF48010FFF711FD10BD2DE920
:1012E000F04786B005460E460024A24600BFA14640
:1012F0000027B08900B100BF2F462C8A4CF6FF7042
:101300000440F08804432C82AC894EF6F31004406C
:10131000B08831890843718908430443AC81AC8AA1
:101320004FF6FF400440B0890443AC8201A8FFF7A8
:1013300052FCC648874202D1DDF810A001E0DDF87A
:101340000CA0A88900F4004040B10AEBCA0000EBF1
:101350000A1031684900B0FBF1F807E00AEBCA0057
:1013600000EB0A1031688900B0FBF1F86420B8FB8B
:10137000F0F004012009642101FB1089A88900F420
:10138000004040B1322000EBC900B0FBF1F000F0AA
:101390000700044308E0322000EB09106421B0FB91
:1013A000F1F000F00F0004432C8106B0BDE8F08797
:1013B0004FF41651016000218180C18001810C2110
:1013C000418100218181704710B502460020108ABA
:1013D0004FF2FF0318400B884C8823438C8823432B
:1013E000CC8823431843108210BD00210180418026
:1013F0008180C180704721B1828942F4005282818C
:1014000004E082894DF6FF731A4082817047F0B57F
:101410000346002400260025002040F66A17B94242
:1014200000D100BF1846C1F3421401F01F06012786
:1014300007FA06F5012C01D10C3004E0022C01D191
:10144000103000E014301AB107682F43076002E043
:101450000768AF430760F0BD1AB1838A0B438382EC
:1014600002E0838A8B4383827047028A4FF6F073CF
:101470001A400282028A0A430282704782894FF22E
:10148000FF731A40828182890A438281704721B1A9
:10149000828942F00202828104E082894FF6FD7364
:1014A0001A4082817047028A4FF6DF731A40028227
:1014B000028A0A430282704721B1028A42F48042C2
:1014C000028204E0028A4BF6FF731A4002827047E0
:1014D000C1F308028280704701468888C0F3080083
:1014E0007047818941F0010181817047028BD2B23E
:1014F0000283028B42EA012202837047028B02F4CC
:101500007F420283028B0A430283704721B1828AA1
:1015100042F02002828204E0828A4FF6DF731A4092
:101520008282704721B1828A42F01002828204E0F6
:10153000828A4FF6EF731A408282704721B1828A05
:1015400042F00802828204E0828A4FF6F7731A4062
:101550008282704721B1828942F40042828103E095
:101560008289C2F30E028281704721B1828A42F4DD
:101570000062828204E0828A4FF2FF731A40828204
:101580007047828A4FF6FB731A408282828A0A432E
:101590008282704721B1828A42F00202828204E094
:1015A000828A4FF6FD731A408282704702460020FD
:1015B000B1F5007F00D100BF13880B400BB10120B3
:1015C00000E00020704701F40072B2F5007F00D106
:1015D00000BFCA430280704770B502460024002352
:1015E0000025002040F66A16B14200D100BFC1F3C9
:1015F000421501F01F03012606FA03F3012D02D163
:101600009689334006E0022D02D1168A334001E06C
:10161000968A33400C12012606FA04F416883440E8
:1016200013B10CB1012000E0002070BD10B5002204
:10163000002340F66A14A14200D100BF0A1201241F
:101640009440A3B2DC43048010BD00000038014088
:101650000044004000480040004C00400050004062
:1016600000F08CFB20200C4908600120086002205B
:10167000091D086000F0B2FB08A009F053FC0EA0A1
:1016800009F050FC1AA009F04DFC23A009F04AFC17
:1016900000F06CF800BFFEE7100C01400D0AD2B05C
:1016A000BBF020475053C4A3BFE9B2E2CAD4C0FD87
:1016B000B3CC0D0A000000000D0AB1BEB3CCD0F2CD
:1016C000B6D45344BFA8C4DAB5C46770736C6F67EF
:1016D0002E747874CEC4BCFEB6A8CEBBC8D5D6BE18
:1016E000CAFDBEDDBDF8D0D0BDE2C2EB0D0A0000E0
:1016F0000D0AC8F4D0E8D2AAB6D4475053C4A3BF49
:10170000E9B4AEBFDAB4ABBBD8B5C4CAFDBEDDBD6B
:10171000E2C2EBA3AC000000BFC9D7A2CACDB5F4AA
:101720006770735F636F6E6669672E68CEC4BCFEB8
:10173000B5C4BAEA5F5F4750535F4C4F475F4649B5
:101740004C45200D0A000000704700BFFEE700BFB7
:10175000FEE700BFFEE700BFFEE770477047704737
:10176000704710B500F00FFA10BD00002DE9F043EE
:10177000ADF6A46D012261A1614801F071FF6149DC
:1017800008700846007830B1084601785EA009F07C
:10179000C9FB00BFFEE701226AA16E4801F08BFF82
:1017A000584908700846007830B16B4809F0BAFB18
:1017B0000DF6A46DBDE8F08305F048FC67490160B3
:1017C00005F044FC6649416005F040FC65498160D4
:1017D0000DF5046006F087FE0DF62C0008F048F8C1
:1017E00073E0614B642204A95A4802F023F80DF516
:1017F00004635D4804A902680DF62C0008F0C2FAE3
:10180000012308220DF501610DF6440000F0F7F9FF
:101810000DF61C0005C8DDF82418CDE90121009063
:1018200052A00DF501610EC909F07CFBDDF880289E
:101830001046DDF8841805F097FC06460F46DDF8E3
:1018400088281046DDF88C1805F08EFC04460D46FD
:1018500032463B464DA0CDE9004509F063FBDDF87B
:101860009088424650A0DDF8943809F05BFBDDF823
:10187000A088424652A0DDF8A43809F053FBDDF8F9
:10188000A888424653A0DDF8AC3809F04BFB56A0BF
:101890000DF6BC0106C909F045FB5EA00DF6A831A6
:1018A00006C909F03FFB0DF6780003C8CDE9020137
:1018B0000DF5076003C8CDE90001DDF868884246F0
:1018C00060A0DDF86C3809F02DFB224880682149C2
:1018D000C968884201D1012000E00020002880D0A2
:1018E0001C48C16802F004FA0DF62C0007F0FCFF5A
:1018F000184802F0EDF900BF5AE70000303A000046
:10190000B8000020280000200D0A20A3A1A3A153A5
:1019100044BFA8B9D2D4D8CEC4BCFECFB5CDB3CACB
:10192000A7B0DCA1A328256429A3ACC7EBBDAB53AA
:1019300044BFA8B2E5C8EBBFAAB7A2B0E5200D0A24
:1019400000000000303A6770736C6F672E74787413
:1019500000000000E810002088E40008B71B000821
:10196000B91B0008BB1B00082C0000200D0A20CA70
:10197000B1BCE425642D253032642D253032642C31
:1019800025643A25643A2564200D0A000D0A20CE0C
:10199000B3B6C8A3BA2566202CBEADB6C8A3BA2577
:1019A00066200D0A000000000D0A20BAA3B0CEB8D0
:1019B000DFB6C83A20256620C3D7200D0A000000F4
:1019C0000D0A20CBD9B6C83A202566206B6D2F684A
:1019D000200D0A000D0A20BABDCFF23A202566205C
:1019E000B6C8200D0A0000000D0A20D5FDD4DACAC1
:1019F000B9D3C3B5C4475053CEC0D0C73A2025642D
:101A00002CBFC9BCFB475053CEC0D0C73A25642079
:101A10000D0A00000D0A20D5FDD4DACAB9D3C3B52A
:101A2000C4B1B1B6B7CEC0D0C73A202564202CBF10
:101A3000C9BCFBB1B1B6B7CEC0D0C7A3BA2025642C
:101A4000200D0A000D0A2050444F503A20256620F0
:101A50002C2048444F50203A202566202C20564404
:101A60004F50203A202566200D0A000000B585B0B1
:101A700001210420FFF71CF901214804FFF725F993
:101A80000820ADF8100004208DF8130003208DF815
:101A9000120004A9B348FEF74FFE0420ADF8100071
:101AA00018208DF8130003208DF8120004A9AD480A
:101AB000FEF742FE4FF4165000900020ADF80C00E7
:101AC0000C20ADF80A000020ADF80800ADF80600C3
:101AD000ADF804006946A448FFF701FC0121A248C3
:101AE000FFF789FC05B000BD08B54FF4C060FEF7F4
:101AF0002BFC10208DF8000001208DF803008DF8DC
:101B0000010000208DF802006846FEF722FC08BDA7
:101B100000B58BB001210846FFF7BDF84FF4007007
:101B20000390002002900A909048019000200790B6
:101B300080200590202008908B48001D00900020F8
:101B4000069004904FF48050099069468848FEF74B
:101B50000BFDFFF7C9FF012206218548FEF73BFD7B
:101B600001218348FEF72BFD012240217E48FFF72B
:101B700073FC0BB000BD10B5FFF778FFFFF7B4FFA3
:101B8000FFF7C6FF10BD10B54FF48000FEF732FD21
:101B900028B10120774908708005FEF73FFD4FF41A
:101BA0000010FEF727FD28B1012073490870400599
:101BB000FEF734FD10BD70477047704710B5024600
:101BC00002F5FA61032091FBF0F300FB1310A0B9BA
:101BD0004FF4C87091FBF0F300FB131008B901201B
:101BE00000E00020642391FBF3F403FB14130BB11A
:101BF000012300E00023184310BD0020FCE72DE97D
:101C0000FF4F81B080468946164616B905B0BDE83B
:101C1000F08F0C2E00DDF9E7D8F800A0D8F80440CA
:101C2000D8F80850D8F80C70D8F810B0D8F81400CC
:101C300000900498002844D0B819182801D23744DD
:101C400080E0B819A0F11807012C09D0032C07D0A7
:101C5000052C05D0072C03D0082C01D00A2C06D166
:101C60001F2D01D26D1C6DE00125641C6AE0042C5F
:101C700005D0062C03D0092C01D00B2C06D11E2D2B
:101C800001D26D1C5EE00125641C5BE0022C0DD1CD
:101C90001D2D06D01C2D07D10AF0FF00FFF78EFF87
:101CA00010B90125641C4DE06D1C4BE00C2C49D192
:101CB0001F2D01D26D1C45E0012501240AF1010A06
:101CC00040E0B74201D3BF1B3CE007F11800871B7F
:101CD000022C09D0042C07D0062C05D0082C03D0E8
:101CE000092C01D00B2C06D1012D01D96D1C29E046
:101CF0001F25641E26E0052C05D0072C03D00A2CD6
:101D000001D00C2C06D1012D01D96D1C1AE01E2525
:101D1000641E17E0032C0BD1012D07D10AF0FF0040
:101D2000FFF74CFF10B91C25641E0BE06D1E09E087
:101D3000012C07D1012D01D96D1C03E01F250C24B6
:101D4000AAF1010AC9F800A0C9F80440C9F808506E
:101D5000C9F80C70C9F810B00098C9F8140000BF99
:101D600054E7000000080140004400400C2100201E
:101D70006C000240350000203400002008B501212D
:101D80000820FEF795FF2020ADF8000010208DF808
:101D9000030003208DF8020069460F48FEF7CCFCD3
:101DA0000120ADF8000069460B48FEF7C5FC022093
:101DB000ADF8000069460848FEF7BEFC2021064841
:101DC000FEF767FD01210448FEF763FD022102488A
:101DD000FEF75FFD08BD0000000C014000B585B0B6
:101DE00001210420FEF764FF01218803FEF760FF54
:101DF00018208DF813004FF40070ADF81000032088
:101E00008DF8120004A92148FEF796FC04208DF8F5
:101E100013000002ADF8100004A91C48FEF78CFC6A
:101E20004FF4E13000900020ADF80400ADF806005A
:101E3000ADF80800ADF80C000C20ADF80A006946BA
:101E40001348FFF74CFA01211148FFF7D4FA05B007
:101E500000BD70B504460D46E1B20D48FFF738FBF2
:101E600000BF80210A48FFF7A1FB0028F9D02046D7
:101E700070BD10B5044600BF20210548FFF796FB52
:101E80000028F9D00248FFF727FB10BD00080140E9
:101E90000038014070B50446012514B1012C08D169
:101EA00003E004F0B6FB054605E004F0C2FD05467C
:101EB00001E0012500BF00BF284670BD70B5044693
:101EC000012514B1012C08D103E004F0D8FB05462C
:101ED00005E004F089FD054601E0012500BF00BFD3
:101EE000284670BD2DE9F04704460D4616461F46AC
:101EF0004FF004084FF0000914B1012C0ED106E098
:101F00003A463146284604F0D4FB804609E03A467A
:101F10003146284604F038FE804602E04FF00408BF
:101F200000BF00BF4046BDE8F0872DE9F0410546FF
:101F30000E4617461C464FF0040814B90420BDE8AD
:101F4000F08115B1012D0ED106E02246394630460A
:101F500004F0FEFB804609E022463946304604F094
:101F600075FF804602E04FF0040800BF00BF404606
:101F7000E5E72DE9F04104460D461646042714B165
:101F8000012C0CD105E03146284604F037FC074609
:101F900007E03146284604F0B4FD074601E0042777
:101FA00000BF00BF3846BDE8F0810148704700001F
:101FB0000000214670B503460C4603E014F8015BAF
:101FC00003F8015B1500A2F10102F7D170BD30B535
:101FD000034601E003F8011B1400A2F10102F9D14C
:101FE00030BDF0B503461C460D46002000BF16006C
:101FF000A2F1010207D014F8017B15F801CBA7EB81
:102000000C063000F3D0F0BD024600E0521C107800
:1020100010B110788842F9D1107870472DE9F0415D
:10202000044600272079F8B1E56A607801232A4642
:1020300004F13001FFF779FF08B1012714E0002017
:102040002071206A281AA16988420DD2E67809E039
:10205000A0690544607801232A4604F13001FFF7A6
:1020600064FF761E022EF3D23846BDE8F08170B5CB
:1020700004460D460026E06AA84210D02046FFF72D
:10208000CDFF06465EB9607801232A4604F130018F
:10209000FFF728FF10B14FF0FF350126E56230460B
:1020A00070BD70B504462046FFF7B8FF0546002D09
:1020B00059D1207803284FD1607901284CD1628909
:1020C000002104F13000FFF782FF552184F82E1221
:1020D000AA2184F82F12522084F830005221312096
:1020E00001556121322001554121332001557221D2
:1020F00084F8141284F81512412184F81612612113
:1021000084F81712217C84F81812208A010A84F8B6
:1021100019122069010C84F81A122069010E84F842
:102120001B12217B84F81C12A089010A84F81D125D
:10213000E068010C84F81E12E068010E84F81F129A
:10214000E069401CE0626078012304F13001E26A3A
:10215000FFF7EBFE00206071607800221146FFF768
:1021600008FF00B10125284670BD0246891E50694E
:10217000801E884201D8002070479378906A01FB46
:102180000300F9E72DE9F05F04460D46022D02D366
:102190006069A84202D84FF001098FE04FF0FF3983
:1021A0002078012804D002283CD003287ED157E0B3
:1021B0002F4607EB57076089B7FBF0F0216A00EB69
:1021C000010A51462046FFF752FF00B175E038463C
:1021D0007F1C6189B0FBF1F201FB120104F13000B8
:1021E00010F801806089B7FBF0F0216A00EB010A6A
:1021F00051462046FFF73BFF00B15EE06089B7FB28
:10220000F0F100FB117104F13000405C48EA002855
:1022100005F0010010B14FEA181001E0C8F30B00FF
:1022200081464AE0B4F80AA00AEBDA704010B5FB28
:10223000F0F0216A00EB010B59462046FFF717FF2B
:1022400000B13AE068006189B0FBF1F201FB1201D4
:1022500004F130000E183078717840EA01292CE042
:10226000B4F80AA04FEAEA700AEB90708010B5FB50
:10227000F0F0216A00EB010B59462046FFF7F7FE0C
:1022800000B11AE0A8006189B0FBF1F201FB120174
:1022900004F130000E18F0780006B17840EA0140F1
:1022A000717840EA01203178084300E002E020F034
:1022B000704902E04FF0010900BF00BF4846BDE889
:1022C000F09F2DE9F05F04460E461746022E02D31A
:1022D0006069B04202D84FF00208B3E020780128CC
:1022E00004D0022852D0032872D172E0B14609EB23
:1022F00059096089B9FBF0F0216A00EB010A5146E7
:102300002046FFF7B4FE8046B8F1000F00D098E0F9
:10231000484609F101096189B0FBF1F201FB1201A4
:1023200004F130000D1806F0010020B1F9B2287850
:1023300061F31F1000E03846287001202071608989
:10234000B9FBF0F0216A00EB010A51462046FFF785
:102350008EFE8046B8F1000F00D072E06089B9FBB4
:10236000F0F100FB119104F130000D1806F00100AE
:1023700010B1C7F3071005E0287800F0F000C7F3AC
:10238000032108432870012020715AE0B4F80AA004
:102390000AEBDA704010B6FBF0F0216A00EB010B9B
:1023A00059462046FFF763FE8046B8F1000F00D083
:1023B00047E070006189B0FBF1F201FB120104F10A
:1023C00030000D182F70380A68700120207138E035
:1023D00034E0B4F80AA04FEAEA700AEB907080107B
:1023E000B6FBF0F0216A00EB010B59462046FFF7DF
:1023F0003EFE8046B8F1000F00D022E0B0006189B7
:10240000B0FBF1F201FB120104F130000D18E87885
:102410000006A97840EA0140697840EA012029785D
:10242000084300F0704007432F70380A6870380C7A
:10243000A870380EE8700120207102E04FF0020809
:1024400000BF00BF4046BDE8F09F2DE9F0410446C3
:102450000E46022E02D36069B04201D8022727E05F
:10246000002721E031462046FFF78CFE054605B9DE
:102470001DE0012D01D1022719E0681C08B90127D0
:1024800015E0002231462046FFF71BFF074607B143
:102490000DE02069401C30B12069401C206160794A
:1024A00040F0010060712E466069B042DAD800BF8A
:1024B0003846BDE8F0812DE9F04704468946B9F178
:1024C000000F06D1E76817B16069B84215D8012737
:1024D00013E049462046FFF755FE0646022E02D27B
:1024E0000120BDE8F087701C08B93046F9E7606943
:1024F000B04201D93046F4E74F463D4600BF6D1C5F
:102500006069A84204D80225BD4201D90020E8E74D
:1025100029462046FFF736FE064606B909E0701C3C
:1025200008B1012E01D13046DBE7BD42E7D10020E2
:10253000D7E700BF6FF0704229462046FFF7C1FE83
:102540008046B8F1000F08D1B9F1000F05D02A4636
:1025500049462046FFF7B5FE8046B8F1000F0BD183
:10256000E5602069401C78B12069401E20616079D7
:1025700040F00100607107E0B8F1010F02D14FF0A7
:10258000FF3000E0012005462846AAE72DE9F0418A
:1025900004460E46E680A568012D03D020684069F8
:1025A000A84202D80220BDE8F0812DB92068007849
:1025B000032801D12068456A45B920680089B042E6
:1025C00001D80220EFE72068476A24E021684889A3
:1025D000C11700EBD16149112268927801FB02F822
:1025E00012E029462068FFF7CDFD0546681C08B9B2
:1025F0000120D8E7022D03D320684069A84201D802
:102600000220D0E7A6EB08064645EAD22946206814
:10261000FFF7ABFD0746E5600FB90220C3E721686D
:102620004889C11700EBD1614911B6FBF1F139447A
:10263000216121684889C11700EBD1614911B6FBBE
:10264000F1F201FB12612268303202EB411161614B
:102650000020A8E72DE9F04104468846E088461CA2
:10266000B0B208B1206910B90420BDE8F08121683A
:102670004889C11700EBD1614911B6FBF1F201FBAA
:102680001261002971D12069401C2061E06828B9DD
:1026900020680089B04268D80420E6E721684889AC
:1026A000C11700EBD1614911B6FBF1F122689278B4
:1026B000521E1140002958D1E1682068FFF762FDE1
:1026C0000546012D01D80220CFE7681C08B901207A
:1026D000CBE720684069A84241D8B8F1000F01D18A
:1026E0000420C2E7E1682068FFF7E5FE05460DB962
:1026F0000720BAE7012D01D10220B6E7681C08B90E
:102700000120B2E72068FFF789FC08B10120ACE79F
:1027100021684A8901F130000021FFF758FC294661
:102720002068FFF722FD2168C86200270EE0012023
:10273000216808712068FFF771FC08B1012094E757
:102740002068C06A401C2168C8627F1C20688078AD
:10275000B842ECD82068C06AC01B2168C862E56036
:1027600029462068FFF701FD2061E680216848893D
:10277000C11700EBD1614911B6FBF1F201FB126107
:102780002268303202EB4111616100206DE72DE9D2
:10279000F04104460E4600212046FFF7F7FE0546AD
:1027A000EDB9002700BF21692068FFF760FC0546EE
:1027B00005B113E060690078E52802D0606900780F
:1027C00020B9781C0746B04201D107E0002701215B
:1027D0002046FFF73FFF0546002DE4D000BF042D43
:1027E00000D107252846BDE8F08110B502468C7E51
:1027F000CB7E44EA03201378032B05D10C7D4B7D5F
:1028000044EA032340EA034010BD81760B0AC376F5
:102810000A0C02750B0E437570472DE9F047804690
:102820000C46A17EE07E41EA002010B10020BDE808
:10283000F087207800F03F00401E00EB800101EBA4
:10284000C0064FF00109002524E0F848405D205CF7
:10285000F649495D2144497840EA0127B9F1000F62
:1028600011D0FF2E0BD2384604F0BFFB8246314612
:10287000761C38F8110004F0B8FB824501D0002026
:10288000D5E7B94605E04FF6FF70874201D000203A
:10289000CDE76D1C0D2DD8D3207800F0400038B165
:1028A000B9F1000F04D038F8160008B10020BEE7D7
:1028B0000120BCE7F0B504468F7EC87E47EA0020C1
:1028C00008B10020F0BD087800F03F00401E00EB8A
:1028D000800707EBC002012600231AE0D348C05C42
:1028E000085CD24FFF5C0F447F7840EA07254EB169
:1028F000FF2A01D30020E5E72E461046521C24F89B
:10290000105005E04FF6FF70854201D00020D9E756
:102910005B1C0D2BE2D3087800F0400030B1FF2A99
:1029200001D30020CEE7002024F812000120C9E7DF
:10293000F0B504461D464D730F27CF7200270F7365
:102940008F76BC4681F81BC0571E07EB870C0CEB3B
:10295000C706002738463B4600BF4FF6FF77B84210
:1029600003D03746761C34F81700DFF8C0C21CF8D5
:1029700003C001F80C000712DFF8B0C21CF803C056
:102980008C448CF8017008B94FF6FF705F1C3B4611
:102990000D2FE2D34FF6FF77B84202D034F816700D
:1029A0000FB942F040020A70F0BD2DE9FF4F83B02D
:1029B000814690461D460B2248460499FFF7FAFAD5
:1029C000052D18D92F4611E038F802BB00240BE082
:1029D000584667F35F0007464FEA6B0B07F48030F9
:1029E00008B193484740641C102CF1D3B8F800009C
:1029F0000028E9D13D46072400BF05F00F0000F193
:102A0000300ABAF1390F03DD0AF1070000F0FF0ABE
:102A10002046641E01A901F800A02D09002DECD16B
:102A20007E200855002600E0761CA64203D219F845
:102A300006002028F8D100BF082C04D22046641CD0
:102A400001A9085C00E020203146761C09F801004D
:102A5000082EF1D307B0BDE8F08F30B50146002055
:102A60000B2200BF431003EBC01411F8015B631984
:102A7000D8B2531E1A00F5D130BD2DE9F0470446F7
:102A800000212046FFF782FD074617B13846BDE812
:102A9000F0874FF0FF09CA464FF6FF70208400BF51
:102AA00021692068FFF7E3FA074607B157E0656937
:102AB0002E780EB9042752E0E87A00F03F08E52EA0
:102AC00005D008F0080040B1B8F10F0F05D04FF065
:102AD000FF094FF6FF7020843AE0B8F10F0F1CD1C8
:102AE000E06978B306F0400030B195F80DA026F00B
:102AF0004006B146E08820844E450AD1687B5045A7
:102B000007D12946E069FFF788FE10B1A9F101005D
:102B100000E0FF2000F0FF091AE0B9F1000F05D135
:102B20002846FFF79AFF504500D118E0A069C07A07
:102B300000F0010038B90B222846A169FFF751FACD
:102B400008B90CE004E04FF0FF094FF6FF70208455
:102B500000212046FFF77EFD0746002FA0D000BFD2
:102B6000384694E72DE9F05F04468A464FF0FF09A6
:102B7000CB4604274FE021692068FFF778FA074623
:102B800007B14BE0666935780DB9042746E0F07A65
:102B900000F03F08E52D0AD02E2D08D028F02000A7
:102BA000082801D1012000E00020504502D04FF05C
:102BB000FF0929E0B8F10F0F1AD105F0400030B13C
:102BC00096F80DB025F04005A946E08820844D45D3
:102BD0000AD1707B584507D13146E069FFF76AFE9C
:102BE00010B1A9F1010000E0FF2000F0FF090BE0A7
:102BF000B9F1000F04D13046FFF72FFF584502D03E
:102C00004FF6FF70208409E000212046FFF722FDE7
:102C1000074607B102E020690028ACD100BF0FB120
:102C2000002020613846BDE8F09F0000C4D70008AE
:102C3000211001002DE9FE4F0446D4F81880D4F885
:102C40001C900C2241466846FFF7B4F900BF9DF87E
:102C50000B0000F0010020B3002088F80B00E061B9
:102C600001260CE033464A4669464046FFF79DFE82
:102C70002046FFF702FF054605B102E0761C642EF0
:102C8000F0D300BF642E02D10720BDE8FE8F042DD3
:102C900001D02846F9E79DF80B0088F80B00C4F82E
:102CA0001C909DF80B0000F0020060B1002600E0CF
:102CB000761C39F816000028FAD106F119000D210A
:102CC000B0FBF1F700E0012739462046FFF75FFD32
:102CD000054645BB781E070025D0E088C11B20466D
:102CE000FFF754FC0546F5B9A069FFF7B6FE82462A
:102CF00000BF21692068FFF7BAF9054605B111E068
:102D0000FAB253466169E069FFF712FE01202168BB
:102D1000087100212046FFF79DFC054615B9781E75
:102D20000700E6D100BFC5B921692068FFF79FF908
:102D3000054695B9202200216069FFF748F90B226A
:102D4000D4E90501FFF736F9A069C07A00F0180050
:102D500061690873012021680871284695E770B5FC
:102D60000446E688208C4FF6FF72904201D130462F
:102D700000E0208C01462046FFF708FC05460DBB0D
:102D800000BF21692068FFF772F9054605B115E01B
:102D9000202200216069FFF71AF9E52061690870B7
:102DA000012021680871E088B04200D306E00021CC
:102DB0002046FFF74FFC0546002DE2D000BF042D52
:102DC00000D10225284670BD2DE9F05F80460D46F2
:102DD00005F10907D8F81000002843D0D8F81440AE
:102DE000002626E03046761C14F80090B9F1200F3A
:102DF00000D11EE0B9F1050F01D14FF0E509092E10
:102E000002D12E2007F8010BB9F1410F0EDBB9F109
:102E10005A0F0BDC207B092E01D3102100E0082182
:102E2000084018B109F1200000F0FF0907F8019BE4
:102E300000BF0B2ED6D3E07A2872E07F0106A07F78
:102E400041EA0041607F41EA0020217F0843286079
:102E5000217E607E41EA0020A880A17DE07D41EADC
:102E60000020E88000203870A86960B30026AF69B0
:102E7000D8F8100028B3E86918B3B8F820004FF666
:102E8000FF7188421DD0D8F81CB014E000215046D4
:102E900004F088F88246BAF1000F01D100260FE055
:102EA00000BFE869401EB04201D8002608E0304665
:102EB000761C07F800A03BF8021B5FEA010AE5D187
:102EC00000BF0020B855BDE8F09F2DE9F34F83B057
:102ED00082460498D0F800B001E00BF1010B9BF89A
:102EE00000002F28F9D09BF800005C28F5D0DAF814
:102EF0001C9000252E4600BF3046761C1BF8004073
:102F0000202C03DB2F2C01D05C2C00D11CE0FF2DEA
:102F100003D3062005B0BDE8F08FE4B201212046BE
:102F200004F040F804460CB90620F3E7802C06DADA
:102F30002146FEA0FFF768F808B10620EAE7284618
:102F40006D1C29F81040D7E700BF0BEB0601049871
:102F50000160202C01DA042000E00020074608E090
:102F6000681E39F81040202C02D02E2C00D002E030
:102F70006D1E002DF4D100BF0DB90620CAE7002058
:102F800029F815000B222021DAF81800FFF71FF8A6
:102F9000002600E0761C39F816002028FAD039F80F
:102FA00016002E28F6D00EB147F0030700E06D1E84
:102FB00025B1681E39F810002E28F8D14FF000080E
:102FC000CDF808800820019000BF3046761C39F803
:102FD000104004B955E0202C03D02E2C04D1AE4271
:102FE00002D047F00307F0E7DDE90110884201D283
:102FF000AE4216D101980B2802D147F0030740E0FA
:10300000AE4201D047F00307AE4200D939E02E4668
:10301000082002900B2001904FEA88604FEA106868
:10302000D3E7802C0BDB0021204603F0BBFF0446D6
:103030001CB1A4F18000C0490C5C47F0020700BF3E
:1030400024B12146BDA0FEF7DFFF18B15F2447F091
:1030500003070FE0412C04DB5A2C02DC48F0020885
:1030600008E0612C06DB7A2C04DC48F00108A4F1AE
:10307000200084B2DAF818300298411C02911C54E6
:10308000A3E700BFDAF818000078E52803D105208F
:10309000DAF8181008700198082803D14FEA886000
:1030A0004FEA106808F00C000C2803D008F0030069
:1030B000032801D147F0020707F0020058B908F0D1
:1030C0000300012801D147F0100708F00C00042884
:1030D00001D147F00807DAF81800C772002019E795
:1030E0002DE9F3410446019800782F2803D0019878
:1030F00000785C2802D10198401C01900020A0605B
:1031000001980078202807D200212046FFF73EFAD8
:1031100005460020606128E000BF01A92046FFF7B6
:10312000D4FE054605B11FE02046FFF7A6FC054684
:10313000A069C67A3DB1042D04D100BF06F0040099
:1031400000B9052510E006F0040000B10CE0676945
:10315000F87A00F0100008B9052505E03946206826
:10316000FFF743FBA060D8E700BF2846BDE8FC811D
:1031700070B502464FF0FF301568E5B1116800E008
:10318000491C0D78202D02D30D783A2DF8D10D78F9
:103190003A2D0FD1146814F8015BA5F130030A2B06
:1031A00007D28C4205D1022B03D218464D1C29466A
:1031B000156070BD002000BFFBE770B504460D46EA
:1031C00000202071401EE06229462046FEF74FFF96
:1031D00008B1032070BD94F82E1294F82F0241EA32
:1031E00000204AF65521884201D00220F2E794F8E7
:1031F0006900010694F8680041EA004194F867000C
:1032000041EA002094F86610084320F07F404D49C1
:10321000884201D10020DDE794F88500010694F88A
:10322000840041EA004194F8830041EA002094F8C8
:103230008210084320F07F404249884201D100209B
:10324000C8E70120C6E72DE9F74F8AB000210A98A8
:1032500001600B98FFF78CFF09900998002803DAAA
:103260000B200DB0BDE8F08F3749099851F8204088
:103270000CB90C20F5E70A980460207878B16078E2
:10328000FEF708FE814609F0010040B90C9820B114
:1032900009F0040008B10A20E3E70020E1E700207C
:1032A0002070099860706078FEF708FE814609F08A
:1032B000010008B10320D4E70C9820B109F0040004
:1032C00008B10A20CDE7607804F10A020221FEF776
:1032D00050FE38B96089B0F5007F03DB6089B0F536
:1032E000805F01DD0120BCE7002739462046FFF75B
:1032F00064FF0546012D01D045BB43E000262BE0CD
:1033000004F5F77000EB061898F80400F8B198F887
:103310000B00010698F80A0041EA004198F80900FC
:1033200041EA002098F80810084311E0222A3A3CAC
:103330003E3F7C7F0000000044D700082B2C3B3D23
:103340005B5D000046415400380000201AE0002078
:1033500002A941F82600761C042ED1D3002606B11E
:10336000761E00BF02A850F8267027B139462046C5
:10337000FFF723FF00E0022005461DB1701C064642
:103380000428EFD3032D01D101206AE70DB10D20F0
:1033900067E73B20015D94F83C0041EA0020618929
:1033A000884201D00D205CE74620015D94F847007B
:1033B00041EA002ABAF1000F0ED194F85700010635
:1033C00094F8560041EA004194F8550041EA002083
:1033D00094F8541040EA010AC4F818A04020005D97
:1033E000E070E078012804D0E078022801D00D20B8
:1033F00037E7E0780AFB00FA3D20005DA070A07876
:1034000018B1A078411E084008B10D2029E74120DD
:10341000015D94F8420041EA002020816089C117D3
:1034200000EBD1614911228992FBF1F301FB1321D9
:1034300009B10D2015E74320015D94F8440041EAED
:1034400000200890089870B994F85300010694F889
:10345000520041EA004194F8510041EA002094F8FA
:103460005010084308903E20015D94F83F0041EA67
:1034700000200190019808B90D20F2E66089C1177B
:1034800000EBD1614911228992FBF1F2019951447B
:1034900011440791DDE90710884201D20D20E0E6D2
:1034A000DDE90710401AA178B0FBF1FBBBF1000F7A
:1034B00001D10D20D5E6012540F6F670834500D3F5
:1034C00002254FF6F670834500D303250BF1020069
:1034D0006061E76101983844206207983844A0622F
:1034E000032D16D1208908B10D20BAE694F85F00AB
:1034F000010694F85E0041EA004194F85D0041EA5B
:10350000002094F85C1008436062606980000690B7
:1035100014E0208908B90D20A3E6206A50446062B7
:10352000022D02D16069400007E0207D00F001001B
:10353000616901EB410100EB510006906089401E7A
:10354000069908446189B0FBF1F0A169884201D96C
:103550000D2086E64FF0FF302061E0608020607132
:10356000032D5AD194F8601094F8610041EA0020CC
:10357000012852D1791C2046FEF779FDE8BB0020D6
:10358000607194F82E1294F82F0241EA00204AF656
:103590005521884241D13320005D01063220005D73
:1035A00041EA00413120005D41EA002094F83010EA
:1035B0000843F549884230D194F81702010694F87F
:1035C000160241EA004194F8150241EA002094F8FD
:1035D00014120843ED4988421FD194F81B020106DA
:1035E00094F81A0241EA004194F8190241EA0020D5
:1035F00094F818120843206100E00EE094F81F02CE
:10360000010694F81E0241EA004194F81D0241EAC5
:10361000002094F81C120843E0602570DC48008804
:10362000401C80B2DA490880E080002019E670B5BD
:1036300005462C4684B1206870B12068007858B1E6
:103640002068C088A188884206D121684878FEF7A2
:1036500021FC00F0010008B1092070BD0020FCE74A
:10366000F7B582B016460398019001A8FFF780FDD8
:103670000546002D02DA0B2005B0F0BDC54850F814
:1036800025400CB100202070029810B10020029952
:103690000870C049029841F82500029808B1012E2F
:1036A00001D00020E8E7002203A902A8FFF7CBFD24
:1036B00007463846E0E72DE9F743ADF50C7D0546B2
:1036C000164625B909200DF50F7DBDE8F0830020D1
:1036D000286006F01F0626F001028DA983A8FFF7D7
:1036E000B2FD0746002F74D180A88990CDF828D26A
:1036F00083A88D99FFF7F4FC0746889C0FB904B99D
:10370000062706F01C0000285CD04FB1042F03D11F
:1037100083A8FFF78FFA074646F00806889C09E061
:10372000E07A00F0110008B1072703E006F004007A
:1037300000B10827002F55D106F00800002851D00D
:10374000FEF733FC804684F80E804FEA1821E173BF
:103750004FEA184121744FEA1861617484F81680A9
:103760004FEA1821E1754FEA184121764FEA1861B6
:1037700061760020E072207700216177A177E17700
:1037800021468398FFF731F8814600212046FFF754
:103790003CF8012083990871B9F1000F22D0839879
:1037A000D0F82C8049468398FEF74FFE0746CFB9E4
:1037B000A9F101008399C86041468398FEF757FC40
:1037C00007460FE077B9E07A00F0100010B1042747
:1037D00008E02DE006F0020020B1E07A00F00100E0
:1037E00000B1072747B906F0080008B146F02006E7
:1037F0008398C06AE8612C62D7B9AE710020E87185
:1038000021468398FEF7F1FF2861E07F0106A07F43
:1038100041EA0041607F41EA0020217F0843E860DF
:103820000020A860A861839828602868C088A880C4
:10383000384648E72DE9FF4F85B0044615469A46BD
:10384000DDF818B00020CAF800002046FFF7EFFEB0
:103850000490049818B1049809B0BDE8F08FE0799D
:1038600008B1E079F8E7A07900F0010008B9072075
:10387000F2E7D4E90210401A02900298854200D97A
:10388000029DC2E021684989A068B0FBF1F201FB0A
:103890001200002877D121684989A068B0FBF1F0B7
:1038A00021688978491E084000F0FF09B9F1000F2E
:1038B00017D1A06810B92069039004E061692068FD
:1038C000FEF760FC03900398022802D20220E07108
:1038D000C2E70398401C10B90120E071BCE70398CF
:1038E000606161692068FEF740FC064616B9022057
:1038F000E071B1E74E4420684089B5FBF0F8B8F1BB
:10390000000F2DD009EB080021688978884203D97F
:1039100020688078A0EB0908216848784346324641
:103920005946FEF7DFFA10B10120E07194E7A07963
:1039300000F0400078B1A069801B40450BD2A1691E
:10394000891B23685B8901FB03B021684A8904F164
:103950002401FEF72FFB2068408900FB08F74AE0AE
:10396000A069B04228D0A07900F04000C0B1216821
:103970004878012304F12401A269FEF7D6FA58B170
:103980000120E07168E718E05252614172724161B2
:103990004000002038000020A07920F04000A071F5
:1039A000216848780123324604F12401FEF79AFA8F
:1039B00010B10120E0714FE7A66121684989A06834
:1039C000B0FBF1F201FB1200216849890F1AAF42E6
:1039D00000D92F4621684989A068B0FBF1F201FBAC
:1039E000120104F1240008443A4601460190584669
:1039F000FEF7E0FA00BFBB44A0683844A060DAF8E4
:103A000000003844CAF80000ED1B002D7FF43AAFE7
:103A1000002021E72DE9FF4F83B0044615469B4661
:103A2000049801900020CBF800002046FFF7FFFD2E
:103A30000290029818B1029807B0BDE8F08FE079C3
:103A400008B1E079F8E7A07900F0020008B9072092
:103A5000F2E7A0682844A168884200D20025CFE0A0
:103A600021684989A068B0FBF1F201FB120000282F
:103A70007ED121684989A068B0FBF1F0216889787E
:103A8000491E084000F0FF0ABAF1000F1ED1A068DD
:103A900038B9276957B900212068FEF70CFD0746A1
:103AA00004E061692068FEF706FD074607B9AAE051
:103AB000012F02D10220E071BEE7781C10B901206D
:103AC000E071B9E76761206900B92761A07900F06A
:103AD000400078B121684878012304F12401A269EB
:103AE000FEF723FA10B10120E071A5E7A07920F0DC
:103AF0004000A07161692068FEF737FB064616B9E1
:103B00000220E07198E7564420684089B5FBF0F93F
:103B1000B9F1000F31D00AEB090021688978884299
:103B200003D920688078A0EB0A09216848784B46C1
:103B300032460199FEF7F9F910B10120E0717BE7F7
:103B4000A069801B484511D2A069831B2068B0F88A
:103B50000AC0019803FB0C012068428904F124008B
:103B6000FEF728FAA07920F04000A071206800E05C
:103B700017E0408900FB09F835E0A069B0420FD09A
:103B8000D4E9020188420BD22168487801233246E9
:103B900004F12401FEF7A6F910B10120E0714BE712
:103BA000A66121684989A068B0FBF1F201FB12000F
:103BB00021684989A1EB0008A84500D9A8462168D9
:103BC0004989A068B0FBF1F201FB120104F1240065
:103BD0000844424600900199FEF7ECF9A07940F0C4
:103BE0004000A07100BF019840440190A06840448B
:103BF000A060DBF800004044CBF80000A5EB08050E
:103C0000002D7FF42DAF00BFD4E90201884201D915
:103C1000A068E060A07940F02000A07100200BE7D0
:103C20002DE9F04104462046FFF701FD0746002F2D
:103C30004CD1A07900F02000002847D0A07900F0F6
:103C4000400078B121684878012304F12401A26979
:103C5000FEF76BF910B10120BDE8F081A07920F0EA
:103C60004000A071E1692068FEF701FA0746002FC5
:103C70002CD1256AE87A40F02000E872207B287772
:103C8000A089010A6977E068010CA977E068010E54
:103C9000E97728462169FEF7B8FDFEF786F9064662
:103CA000AE75310AE975310C2976310E697600203E
:103CB000A8740021E974A07920F02000A0710120EF
:103CC000216808712068FEF7ECF907463846C3E71B
:103CD00070B505462846FFF7A3FF044634B92846C9
:103CE000FFF7A5FC04460CB900202860204670BDF3
:103CF0002DE9F04704460E462046FFF798FC824621
:103D0000BAF1000F02D05046BDE8F087E07908B163
:103D1000E079F9E7E068B04204D2A07900F002004F
:103D200000B9E668D4F808904FF00008C4F808809D
:103D3000002E71D0206880782168498900FB01F746
:103D4000B9F1000F11D0701EB0FBF7F1A9F101001D
:103D5000B0FBF7F0814208D3A9F10100791E884336
:103D6000A060A068361A656912E025697DB9002156
:103D70002068FEF7A0FB0546012D02D10220E0716C
:103D8000C2E7681C10B90120E071BDE725616561DB
:103D9000002D41D023E0A07900F0020038B129467F
:103DA0002068FEF788FB054635B93E4619E02946EE
:103DB0002068FEF7E7F90546681C10B90120E0719C
:103DC000A2E7012D03D920684069A84202D8022049
:103DD000E07199E76561A0683844A060F61BBE42B7
:103DE000D9D800BFA0683044A06020684089B6FBE5
:103DF000F0F100FB116078B129462068FEF7B5F9B3
:103E00008046B8F1000F02D10220E0717CE7206803
:103E10004089B6FBF0F0804421684989A068B0FB76
:103E2000F1F201FB120020B3A069404521D0A07936
:103E300000F0400078B121684878012304F12401A2
:103E4000A269FEF772F810B10120E0715CE7A07979
:103E500020F04000A071216848780123424604F117
:103E60002401FEF73FF810B10120E0714CE7C4F8DF
:103E70001880D4E90201884205D9A068E060A079E1
:103E800040F02000A07150463EE733B5ADF5057D0A
:103E900004461CB909200DF5077D30BD002286A916
:103EA00084A8FFF7D0F905462DBB8498206081A82F
:103EB000A06101A8E06120468699FFF711F9054647
:103EC000B5B9606958B16069C07A00F0100028B1D6
:103ED00061698498FEF789FCA06000E005253DB982
:103EE0008498C088A08000212046FEF74FFB05463D
:103EF000042D00D105250DB1002020602846CAE719
:103F000070B504462046FFF792FB05460DB9002028
:103F10002060284670BD70B5ADF5047D04460E46A0
:103F20002046FFF784FB05461DBB2EB90021204625
:103F3000FEF72CFB05461CE081A8A06101A8E0610A
:103F400000212046FEF70EFE0546042D02D100207A
:103F5000206100256DB931462046FEF735FF00216E
:103F60002046FEF777FB0546042D02D10020206194
:103F7000002528460DF5047D70BD33B5ADF50D7DEA
:103F80000D4600228DA984A8FFF75DF9044694B977
:103F900081A88A9001A88B9084A88D99FFF7A0F83A
:103FA000044644B9899828B12DB1294684A8FEF762
:103FB0000BFF00E0062420460DF50F7D30BD2DE9F6
:103FC000F74F82B08A46002202A90498FFF73BF916
:103FD000019004980468019800286DD1D4E9041078
:103FE000801E814203D82069CAF8000064E094F87A
:103FF00000B00026BBF1010F1CD1022700BF3946DB
:104000002046FEF7BFF8804608F1010010B90120F4
:1040100001900EE0B8F1010F02D10220019008E0FA
:10402000B8F1000F00D1761C781C07466169884200
:10403000E5D33AE06769206A00904FF00009002557
:1040400000BFB9F1000F0ED10098421C0146204676
:104050000092FEF70CF80190019800B124E004F101
:104060003005B4F80A90BBF1020F09D128786978BD
:1040700040EA012000B9761CAD1CA9F1020910E04C
:10408000E8780006A97840EA0140697840EA012012
:104090002978084320F0704000B9761C2D1DA9F145
:1040A0000409781E0700CCD100BF2661607940F07A
:1040B00001006071CAF80060019805B0BDE8F08F9A
:1040C00070B504462046FFF7B2FA054645B9E079D7
:1040D00008B1E57904E0A07900F0020000B90725F5
:1040E000002D47D1D4E90210884241D9A068E06090
:1040F000A07940F02000A071A06838B9216920683B
:10410000FEF7A3F90546002020611DE061692068E3
:10411000FEF738F806460025701C00B90125012E6F
:1041200000D1022585B920684069B0420CD96FF0F2
:10413000704261692068FEF7C4F8054625B931462A
:104140002068FEF782F9054695B9A07900F0400095
:1041500070B121684878012304F12401A269FDF7B8
:10416000E4FE08B1012503E0A07920F04000A07131
:1041700005B1E571284670BD71B5ADF5157D002618
:10418000012295A98CA8FFF75EF80446002C46D1C1
:1041900080A89290CDF84CD28CA89599FEF7A0FFFC
:1041A000044600BF002C3AD1919D0DB9062404E0CD
:1041B000E87A00F0010000B10724FCB929468C9888
:1041C000FEF713FB0646CEB1E87A00F01000A8B166
:1041D00024228CA983A8FDF7EDFE8596022183A8F1
:1041E000FEF7D4F904464CB9002183A8FEF7BAFCC7
:1041F000044604B90724042C00D100247CB98CA8FF
:10420000FEF7ADFD04462CB926B131468C98FEF779
:104210001CF904461CB98C98FDF743FF0446204660
:104220000DF5167D70BD2DE9F147ADF50D7DFDF75E
:10423000BCFE064601228DA984A8FFF704F80546B6
:10424000002D6FD181A88A9001A88B9084A88D99A8
:10425000FEF746FF054605B9082500BF042DF0D13D
:1042600000218498FEF727F90746002507B907259E
:10427000012F00D10225781C00B901251DB98498B1
:10428000FDF7CCFE0546002D5BD139468498FDF73D
:104290006CFF8146849800F13004849842890021A3
:1042A0002046FDF794FE0B2220212046FDF78FFECD
:1042B0002E2020701020E072A675310AE175310CB5
:1042C0002176310E617639462046FEF79EFA20228D
:1042D000214604F12000FDF76DFE2E2084F8210018
:1042E000DDF818A284980078032804D18498406AE5
:1042F000504500D1AA46514604F12000FEF785FA48
:10430000849890F8028018E08498C0F82C9009F105
:1043100001090120849908718498FDF77FFE054604
:104320000DB10DE02DE08498428900212046FDF773
:104330004EFEA8F1010000F0FF08B8F1000FE3D134
:1043400000BF1DB984A8FEF775FC054625B13946A6
:104350008498FEF77AF814E0899C1020E072A67524
:10436000310AE175310C2176310E617639462046ED
:10437000FEF74BFA0120849908718498FDF791FEAD
:10438000054628460DF50E7DBDE8F087F7B5ADF57D
:104390000C7D0F46144601228CA983A8FEF753FF1B
:1043A0000646EEB980A88990CDF828D283A88C99CA
:1043B000FEF796FE064600BF96B9889D0DB9062603
:1043C0000EE004F0270407EA0400E97AA143084359
:1043D000E8720120839908718398FDF762FE064612
:1043E00030460DF50F7DF0BDF3B5ADF51B7D012217
:1043F0009BA992A8FEF727FF0446002C75D192983E
:10440000899080A89890CDF864D292A89B99FEF7E5
:1044100067FE044600BF002C67D1979808B90424B2
:1044200063E0979800F10B01152283A8FDF7C2FD08
:10443000242292A989A8FDF7BDFD9CA8FEF798FE4D
:10444000002805DB89A89C99FEF74AFE044600E097
:104450000B2404B90824042C47D189A8FEF7EAFBF1
:104460000446002C41D18E9D13220DF20E2105F140
:104470000D00FDF79FFD9DF80C0240F02000E87252
:10448000012092990871E87A00F0100018B38B9916
:10449000949888421FD029469298FEF7A6F90746BD
:1044A00039469298FDF761FE06460EB9022412E0E5
:1044B00031469298FDF7DBFD0446929800F15005D5
:1044C0004CB968782E2806D128468B99FEF79DF9BD
:1044D00001209299087144B992A8FEF740FC044665
:1044E0001CB99298FDF7DDFD044620460DF51D7DB3
:1044F000F0BD73B5ADF50C7D0D4601228CA983A8E6
:10450000FEF7A1FE0646FEB980A88990CDF828D214
:1045100083A88C99FEF7E4FD064600BFA6B9889CE7
:104520000CB9062610E0A879A075E8880112E1759B
:1045300028792076A8880112617601208399087174
:104540008398FDF7AEFD064630460DF50E7D70BD35
:104550002DE9F74F90B091461198012803DD132003
:1045600013B0BDE8F08F10A8FEF702FE0F900F9871
:10457000002801DA0B20F3E7FA490F9851F8205090
:104580000DB90C20ECE7002028700F98C0B20C90F9
:1045900000200B900C98FDF791FC0190019800F021
:1045A000010008B10320DBE7019800F0040008B126
:1045B0000A20D5E705F10A0202210C98FDF7D9FC83
:1045C00038B96889B0F5805F03DC6889B0F5007F91
:1045D00001DA0120C4E700BF04AA01210C98FDF70D
:1045E000C8FC10B90498802801D20120B8E71198BE
:1045F00008B1002000E03F2082460498A0EB0A00AA
:104600000490A9F1010000EA090008B14FF0000987
:10461000B9F1000F1AD16889C11700EBD1514912C5
:104620004FF4FA6292FBF1F1049AB2FBF1F10A91B4
:104630004FF0000B01E00BF1010BCB4830F81B10E1
:104640000A988142F7D8C94830F81B90B9F5007F25
:1046500002D36889B9FBF0F9B9F1000F01D14FF02D
:104660000109B9F1800F01D94FF080090498B0FB1E
:10467000F9F8012640F6F670804500D302264FF681
:10468000F670804500D30326032E0CD1082000EBE2
:10469000880069890844401EB0FBF1F72020039090
:1046A0000020029019E0012E05D108EB4800401CC3
:1046B0004008C01C02E04FEA4800001D0746688918
:1046C0003844401E6989B0FBF1F7012003906889E6
:1046D0004FF48041B1FBF0F00290039850440790F2
:1046E0000798384406900299069808440590059862
:1046F0004844A0EB0A000499884201D90E202FE714
:1047000009AA03210C98FDF734FC28B9099818B1BF
:104710000998B0F5004F01D9012009900999059831
:104720000844401E491E8843099009990598081AB3
:104730000990032E08D10999039808440390099918
:1047400007980844079001E009980744DDE9030150
:10475000081AC11B0298081AB0FBF9F8022E03D1FF
:1047600040F6F670804505D3032E05D14FF6F6705E
:10477000804501D20E20F3E6032E02D10C200D90CD
:1047800010E0012E06D10498B0F5803F02D201203E
:104790000D9007E00498B0F5803F01D2042000E0BE
:1047A00006200D9000BF119810B1F0200E9043E04C
:1047B0006A89002105F13000FDF709FC05F5F77461
:1047C00001206070A0700020E0700D982071FE2024
:1047D0006071049850443F21B0FBF1F0FF21B0FB21
:1047E000F1F009903F21099841EA9000A0710998E1
:1047F000E0713F20207200216172A172E172049881
:1048000020730498010A61730498010CA173049841
:10481000010EE173552185F82E12AA2185F82F1279
:104820000123002205F130010C98FDF77EFB08B151
:10483000012095E6F8200E9005F130046A890021E8
:104840002046FDF7C4FB0B2249A12046FDF7B2FB31
:10485000B5F80AB084F80BB04FEA1B21217384F835
:104860000D900398A0730398010AE173012020744E
:10487000032E01D1002001E04FF40070834684F83C
:1048800011B04FEA1B21A1740498B0F5803F05D206
:104890000498E0740498010A217510E0049884F8E3
:1048A00020000498C0F30721212001550498C0F38B
:1048B0000741222001550498010E232001550E982E
:1048C00060753F20207600216176FF20A076E1769A
:1048D00084F81CA04FEA1A2161774FEA1A41A177A8
:1048E0004FEA1A61E177FDF760FB0990032E4BD187
:1048F000099884F843000998C0F307214420015522
:104900000998C0F30741452001550998010E46203A
:10491000015584F82470C7F3072125200155C7F3FA
:10492000074126200155390E27200155022084F821
:104930002C0000212D2001552E2001552F2001553E
:10494000012084F8300031200155062084F832001F
:1049500033200155802084F84000292084F842004B
:1049600013220BE038000020D2D70008E8D7000857
:10497000EBFE904D53444F53352E3000F7A104F118
:104980004700FDF717FB1FE0099884F827000998F6
:10499000C0F30721282001550998C0F307412920B9
:1049A00001550998010E2A200155A775390AE175AC
:1049B000802084F82400292084F826001322ECA10A
:1049C00004F12B00FDF7F6FA552084F8FE01AA2128
:1049D00040F2FF1001550123524621460C98FDF785
:1049E000A4FA08B10120BBE5032E06D101230AF188
:1049F000060221460C98FDF798FA079808904FF0A8
:104A0000000B5FE06A8900212046FDF7E0FA0E986E
:104A10000990032E14D0012E01D1DA4801E06FF085
:104A2000FF00099908430990099820700998000A25
:104A300060700998000CA0700998000EE07019E0F1
:104A4000099860F0FF000990099820700998000A01
:104A500060700998000CA0700998000EE070FF20AB
:104A60002071FF216171A171E17120726172A172E7
:104A70000F21E1720898411C02460123089121464A
:104A80000C98FDF752FA08B1012069E56A89002106
:104A90002046FDF79CFA012009900EE00898411C81
:104AA00002460123089121460C98FDF73EFA08B111
:104AB000012055E50998401C09900998B842EDD3AA
:104AC0000BF1010BBBF1000F9CD0032E01D1484626
:104AD00000E00298834600BF0898411C024601236B
:104AE000089121460C98FDF720FA08B1012037E51E
:104AF000ABF101005FEA000BEED1032E49D1522049
:104B0000207060706120A0704120E070722084F8F5
:104B1000E401722140F2E51001554121401C01558C
:104B20006121401C0155A8F1010084F8E801C0F39F
:104B3000072140F2E9100155A8F10100C0F3074137
:104B40004FF4F5700155A8F10100010E40F2EB1091
:104B50000155022084F8EC01002140F2ED100155CE
:104B6000401C0155401C0155552084F8FE01AA2126
:104B700040F2FF10015501230AF1010221460C9871
:104B8000FDF7D3F901230AF1070221460C98FDF73E
:104B9000CCF9002211460C98FDF7EBF908B1012081
:104BA000DEE40020DCE42DE9FC4707468846914618
:104BB00000243E4613E06B46012201A94846FEF759
:104BC00039FE0098012800D00DE09DF8045000BF88
:104BD00006F8015B641C0A2D00D104E000BFA8F1B7
:104BE0000100A042E7DC00BF0020307014B138465D
:104BF000BDE8FC870020FBE7F8B504460E4600BF81
:104C00006568002D00DAF8BD28466D1C04F10C0122
:104C10000E543D2D0CDB6B462A462068FEF7FAFE4B
:104C20000098A84201D1002001E04FF0FF30054676
:104C30006560A068401CA06000BFE4E730B595B097
:104C400004460D460295002003900490214602A8D8
:104C5000FFF7D2FF039800280DDB01AB05A9DDE9C2
:104C60000202FEF7D7FE30B901990398884202D1BB
:104C7000049815B030BD4FF0FF30FAE730B595B06D
:104C800004460D46029500200390049004E014F8B9
:104C9000011B02A8FFF7B0FF20780028F7D1039886
:104CA00000280DDB01AB05A9DDE90202FEF7B2FE2B
:104CB00030B901990398884202D1049815B030BDEB
:104CC0004FF0FF30FAE70FB42DE9F04F9BB0249876
:104CD000019000200290039026A81A9000BF25980A
:104CE00010F8014B259004B924E1252C04D021466D
:104CF00001A8FFF781FFF2E70020064681462598CC
:104D000010F8014B2590302C05D10126259810F87C
:104D1000014B259006E02D2C04D10226259810F891
:104D2000014B259009E009EB890004EB4000A0F15C
:104D30003009259810F8014B2590302C01DB392CD7
:104D4000F1DD6C2C01D04C2C05D146F004062598E1
:104D500010F8014B2590BCB9ECE000004E4F204EFE
:104D6000414D452020202046415433322020200050
:104D70004E4F204E414D45202020204641542020BA
:104D80002020200000FFFF002546612D04DB7A2D46
:104D900002DCA5F12000C5B24F2D49D006DC422D22
:104DA00043D0432D38D0442D4CD144E0532D04D072
:104DB000552D41D0582D45D141E01A9850F804BBEB
:104DC0001A904FF0000801E008F101081BF80800F4
:104DD0000028F9D106F0020048B903E0202101A81B
:104DE000FFF70AFF404608F101084845F6D304E002
:104DF0001BF8011B01A8FFF7FFFE9BF8000000282D
:104E0000F6D103E0202101A8FFF7F6FE404608F1A5
:104E100001084845F6D362E71A9810F8042BD1B27E
:104E20001A9001A8FFF7E8FE59E7022019900EE05A
:104E3000082019900BE000BF0A20199007E010200D
:104E4000199004E0214601A8FFF7D6FE47E700BF0E
:104E500006F0040028B11A9800681A99091D1A91E1
:104E60000CE0442D05D11A9800681A99091D1A9171
:104E700004E01A9800681A99091D1A918246442D77
:104E800006D10AF0004018B1CAF1000A46F008063F
:104E9000002700BF1998BAFBF0F100FB11A0C5B2C2
:104EA0001998BAFBF0FA092D06DD782C01D12720DC
:104EB00000E007202844C5B205F13000C2B23846F0
:104EC0007F1C14A90A54BAF1000F01D0102FE1D3AE
:104ED00006F0080020B12D2238467F1C14A90A5480
:104EE000B84606F0010008B1302000E02020054659
:104EF00003E0294601A8FFF77FFE06F0020020B973
:104F0000404608F101084845F3D300BF781E074624
:104F100014AA115C01A8FFF76FFE002FF6D103E081
:104F2000294601A8FFF768FE404608F101084845F8
:104F3000F6D3D4E600BF00201A900298002810DBB8
:104F400018AB04A9DDE90102FEF764FD48B9189920
:104F50000298884205D103981BB0BDE8F00F5DF8B8
:104F600014FB4FF0FF30F7E708B50020FBF72FFFE9
:104F70000020FBF72FFFFBF7FFFE00214FF48060BE
:104F8000FBF789FE4FF47060ADF8000004208DF847
:104F900003006946FB48FBF7CFFB0420ADF8000097
:104FA0006946F948FBF7C8FB08BD08B54FF4C06077
:104FB000FBF7CAF931208DF8000001208DF80300BD
:104FC00000208DF801008DF802006846FBF7C1F95A
:104FD00008BD10B5ED48FBF70DFB10BD30B58BB02B
:104FE00004460D46EA48FBF719FB0021E948FBF7A8
:104FF000E6FAA8080390002002900A9001944FF46A
:10500000006007908020059000200890E248009002
:1050100040150690002004904FF400500990694616
:10502000DC48FBF7A1FA0121DA48FBF7C8FA0BB01C
:1050300030BD30B58BB004460D46D548FBF7EEFACF
:105040000021D448FBF7BBFAA80803901020029077
:1050500000200A9001944FF4006007908020059092
:1050600000200890CC480090401506900020049045
:105070004FF4005009906946C648FBF775FA0121C4
:10508000C448FBF79CFA0BB030BD08B501213020B5
:10509000FBF70EFE4FF4F850ADF8000018208DF825
:1050A000030003208DF802006946B648FBF744FB75
:1050B0000420ADF800006946B348FBF73DFB012131
:1050C0008802FBF7E8FD01210220FBF7E4FD08BDA3
:1050D000014600BFB0488038406B00F04500002812
:1050E000F8D040F2FF50AC4A803A906310464069D5
:1050F00008221040C0B270472DE9FC4107460D461A
:10510000002600240020009001900820A349086098
:1051100010204860402088600020C8604FF4806004
:1051200008610846FBF776FE1020FFF7D1FF044622
:1051300014B12046BDE8FC819948008800049749D5
:10514000086037204860402088600020C8604FF425
:10515000806008610846FBF75DFE3720FFF7B8FF67
:1051600004460CB12046E5E74FF0FF308D4908605A
:1051700008204860302088600220C8600020086154
:10518000012048610846FBF76EFE00208349086055
:1051900033204860402088600020C8604FF4806061
:1051A00008610846FBF736FE3320FFF791FF0446FF
:1051B0000CB12046BEE709E04FF40010FBF7A1FE5A
:1051C00020B1FBF772FE4DF82600761C724880383D
:1051D000406B40F22A6108400028EDD00820FBF720
:1051E00090FE28B10820FBF796FE04242046A1E794
:1051F0000220FBF786FE28B10220FBF78CFE02247A
:10520000204697E72020FBF77CFE28B12020FBF703
:1052100082FE062420468DE74FF40070FBF771FEF6
:1052200030B14FF40070FBF776FE0724204681E78B
:1052300040F2FF50FBF76FFE00980006009901F462
:105240007F4140EA0120009901F47F0140EA1120EA
:10525000009940EA1160686001980006019901F424
:105260007F4140EA0120019901F47F0140EA1120C9
:10527000019940EA1160286020465BE77CB505464D
:105280000024002000900190FBF7E2FD00F0007088
:1052900010B10E2420467CBD4149098888B2694678
:1052A000FFF72AFF04460CB12046F4E7012D36D162
:1052B000019800F4802000282ED03948008800048E
:1052C0003649086037204860402088600020C86068
:1052D000A80208610846FBF79DFD3720FFF7F8FE9E
:1052E00004460CB12046D6E702202C49086006206F
:1052F0004860402088600020C8604FF480600861EA
:105300000846FBF787FD0620FFF7E2FE04460CB1D6
:105310002046C0E72046BEE725242046BBE701988B
:1053200000F4803068B31E48008800041B49086000
:1053300037204860402088600020C8604FF48060BB
:1053400008610846FBF766FD3720FFF7C1FE0446FB
:105350000CB120469FE700201049086006204860F5
:10536000402088600020C8604FF4806008610846D3
:10537000FBF750FD0620FFF7ABFE0446A4B1204624
:1053800089E713E0001001400014014000200010E4
:10539000807000104404024080800140A42300205B
:1053A00048000020B8230020204674E7252420462A
:1053B00071E770B504460025FA480068032802D159
:1053C0002725284670BDF748006838B1F5480068C1
:1053D000012803D0F348006802282ED1B4F5805F7D
:1053E00002D127252846EDE7B4F5006F14D101203E
:1053F000FFF744FF054605BB0120EB490875002077
:105400000860486088604FF40060C8600020086150
:105410000846FBF7BFFC10E00020FFF72FFF054612
:105420005DB90120E0490875002008604860886087
:10543000C86008610846FBF7ADFC2846C2E770B5B6
:1054400004460025D94804600720D8494860402018
:1054500088600020C8604FF4806008610846FBF750
:10546000D9FC0720FFF734FE0546284670BD30B54D
:10547000014600200022CB4B1B7881F84E30CC4BEC
:105480001B88A1F84C30CB4B1B681A0E93090B708C
:10549000C2F383034B7002F003038B70C54B1B6890
:1054A000C3F30742CA70C34B1B88C3F307220A71B8
:1054B000C04B1A784A715B681A0E1301CB80BD4B42
:1054C0005B68C3F30742CB8843EA1213CB8002F038
:1054D0000F030B72B74B9B88C3F30722D3094B72A0
:1054E000C2F380138B72C2F34013CB72C2F300136A
:1054F0000B7300234B73AB4B1B681BB1A94B1B6891
:10550000012B3CD193071B0D0B61AA4B1A790B6938
:1055100043EA82030B61A74B9B681A0E0B6943EAAF
:1055200092130B61C2F3C2030B7502F007034B75B4
:10553000A04B9B68C3F3074253098B75C2F38203E8
:10554000CB7593075B0F0B769A4B1B89C3F307222E
:105550000B7E43EAD2130B760B695B1C4B640C7E0B
:105560004B6CA41C0125A5406B434B640C7A0123B2
:10557000A3408B64D1E9113463434B6421E0894B30
:105580001B68022B1DD18B4B1A7993069B0A0B616A
:10559000884B9B681A0E0B6943EA02230B61854B0B
:1055A0009B68C3F307420B6913430B61814B1B8953
:1055B000C3F307220B695B1CDB044B644FF40073DD
:1055C0008B64C2F3801301F8193F93065B0E4B7096
:1055D000784B1A7A4B7843EAD2134B7002F07F0370
:1055E0008B70744BDB681A0ED309CB70C2F3411376
:1055F0000B71C2F382034B7193071B0F8B716D4BC1
:10560000DB68C3F307428B7943EA92138B71C2F3D1
:105610004013CB7100230B7202F001034B72654BF8
:105620009B89C3F30722D3098B72C2F38013CB7219
:10563000C2F340130B73C2F300134B73C2F3810325
:105640008B7302F00303CB735A4B1A7B53080B7412
:1056500001234B74584B1B681A0ECA741939564BE8
:105660001B68C3F307421402CC85534B1B88C3F35A
:105670000722CB8D1343CB854F4B1A7814060C634E
:105680005B681A0E0B6B43EA02440C634A4B5B687F
:10569000C3F307420B6B43EA02240C63464B9B881F
:1056A000C3F307220B6B13430B63434B1A79342369
:1056B0005A54414B9B681A0E35235A543E4B9B68F3
:1056C000C3F3074214068C633B4B1B89C3F30722C9
:1056D0008B6B43EA02448C63374B1A7A8B6B43EA39
:1056E00002248C63344BDB681A0E8B6B13438B6381
:1056F000314BDB68C3F307423C235B5C43EA121483
:105700003C235C5413071C0DCC872B4B9B89C3F3A4
:105710000722CB8F1343CB87274B1A7B5408402398
:105720005C54012441235C5430BD70B500252348EE
:10573000446B01E02148446B04F045000028F9D097
:1057400004F0040028B103250420FBF7E4FB2846FD
:1057500070BD04F0010028B101250120FBF7DBFB3F
:105760002846F5E740F2FF50FBF7D5FB2846EFE768
:105770002DE9F04106460F464FF000080F48456BF3
:1057800001E00E48456B05F045000028F9D005F012
:105790000400A8B14FF003080420FBF7BCFB40460F
:1057A000BDE8F081440000208C230020A4230020C9
:1057B000480000200C2300201C2300200080014012
:1057C00005F0010030B14FF001080120FBF7A3FB09
:1057D0004046E5E7FBF738FBB04203D04FF0100836
:1057E0004046DDE740F2FF50FBF795FB0020FBF75A
:1057F0002FFB044604F4604018B9200C3880404662
:10580000CEE704F4005008B11320C9E704F4804047
:1058100008B11020C4E704F4004008B10F20BFE72E
:105820004046BDE738B5002401200090FBF7DDFAC3
:1058300010B92524204638BDF8480068042828D02F
:105840000020F749086002204860C02088600020DE
:10585000C8604FF4806008610846FBF7DBFAFFF789
:1058600064FF04460CB12046E5E70020FBF7F0FAA0
:10587000EC4908600420FBF7EBFAEA49486008208D
:10588000FBF7E6FAE74988600C20FBF7E1FAE54907
:10589000C860E248006858B1E0480068012807D0B5
:1058A000DE480068062803D0DC480068022816D1CC
:1058B0000020DB4908600320486040208860002009
:1058C000C8604FF4806008610846FBF7A3FA694698
:1058D0000320FFF74DFF04460CB12046ABE7CF484D
:1058E000006804282ED0BDF80000CF490860BDF83C
:1058F00000000004CA49086009204860C020886090
:105900000020C8604FF4806008610846FBF782FA07
:10591000FFF70BFF04460CB120468CE70020FBF795
:1059200097FAC24908600420FBF792FABF49486021
:105930000820FBF78DFABD4988600C20FBF788FA38
:10594000BA49C8600024204675E770B50025B848FC
:10595000446B01E0B648446B04F045000028F9D0E0
:1059600004F0040028B103250420FBF7D4FA2846EC
:1059700070BD40F2FF50FBF7CEFA2846F8E770B54D
:1059800000264FF48035AA48446B02E06D1EA848FB
:10599000446B04F0450008B9002DF7D115B104F0AF
:1059A000040028B103260420FBF7B5FA304670BD89
:1059B00004F0400028B100264020FBF7ACFA304646
:1059C000F5E73046F3E770B500254FF4803400E08A
:1059D000641E24B18020FBF794FA0028F8D014B993
:1059E0000325284670BD40F2FF50FBF794FA284685
:1059F000F8E72DE9F0410024002600250027A04605
:105A0000B2208C4908750020086048608860C86032
:105A100008610846FBF7BEF90320FBF7DBF901201C
:105A2000FBF7D5F900207E49086048608860C860AF
:105A30004FF4806008610846FBF7ECF9FFF7C3FFFD
:105A4000044614B12046BDE8F0814FF4D570744986
:105A5000086008204860402088600020C8604FF43B
:105A6000806008610846FBF7D5F9FFF788FF044618
:105A70002CB90120694908604FF0804812E00020ED
:105A80006749086037204860402088600020C8606F
:105A90004FF4806008610846FBF7BCF93720FFF738
:105AA00017FB044600205E4908603720486040200C
:105AB00088600020C8604FF4806008610846FBF7EA
:105AC000A9F93720FFF704FB0446002C4AD136E041
:105AD000002053490860372048604020886000203B
