:020000040800F2
:100000005804002045010008F5150008F715000800
:10001000FB150008FF15000803160008000000008B
:1000200000000000000000000000000007160008AB
:1000300009160008000000000B1600080D16000845
:100040005F0100085F0100085F0100085F01000810
:100050005F0100085F0100085F0100085F01000800
:100060005F0100085F0100085F0100085F010008F0
:100070005F0100085F0100085F0100085F010008E0
:100080005F0100085F0100085F0100085F010008D0
:100090005F0100085F0100085F0100085F010008C0
:1000A0005F0100085F0100085F0100085F010008B0
:1000B0005F0100085F0100085F0100085F010008A0
:1000C0005F0100085F0100085F0100085F01000890
:1000D0005F0100085F0100085F0100085F01000880
:1000E0005F0100085F0100085F0100085F01000870
:1000F0005F0100085F0100085F0100085F01000860
:100100005F0100085F0100085F0100085F0100084F
:100110005F0100085F0100085F0100085F0100083F
:100120005F0100085F0100085F0100085F0100082F
:10013000DFF80CD002F0AEFA004800475D1400086A
:10014000580400200648804706480047FEE7FEE7BF
:10015000FEE7FEE7FEE7FEE7FEE7FEE7FEE7FEE777
:1001600047020008310100080CB500200190009002
:100170006C48006840F480306A49086000BF6948F4
:10018000006800F4003000900198401C0190009835
:1001900018B90198B0F5A06FF1D16248006800F479
:1001A000003010B10120009001E000200090009884
:1001B000012843D15C48006840F010005A490860AB
:1001C0000846006820F0030008600846006840F018
:1001D0000200086053484068524948600846406839
:1001E00048600846406840F48060486008464068BF
:1001F00020F47C1048600846406840F4E8104860ED
:100200000846006840F08070086000BF45480068FC
:1002100000F000700028F9D04248406820F0030048
:10022000404948600846406840F00200486000BF0E
:100230003C48406800F00C000828F9D10CBD10B50E
:10024000FFF792FF10BD10B53648006840F001007E
:1002500034490860084640683449084031494860DC
:1002600008460068324908402E4908600846006880
:1002700020F4802008600846406820F4FE004860B2
:100280004FF41F008860FFF7DAFF4FF00060294944
:10029000086010BD10B5002100200022214B5B68D2
:1002A00003F00C0121B1042906D0082928D107E068
:1002B000214B224C236027E01F4B204C236023E07E
:1002C000184B5B6803F47010164B5B6803F48032C4
:1002D000022303EB904022B9194B4343174C236090
:1002E0000DE0104B5B6803F4003323B1144B434320
:1002F000124C236003E0104B4343104C236003E097
:100300000D4B0E4C236000BF00BF064B5B68C3F370
:1003100003130C4CE15C094B1B68CB40074C23607A
:1003200010BD000000100240002002400000FFF855
:10033000FFFFF6FE08ED00E000127A00000000204A
:1003400000093D000400002030B943F2DB028100C7
:10035000A1F1C0410A6005E043F2D2028100A1F19F
:10036000C0410A606FF07042411C8900A1F1C04198
:100370000A608100A1F1C041C1F804217047102832
:100380000AD118214FF020421166402151664FF0EA
:10039000FC319166D16610E01821F74A11604021C6
:1003A0004FF02042C2F884104FF0FC31F24A08327C
:1003B00011604FF02042C2F88C1070471820EE49AF
:1003C0002031086000200906C1F8A4004FF0FC307D
:1003D000E94928310860091D0860091D0860704757
:1003E000D0E901121143C268114302691143426905
:1003F000114382691143C2691143026A1143426A7F
:100400001143826A1143C26A1143026B11430268AD
:100410009200A2F1C0421160816808290BD10168E5
:100420008900A1F1C041096841F0400201688900DA
:10043000A1F1C0410A60416B0968426B526841EA10
:100440000211426B926841EA0221426B928941EAB1
:100450000241426B128A41EA0251426B127D41EA2B
:100460000261426B926911430268521C9200A2F130
:10047000C0421160C16AB1F5804F1BD1816B096820
:10048000826B526841EA0211826B926841EA022152
:10049000826B128A41EA0251826B127D41EA02614B
:1004A000826B9269114302689200A2F1C042C2F8C5
:1004B000041107E06FF0704201688900A1F1C041AA
:1004C000C1F80421704730B50021002200234468A0
:1004D00044F0080485682C43C5682C4305692C4307
:1004E000456944EA4524856944EA4531C46924687C
:1004F000C5696D6844EA0524C5692D8944EA054447
:10050000C5692D7B44EA0562046A2468056A6D6842
:1005100044EA0524056A2D8944EA0544056A2D7BD1
:1005200044EA05630468102C05D14FF0204421668D
:10053000A266E36608E0904C21604FF02044C4F8C6
:1005400088208D4C0C34236030BD016841F01001CF
:10055000426841EA4221826841EA4231864A2032B9
:100560001160C1680968C268526841EA0221C26824
:10057000128941EA0241C268127B41EA02617E4A65
:1005800028321160016909680269526841EA022152
:100590000269128941EA02410269127B41EA026161
:1005A000754A2C321160416909684269526841EA12
:1005B00002214269128941EA02414269127B41EA01
:1005C00002614FF02042C2F8B01070470021016074
:1005D0000221416000218160C1600161416181614E
:1005E000C16101624FF48051416249008162002182
:1005F000C16201630F21426B1160426B5160FF21A8
:10060000426B91600F21426BD160426B1161426B72
:1006100051610021426B91610F21826B1160826BED
:100620005160FF21826B91600F21826BD160826BE0
:100630001161826B51610021826B916170471021C1
:100640000160002141608160C1600161416181619F
:10065000FC21C2691160C2695160C2699160C269BE
:10066000D160026A1160026A5160026A9160026A96
:10067000D16070470021016041608160FC21C26847
:100680001160C2685160C2689160C268D16002693D
:10069000116002695160026991600269D16042692A
:1006A000116042695160426991604269D16070474E
:1006B00051B18200A2F1C042126842F001038200EF
:1006C000A2F1C042136009E08200A2F1C0421268A8
:1006D0002A4B1A408300A3F1C0431A60704799B1B6
:1006E000102808D14FF02042126E42F004024FF061
:1006F00020431A661DE0204A126842F004024FF0BF
:100700002043C3F8802014E0102809D14FF0204284
:10071000126E1A4BDB1E1A404FF020431A6608E097
:10072000154A1268154BDB1E1A404FF02043C3F8E0
:100730008020704748B110492031096841F0040118
:100740004FF02042C2F8A01009E00B49203109689F
:100750000A4AD21E11404FF02042C2F8A010704742
:10076000B9B110280CD14FF02042126E42F0400275
:100770004FF020431A661FE0800000A0FEFF0F002C
:10078000724A126842F040024FF02043C3F88020C2
:1007900012E0102808D14FF02042126E6C4B1A4024
:1007A0004FF020431A6607E0684A1268684B1A4007
:1007B0004FF02043C3F880207047014600201029E5
:1007C00003D14FF02042506F02E0604A14321068AB
:1007D000704710B5F2B1102807D14FF020435B6E7F
:1007E0000B434FF02044636632E0B0F5807F08D1C0
:1007F000564B1B1D1B680B434FF02044C4F884303C
:1008000026E0524B24331B680B434FF02044C4F8BE
:10081000A4301DE0102807D14FF020435B6E8B43BE
:100820004FF02044636613E0B0F5807F08D1474B5A
:100830001B1D1B688B434FF02044C4F8843007E035
:10084000424B24331B688B434FF02044C4F8A43040
:1008500010BD10B5024600200023102A03D14FF02E
:100860002044636E09E0B2F5807F03D1374C241D2C
:10087000236802E0354C2434236803EA01040CB1F8
:10088000012000E0002010BD102807D14FF02042C9
:10089000526E8A434FF020435A6613E0B0F5807FD2
:1008A00008D12A4A121D12688A434FF02043C3F828
:1008B000842007E0254A243212688A434FF02043FF
:1008C000C3F8A420704770B502460020002300241E
:1008D0000025102A03D14FF02046736E09E0B2F5CF
:1008E000807F03D1194E361D336802E0174E24363F
:1008F000336803EA010403EAD10514B10DB1012004
:1009000000E0002070BD102808D14FF02042526E48
:1009100022EAD1024FF020435A6615E0B0F5807FFD
:1009200009D10A4A121D126822EAD1024FF020436F
:10093000C3F8842008E0054A2432126822EAD10272
:100940004FF02043C3F8A42070470000800000A0AF
:10095000BFFF0F0010B50446CC48844208D10121E6
:10096000042000F02DFB0021042000F029FB46E0CC
:10097000C748844208D10121082000F021FB002152
:10098000082000F01DFB3AE0C248844208D1012152
:10099000102000F015FB0021102000F011FB2EE0CC
:1009A000BD48844208D10121202000F009FB00212C
:1009B000202000F005FB22E0B848844208D1012144
:1009C000402000F0FDFA0021402000F0F9FA16E086
:1009D000B348844208D10121802000F0F1FA0021BF
:1009E000802000F0EDFA0AE0AE48844207D10121F0
:1009F000801500F0E5FA0021A01500F0E1FA10BD25
:100A000010B50121084600F0DBFA0021012000F0BA
:100A1000D7FA10BD2DE9F04102460025002600203E
:100A200000230024002791F803C00CF00F0591F873
:100A300003C00CF0100CBCF1000F03D091F802C001
:100A40004CEA050591F800C0BCF1000F31D01468E4
:100A500000202BE04FF0010C0CFA00F3B1F800C0BD
:100A60000CEA03069E4220D183004FF00F0C0CFAD3
:100A700003F7BC4305FA03FC4CEA040491F803C0F5
:100A8000BCF1280F06D14FF0010C0CFA00FCC2F8A3
:100A900014C00AE091F803C0BCF1480F05D14FF033
:100AA000010C0CFA00FCC2F810C0401C0828D1D37D
:100AB0001460B1F800C0BCF1FF0F34DD54680020B1
:100AC0002EE000F1080C4FF0010808FA0CF3B1F821
:100AD00000C00CEA03069E4221D183004FF00F0CA8
:100AE0000CFA03F7BC4305FA03FC4CEA040491F842
:100AF00003C0BCF1280F05D100F1080C08FA0CF86E
:100B0000C2F8148091F803C0BCF1480F07D100F17E
:100B1000080C4FF0010808FA0CF8C2F81080401CCD
:100B20000828CED35460BDE8F0814FF6FF710180F4
:100B3000022181700421C170704702460020936831
:100B40000B400BB1012000E000207047014688688F
:100B500080B2704702460020D3680B400BB10120E1
:100B600000E0002070470146C86880B2704701610C
:100B70007047416170470AB1016100E0416170470F
:100B8000C16070474FF480320A43826181618261A3
:100B900082698269704702460020434B18684FF60D
:100BA0008073184040EA021008433F4B18607047BA
:100BB0003E49C8617047F0B50A4600230024002171
:100BC000002500F00046B6F1004F02D1364EF16923
:100BD00001E0354E7168C0F3034583B200F440165E
:100BE000B6F5401F08D121F070612F4E766826F0CF
:100BF00070662D4F7E6012E000F48016B6F5801FFF
:100C000006D1032606FA05F4A14341F0706106E01F
:100C1000460D360103FA06F6B14341F0706122B188
:100C2000460D360103FA06F6314300F00046B6F1F0
:100C3000004F02D11C4EF16101E01B4E7160F0BD0E
:100C400030B500228B071C0F0F2303FA04F2164B5A
:100C500008338C1053F824309343134C08348D1010
:100C600044F8253023468C1053F824308C07240F89
:100C700000FA04F423430C4C08348D1044F825305A
:100C800030BD0A49DC3108607047000000080140AF
:100C9000000C014000100140001401400018014008
:100CA000001C0140002001400000014000002042E3
:100CB000DF48006840F00100DD49086008464068F0
:100CC000DC490840DA49486008460068DA490840CB
:100CD000D74908600846006820F48020086008466C
:100CE000406820F4FE0048604FF41F0088607047A1
:100CF000CF49096821F48031CD4A11601146096855
:100D000021F480211160B0F5803F03D0B0F5802F31
:100D10000ED106E0C649096841F48031C44A116029
:100D200007E0C349096841F4A021C14A116000E00D
:100D300000BF00BF704710B501460022002300200D
:100D40004A11012A02D1BA4C236806E0022A02D1D4
:100D5000B74C236A01E0B64C636A01F01F0201241C
:100D600094401C400CB1012000E0002010BD38B5BB
:100D7000002000900024002500BF3120FFF7DBFF9A
:100D800005460098401C00900098B0F5A06F01D077
:100D9000002DF2D03120FFF7CEFF08B1012400E092
:100DA0000024204638BD01460020A14A106820F0EA
:100DB000F80040EAC10010607047A0490860704721
:100DC000024600209A4B586820F47C1042EA010346
:100DD0001843974B5860704798490866704701461A
:100DE0000020934A506820F0030008435060704789
:100DF0008F48406800F00C007047014600208C4A84
:100E0000506820F0F0000843506070470146002011
:100E1000874A506820F4E0600843506070470146FC
:100E20000020834A506820F4605040EAC1005060BE
:100E3000704729B17E4A527A02437D4B5A7204E0D0
:100E40007B4A527A82437A4B5A7270477B49D83137
:100E50000860704701460020754A506820F4404001
:100E60000843506070470021714A20321170704A67
:100E700082F82010012802D004280AD104E00121C0
:100E80006B4A2032117005E00521694A2032117049
:100E900000E000BF00BF70476949086070476449BF
:100EA000096A0143624A1162704765494439086022
:100EB000704730B500210022002400235C4D6D688E
:100EC00005F00C0121B1042905D0082923D105E042
:100ED0005C4D056022E05B4D05601FE0544D6D6880
:100EE00005F47012524D6D6805F48034022505EB4F
:100EF00092421CB9544D554305600BE04C4D6D6852
:100F000005F400351DB1504D5543056002E04D4DCF
:100F10005543056002E04B4D056000BF00BF444DE6
:100F20006D6805F0F0010909484D6B5C0568DD400E
:100F300045603F4D6D6805F4E061090A434D6B5C07
:100F40004568DD4085603A4D6D6805F46051C90A19
:100F50003E4D6B5C4568DD40C560354D6D6805F400
:100F60004041890B3A4D6B5CC568B5FBF3F50561F3
:100F700030BD29B12E4A526902432D4B5A6104E01B
:100F80002B4A526982432A4B5A61704729B1284A39
:100F900092690243264B9A6104E0254A9269824392
:100FA000234B9A61704729B1214AD2690243204BF1
:100FB000DA6104E01E4AD26982431D4BDA61704750
:100FC00029B11B4AD2680243194BDA6004E0184A7F
:100FD000D2688243164BDA60704729B1144A12690D
:100FE0000243134B1A6104E0114A12698243104B09
:100FF0001A61704712494039086070470F49C86448
:1010000070470B49C87170470948406A40F08070CA
:1010100007494862704701460020054A92680A4025
:101020000AB1012000E00020704701498872704732
:10103000001002400000FFF8FFFFF6FE00004242F1
:101040008004424200127A0000093D001400002092
:101050002400002010B50446FB48844209D1012138
:101060008803FFF7ADFF00214FF48040FFF7A8FF92
:1010700032E0F648844209D101214804FFF7ADFF70
:1010800000214FF40030FFF7A8FF25E0F04884422C
:1010900009D101218804FFF7A0FF00214FF480202F
:1010A000FFF79BFF18E0EB48844209D10121C804F7
:1010B000FFF793FF00214FF40020FFF78EFF0BE0B6
:1010C000E548844208D101210805FFF786FF002189
:1010D0004FF48010FFF781FF10BD2DE9F04786B077
:1010E00005460E460024A24600BFA1460027B0894F
:1010F00000B100BF2F462C8A4CF6FF700440F088E8
:1011000004432C82AC894EF6F3100440B088318938
:101110000843718908430443AC81AC8A4FF6FF4011
:101120000440B0890443AC8201A8FFF7C2FEC64860
:10113000874202D1DDF810A001E0DDF80CA0A889FB
:1011400000F4004040B10AEBCA0000EB0A1031681D
:101150004900B0FBF1F807E00AEBCA0000EB0A1007
:1011600031688900B0FBF1F86420B8FBF0F00401AD
:101170002009642101FB1089A88900F4004040B1D6
:10118000322000EBC900B0FBF1F000F0070004438F
:1011900008E0322000EB09106421B0FBF1F000F010
:1011A0000F0004432C8106B0BDE8F0874FF41651C0
:1011B000016000218180C18001810C2141810021D9
:1011C0008181704710B502460020108A4FF2FF035C
:1011D00018400B884C8823438C882343CC882343B6
:1011E0001843108210BD0021018041808180C180A0
:1011F000704721B1828942F40052828104E08289E1
:101200004DF6FF731A4082817047F0B50346002403
:1012100000260025002040F66A17B94200D100BF21
:101220001846C1F3421401F01F06012707FA06F51C
:10123000012C01D10C3004E0022C01D1103000E06F
:1012400014301AB107682F43076002E00768AF4304
:101250000760F0BD1AB1838A0B43838202E0838A60
:101260008B4383827047028A4FF6F0731A400282E2
:10127000028A0A430282704782894FF2FF731A4042
:10128000828182890A438281704721B1828942F03A
:101290000202828104E082894FF6FD731A40828146
:1012A0007047028A4FF6DF731A400282028A0A43AD
:1012B0000282704721B1028A42F48042028204E035
:1012C000028A4BF6FF731A4002827047C1F308028C
:1012D0008280704701468888C0F308007047818982
:1012E00041F0010181817047028BD2B20283028BEF
:1012F00042EA012202837047028B02F47F4202839A
:10130000028B0A430283704721B1828A42F0200295
:10131000828204E0828A4FF6DF731A40828270472D
:1013200021B1828A42F01002828204E0828A4FF662
:10133000EF731A408282704721B1828A42F008021C
:10134000828204E0828A4FF6F7731A4082827047E5
:1013500021B1828942F40042828103E08289C2F392
:101360000E028281704721B1828A42F40062828239
:1013700004E0828A4FF2FF731A4082827047828AA9
:101380004FF6FB731A408282828A0A438282704738
:1013900021B1828A42F00202828204E0828A4FF600
:1013A000FD731A408282704702460020B1F5007F2B
:1013B00000D100BF13880B400BB1012000E00020DA
:1013C000704701F40072B2F5007F00D100BFCA433C
:1013D0000280704770B502460024002300250020DB
:1013E00040F66A16B14200D100BFC1F3421501F0C8
:1013F0001F03012606FA03F3012D02D1968933401B
:1014000006E0022D02D1168A334001E0968A33406D
:101410000C12012606FA04F41688344013B10CB1FC
:10142000012000E0002070BD10B50022002340F62E
:101430006A14A14200D100BF0A1201249440A3B251
:10144000DC43048010BD000000380140004400402F
:1014500000480040004C0040005000409CB000F0AC
:10146000CDF900F070FE062000F0E4FD3E48038850
:101470003E4802880021084600F0C0FE00F018FA3D
:1014800001F0B2F800243AA1204601F020F800F063
:10149000EFF867E001A800F020F901283BD101F046
:1014A000A3F8C48838A1204601F011F89DF8053052
:1014B0009DF8042037A103A801F00EF901F094F87B
:1014C000C0884004040C204601F0A3F801F08CF819
:1014D000C0884004040C03A9204600F0F8FF9DF8E2
:1014E00007309DF806202FA103A801F0F5F801F0C0
:1014F0007BF8C08800EB400084B2204601F089F8F8
:1015000001F072F8C08800EB400084B203A92046C5
:1015100000F0DDFF23E001F067F8C0884004040C10
:10152000204601F076F801F05FF8C08800EB40003B
:1015300084B2204601F06DF801F056F8C0884004EE
:10154000040C1DA1204600F0C2FF01F04DF8C08838
:1015500000EB400084B21FA1204600F0B8FF2448F1
:1015600000F081F996E700004600002044000020CA
:1015700044485431312048756D69416E6454656D3D
:1015800070205465737420004448543131206465E0
:101590006D6F000048756D69646974793A2025643F
:1015A0002E25640054656D70657261747572653ABC
:1015B0002025642E2564000052656164204448544F
:1015C00031312048756D6964697479204552524FF4
:1015D0005200000052656164204448543131205467
:1015E000656D70657261747572204552524F52007C
:1015F00080841E00704700BFFEE700BFFEE700BF0B
:10160000FEE700BFFEE770477047704710B500F077
:101610003CF910BD08B501214020FFF7B7FC402080
:10162000ADF8000010208DF8030003208DF80200B3
:1016300069465148FFF7EEF908BD08B54020ADF8FE
:10164000000048208DF8030069464B48FFF7E2F997
:1016500008BD08B54020ADF8000010208DF803004B
:1016600003208DF8020069464348FFF7D3F908BD0F
:1016700010B5FFF7CFFF40213F48FFF778FA10BDC4
:1016800070B50025002424E000BF40213A48FFF750
:1016900054FA0028F9D0282000F082F8402136487A
:1016A000FFF74BFA01280DD100BF40213248FFF768
:1016B00044FA0128F9D0C4F1070101208840C0B2E2
:1016C000054304E0C4F10701012088408543601C04
:1016D000C4B2082CD8DB284670BD10B50446FFF70D
:1016E000B8FF40212448FFF744FA44F2506000F06C
:1016F00057F840212048FFF73AFA1E2000F050F832
:10170000FFF79BFF40211C48FFF717FA80BB00BF83
:1017100040211948FFF711FA0028F9D000BF4021F5
:101720001548FFF70AFA0128F9D0FFF7A9FF207042
:10173000FFF7A6FF6070FFF7A3FFA070FFF7A0FF01
:10174000E070FFF79DFF2071FFF783FF40210A48FB
:10175000FFF70DFAA078E178084421780844617811
:1017600008442179884201D1012010BD0020FCE706
:10177000FFE70020F9E70000001801401B4800685F
:1017800040F08070194908600020194948600846F7
:10179000006840F0010008607047154840687047D5
:1017A00031B50024FFF7EAFF124800681249B0FB88
:1017B000F1F0009900FB01F500BFFFF7EEFF0346D3
:1017C00011E0FFF7EAFF02469A420CD09A4202D992
:1017D000D01A044403E0C3F1FF301044044413461C
:1017E000AC4200D300E0ECE700BF38BDFCED00E008
:1017F000001000E00000002040420F0030B52748F4
:101800000068274AB0FBF2F1B1F1807F01D30120DB
:101810001DE021F07F40401E4FF0E0225061501744
:101820000F22002807DA13071D0E1E4B00F00F04CD
:10183000241F1D5503E013071C0E1B4B1C5400BF37
:1018400000204FF0E022906107201061002008B1D5
:1018500000BFFEE74FF0E020006920F001004FF0EC
:10186000E021086130BD01B51049009808604FF0D3
:10187000E020006940F001004FF0E021086100BF66
:101880000A4800680028FBD108BD0848006820B15C
:1018900006480068401E05490860704700000020A7
:1018A00040420F0018ED00E000E400E028000020B6
:1018B00000B585B001210420FFF768FB01218803F2
:1018C000FFF764FB18208DF813004FF40070ADF89B
:1018D000100003208DF8120004A92148FFF79AF8A0
:1018E00004208DF813000002ADF8100004A91C4874
:1018F000FFF790F84FF4E13000900020ADF80400BD
:10190000ADF80600ADF80800ADF80C000C20ADF8FD
:101910000A0069461348FFF7E0FB01211148FFF771
:1019200068FC05B000BD70B504460D46E1B20D4837
:10193000FFF7CCFC00BF80210A48FFF735FD0028E7
:10194000F9D0204670BD10B5044600BF20210548DF
:10195000FFF72AFD0028F9D00248FFF7BBFC10BDB5
:10196000000801400038014001B502E00098401E27
:10197000009000980028F9D108BD08B50121602029
:10198000FFF704FB18208DF8030003208DF80200F8
:101990004FF48040ADF800006946FE48FFF73AF882
:1019A0004FF40040ADF800006946FA48FFF732F8FE
:1019B0000120ADF800006946F648FFF72BF8022039
:1019C000ADF800006946F348FFF724F88020ADF831
:1019D00000006946F048FFF71DF84FF48070ADF83D
:1019E00000006946EC48FFF715F84FF40070ADF8B9
:1019F00000006946E848FFF70DF84FF48060ADF845
:101A000000006946E448FFF705F84FF40060ADF8C0
:101A100000006946E048FEF7FDFF4FF48050ADF846
:101A200000006946DC48FEF7F5FF4FF40050ADF8C2
:101A300000006946D848FEF7EDFF4FF48040ADF84E
:101A400000006946D448FEF7E5FF4FF40040ADF8CA
:101A500000006946D048FEF7DDFF4FF48070ADF816
:101A600000006946CB48FEF7D5FF4FF40070ADF893
:101A700000006946C748FEF7CDFF4FF48060ADF81F
:101A800000006946C348FEF7C5FF18208DF8030023
:101A900003208DF802008020ADF800006946BD48A3
:101AA000FEF7B8FF2020ADF800006946B948FEF700
:101AB000B1FF1020ADF800006946B648FEF7AAFF56
:101AC0004FF40060ADF800006946B248FEF7A2FF8F
:101AD00010208DF8030003208DF802000220ADF8DD
:101AE00000006946AC48FEF795FF10208DF8030012
:101AF00003208DF802004FF48050ADF800006946D5
:101B0000A448FEF787FF08BD00B597B03C2108A8A0
:101B100000F09FFD1C2101A800F09BFD012108029F
:101B2000FFF727FA01200190042003908006079018
:101B300000200290049005900690089009900820DB
:101B40000A9010200B9000200C900E900F90109097
:101B50004FF480501190002012901390149001A81F
:101B60001590169008A8FEF73BFC01210020FEF717
:101B70009FFD17B000BD10B50024042000F0A2FDA9
:101B800000BF8648008800BF8448008800F094FDAC
:101B900004464FF6FF7000EA042400F08DFD044374
:101BA00048F25250844201D1204610BDD32000F0AB
:101BB00089FD00BF7948008800BF7848008800F0A0
:101BC0007BFD04464FF6FF7000EA042400F074FD2C
:101BD000044349F24130844201D12046E5E7002028
:101BE000E3E710B5FFF7C7FF6D4908800846008896
:101BF00049F2413188427CD1CF2000F063FD0020C2
:101C000000F064FD812000F061FD302000F05EFDF9
:101C1000ED2000F057FD642000F058FD032000F097
:101C200055FD122000F052FD812000F04FFDE8200C
:101C300000F048FD852000F049FD102000F046FD31
:101C4000782000F043FDCB2000F03CFD392000F06F
:101C50003DFD2C2000F03AFD002000F037FD34203F
:101C600000F034FD062000F031FDF72000F02AFDE1
:101C7000202000F02BFDEA2000F024FD002000F0E1
:101C800025FD002000F022FDB12000F01BFD00200A
:101C900000F01CFD1B2000F019FDB62000F012FD25
:101CA0000A2000F013FDA22000F010FDC02000F07B
:101CB00009FD352000F00AFDC12000F003FD1120D0
:101CC00000F004FDC52000F0FDFC452000F0FEFC06
:101CD000452000F0FBFCC72000F0F4FCA22000F03F
:101CE000F5FCF22000F0EEFC002000F0EFFC2620D6
:101CF00000E0A2E000F0E6FC012000F0E7FCE020BC
:101D000000F0E0FC0F2000F0E1FC262000F0DEFCFB
:101D1000242000F0DBFC0B2000F0D8FC0E2000F0AB
:101D2000D5FC092000F0D2FC542000F0CFFCA82004
:101D300000F0CCFC462000F0C9FC0C2000F0C6FCF2
:101D4000172000F0C3FC092000F0C0FC0F2000F0B9
:101D5000BDFC072000F0BAFC002000F0B7FCE12039
:101D600000F0B0FC002000F0B1FC192000F0AEFC47
:101D70001B2000F0ABFC042000F0A8FC102000F0B9
:101D8000A5FC072000F0A2FC2A2000F09FFC4720C1
:101D900008E000000014014000180140000002604B
:101DA0004A00002000F092FC392000F08FFC032054
:101DB00000F08CFC062000F089FC062000F086FC78
:101DC000302000F083FC382000F080FC0F2000F071
:101DD0007DFC362000F076FCC82000F077FC2A203D
:101DE00000F070FC002000F071FC002000F06EFCA0
:101DF000002000F06BFCEF2000F068FC2B2000F0CE
:101E000061FC002000F062FC002000F05FFC01207B
:101E100000F05CFC3F2000F059FC3A2000F052FC3E
:101E2000552000F053FC112000F04CFCFD48FFF75A
:101E30009BFD292000F046FCFBE0FB48008848F2AF
:101E400052518842F8D1CF2000F03CFC002000F035
:101E50003DFCC12000F03AFC302000F037FCED20C2
:101E600000F030FC642000F031FC032000F02EFC78
:101E7000122000F02BFC812000F028FCE82000F06C
:101E800021FC852000F022FC102000F01FFC7820AF
:101E900000F01CFCCB2000F015FC392000F016FCF3
:101EA0002C2000F013FC002000F010FC342000F087
:101EB0000DFC022000F00AFCF72000F003FC2020BB
:101EC00000F004FCEA2000F0FDFB002000F0FEFB27
:101ED000002000F0FBFBC02000F0F4FB212000F00C
:101EE000F5FBC12000F0EEFB112000F0EFFBC52058
:101EF00000F0E8FB2D2000F0E9FB332000F0E6FBCA
:101F0000362000F0DFFB002000F0E0FB3A2000F07C
:101F1000D9FB552000F0DAFBB12000F0D3FB002004
:101F200000F0D4FB172000F0D1FBB62000F0CAFB74
:101F30000A2000F0CBFBA22000F0C8FBF62000F046
:101F4000C1FB012000F0C2FB302000F0BFFBF220FB
:101F500000F0B8FB002000F0B9FB262000F0B2FB37
:101F6000012000F0B3FBE02000F0ACFBD02000F03B
:101F7000ADFB002000F0AAFB022000F0A7FB072029
:101F800000F0A4FB0B2000F0A1FB1A2000F09EFB48
:101F9000312000F09BFB542000F098FB402000F023
:101FA00095FB292000F092FB122000F08FFB1220FD
:101FB00000F08CFB122000F089FB172000F086FB5C
:101FC000E12000F07FFBD02000F080FB002000F03B
:101FD0007DFB022000F07AFB072000F077FB052054
:101FE00000F074FB252000F071FB2D2000F06EFB4B
:101FF000442000F06BFB452000F068FB1C2000F043
:1020000065FB182000F062FB162000F05FFB1C202F
:1020100000F05CFB1D2000F059FB112000F052FB8A
:102020008048FFF7A1FC292000F04CFB2C2000F099
:1020300049FB10BD10B50446072C00DD10BD7B48E0
:102040000470204604EBD0714910A4EB410139B96A
:10205000F020774908804FF4A0707649088006E0A8
:102060004FF4A07072490880F02072490880362031
:1020700000F028FB6C48008849F24131884205D1C4
:10208000082141EA441000F021FB0AE0664800887C
:1020900048F25251884204D1002141EA441000F034
:1020A00015FB2A2000F00EFB002000F00FFB0020A3
:1020B00000F00CFB5E490988491EC1F3072000F0BF
:1020C00005FB5B490978491EC8B200F0FFFA2B20D6
:1020D00000F0F8FA002000F0F9FA002000F0F6FA1B
:1020E00054490988491EC1F3072000F0EFFA51490D
:1020F0000978491EC8B200F0E9FA2C2000F0E2FA93
:1021000000BF9BE710B502214B48FEF732FD40F6B9
:10211000FF20FFF729FC02214748FEF728FD40F683
:10212000FF20FFF721FC10BD10B504462CB14FF481
:1021300080514248FEF71DFD04E04FF480513F48B6
:10214000FEF715FD10BD10B5FFF717FCFFF7DCFC1F
:102150000120FFF7E9FFFFF7D5FFFFF742FD334806
:102160000078FFF767FF10BD2DE9F04104460D46EA
:1021700016461F462A2000F0A5FA201200F0A6FA03
:10218000E0B200F0A3FAA119491EC1F30F2000F03C
:102190009DFAA119491EC8B200F098FA2B2000F050
:1021A00091FA281200F092FAE8B200F08FFAE919D9
:1021B000491EC1F30F2000F089FAE919491EC8B27F
:1021C00000F084FABDE8F08170B504460D460123A5
:1021D0001A4629462046FFF7C7FF70BD70B5044672
:1021E0000D4600262C2000F06DFA00BF03E02846C3
:1021F00000F06CFA761CA642F9D370BD2DE9F041CF
:1022000006460F4614461D462B46224639463046A2
:10221000FFF7AAFF04FB05F009490988FFF7DEFF75
:10222000BDE8F081FCBF02004A0000204800002009
:102230004400002046000020001801400014014026
:102240005200002070B505460C46F84800888542CB
:102250000CDAF7480088844208DA21462846FFF75E
:10226000B3FFF44801880120FFF7B8FF70BD70B5D7
:10227000002400252E2000F025FA00BFEE4800883B
:1022800000F01AFA044600F017FA054604F4784004
:102290004FF4FC6101EAC401084340EAE52070BD47
:1022A00070B504460D4629462046FFF78DFFFFF71F
:1022B000DEFF0646304670BD2DE9FF4F83B08146F4
:1022C0004FF0000AD3460598A0EB0905049906983B
:1022D000461ACDF8049004980090002D01DD0127E6
:1022E00005E00DB9002702E04FF0FF376D42002EE8
:1022F00002DD4FF0010806E016B94FF0000802E0D9
:102300004FF0FF387642B54201DD2C4600E03446FE
:102310000020029019E0DDE90010FFF793FFAA44C6
:10232000B344A24505DDAAEB040A0198384480B203
:102330000190A34505DDABEB040B0098404480B24F
:1023400000900298401C80B20290611C0298884262
:10235000E1DD07B0BDE8F08F2DE9F04104460D4600
:1023600016461F46DDF81880B8F1000F0CD03B462A
:10237000324629462046FFF7F7FE06FB07F0AD4937
:102380000988FFF72BFF27E0A019401E82B22B46D9
:1023900029462046FFF790FFE819401E83B22246E7
:1023A00029462046FFF788FFE819401E83B2A0198E
:1023B000401E82B2E819401E81B22046FFF77CFF22
:1023C000E919491E8BB2A119491E8AB2A119491EE9
:1023D00088B22946FFF770FFBDE8F0812DE9F05F74
:1023E0000746884615469946684204B226E0684288
:1023F00006B21FE006FB04F004FB040105FB05F038
:10240000814215DC07EB060A08EB040BB9F1000F5B
:1024100007D106FB04F004FB040105FB05F0814233
:1024200005DC1FFA8BF11FFA8AF0FFF70BFF00BFE4
:10243000701C06B2AE42DDDD601C04B2AC42D6DDDB
:10244000BDE8F09F2DE9F05F804689461646A6F16B
:1024500020001FFA80FA794909688988774A12684A
:10246000D28801FB02F0C11700EB5171C1F3C7071D
:102470007248006800680AFB070B70480068C38850
:102480006E480068828849464046FFF76DFE2C2062
:1024900000F018F9002416E0002510E01BF80400F5
:1024A00080212941084020B16248008800F00EF9DF
:1024B00003E06348008800F009F9681CC5B2082DE4
:1024C000ECDB601CC4B2BC42E6DBBDE8F09F70B53B
:1024D00004460D46002624E030465849096889889C
:1024E000084452490988884205DD0026534800689F
:1024F000C088204484B2204650490968C9880844ED
:102500004B490988884201DD0026A4B22A78214679
:102510003046FFF797FF6D1C4848006880883044BC
:1025200086B228780028D7D170BD70B506460C4613
:10253000154624E0304641490968898808443B49EA
:102540000988884205DD00263C480068C088204490
:1025500084B2204639490968C98808443449098841
:10256000884201DD0026A4B22A7821463046FFF7D2
:1025700069FF6D1C314800688088304486B2287835
:102580000028D7D170BD70B506460C46154624E02C
:1025900020462A490968C98808442549098888428B
:1025A00005DD0024254800688088304486B2304626
:1025B00022490968898808441C490988884201DD44
:1025C0000026A4B22A7821463046FFF73BFF6D1C57
:1025D0001A480068C088204484B228780028D7D1DF
:1025E00070BD164908607047144800687047114A6A
:1025F0001080134A118070470E4A12880280104AD8
:1026000012880A8070470B49088070470C4908807F
:10261000704770B50446FFF7E7FFC5882B460348AF
:10262000028821460020FFF7E9FD70BD440000202C
:102630004600002050000020000002604C000020F6
:1026400052000020D2B201E000F8012B491EFBD25B
:1026500070470022F6E710B513460A4604461946AD
:10266000FFF7F0FF204610BD30B50B4601460020B5
:102670002022012409E021FA02F59D4205D303FA44
:1026800002F5491B04FA02F52844151EA2F10102C5
:10269000F1DC30BD064C074D06E0E06840F0010378
:1026A00094E8070098471034AC42F6D3FDF744FD98
:1026B000E0630008006400080148008870470000DB
:1026C000000002604FF0C041088070470149088057
:1026D00070470000000002600FB4084B10B504A959
:1026E00002AA039800F01CF8044602A9002000F09A
:1026F000C1F8204610BC5DF814FB000075280008E6
:1027000002E008C8121F08C1002AFAD170477047BA
:10271000002001E001C1121F002AFBD17047000018
:102720002DE9FF4F89B09B460446002506E0252889
:102730000BD05A460B999047641C6D1C20780028DA
:10274000F5D10DB02846BDE8F08F0027B84601222C
:10275000474900E0074314F8013F203B02FA03F029
:102760000842F7D120782E2819D114F8010F47F02C
:1027700004072A280ED06FF02F022078A0F1300134
:1027800009290CD808EB880102EB410100EB010894
:10279000641CF2E70A98641C50F8048B0A902078B5
:1027A0000028CED0642808D0692806D075281ED00D
:1027B0005A460B9990476D1C58E00A994FF00A0948
:1027C00001C90A91002802DA40422D2102E03905B0
:1027D00004D52B218DF82010012103E0F90704D046
:1027E0002021F7E78A4608AE0DE00021FAE70A99B2
:1027F0004FF00A0901C90A91F7E74946FFF734FF8C
:10280000303106F8011D0028F7D1ADEB060000F1CC
:102810002009780701D44FF00108C84502DDA8EB74
:10282000090000E000208046002706E008A85A467C
:10283000C05D0B9990476D1C7F1C5745F6DB04E08B
:1028400030205A460B9990476D1CB8F10001A8F151
:102850000108F5DC05E016F8010B5A460B99904784
:102860006D1CB9F10001A9F10109F4DC641C65E7F4
:10287000092801000A68531C0B60107070470000A3
:102880000000000000000000000000000000000048
:102890000018181818181808000818000000000080
:1028A0000034242424000000000000000000000088
:1028B000000016247F2424247E242400000000002D
:1028C00000083E6848681C1612127C1010000000B8
:1028D0000061D296740810162949C6000000000055
:1028E00000003C646438724ACE467F00000000005D
:1028F0000018181818000000000000000000000078
:102900000004081810303030301010180C0400008B
:1029100000201008080C0404040C08181020000003
:1029200000080A341C6A08000000000000000000D3
:10293000000000001818187F181818000000000088
:10294000000000000000000000181808300000001F
:10295000000000000000003C00000000000000003B
:102960000000000000000000001818000000000037
:10297000000206040C08081010202040000000008F
:1029800000003C6642475B7342663C00000000006A
:10299000000018784808080808087E0000000000B9
:1029A00000003C460606040810207E0000000000DF
:1029B00000007C0606043C0202067C0000000000C9
:1029C00000000C1C14246444FF04040000000000F8
:1029D00000007E6060607E0202067C000000000055
:1029E00000001E306048764242623C000000000059
:1029F00000007E0206040C081810300000000000E1
:102A000000003C6242361C6642423C00000000006E
:102A100000003C664242661A020478000000000092
:102A20000000000018180000001818000000000046
:102A300000000000181800000018180830000000FE
:102A40000000000004183060100C060000000000B8
:102A50000000000000007E007E000000000000007A
:102A600000000000301804060C10200000000000D8
:102A700000301C06060618100010100000000000B0
:102A8000001C224141DDB5A5A5AF94C0403C00002B
:102A90000000181C342426627E43C10000000000A0
:102AA00000007C4642467C4242427C00000000001E
:102AB00000001E204040404040603E0000000000FA
:102AC00000007C4642434343424678000000000039
:102AD00000007E6060607E6060607E00000000003C
:102AE00000007E6060607E6060606000000000004A
:102AF00000001E604040CE4242623E0000000000E6
:102B00000000424242427E42424242000000000037
:102B100000007E181818181818187E000000000011
:102B200000007C0404040404044478000000000055
:102B300000004244485070584C44420000000000DD
:102B4000000020202020202020203E000000000047
:102B500000006266675F5B5BC1C1C10000000000EE
:102B60000000626272525A4A4E464600000000005F
:102B700000003C6243C3C3C343623C00000000004A
:102B800000007C4642424678404040000000000081
:102B900000003C6243C3C3C343623C180F00000003
:102BA00000007C6662667C6C646662000000000067
:102BB00000003E6040601C0602027C000000000035
:102BC00000007F18181818181818180000000000C6
:102BD000000042424242424242623C000000000089
:102BE0000000C14342622624341C1800000000008B
:102BF0000000C1C141495B5B7666660000000000D1
:102C0000000043663418181C2466C300000000004E
:102C10000000C14266341C1818181800000000009B
:102C200000007E02040C181020607E0000000000EE
:102C3000001C10101010101010101010101C0000AC
:102C400000402020101008080C04060200000000BC
:102C5000003C0C0C0C0C0C0C0C0C0C0C0C3C000078
:102C60000000181C246200000000000000000000AA
:102C700000000000000000000000000000FF000055
:102C80000020100000000000000000000000000014
:102C9000000000003C06023E42467A0000000000B0
:102CA000004040405C62424242427C000000000022
:102CB000000000001E20604060203E000000000078
:102CC000000202023E62424242663A0000000000F8
:102CD000000000003C62427E40603E0000000000B8
:102CE000000F1810107E10101010100000000000CF
:102CF000000000003F66426658403E43423C0000F0
:102D0000004040405C6242424242420000000000FB
:102D1000001818007808080808087E000000000065
:102D200000040C007C040404040404040C78000077
:102D300000606060626C787068646200000000008F
:102D4000007808080808080808087E00000000004D
:102D500000000000764B4B4B4B4B4B00000000003B
:102D6000000000005C62424242424200000000005B
:102D7000000000003C62424342623C000000000050
:102D8000000000005C62424242427C404040000041
:102D9000000000003E62424242663A020202000027
:102DA000000000006E726360606060000000000060
:102DB000000000003E20203C06027C0000000000D5
:102DC00000001010FE10101010101E000000000077
:102DD000000000004242424242663A000000000009
:102DE0000000000043426624341818000000000070
:102DF00000000000C1C15B5A5E6666000000000072
:102E00000000000062261C181C2662000000000062
:102E10000000000043426624341C181830E0000013
:102E2000000000007E060C1810207E00000000004C
:102E3000000E18101010307010101010180E000036
:102E40000808080808080808080808080808000012
:102E50000030180808080C0E080808081830000090
:102E6000000000000000714B0600000000000000A0
:102E70000000000000000000000000000000000052
:102E80000000000000000000000000000000000042
:102E90000000000000000000000000000000000032
:102EA000000000000000000003800180018001801C
:102EB000018001800180018001800180000000000C
:102EC00003C003C00000000000000000000000007C
:102ED00000000000000000000E700E700E700C303C
:102EE00000000000000000000000000000000000E2
:102EF00000000000000000000000000000000000D2
:102F0000000000000000000000000618063806302F
:102F10007FFE0C300C300C300C307FFE0C601C60DF
:102F200018601860000000000000000000000000B1
:102F300000000000000000C000C00FF83CC831C015
:102F400031803D801F8003F001F8031C030C031C3B
:102F50003FF83FE00700060000000000000000000E
:102F60000000000000001C007E0E630C631863303C
:102F70007E6000C001800300077C0EE61CC618C6F8
:102F800030C6607C0000000000000000000000006F
:102F900000000000000000000FE01CF038703870E6
:102FA0001C601FC00F003F8C71CC60EC607C7038DF
:102FB0003CFC1FCE000000000000000000000000EC
:102FC000000000000000000003C0018001800180BB
:102FD00000000000000000000000000000000000F1
:102FE00000000000000000000000000000000000E1
:102FF000000000000000003000E001C0018003007C
:103000000700060006000E000E000E000E0006006F
:1030100007000300038001C000E000300000000052
:103020000000000000000C0006000380018001C0C9
:1030300000E00060006000700070007000600060E0
:1030400000E000C00180038006000C0000000000CA
:103050000000000000000000018011881DB803C0BE
:1030600007E03DBC01880180000000000000000076
:103070000000000000000000000000000000000050
:1030800000000000000000000000000000000180BF
:1030900001800180018001807FFE0180018001802C
:1030A000018000000000000000000000000000009F
:1030B0000000000000000000000000000000000010
:1030C000000000000000000000000000000003C03D
:1030D00003C001C001C003801F0000000000000009
:1030E00000000000000000000000000000000000E0
:1030F00000000000000000000FF0000000000000D1
:1031000000000000000000000000000000000000BF
:1031100000000000000000000000000000000000AF
:10312000000000000000000000000000000003C0DC
:1031300003C003C000000000000000000000000009
:10314000000000000000000000180038003000609F
:1031500000E000C001C001800300030006000E0073
:103160000C001C00180030000000000000000000EF
:10317000000000000000000001800FF01C38381C27
:10318000301C707E70EE738E7E0E7C0C300C381C02
:103190001E780FE0000000000000000000000000AA
:1031A0000000000000000000000007C01FC039C080
:1031B00001C001C001C001C001C001C001C001C007
:1031C0003FFC3FFC00000000000000000000000089
:1031D000000000000000000003801FF018380038D5
:1031E000001800380038007001E0038007001C0060
:1031F0003FFC3FFC00000000000000000000000059
:10320000000000000000000007801FF000380038B8
:103210000038003007E007F00038001C001C0018E0
:1032200020F83FE000000000000000000000000067
:103230000000000000000000000000F001B00330BA
:1032400007300E301C30383070307FFE7FFE00308B
:10325000003000300000000000000000000000000E
:10326000000000000000000000001FF81800180017
:10327000180018001FE000F8001C001C001C00389B
:1032800000F01FC00000000000000000000000006F
:103290000000000000000000000003F80F001C0008
:1032A0001800300037F83C3C300C300C380C381C1F
:1032B0001E380FF0000000000000000000000000B9
:1032C000000000000000000000003FFC001C00188F
:1032D00000380070006000E001C00180038007003A
:1032E00006000E00000000000000000000000000CA
:1032F000000000000000000003C01FF8381C381C4C
:10330000381C1C380FF007F01C78381C300C381CA7
:103310003C380FF00000000000000000000000003A
:10332000000000000000000003801FF03838301C4F
:10333000701C700C380C1FFC0FCC001C00180070A7
:103340001FE01F80000000000000000000000000DF
:10335000000000000000000000000000000000006D
:1033600003C003C00180000000000000000003C093
:1033700003C003C0000000000000000000000000C7
:10338000000000000000000000000000000000003D
:1033900003C003C00180000000000000000003C063
:1033A00003C001C001C003800F0000000000000046
:1033B00000000000000000000000000000000038D5
:1033C00000F001C007001E0038000E00078001C099
:1033D000007000300000000000000000000000004D
:1033E00000000000000000000000000000000000DD
:1033F000000000003FFC000000003FFC3FFC00001C
:1034000000000000000000000000000000000000BC
:1034100000000000000000000000000000001C0090
:103420000F00038001E00078001C007001E00380C1
:103430000E000C0000000000000000000000000072
:1034400000000000000000000FC000F0003800384D
:103450000038003803F00380030003000000000080
:10346000078007800000000000000000000000004E
:1034700000000000000000E007F80C0C1806300601
:10348000700363F36633C673CC63CC62CC66CCE660
:10349000C7FCE0006000700038101FF00000000062
:1034A0000000000000000000000003C007E006E08C
:1034B0000E700E700C301C3818183FFC3FFC700E5C
:1034C000600EE007000000000000000000000000A7
:1034D000000000000000000000003FF03838381CF9
:1034E000381C38383FF03FF8381C380C380C381C82
:1034F0003FF83FE000000000000000000000000076
:10350000000000000000000000E007FC1E0438007E
:1035100038003000700070007000300038003C004F
:103520001F9C07FC000000000000000000000000DD
:10353000000000000000000000003FF03078301C68
:10354000300C300E300E300E300E300E301C303855
:103550003FF03FC00000000000000000000000003D
:10356000000000000000000000001FF81800180014
:10357000180018001FF81FF818001800180018008D
:103580001FF81FF80000000000000000000000000D
:10359000000000000000000000001FF818001800E4
:1035A000180018001FF81FF818001800180018005D
:1035B00018001800000000000000000000000000DB
:1035C000000000000000000000F007FC1E043800AE
:1035D00030007000700070FC700C700C300C380CF7
:1035E0001F1C07FC0000000000000000000000009D
:1035F00000000000000000000000300C300C300C17
:10360000300C300C3FFC3FFC300C300C300C300CDC
:10361000300C300C00000000000000000000000032
:10362000000000000000000000003FFC018001805D
:103630000180018001800180018001800180018082
:103640003FFC3FFC00000000000000000000000004
:10365000000000000000000000001FF000300030FB
:10366000003000300030003000300030003000709A
:103670001DE01FC00000000000000000000000006E
:1036800000000000000000000000381C387038E026
:1036900039C03B803F003F003B8039C038E0387084
:1036A0003838381C00000000000000000000000056
:1036B000000000000000000000001C001C001C00B6
:1036C0001C001C001C001C001C001C001C001C001A
:1036D0001FFC1FFC000000000000000000000000B4
:1036E00000000000000000000000381C7C3C6C3E24
:1036F0006E6E666E66CE63C6638661866006600621
:1037000060066006000000000000000000000000ED
:10371000000000000000000000003C0C3C0C3E0CCF
:10372000360C330C338C318C31CC30EC306C307C3B
:10373000303C301C000000000000000000000000D1
:10374000000000000000000001C00FF81C3C381C05
:10375000700E700E60066006700E700E700C381CD5
:103760001E780FE0000000000000000000000000D4
:10377000000000000000000000003FF0383C381C52
:10378000380C380C381C38783FE0380038003800E6
:1037900038003800000000000000000000000000B9
:1037A000000000000000000001C00FF81C3C381CA5
:1037B000700E700E60066006700E700E700C381C75
:1037C0001E780FE0018001C000FF003C00000000F7
:1037D000000000000000000000003FF038383818FA
:1037E0003818383838F03FC038E038703838383852
:1037F000381C380E0000000000000000000000002F
:10380000000000000000000001E00FF83800380060
:1038100038003C001F8003F00078001C001C001CD6
:1038200038783FE0000000000000000000000000C9
:10383000000000000000000000007FFE0180018009
:103840000180018001800180018001800180018070
:103850000180018000000000000000000000000066
:1038600000000000000000000000300C300C300CA4
:10387000300C300C300C300C300C300C300C381C50
:103880001C380FF0000000000000000000000000E5
:1038900000000000000000000000E006700E700E46
:1038A000381C381C1C181C380C300E70066007E0E1
:1038B00003C003C000000000000000000000000082
:1038C00000000000000000000000600660066006C6
:1038D00060066186638673C673CE766C366C3C3C3C
:1038E0003C3C381C0000000000000000000000000C
:1038F00000000000000000000000301C38181C38D8
:103900000E7007E003C003C007E00E701C381838C3
:10391000381C700E000000000000000000000000D5
:1039200000000000000000000000700E700C381C49
:103930001C380E70066007E003C001800180018022
:103940000180018000000000000000000000000075
:10395000000000000000000000003FFC001C0038D8
:10396000007000E001C0038007000E000C0018008A
:103970003FFC3FFC000000000000000000000000D1
:1039800000000000000007F007F006000600060037
:1039900006000600060006000600060006000600F7
:1039A0000600060006000600060007F00000000002
:1039B000000000000000000018001C000C000600C1
:1039C000070003000380018001C000C00060007098
:1039D000003000380018000C00000000000000005B
:1039E0000000000000000FE00FE0006000600060D9
:1039F00000600060006000600060006000600060C7
:103A0000006000600060006000600FE000000000E7
:103A10000000000000000000000003C006C00660B7
:103A20000C301818301C00000000000000000000DE
:103A30000000000000000000000000000000000086
:103A40000000000000000000000000000000000076
:103A50000000000000000000000000000000000066
:103A600000000000000000000000FFFF0000000058
:103A700000000000000000001E00038000000000A5
:103A80000000000000000000000000000000000036
:103A90000000000000000000000000000000000026
:103AA0000000000000000000000000000000000016
:103AB0001FF01038001C001C0FFC1C1C381C381C8C
:103AC0003CFC1FDC000000000000000000000000C3
:103AD0000000000000000000380038003800380006
:103AE0003BF83E1C3C1C380C380C380C380C381C8D
:103AF0003C781FE000000000000000000000000013
:103B000000000000000000000000000000000000B5
:103B100007F80E001C0038003800380038001C0080
:103B20000F1807F80000000000000000000000006F
:103B30000000000000000000001C001C001C001C15
:103B40000FFC1C1C381C301C301C301C301C383C3A
:103B50001CFC0F9C000000000000000000000000A2
:103B60000000000000000000000000000000000055
:103B70000FF01C38381C300C3FFC3000300038008F
:103B80001E0C07FC00000000000000000000000008
:103B9000000000000000003C01FE03800300030061
:103BA00003007FFC7FFC030003000300030003000D
:103BB00003000300000000000000000000000000FF
:103BC00000000000000000000000000000000000F5
:103BD0000FFE1C383818381818381FF03B8030009A
:103BE0003FF01FFC300E700E381C1FF80000000064
:103BF00000000000000000003800380038003800E5
:103C00003BF83E383C1C381C381C381C381C381C0F
:103C1000381C381C000000000000000000000000FC
:103C2000000000000000018003C003C0000000008D
:103C30001FC001C001C001C001C001C001C001C05E
:103C400001C03FFC00000000000000000000000078
:103C50000000000000000020007000700000000064
:103C60003FF0007000700070007000700070007015
:103C7000007000700070007020E03FC00000000085
:103C800000000000000000001800180018001800D4
:103C9000183C187018E01B801F001B8019E018707A
:103CA0001838181C00000000000000000000000090
:103CB00000000000000000001FC001C001C001C0E2
:103CC00001C001C001C001C001C001C001C001C0EC
:103CD00001C03FFC000000000000000000000000E8
:103CE00000000000000000000000000000000000D4
:103CF0006F3C79EE71CE718E718E718E718E718E78
:103D0000718E718E000000000000000000000000B5
:103D100000000000000000000000000000000000A3
:103D20003BF83E383C1C381C381C381C381C381CEE
:103D3000381C381C000000000000000000000000DB
:103D40000000000000000000000000000000000073
:103D50000FF01C3C381C700E700E700E700C381C6E
:103D60001E780FE0000000000000000000000000CE
:103D70000000000000000000000000000000000043
:103D80003BF83E1C3C1C380C380C380C380C381CEA
:103D90003C783FE038003800380038000000000070
:103DA0000000000000000000000000000000000013
:103DB0000FFC1C1C381C301C301C301C301C383CC8
:103DC0001CFC0F9C001C001C001C001C00000000C0
:103DD00000000000000000000000000000000000E3
:103DE00019F81F1C1C0C180E1800180018001800D9
:103DF0001800180000000000000000000000000093
:103E000000000000000000000000000000000000B2
:103E10000FF81C0018001E000FC001F80018001851
:103E200018381FF000000000000000000000000033
:103E30000000000000000000000006000600060070
:103E40007FFC0600060006000600060006000700CC
:103E5000078401FC000000000000000000000000DA
:103E60000000000000000000000000000000000052
:103E7000381C381C381C381C381C381C381C383C82
:103E80001CFC0FDC0000000000000000000000002F
:103E90000000000000000000000000000000000022
:103EA000700C381C38181C380C300E70066007E097
:103EB00003C003C00000000000000000000000007C
:103EC00000000000000000000000000000000000F2
:103ED000600660066186738E73CC33CC366C366CAC
:103EE0003C3C3C38000000000000000000000000E6
:103EF00000000000000000000000000000000000C2
:103F0000381C1C380E7007E003C003C007E00E70B9
:103F10001C38381E000000000000000000000000F7
:103F20000000000000000000000000000000000091
:103F3000700C381C38181C380C300E70066007E006
:103F400003C003C0038007000E007C0000000000D7
:103F50000000000000000000000000000000000061
:103F60001FF80038007000E001C0038007000C005B
:103F70001FFC3FFC000000000000000000000000EB
:103F8000000000000000007801F803800380038037
:103F90000380038003003F003E0003000380038092
:103FA000038003800380038001C000F8000000004C
:103FB000000001800180018001800180018001807A
:103FC00001800180018001800180018001800180E9
:103FD00001800180018001800180018000000000DB
:103FE0000000000000001E001F80018001C001C011
:103FF00001C001C000C000FC007C00C001C001C0C5
:1040000001C001C001C001C003801F00000000000A
:1040100000000000000000000000000000000000A0
:10402000000000001C003F0671CE60FC0000000094
:104030000000000000000000000000000000000080
:104040000000000000000000000000000000000070
:104050000000000000000000000000000000000060
:104060000000000000000000000000000000000050
:104070000000000000000000000000000000000040
:104080000000000000000000000000000000000030
:104090000000000000000000000000000000000020
:1040A0000000000000000000000000000000000010
:1040B000003C00003C00003C00003C00003C0000D4
:1040C0003C00003C00003C00003C00003C00003C88
:1040D00000003C00003C00003C000000000000002C
:1040E000003C00007E00003C0000000000000000DA
:1040F00000000000000000000000000000000000C0
:1041000000000000000000000000000000000000AF
:1041100003C3E003C3E003C3C003C3C003C3C003BE
:10412000C3C003C1C0000000000000000000000088
:10413000000000000000000000000000000000007F
:10414000000000000000000000000000000000006F
:10415000000000000000000000000000000000005F
:10416000000000000000000000000000000000004F
:1041700000000000000001E0E001C0E001C0E0013B
:10418000C0E03FFFFE3FFFFE03C1C00381C00381CB
:10419000C00381C07FFFFC7FFFFC07838007038093
:1041A000070380070380070780000000000000006D
:1041B00000000000000000000000000000000000FF
:1041C00000000000000000000000000000000700E8
:1041D000000F00000E0001FFF007FFF01F0E001E91
:1041E0001E001E1C001E1C000FDC0007FC0000FF50
:1041F00080003FF00038F800387800783C00707894
:104200003071F83FFFE01FFF0000E00000E0000019
:10421000E0000000000000000000000000000000BE
:10422000000000000000000000000000000000008E
:104230000F800F3FE01E78703C7070707070E070FF
:1042400071C03FE3801FC700000E00001C00007813
:104250000000F0F001E7FC03CF0E078E0E0F0E0EEC
:104260001E0E0E3C07BC7003F800000000000000AA
:10427000000000000000000000000000000000003E
:10428000000000000000000000000000000000002E
:1042900000000001FF0007FF800F03C00F03C00FE5
:1042A00003C00F0780079F0003FE0003F0000FF814
:1042B0003C3E7C3C3C1F3C780FF87807F87C01F0D2
:1042C0003E03F81FFFFC07FE1F0000000000000077
:1042D00000000000000000000000000000000000DE
:1042E00000000000000000000000000000000000CE
:1042F000003E00003C00003C00003C00003C000090
:104300003C00003C00000000000000000000000035
:10431000000000000000000000000000000000009D
:10432000000000000000000000000000000000008D
:10433000000000000000000000000000000000007D
:1043400000000000000000000000000000000080ED
:104350000001C0000780000F00001E00003C0000AC
:10436000780000F00000E00001E00001E00001C082
:104370000003C00003C00001C00001E00001E00034
:1043800000F00000F000007800003C00001E00007B
:104390000F000007C00001C0000000000000000086
:1043A000000000000000000000000000000000000D
:1043B00003C00001E00000F000007C00003E0000AF
:1043C0001E00000F0000078000078000038000032C
:1043D000C00003C00003C00003C0000380000780CA
:1043E000000780000F00001E00003C000078000065
:1043F000F00001E000038000000000000000000069
:1044000000000000000000000000000000000000AC
:10441000001C00001C000018000F18F007DBE00073
:104420007F0000FF0007DBE00E1870001800001C82
:1044300000001C0000000000000000000000000060
:10444000000000000000000000000000000000006C
:10445000000000000000000000000000000000005C
:10446000000000000000000000000000000000004C
:10447000000000000000000000000000000000003C
:104480003C00003C00003C00003C00003C00003CC4
:10449000003FFFFC3FFFFC003C00003C00003C00F4
:1044A000003C00003C000000000000000000000094
:1044B00000000000000000000000000000000000FC
:1044C00000000000000000000000000000000000EC
:1044D00000000000000000000000000000000000DC
:1044E00000000000000000000000000000000000CC
:1044F00000000000000000000000000000007C0040
:10450000007E00007E00003E00001E00003C000017
:10451000F80007E0000400000000000000000000B8
:10452000000000000000000000000000000000008B
:10453000000000000000000000000000000000007B
:10454000000000000000000000000000000000006B
:104550000003FFE003FFE000000000000000000097
:10456000000000000000000000000000000000004B
:10457000000000000000000000000000000000003B
:10458000000000000000000000000000000000002B
:10459000000000000000000000000000000000001B
:1045A000000000000000000000000000000000000B
:1045B00000000000000000000000000000007C007F
:1045C00000FE0000FE00007E000000000000000071
:1045D00000000000000000000000000000000000DB
:1045E00000000000000000000000000000000000CB
:1045F0000000780000F00000E00001E00003C000CF
:104600000380000780000F00000E00001E00003C29
:104610000000380000700000F00000E00001C00061
:1046200003C0000780000700000F00001E00001CF0
:10463000000000000000000000000000000000007A
:10464000000000000000000000000000000000006A
:1046500000000000000001FFC007FFE00F00F01E97
:1046600000781E003C3C00FC3C07FC3C1FBC3C7C32
:104670001C3DF03C3FC03C3F003C1E00381E007813
:104680000F80F007FFE001FF800000000000000045
:10469000000000000000000000000000000000001A
:1046A000000000000000000000000000000000000A
:1046B000000000000000007E0003FE001FDE000E70
:1046C0001E00001E00001E00001E00001E00001E36
:1046D00000001E00001E00001E00001E00001E0044
:1046E000001E000FFFF80FFFF800000000000000A0
:1046F00000000000000000000000000000000000BA
:1047000000000000000000000000000000000000A9
:1047100000000000000003FF800FFFE00E01F0002A
:1047200000F00000F00000F00000F00001E00003E5
:10473000C0000F80003E00007C0001F00003C000BC
:104740000F80001FFFFC1FFFFC00000000000000A6
:104750000000000000000000000000000000000059
:104760000000000000000000000000000000000049
:104770000000000000000FFF800FFFE00001E000DC
:1047800000F00000F00001E00003C001FF0001FFA5
:10479000C00003F000007800007800007800007886
:1047A0000001F00FFFC00FFF00000000000000003C
:1047B00000000000000000000000000000000000F9
:1047C00000000000000000000000000000000000E9
:1047D000000000000000000FC0001FC0003FC0002C
:1047E0007BC000F3C001E3C003C3C00783C00F0355
:1047F000C01C03C03803C07FFFFE7FFFFE0003C064
:104800000003C00003C00003C0000000000000005F
:104810000000000000000000000000000000000098
:104820000000000000000000000000000000000088
:104830000000000000000FFFE00FFFE00F00000F7E
:1048400000000F00000F00000F00000FFF800FFF9F
:10485000E00000F00000780000780000780000F030
:104860000003E00FFFC00FFE00000000000000008A
:104870000000000000000000000000000000000038
:104880000000000000000000000000000000000028
:10489000000000000000003FF001FFF003E000070F
:1048A00080000F00001E00001E1F001FFFE01FC140
:1048B000F81E00781E003C1E003C1E003C0F0078D5
:1048C0000F80F807FFE001FF8000000000000000FB
:1048D00000000000000000000000000000000000D8
:1048E00000000000000000000000000000000000C8
:1048F0000000000000001FFFFC1FFFFC000078000C
:1049000000F00000E00001E00003C0000780000F9D
:1049100000000F00001E00003C0000780000F000C6
:1049200001F00001E00003C00000000000000000F2
:104930000000000000000000000000000000000077
:104940000000000000000000000000000000000067
:1049500000000000000003FFE00FE3F00F00781EEE
:1049600000781E00780F00F007E3E001FF8001FFF0
:104970008007E7E00F00F81E00781E003C1E007C58
:104980001F00F80FFFF003FFC00000000000000050
:104990000000000000000000000000000000000017
:1049A0000000000000000000000000000000000007
:1049B00000000000000003FF800FC7E01E00F01E93
:1049C00000783C00783C00783C00381E00780FEFFF
:1049D000F807FFB80000780000780000F00001E060
:1049E000000FC00FFF000FF00000000000000000EB
:1049F00000000000000000000000000000000000B7
:104A000000000000000000000000000000000000A6
:104A10000000000000000000000000000000000096
:104A20000000007E00007E00007E000018000000F4
:104A300000000000000000000000000000003C003A
:104A4000007E00007E00003E00000000000000002C
:104A50000000000000000000000000000000000056
:104A60000000000000000000000000000000000046
:104A70000000000000000000000000000000000036
:104A80000000007E00007E00007E00001800000094
:104A900000000000000000000000000000003E00D8
:104AA000007E00007F00001F00001E00001E0000AE
:104AB000FC0007F0000400000000000000000000FF
:104AC00000000000000000000000000000000000E6
:104AD0000000000000000000000000000000400096
:104AE00001E00007C0001F00007E0001F80003E0A5
:104AF000000F80000F800003E00000F800003E007F
:104B0000000F800003E00000E00000000000000053
:104B10000000000000000000000000000000000095
:104B20000000000000000000000000000000000085
:104B30000000000000000000000000000000000075
:104B400000000000000000000000001FFFF800004F
:104B5000000000000000001FFFF81FFFF800000029
:104B60000000000000000000000000000000000045
:104B70000000000000000000000000000000000035
:104B80000000000000000000000000000000000025
:104B9000000000000000000000000000000000070E
:104BA000800003E00000F800003E00000F800003DA
:104BB000E00000F80001F00007C0001F00007C00CA
:104BC00001F00007C000030000000000000000002A
:104BD00000000000000000000000000000000000D5
:104BE00000000000000000000000000000000000C5
:104BF00001C00001FE00007F800007C00001E0004E
:104C000000F00000F00001F00003E0007FC0007E33
:104C10000000700000700000700000000000000044
:104C200000F80000F80000F800000000000000009C
:104C30000000000000000000000000000000000074
:104C40000000000000000000000000000000000064
:104C5000001F8000FFF003C07807801C0E000E1CB0
:104C6000000E3C000F383FC778FFC770E3C771C321
:104C7000C7F3C387E3C387E3878EE3878EE3CF8ED3
:104C8000E3FFFC71F9F07000007000003800003C98
:104C900000000F01C007FFC000000000000000007E
:104CA0000000000000000000000000000000000004
:104CB000000000000000007E00007F0000FF0000F8
:104CC000E78001E78003C3C003C3C00781E0078119
:104CD000E00F00F00F00F81FFFF81FFFFC3C003C46
:104CE0003C001E78001EF0000F00000000000000D5
:104CF00000000000000000000000000000000000B4
:104D000000000000000000000000000000000000A3
:104D10000000000000001FFFC01FFFF01E00F01E7B
:104D200000781E00781E00F01E01F01FFFC01FFF5C
:104D3000E01E01F81E00781E003C1E003C1E00789C
:104D40001E00F81FFFE01FFF000000000000000031
:104D50000000000000000000000000000000000053
:104D60000000000000000000000000000000000043
:104D700000000000000000FFF803FFF807C0000F6C
:104D800000001E00001E00003C00003C00003C0033
:104D9000003C00003C00003E00001E00000F000030
:104DA0000FC00803FFF800FFF8000000000000003B
:104DB00000000000000000000000000000000000F3
:104DC00000000000000000000000000000000000E3
:104DD0000000000000003FFF003FFFE03C01F03C0E
:104DE00000783C003C3C003C3C003C3C001E3C004D
:104DF0001E3C001E3C003C3C003C3C00783C00F863
:104E00003C07E03FFFC03FFC000000000000000046
:104E10000000000000000000000000000000000092
:104E20000000000000000000000000000000000082
:104E30000000000000000FFFF00FFFF00F00000F58
:104E400000000F00000F00000F00000FFFF00FFF29
:104E5000F00F00000F00000F00000F00000F000017
:104E60000F00000FFFF00FFFF00000000000000037
:104E70000000000000000000000000000000000032
:104E80000000000000000000000000000000000022
:104E90000000000000000FFFF00FFFF00F00000FF8
:104EA00000000F00000F00000F00000FFFF00FFFC9
:104EB000F00F00000F00000F00000F00000F0000B7
:104EC0000F00000F00000F000000000000000000B5
:104ED00000000000000000000000000000000000D2
:104EE00000000000000000000000000000000000C2
:104EF00000000000000000FFFC03FFFC0FC0041FC7
:104F000000001E00003C00003C0000780FFC780F01
:104F1000FC78003C3C003C3C003C3E003C1F003C1C
:104F20000FC03C03FFFC00FFF80000000000000081
:104F30000000000000000000000000000000000071
:104F40000000000000000000000000000000000061
:104F50000000000000003C003C3C003C3C003C3CAD
:104F6000003C3C003C3C003C3C003C3FFFFC3FFF25
:104F7000FC3C003C3C003C3C003C3C003C3C003CDD
:104F80003C003C3C003C3C003C00000000000000B9
:104F90000000000000000000000000000000000011
:104FA0000000000000000000000000000000000001
:104FB0000000000000000FFFF80FFFF8003C0000A9
:104FC0003C00003C00003C00003C00003C00003C79
:104FD00000003C00003C00003C00003C00003C00A5
:104FE000003C000FFFF80FFFF80000000000000079
:104FF00000000000000000000000000000000000B1
:1050000000000000000000000000000000000000A0
:105010000000000000000FFFE00FFFE00001E000D3
:1050200001E00001E00001E00001E00001E000011A
:10503000E00001E00001E00001E00001E00003C049
:105040000C07C00FFF8007FE0000000000000000FA
:105050000000000000000000000000000000000050
:105060000000000000000000000000000000000040
:105070000000000000001E00781E01F01E03C01E8C
:1050800007801E1F001E3C001E78001EF0001FF04F
:10509000001EF8001E3C001E1E001E0F801E07C0D2
:1050A0001E01E01E00F81E007C0000000000000051
:1050B00000000000000000000000000000000000F0
:1050C00000000000000000000000000000000000E0
:1050D0000000000000000780000780000780000734
:1050E000800007800007800007800007800007809D
:1050F000000780000780000780000780000780000D
:1051000007800007FFF807FFF8000000000000001C
:10511000000000000000000000000000000000008F
:10512000000000000000000000000000000000007F
:105130000000000000003E007C3F00FC3F81DC3BA3
:1051400081DC3BC39C39C39C38E71C38EF1C387E9C
:105150001C387C1E383C1E78001E78001E78001E0D
:1051600078001E78001E78001E000000000000007D
:10517000000000000000000000000000000000002F
:10518000000000000000000000000000000000001F
:105190000000000000001F003C1F803C1FC03C1DA1
:1051A000C03C1DE03C1CF03C1C783C1C783C1C3C8A
:1051B0003C1C1E3C1C0F3C1C0F3C1C07BC1C03FC75
:1051C0001C01FC1C00FC1C00FC0000000000000096
:1051D00000000000000000000000000000000000CF
:1051E00000000000000000000000000000000000BF
:1051F00000000000000001FFC007FFF00F00F81ED4
:10520000007C3C003C3C001E78001E78001E7800AC
:105210001E78001E78001E3C003C3C003C1E0078BE
:105220001F00F007FFE001FF800000000000000009
:10523000000000000000000000000000000000006E
:10524000000000000000000000000000000000005E
:105250000000000000001FFF801FFFF01E00F81E6E
:10526000007C1E003C1E003C1E003C1E00781E03FD
:10527000F01FFFC01FFE001E00001E00001E0000E9
:105280001E00001E00001E000000000000000000C4
:10529000000000000000000000000000000000000E
:1052A00000000000000000000000000000000000FE
:1052B00000000000000001FFC007FFF00F00F81E13
:1052C000007C3C003C3C001E78001E78001E7800EC
:1052D0001E78001E78001E3C003C3C003C1E0078FE
:1052E0001F80F007FFE001FF80003C00003C000051
:1052F0001F06000FFF0001F8000000000000000082
:10530000000000000000000000000000000000009D
:105310000000000000000FFF800FFFE00E01F00E04
:1053200000F00E00F00E00F00E01F00FFFC00FFFB6
:10533000000E1F000E07800E03C00E01E00E00F0ED
:105340000E00F80E00780E003C0000000000000087
:10535000000000000000000000000000000000004D
:10536000000000000000000000000000000000003D
:1053700000000000000003FFF00FFFF01F00001E00
:1053800000001E00001F00000FC00007FC0000FF0F
:1053900080000FF00001F80000780000780000782D
:1053A0002000F83FFFE03FFF800000000000000009
:1053B00000000000000000000000000000000000ED
:1053C00000000000000000000000000000000000DD
:1053D0000000000000003FFFFC3FFFFC003C00001D
:1053E0003C00003C00003C00003C00003C00003C55
:1053F00000003C00003C00003C00003C00003C0081
:10540000003C00003C00003C0000000000000000E8
:10541000000000000000000000000000000000008C
:10542000000000000000000000000000000000007C
:105430000000000000003C003C3C003C3C003C3CC8
:10544000003C3C003C3C003C3C003C3C003C3C0004
:105450003C3C003C3C003C3C003C3C003C1E00789A
:105460001F00F80FFFE003FF8000000000000000B5
:10547000000000000000000000000000000000002C
:10548000000000000000000000000000000000001C
:10549000000000000000F8000F78001E3C001E3CD9
:1054A000003C1E00381E00780F00700F00F00781CE
:1054B000E00781E003C3C003E3C001E78000F78099
:1054C00000FF00007E00007E0000000000000000E1
:1054D00000000000000000000000000000000000CC
:1054E00000000000000000000000000000000000BC
:1054F00000000000000078000E78000E78000E78A2
:10550000001E38001E38001E383C1C383C1C387EFB
:105510001C387F1C3CE71C3CE79C3DC39C1DC3DC46
:105520001F81DC1F80F81F00F80000000000000051
:10553000000000000000000000000000000000006B
:10554000000000000000000000000000000000005B
:105550000000000000003C003C1E00780F00F00737
:1055600081E003C3C001E78000FF00007E00007EF1
:105570000000FF0001FF8003E7C007C3E00F81F0D8
:105580001F00F83E007C7C003E0000000000000090
:10559000000000000000000000000000000000000B
:1055A00000000000000000000000000000000000FB
:1055B00000000000000078001F3C003E1E007C1F21
:1055C00000780F80F007C1E003E3C001E78000FF2F
:1055D00000007E00003C00003C00003C00003C005D
:1055E000003C00003C00003C000000000000000007
:1055F00000000000000000000000000000000000AB
:10560000000000000000000000000000000000009A
:105610000000000000001FFFFC1FFFFC0000F8005E
:1056200001E00003C0000780000F00001E00003CE6
:105630000000780000F00003E00007C0000F8000C9
:105640001F00003FFFFC3FFFFC00000000000000C7
:10565000000000000000000000000000000000004A
:10566000000000000000000000000000000000003A
:1056700001FFC001FFC001E00001E00001E0000106
:10568000E00001E00001E00001E00001E00001E0D5
:105690000001E00001E00001E00001E00001E000A5
:1056A00001E00001E00001E00001E00001E0000194
:1056B000E00001E00001FFC0000000000000000069
:1056C00000000000000000000000000000000000DA
:1056D0000E00000F000007000003800003C000015F
:1056E000E00000E00000F000007800003800003C1E
:1056F00000001E00000E00000F0000078000038065
:105700000001C00001E00000E0000070000078002F
:10571000003C00000000000000000000000000004D
:105720000000000000000000000000000000000079
:1057300003FF8003FF8000078000078000078000D0
:1057400007800007800007800007800007800007AF
:105750008000078000078000078000078000078026
:105760000007800007800007800007800007800096
:10577000078000078003FF80000000000000000099
:105780000000000000000000000000000000000019
:10579000000000000000003C00007E0000E7000167
:1057A000C3800381C00700E00E00F01E00780000F7
:1057B00000000000000000000000000000000000E9
:1057C00000000000000000000000000000000000D9
:1057D00000000000000000000000000000000000C9
:1057E00000000000000000000000000000000000B9
:1057F00000000000000000000000000000000000A9
:105800000000000000000000000000000000000098
:105810000000000000000000000000000000000088
:105820000000000000000000000000000000000078
:105830000000FFFFFFFFFFFF00000000000000006E
:105840000000000000000000000000000000000058
:105850000F800003E00000F800003C0000000000A2
:105860000000000000000000000000000000000038
:105870000000000000000000000000000000000028
:105880000000000000000000000000000000000018
:105890000000000000000000000000000000000008
:1058A00000000000000000000000000000000000F8
:1058B00000000000000000000000000000000000E8
:1058C000000007FFC007E7F00000F00000780000CC
:1058D0007800FFF807FFF80F00781E00781E0078A8
:1058E0001E03F80FFFF807FC78000000000000001E
:1058F00000000000000000000000000000000000A8
:105900000000000000000000000000000000000097
:105910001E00001E00001E00001E00001E00001ED3
:1059200000001E7FE01EFFF01FC0781F00781E00E1
:105930003C1E003C1E003C1E003C1E00381E007831
:105940001E00F01FFFE007FF000000000000000045
:105950000000000000000000000000000000000047
:105960000000000000000000000000000000000037
:105970000000000000000000000000000000000027
:10598000000000FFF003FFF007C0000F80000F00D1
:10599000001E00001E00001E00000F00000F80000F
:1059A00007C00003FFF000FFF0000000000000004F
:1059B00000000000000000000000000000000000E7
:1059C00000000000000000000000000000000000D7
:1059D000000078000078000078000078000078006F
:1059E000007801FFF807FFF80F00781E00781E000E
:1059F000783C00783C00783C00781C00781E01F868
:105A00001F03F80FFF7803FC78000000000000007F
:105A10000000000000000000000000000000000086
:105A20000000000000000000000000000000000076
:105A30000000000000000000000000000000000066
:105A4000000001FFC007E3F00F00F81E00781E0001
:105A50003C1FFFFC1FFFFC1C00001E00001E00007E
:105A60000F800007FFF801FFF800000000000000B1
:105A70000000000000000000000000000000000026
:105A80000000000000000000000000000000000016
:105A90000003FC001FFE003E0000780000780000BC
:105AA00070000070000070003FFFFC3FFFFC0070C2
:105AB00000007000007000007000007000007000B6
:105AC0000070000070000070000000000000000086
:105AD00000000000000000000000000000000000C6
