:020000040800F2
:1000000038060020450100088D1400088F140008F0
:1000100093140008971400089B14000800000000C7
:100020000000000000000000000000009F14000815
:10003000A114000800000000A3140008A514000883
:100040005F0100085F0100085F0100085F01000810
:100050005F0100085F0100085F0100085F01000800
:100060005F0100085F0100085F0100085F010008F0
:100070005F0100085F0100085F0100085F010008E0
:100080005F0100085F0100085F0100085F010008D0
:100090005F0100085F0100085F0100085F010008C0
:1000A0005F0100085F0100085F0100085F010008B0
:1000B0005F0100085F0100085F0100085F010008A0
:1000C0005F0100085F0100085F0100085F01000890
:1000D0005F0100085F0100085F0100085F01000880
:1000E0005F0100085F0100085F0100085F01000870
:1000F0005F0100085F0100085F0100085F01000860
:100100005F0100085F0100085F0100085F0100084F
:100110005F0100085F0100085F0100085F0100083F
:100120005F0100085F0100085F0100085F0100082F
:10013000DFF80CD001F086FD0048004709130008E5
:10014000380600200648804706480047FEE7FEE7DD
:10015000FEE7FEE7FEE7FEE7FEE7FEE7FEE7FEE777
:1001600047020008310100080CB500200190009002
:100170006C48006840F480306A49086000BF6948F4
:10018000006800F4003000900198401C0190009835
:1001900018B90198B0F5A06FF1D16248006800F479
:1001A000003010B10120009001E000200090009884
:1001B000012843D15C48006840F010005A490860AB
:1001C0000846006820F0030008600846006840F018
:1001D0000200086053484068524948600846406839
:1001E00048600846406840F48060486008464068BF
:1001F00020F47C1048600846406840F4E8104860ED
:100200000846006840F08070086000BF45480068FC
:1002100000F000700028F9D04248406820F0030048
:10022000404948600846406840F00200486000BF0E
:100230003C48406800F00C000828F9D10CBD10B50E
:10024000FFF792FF10BD10B53648006840F001007E
:1002500034490860084640683449084031494860DC
:1002600008460068324908402E4908600846006880
:1002700020F4802008600846406820F4FE004860B2
:100280004FF41F008860FFF7DAFF4FF00060294944
:10029000086010BD10B5002100200022214B5B68D2
:1002A00003F00C0121B1042906D0082928D107E068
:1002B000214B224C236027E01F4B204C236023E07E
:1002C000184B5B6803F47010164B5B6803F48032C4
:1002D000022303EB904022B9194B4343174C236090
:1002E0000DE0104B5B6803F4003323B1144B434320
:1002F000124C236003E0104B4343104C236003E097
:100300000D4B0E4C236000BF00BF064B5B68C3F370
:1003100003130C4CE15C094B1B68CB40074C23607A
:1003200010BD000000100240002002400000FFF855
:10033000FFFFF6FE08ED00E000127A00000000204A
:1003400000093D000400002010B50446CC4884425A
:1003500008D10121042000F02FFD0021042000F02D
:100360002BFD46E0C748844208D10121082000F057
:1003700023FD0021082000F01FFD3AE0C24884421E
:1003800008D10121102000F017FD0021102000F0FD
:1003900013FD2EE0BD48844208D10121202000F049
:1003A0000BFD0021202000F007FD22E0B848844228
:1003B00008D10121402000F0FFFC0021402000F086
:1003C000FBFC16E0B348844208D10121802000F0F4
:1003D000F3FC0021802000F0EFFC0AE0AE488442EC
:1003E00007D10121801500F0E7FC0021A01500F0E5
:1003F000E3FC10BD10B50121084600F0DDFC002132
:10040000012000F0D9FC10BD2DE9F0410246002585
:100410000026002000230024002791F803C00CF0E0
:100420000F0591F803C00CF0100CBCF1000F03D0C5
:1004300091F802C04CEA050591F800C0BCF1000F2C
:1004400031D0146800202BE04FF0010C0CFA00F3BF
:10045000B1F800C00CEA03069E4220D183004FF0A1
:100460000F0C0CFA03F7BC4305FA03FC4CEA040436
:1004700091F803C0BCF1280F06D14FF0010C0CFA23
:1004800000FCC2F814C00AE091F803C0BCF1480FA8
:1004900005D14FF0010C0CFA00FCC2F810C0401C52
:1004A0000828D1D31460B1F800C0BCF1FF0F34DDCF
:1004B000546800202EE000F1080C4FF0010808FA03
:1004C0000CF3B1F800C00CEA03069E4221D1830070
:1004D0004FF00F0C0CFA03F7BC4305FA03FC4CEA8F
:1004E000040491F803C0BCF1280F05D100F1080CF9
:1004F00008FA0CF8C2F8148091F803C0BCF1480F58
:1005000007D100F1080C4FF0010808FA0CF8C2F806
:100510001080401C0828CED35460BDE8F0814FF60F
:10052000FF710180022181700421C1707047024671
:10053000002093680B400BB1012000E000207047C1
:100540000146886880B2704702460020D3680B409D
:100550000BB1012000E0002070470146C86880B25E
:10056000704701617047416170470AB1016100E065
:1005700041617047C16070474FF480320A43826125
:100580008161826182698269704702460020434B23
:1005900018684FF68073184040EA021008433F4B3A
:1005A000186070473E49C8617047F0B50A4600239D
:1005B00000240021002500F00046B6F1004F02D1D2
:1005C000364EF16901E0354E7168C0F3034583B2E0
:1005D00000F44016B6F5401F08D121F070612F4E8F
:1005E000766826F070662D4F7E6012E000F480166B
:1005F000B6F5801F06D1032606FA05F4A14341F0A3
:10060000706106E0460D360103FA06F6B14341F08B
:10061000706122B1460D360103FA06F6314300F04F
:100620000046B6F1004F02D11C4EF16101E01B4EB5
:100630007160F0BD30B500228B071C0F0F2303FA49
:1006400004F2164B08338C1053F824309343134CA8
:1006500008348D1044F8253023468C1053F824308C
:100660008C07240F00FA04F423430C4C08348D103B
:1006700044F8253030BD0A49DC310860704700007D
:1006800000080140000C014000100140001401402E
:1006900000180140001C0140002001400000014002
:1006A0000000204210B50446F748844209D10121D8
:1006B000480500F08EFB00214FF4001000F089FB8C
:1006C00008E00121880500F084FB00214FF4800040
:1006D00000F07FFB10BD2DE9F04385B004460D46C8
:1006E0000026B1460427DFF8A483A6884FF6C07021
:1006F0000640684600F0D9FADDF80880E448B8FB07
:10070000F0F01FFA80F946EA0906A68020884FF625
:10071000FE71084020800026DE49286888420CD8F7
:1007200028684000B8FBF0F087B2042F00DA0427F5
:100730003E4309F10100208427E0E8884BF6FF7171
:10074000884206D1286800EB4000B8FBF0F087B281
:1007500009E0286800EBC00101EB0010B8FBF0F0E5
:1007600087B247F48047C7F30B0008B947F0010789
:1007700047F4004006434FF4967009FB00F04FF435
:100780007A7190FBF1F0401C2084A683208840F011
:100790000100208026884FF6F5300640A888698938
:1007A000084306432680A88929890843208105B08B
:1007B000BDE8F08341F288310160002181804BF671
:1007C000FF71C1800021018141814FF4804181810D
:1007D000704721B1028842F00102028004E00288E1
:1007E0004FF6FE731A400280704721B1828842F4AE
:1007F0000062828004E082884FF2FF731A40828098
:10080000704721B1828842F48052828004E082885D
:100810004EF6FF731A408280704721B1028842F47D
:100820008072028004E002884FF6FF631A40028063
:10083000704721B1028842F40072028004E002880D
:100840004FF6FF531A400280704721B1028842F4EC
:100850008062028004E002884FF6FF331A40028073
:1008600070470A46002181894FF60173194002F052
:10087000FE0319438181704721B1828942F0010250
:10088000828104E082894FF6FE731A4082817047AC
:1008900021B1028842F04002028004E002884FF653
:1008A000BF731A40028070471AB183880B4383805C
:1008B00002E083888B438380704701827047014642
:1008C000088AC0B2704712B141F0010102E04FF650
:1008D000FE7319400182704708B50246002000905F
:1008E00000920098084400900098008808BD21B14B
:1008F000028842F40042028003E00288C2F30E0242
:1009000002807047B1F5006F04D1028842F40062A2
:10091000028004E002884FF2FF731A4002807047A1
:10092000B1F5005F04D1028842F40052028004E075
:1009300002884DF6FF731A400280704721B1028889
:1009400042F48052028004E002884EF6FF731A409F
:1009500002807047B1F5006F04D1028842F4006252
:10096000028004E002884FF2FF731A400280704751
:1009700021B1028842F02002028004E002884FF692
:10098000DF731A40028070470146088B00127047DF
:1009900021B1028842F01002028004E002884FF682
:1009A000EF731A400280704721B9028842F080023A
:1009B000028004E002884FF67F731A40028070477D
:1009C000B1F5804F05D0828B4BF6FF731A408283BE
:1009D00003E0828B42F480428283704770B5024606
:1009E0000024002500230020958A138B1B0445EA70
:1009F000030626F07F4404EA01068E4201D101205D
:100A000000E0002070BD10B5014600200023002248
:100A10008B8A0A8B120443EA020424F07F4010BD43
:100A20000CB50246002000230193009300920B0FA7
:100A3000019321F07F41019B1BB1009B1433009374
:100A400003E0090C009B18330093009B1B680B40CC
:100A50000BB1012000E000200CBD002221F07F42FC
:100A6000D3438382704730B5024600200023948828
:100A700001F0E06504EA154321F07F41948A0C40BF
:100A800054B14BB1012008E00054004000127A003C
:100A900040420F00A0860100002030BD002221F05E
:100AA0007F42D34383827047DF48006840F00100F3
:100AB000DD49086008464068DC490840DA4948607A
:100AC00008460068DA490840D749086008460068C7
:100AD00020F4802008600846406820F4FE0048604A
:100AE0004FF41F0088607047CF49096821F48031B6
:100AF000CD4A11601146096821F480211160B0F5DA
:100B0000803F03D0B0F5802F0ED106E0C6490968BA
:100B100041F48031C44A116007E0C349096841F4D7
:100B2000A021C14A116000E000BF00BF704710B5AE
:100B300001460022002300204A11012A02D1BA4CAA
:100B4000236806E0022A02D1B74C236A01E0B64CC2
:100B5000636A01F01F02012494401C400CB1012083
:100B600000E0002010BD38B50020009000240025D2
:100B700000BF3120FFF7DBFF05460098401C0090C6
:100B80000098B0F5A06F01D0002DF2D03120FFF712
:100B9000CEFF08B1012400E00024204638BD014604
:100BA0000020A14A106820F0F80040EAC10010605F
:100BB0007047A04908607047024600209A4B586869
:100BC00020F47C1042EA01031843974B58607047A9
:100BD00098490866704701460020934A506820F003
:100BE00003000843506070478F48406800F00C00D5
:100BF0007047014600208C4A506820F0F0000843FE
:100C00005060704701460020874A506820F4E06039
:100C100008435060704701460020834A506820F422
:100C2000605040EAC1005060704729B17E4A527A54
:100C300002437D4B5A7204E07B4A527A82437A4BDC
:100C40005A7270477B49D8310860704701460020CE
:100C5000754A506820F440400843506070470021B6
:100C6000714A20321170704A82F82010012802D097
:100C700004280AD104E001216B4A2032117005E0FA
:100C80000521694A2032117000E000BF00BF7047A3
:100C90006949086070476449096A0143624A116200
:100CA0007047654944390860704730B5002100221B
:100CB000002400235C4D6D6805F00C0121B104296E
:100CC00005D0082923D105E05C4D056022E05B4D8D
:100CD00005601FE0544D6D6805F47012524D6D684B
:100CE00005F48034022505EB92421CB9544D55435E
:100CF00005600BE04C4D6D6805F400351DB1504D9D
:100D00005543056002E04D4D5543056002E04B4DF3
:100D1000056000BF00BF444D6D6805F0F001090992
:100D2000484D6B5C0568DD4045603F4D6D6805F4DE
:100D3000E061090A434D6B5C4568DD4085603A4DD2
:100D40006D6805F46051C90A3E4D6B5C4568DD4035
:100D5000C560354D6D6805F44041890B3A4D6B5CBB
:100D6000C568B5FBF3F5056130BD29B12E4A52695E
:100D700002432D4B5A6104E02B4A526982432A4BAD
:100D80005A61704729B1284A92690243264B9A61F9
:100D900004E0254A92698243234B9A61704729B146
:100DA000214AD2690243204BDA6104E01E4AD2692B
:100DB00082431D4BDA61704729B11B4AD268024356
:100DC000194BDA6004E0184AD2688243164BDA60A5
:100DD000704729B1144A12690243134B1A6104E0A7
:100DE000114A12698243104B1A6170471249403907
:100DF000086070470F49C86470470B49C871704755
:100E00000948406A40F080700749486270470146CF
:100E10000020054A92680A400AB1012000E0002043
:100E20007047014988727047001002400000FFF8C7
:100E3000FFFFF6FE000042428004424200127A00A8
:100E400000093D00140000202400002010B50446D5
:100E5000FB48844209D101218803FFF7ADFF00213F
:100E60004FF48040FFF7A8FF32E0F648844209D1F2
:100E700001214804FFF7ADFF00214FF40030FFF7D8
:100E8000A8FF25E0F048844209D101218804FFF73A
:100E9000A0FF00214FF48020FFF79BFF18E0EB48F4
:100EA000844209D10121C804FFF793FF00214FF4C8
:100EB0000020FFF78EFF0BE0E548844208D10121B6
:100EC0000805FFF786FF00214FF48010FFF781FF30
:100ED00010BD2DE9F04786B005460E460024A24617
:100EE00000BFA1460027B08900B100BF2F462C8A61
:100EF0004CF6FF700440F08804432C82AC894EF617
:100F0000F3100440B08831890843718908430443D1
:100F1000AC81AC8A4FF6FF400440B0890443AC82F8
:100F200001A8FFF7C2FEC648874202D1DDF810A033
:100F300001E0DDF80CA0A88900F4004040B10AEB04
:100F4000CA0000EB0A1031684900B0FBF1F807E075
:100F50000AEBCA0000EB0A1031688900B0FBF1F817
:100F60006420B8FBF0F004012009642101FB108922
:100F7000A88900F4004040B1322000EBC900B0FB6A
:100F8000F1F000F00700044308E0322000EB091004
:100F90006421B0FBF1F000F00F0004432C8106B097
:100FA000BDE8F0874FF41651016000218180C180B7
:100FB00001810C21418100218181704710B50246D9
:100FC0000020108A4FF2FF0318400B884C882343FF
:100FD0008C882343CC8823431843108210BD002102
:100FE000018041808180C180704721B1828942F4B3
:100FF0000052828104E082894DF6FF731A4082819B
:101000007047F0B50346002400260025002040F676
:101010006A17B94200D100BF1846C1F3421401F06B
:101020001F06012707FA06F5012C01D10C3004E058
:10103000022C01D1103000E014301AB107682F43A0
:10104000076002E00768AF430760F0BD1AB1838A0A
:101050000B43838202E0838A8B4383827047028A38
:101060004FF6F0731A400282028A0A4302827047E6
:1010700082894FF2FF731A40828182890A438281FA
:10108000704721B1828942F00202828104E08289A4
:101090004FF6FD731A4082817047028A4FF6DF7364
:1010A0001A400282028A0A430282704721B1028AF0
:1010B00042F48042028204E0028A4BF6FF731A4037
:1010C00002827047C1F30802828070470146888817
:1010D000C0F308007047818941F0010181817047A8
:1010E000028BD2B20283028B42EA01220283704752
:1010F000028B02F47F420283028B0A430283704711
:1011000021B1828A42F02002828204E0828A4FF674
:10111000DF731A408282704721B1828A42F0100246
:10112000828204E0828A4FF6EF731A40828270470F
:1011300021B1828A42F00802828204E0828A4FF65C
:10114000F7731A408282704721B1828942F40042CB
:10115000828103E08289C2F30E028281704721B14D
:10116000828A42F40062828204E0828A4FF2FF7334
:101170001A4082827047828A4FF6FB731A4082823D
:10118000828A0A438282704721B1828A42F0020237
:10119000828204E0828A4FF6FD731A408282704791
:1011A00002460020B1F5007F00D100BF13880B403C
:1011B0000BB1012000E00020704701F40072B2F58D
:1011C000007F00D100BFCA430280704770B502465D
:1011D000002400230025002040F66A16B14200D109
:1011E00000BFC1F3421501F01F03012606FA03F305
:1011F000012D02D19689334006E0022D02D1168AD4
:10120000334001E0968A33400C12012606FA04F4BA
:101210001688344013B10CB1012000E0002070BDED
:1012200010B50022002340F66A14A14200D100BF8D
:101230000A1201249440A3B2DC43048010BD0000D4
:10124000003801400044004000480040004C00408D
:101250000050004010B543A000F026FD002413E02C
:1012600044490C550846015D43A000F01DFDE117FF
:1012700004EB11710911A4EB01110F2902D140A057
:1012800000F012FD601C84B2B4F5807FE8DD4FF4FD
:1012900080720021374800F097FA3AA000F004FD70
:1012A00040A000F001FD4FF480720021464800F09C
:1012B000BBFB002421E04448005D2E49095D8842C3
:1012C00009D04148015D41A000F0EEFC46A000F0CD
:1012D000EBFC002010BD3C48015D52A000F0E4FC96
:1012E000E11704EB11710911A4EB01110F2902D1CF
:1012F0004EA000F0D9FC601C84B2FF2CDBDD4CA0BA
:1013000000F0D2FC0120E5E700F0CEF8202054499F
:101310000860012008600220091D086000F0F4F850
:1013200050A000F0C1FC00F08CF94EA000F0BCFC15
:10133000FFF790FF012809D12020494908600120CA
:10134000091D08600220091F086008E020204449A8
:10135000091D08600120091F08600220086000BF05
:10136000FEE70000D0B4C8EBB5C4CAFDBEDD0D0A6F
:101370000000000034000020307825303278000072
:101380000D0A00003C3C2D454550524F4D2D494E15
:10139000464F2D3E3E6E0D20D0B4B3C9B9A6200AEB
:1013A0000D0A00003C3C2D454550524F4D2D494EF5
:1013B000464F2D3E3E6E0D20B6C1B3F6B5C4CAFDF4
:1013C000BEDD200A0D0A0000340100203C3C2D4502
:1013D0004550524F4D2D4552524F522D3E3E307882
:1013E00025303258200A00003C3C2D454550524FD4
:1013F0004D2D4552524F522D3E3EB4EDCEF33A495B
:10140000324320454550524F4DD0B4C8EBD3EBB6D4
:10141000C1B3F6B5C4CAFDBEDDB2BBD2BBD6C20AEB
:101420000D0A000030782530325820000A0D0000E7
:101430003C3C2D454550524F4D2D494E464F2D3E7B
:101440003E493243284154323443303229B6C1D068
:10145000B4B2E2CAD4B3C9B9A60A0D0A00000000AA
:10146000100C0140D5E2CAC7D2BBB8F6493243CD11
:10147000E2C9E8284154323443303229B6C1D0B4ED
:10148000B2E2CAD4C0FDB3CC0D0A0000704700BF61
:10149000FEE700BFFEE700BFFEE700BFFEE77047C4
:1014A000704770477047000008B501210820FFF71A
:1014B00069FC2020ADF8000010208DF80300032007
:1014C0008DF8020069460F48FEF79EFF0120ADF837
:1014D000000069460B48FEF797FF0220ADF80000B8
:1014E00069460848FEF790FF20210648FFF739F8C3
:1014F00001210448FFF735F802210248FFF731F8CF
:1015000008BD0000000C014000B585B00121042099
:10151000FFF738FC01218803FFF734FC18208DF811
:1015200013004FF40070ADF8100003208DF8120086
:1015300004A92148FEF768FF04208DF8130000027B
:10154000ADF8100004A91C48FEF75EFF4FF4E1302F
:1015500000900020ADF80400ADF80600ADF80800DA
:10156000ADF80C000C20ADF80A0069461348FFF7EF
:10157000B0FC01211148FFF738FD05B000BD70B582
:1015800004460D46E1B20D48FFF79CFD00BF8021E7
:101590000A48FFF705FE0028F9D0204670BD10B5B7
:1015A000044600BF20210548FFF7FAFD0028F9D0C6
:1015B0000248FFF78BFD10BD0008014000380140D4
:1015C00008B501214805FFF7EAFB01210820FFF7D4
:1015D000D9FB1C208DF803004020ADF8000003204B
:1015E0008DF802006946FB48FEF70EFF1C208DF8BF
:1015F00003008020ADF8000003208DF8020069464A
:10160000F448FEF701FF08BD1FB54FF48060ADF848
:101610000A000001ADF80C00EF4800904BF6FF7097
:10162000ADF806000020ADF804000A20ADF808006F
:101630006946EA48FFF74FF80121E848FFF7C9F883
:101640001FBD10B5FFF7BCFFFFF7DEFFA020E44988
:10165000088010BD10B5002400BF0121DF48FFF74E
:10166000DCF81421DD48FFF737F90446DC4801783F
:101670000022DA48FFF727F91421D848FFF72CF9A0
:1016800000F002000028E8D0D649D448FFF7E5F979
:101690000121D248FFF7CDF810BD10B50446214610
:1016A000D1A000F001FB002010BD70B504460E462D
:1016B00015464FF48050D849086009E0D6490868BB
:1016C000411ED54A116018B90420FFF7E6FF70BD2E
:1016D0004FF40031C148FFF7A3F90028EED10121F2
:1016E000BE48FFF79AF84FF48050CB49086009E0F4
:1016F000C9490868411EC84A116018B90520FFF79A
:10170000CCFFE4E7C549B548FFF768F90028EFD0FA
:10171000B34801780022B148FFF7D5F84FF4805064
:10172000BD49086009E0BC490868411EBA4A116019
:1017300018B90620FFF7B1FFC9E7B949A748FFF775
:101740004DF90028EFD03146A448FFF7B6F84FF422
:101750008050B149086009E0AF490868411EAE4AAF
:10176000116018B90720FFF798FFB0E7AC49891C52
:101770009A48FFF733F90028EED01AE0217897480D
:10178000FFF79BF8641C4FF48050A349086009E000
:10179000A1490868411EA04A116018B90820FFF746
:1017A0007CFF94E79E49891C8C48FFF717F90028B5
:1017B000EED02800A5F10101CDB2DFD1012187488B
:1017C000FFF737F8012082E72DE9F04707460D467D
:1017D00014464FF00008C146C24600262846E917C5
:1017E00005EB5171C910A5EBC10101F0FF0ACAF167
:1017F0000800C6B22046E11704EB5171C1F3C708D7
:10180000E11704EB5171C910A4EBC10101F0FF090C
:10181000BAF1000F28D1B8F1000F07D14A46294686
:101820003846FFF742FFFFF715FF60E00AE00822A5
:1018300029463846FFF739FFFFF70CFF05F108008E
:10184000C5B208375FEA0800A8F1010101F0FF08FE
:10185000EDD1B9F1000F4AD04A4629463846FFF784
:1018600024FFFFF7F7FE42E0B8F1000F07D14A4628
:1018700029463846FFF719FFFFF7ECFE37E0A01BBB
:1018800084B22046E11704EB5171C1F3C708E11798
:1018900004EB5171C910A4EBC10101F0FF094EB175
:1018A000324629463846FFF700FFFFF7D3FEA81956
:1018B000C5B237440AE0082229463846FFF7F5FE4C
:1018C000FFF7C8FE05F10800C5B208375FEA080057
:1018D000A8F1010101F0FF08EDD1B9F1000F06D028
:1018E0004A4629463846FFF7E0FEFFF7B3FEBDE85B
:1018F000F08770B504460D4601213848FEF78DFF8C
:101900004FF480504449086009E043490868411E8B
:10191000414A116018B90020FFF7BFFE70BD3F4972
:101920002E48FFF75BF80028EFD04FF480503A497B
:1019300008602B48017800222848FEF7C4FF09E020
:1019400035490868411E344A116018B90120FFF773
:10195000A4FEE3E732492148FFF740F80028EFD022
:1019600029461E48FEF7A9FF4FF480502A49086017
:1019700009E029490868411E274A116018B9022068
:10198000FFF78BFECAE727491448FFF727F800281E
:10199000EFD021781148FEF790FF4FF480501E4998
:1019A000086009E01C490868411E1B4A116018B90B
:1019B0000320FFF772FEB1E71949891C0748FFF7BA
:1019C0000DF80028EED001210448FEF732FF012077
:1019D000A4E70000000C0140801A060000540040FB
:1019E00028000020000400103C3C2D454550524F7B
:1019F0004D2D4552524F522D3E3E493243B5C8B44B
:101A0000FDB3ACCAB1A3A16572726F72436F646516
:101A1000203D2025640A00002C0000200100030066
:101A2000820007008400060070B505460E46144685
:101A30004FF480506549086009E064490868411E18
:101A4000624A116018B90920FFF727FE70BD4FF4F4
:101A500000315F48FEF7E4FF0028EED101215C4829
:101A6000FEF7DBFE4FF480505849086009E0574903
:101A70000868411E554A116018B90A20FFF70DFE8B
:101A8000E4E754495248FEF7A9FF0028EFD0524836
:101A9000017800224E48FEF716FF4FF480504B4964
:101AA000086009E049490868411E484A116018B9B0
:101AB0000B20FFF7F2FDC9E748494548FEF78EFFC6
:101AC0000028EFD001214248FEF783FE314640480E
:101AD000FEF7F3FE4FF480503C49086009E03B49B3
:101AE0000868411E394A116018B90C20FFF7D5FD6E
:101AF000ACE73A49891C3648FEF770FF0028EED063
:101B000001213348FEF789FE4FF480502F490860C9
:101B100009E02E490868411E2C4A116018B90D20B1
:101B2000FFF7BBFD92E72B492948FEF757FF002836
:101B3000EFD02948017801222548FEF7C4FE4FF472
:101B400080502249086009E020490868411E1F4A68
:101B5000116018B90E20FFF7A0FD77E71D49491C59
:101B60001B48FEF73BFF0028EED026E0012C07D1F2
:101B700000211748FEF769FE01211548FEF759FEBE
:101B80004FF480501149086009E010490868411E6F
:101B90000E4A116018B90320FFF77FFD56E70D4983
:101BA0003F310B48FEF71AFF0028EED00848FEF739
:101BB00086FE28706D1C601E84B2002CD6D10121D7
:101BC0000348FEF742FE012040E700002C00002001
:101BD000005400400100030028000020820007009C
:101BE0002DE9F05F0546002092469B468846064652
:101BF000814640241BE0284641464746224600F0E5
:101C000042F853465A46C01A914110D3114618461D
:101C1000224600F029F82D1A67EB01084F462246AC
:101C20000120002100F020F817EB00094E41201E92
:101C3000A4F10104DFDC484631462A464346BDE8AC
:101C4000F09F0000064C074D06E0E06840F00103FD
:101C500094E8070098471034AC42F6D3FEF76CFACC
:101C60004C2100086C210008202A04DB203A00FAED
:101C700002F1002070479140C2F1200320FA03F3E3
:101C8000194390407047202A04DB203A21FA02F0E1
:101C90000021704721FA02F3D040C2F120029140A6
:101CA00008431946704700000FB4054B10B503A94F
:101CB000044A029800F018F810BC5DF814FB00000C
:101CC0007F1500083000002002E008C8121F08C17C
:101CD000002AFAD170477047002001E001C1121FAD
:101CE000002AFBD1704700002DE9FF4F8DB00F4651
:101CF0000546002606E025280BD0DDE90F129047A7
:101D00006D1C761C28780028F5D111B03046BDE84E
:101D1000F08F0024A246A1460122EC4900E00443D2
:101D200015F8013F203B02FA03F00842F7D128786A
:101D30002A2810D06FF02F022878A0F1300109294D
:101D400014D80AEB8A0102EB410144F0020400EBD3
:101D5000010A6D1CF0E701CF5FEA000A03D544F4E5
:101D60000054CAF1000A44F002046D1C28782E28A1
:101D700017D115F8010F44F004042A280ED06FF093
:101D80002F022878A0F1300109290AD809EB89012E
:101D900002EB410100EB01096D1CF2E757F8049BCF
:101DA0006D1C28786C280FD006DC4C2817D06828CA
:101DB0000DD06A2814D104E0742810D07A280FD1ED
:101DC0000DE044F400140AE044F4801401E044F40B
:101DD00040146978814202D104F580146D1C6D1C99
:101DE0002A786E2A1FD00CDC632A31D004DC002A4A
:101DF0008BD0582A11D1A3E0642A68D0692A0CD16B
:101E000065E0732A2ED004DC6F2A73D0702A04D1C7
:101E10009BE0752A6FD0782A6ED01046DDE90F124C
:101E20009047761C50E1C4F30250022806D00328E4
:101E300009D0042801CF09D0066045E101CFF11790
:101E4000C0E9006140E101CF06803DE106703BE161
:101E500017F8040B8DF8000000208DF80100EB4608
:101E6000012003E057F804BB4FF0FF3061074FF04B
:101E7000000102D40DE008F10101884649450FDA5E
:101E80008045F8DB1BF808100029F4D108E008F1C0
:101E9000010188468142FADB1BF808100029F6D1BF
:101EA000DDE90F23AAEB08008146214600F036F950
:101EB000304400EB080604E0DDE90F121BF8010BCB
:101EC0009047B8F10108F7D221464846F7E00A21C9
:101ED000C4F302534FF0000B0891022B04D001CF42
:101EE000C117032B09D00AE0FF1D27F00707F7E809
:101EF000020108E032E01FE020E000B2C117042B2D
:101F000001D140B2C117031E71F1000307DA4FF08F
:101F1000000CD0EB0C006CEB01012D2302E023053B
:101F200004D52B238DF82430012303E0E30701D0EF
:101F30002023F7E7984658E00A2110E010210EE030
:101F400010204FF0000B08900CE010214FF0000B18
:101F500044F004044FF00809089103E008214FF011
:101F6000000B0891C4F30253022B04D001CF0021CF
:101F7000032B06D006E0FF1D27F00707F7E8020154
:101F800003E080B2042B00D1C0B24FF00008230759
:101F90002BD5702A07D0DDF820C08CF0100C5CEA3D
:101FA0000B0C05D00EE040238DF82430012308E00F
:101FB00050EA010306D030238DF824308DF8252017
:101FC00002239846DDF820C08CF0080C5CEA0B0C6C
:101FD0000BD150EA010301D1630706D530238DF8F8
:101FE00024304FF00108A9F10109582A04D038A281
:101FF0000B9208AA0A920BE03AA2F9E75B46089A0C
:10200000FFF7EEFD0B9B9B5C0A9A521E0A9213701F
:1020100050EA0102F2D10A98ADEB000000F1200B6A
:10202000600702D524F4803401E04FF00109D9455E
:1020300002DDA9EB0B0000E0002000EB0B014144A6
:102040000890AAEB010AE00306D4DDE90F2321463C
:10205000504600F063F806444FF0000908E009A973
:1020600011F80900DDE90F12904709F10109761C0A
:10207000C145F4DBE0030CD5DDE90F2321465046D2
:1020800000F04CF8064404E0DDE90F1230209047E0
:10209000761C0899481E08900029F5DC08E00A988B
:1020A0000A990078491C0A91DDE90F129047761CC5
:1020B000BBF10001ABF1010BF1DC21465046DDE93B
:1020C0000F2300F019F806446D1C1BE609280100D7
:1020D000303132333435363738396162636465669E
:1020E0000000000030313233343536373839414260
:1020F00043444546000000002DE9F0410446002518
:102100001E461746880404D405E039462020B0470F
:102110006D1C641EF9D52846BDE8F0812DE9F0411B
:10212000044600251E469046C80301D5302700E02E
:102130002027880404D505E041463846B0476D1C89
:10214000641EF9D52846BDE8F08100006C21000826
:102150000000002034000000C81C0008A021000876
:102160003400002004060000D81C000800A24A0425
:102170000000000000000000010203040607080937
:10218000000000000102030401020304060708091D
:10219000020406080000000000A00000000000008B
:0400000508000131BD
:00000001FF
