:020000040800F2
:100000006804002045010008C91600081F160008F2
:10001000C516000829080008751A0008000000002D
:10002000000000000000000000000000F5160008BD
:100030006908000800000000CB160008F916000847
:100040005F0100085F0100085F0100085F01000810
:100050005F0100085F0100086B0800085F010008ED
:100060005F0100085F0100085F0100085F010008F0
:100070005F0100085F0100085F0100085F010008E0
:100080005F0100085F0100085F0100085F010008D0
:100090005F0100085F0100085F0100085F010008C0
:1000A0005F0100085F0100085F0100085F010008B0
:1000B0005F0100085F0100085F0100085F010008A0
:1000C0005F0100085F0100085F0100085F01000890
:1000D0005F010008511A00085F0100085F01000875
:1000E0005F0100085F0100085F0100085F01000870
:1000F0005F0100085F0100085F0100085F01000860
:100100005F0100085F0100085F0100085F0100084F
:100110005F0100085F0100085F0100085F0100083F
:100120005F0100085F0100085F0100085F0100082F
:10013000DFF80CD000F022FB00480047112800082F
:10014000680400200648804706480047FEE7FEE7AF
:10015000FEE7FEE7FEE7FEE7FEE7FEE7FEE7FEE777
:10016000ED17000831010008202A04DB203A21FAAB
:1001700002F00021704721FA02F3D040C2F12002C0
:100180009140084319467047D2B201E000F8012BB4
:10019000491EFBD270470022F6E710B513460A4607
:1001A00004461946FFF7F0FF204610BD2DE9FE4F2B
:1001B00081EA030404F0004421F0004100944FF070
:1001C000000B23F0004350EA01045ED052EA03041E
:1001D0005BD0C3F30A54C1F30A552C44A4F2F334A0
:1001E0000194A0FB0254C1F3130141F48011C3F345
:1001F000130343F4801301FB024400FB034E840A03
:10020000970A44EA815447EA8357A4FB076802959A
:100210008D0A05FB07854FEA932C04FB0C54270538
:10022000029D4FEA065847EA1637B5EB08056EEB14
:10023000070C870E920E47EA811742EA8312A7FB4A
:100240000201B6EB0B0164EB00042B0D43EA0C3307
:100250005E1844EB1C50DA465146E7FB0201C5F339
:1002600013044FEA0B3343EA14534FEA0432019C60
:1002700043EA0603A4F10C040294009CCDE900B407
:1002800000F057F903B0BDE8F08F00200146F9E710
:100290002DE9F04D81EA030404F0004B21F0004504
:1002A00014464FF0000A23F0004150EA050220D026
:1002B00054EA01021DD0C5F30A570246C5F31303E1
:1002C000C1F31300C1F30A5640F4801543F48013C0
:1002D000A7EB0608101BD64608F2FD3873EB0500A5
:1002E00002D308F1010801E092185B41B8F1000F58
:1002F00003DA00200146BDE8F08D00204FF48011A4
:10030000064684460EE0171B73EB050705D3121B48
:1003100063EB050306434CEA010C49084FEA300041
:1003200092185B4150EA0107EDD152EA030012D066
:1003300082EA040083EA0501084305D0101BAB41A3
:1003400006D20122002306E000224FF0004302E023
:100350006FF0010253101AEB06004CEB085110EB42
:100360000A0041EB0B01BDE8F04D00F0D3B80EB52B
:1003700040F2334102910021CDE900110A460B46BB
:1003800000F0D7F803B000BDC1F30A5210B5C1F3B5
:10039000130140F2FF3341F480119A4201DA002048
:1003A00010BD40F233439A42A2F2334203DC524280
:1003B000FFF7DAFE10BD904010BD00F0004230F0B3
:1003C00000400AD0C10D01F56071C0F3160042EA89
:1003D0000151C20840071143704700200146704791
:1003E00001F0004330B421F0004150EA010206D090
:1003F0000A0DA2F56072C1F31301002A02DC30BCC1
:1004000000207047440F44EAC104C100E01830BC2A
:1004100000EBC25000F047B830B50B460146002053
:100420002022012409E021FA02F59D4205D303FAB6
:1004300002F5491B04FA02F52844151EA2F1010237
:10044000F1DC30BD2DE9F05F0546002092469B4669
:1004500088460646814640241BE0284641464746DA
:100460002246FFF781FE53465A46C01A914110D3E7
:1004700011461846224600F093F92D1A67EB010841
:100480004F4622460120002100F08AF917EB0009AF
:100490004E41201EA4F10104DFDC484631462A46C5
:1004A0004346BDE8F09F0029A8BF7047401C4900A3
:1004B00008BF20F00100704710B4B0FA80FC00FAC9
:1004C0000CF050EA010404BF10BC704749B1CCF1F4
:1004D000200421FA04F411FA0CF118BF0121214380
:1004E0000843A3EB0C01CB1D4FEA00614FEA10203B
:1004F00042BF002010BC704700EBC35010440029DD
:10050000A4BF10BC7047401C490008BF20F0010088
:1005100010BC704710B5141E73F1000408DA401CBB
:1005200041F1000192185B411A4301D120F0010012
:1005300010BD2DE9F04D92469B4611B1B1FA81F202
:1005400002E0B0FA80F22032904600F029F9044629
:100550000F4640EA0A0041EA0B0153465A46084357
:1005600013D0114653EA010019D0C8F14002504699
:10057000FFF7FAFD05460E4650465946424600F042
:100580000FF9084305D0012004E020463946BDE8B4
:10059000F08D0020054346EAE0762C4337430A9865
:1005A0006305E40AA0EB08000022FD0A44EA475470
:1005B0000A3002D500200146E9E70105101969411A
:1005C000DDE9084500196941BDE8F04DA2E72DE9D4
:1005D000FE4F804681EA0300C00F0C46009021F0D8
:1005E000004123F00045B8EB0200A94105D2404686
:1005F000214690461C460B46024623F0004010431D
:1006000047D0270DC7F30A00C3F30A510290401ADE
:10061000019040286BDAC3F3130040F4801B00986C
:10062000924620B10023D2EB030A63EB0B0B019837
:100630005946C0F14002504600F0B2F806460D4659
:1006400050465946019A00F0BAF810EB0800614193
:10065000002487EA115284EAE7731A4340D0009AD3
:1006600062B3019A012A4FEA075215DC001B61EBC5
:1006700002014FF0004202EA0752CDE90042001C9D
:1006800041F5801132462B46FFF753FF03B0BDE81A
:10069000F08F40462146F9E7001B61EB0201001C88
:1006A00041F5801300185B412018A2F5001747EBB5
:1006B000030140EAD570B6196D4111E06D084FEAAB
:1006C000360645EAC0754FEA0752001B61EB02018E
:1006D000001C41F5801149084FEA300000195141D2
:1006E00032462B4603B0BDE8F04FFFF713BF00982A
:1006F000012240000023D0EB020263EBE07300987C
:1007000021464FEAE074B8EB000061EB0401E9E731
:1007100083F000435BE781F0004158E7C1F30A52E0
:10072000C1F3130140F2FF3341F480119A4202DA1F
:1007300000200146704740F233439A42A2F233420E
:1007400002DC5242FFF710BD00F02AB830B5041E9B
:1007500071F1000404DB4FF00044404264EB0101FE
:10076000141E73F1000405DB1C464FF00043524297
:1007700063EB0403994208BF904230BD064C074D1D
:1007800006E0E06840F0010394E807009847103461
:10079000AC42F6D3FFF7D0FC982B0008B82B00082A
:1007A000202A04DB203A00FA02F100207047914031
:1007B000C2F1200320FA03F3194390407047202A26
:1007C00006DBCB17203A41FA02F043EAE07306E079
:1007D00041FA02F3D040C2F1200291400843194689
:1007E0007047000000B585B000BF0C48806940F03C
:1007F00080000A4988610846806900F08000009006
:1008000000BF00BF881501900548029000200390AA
:1008100001A9044800F03EF805B000BD00100240F8
:1008200000001110001C014000BFFEE710B50C488D
:100830000C4908604FF4E1304860002109488160AC
:10084000C160016181610C21416100F0F5FD054845
:100850000068C06840F0200002490968C86010BD07
:1008600000380140240000207047704770B50446EE
:1008700000F0B0F906462546681C10B1044800781F
:10088000054400BF00F0A6F9801BA842FAD370BD52
:100890000C0000202DE9F847024600239C467BE12E
:1008A0004FF0010808FA03F4D1F8008008EA0400C8
:1008B000A0427DD1DFF8F4A2D1F80480A8EB0A09A8
:1008C000D0453AD014DCB8F1030F50D009DCB8F1B0
:1008D000000F31D0B8F1010F1CD0B8F1020F49D18F
:1008E00020E0B8F1110F18D0B8F1120F42D11EE07C
:1008F000B9F5881F25D006DCB9F5803F20D0B9F5C1
:10090000801F37D11AE0B9F5001F18D0B9F5041FC0
:1009100030D117E0D1F80CC02DE0D1F80C8008F1EF
:10092000040C28E0D1F80C8008F1080C23E0D1F881
:100930000C8008F10C0C1EE000BF00BF00BF00BF20
:1009400000BF00BFD1F80880B8F1000F02D14FF00E
:10095000040C0BE0D1F80880B8F1010F03D14FF07F
:10096000080C146102E04FF0080C546103E04FF0F2
:10097000000C00E000BF00BFFF2801D8904601E056
:1009800002F104084646FF2802D84FEA830803E034
:10099000A3F108084FEA88084746D6F800804FF0D0
:1009A0000F0909FA07F928EA09080CFA07F900E023
:1009B0007AE048EA0908C6F80080D1F8048008F017
:1009C0008058B8F1805F6FD100BFDFF8E481D8F8BC
:1009D000188048F00108DFF8D891C9F81880C84697
:1009E000D8F8188008F00108CDF8008000BF00BFDB
:1009F0004FEAB9384FEA930958F829504FEA8378FB
:100A00004FEA18794FF00F0808FA09F825EA0805A7
:100A1000DFF8A081424502D14FF0000824E0DFF862
:100A20009881424502D14FF001081DE0DFF88C812A
:100A3000424502D14FF0020816E0DFF884814245BA
:100A400002D14FF003080FE0DFF87881424502D170
:100A50004FF0040808E0DFF87081424502D14FF002
:100A6000050801E04FF006084FEA83794FEA19794B
:100A700008FA09F848EA0505DFF850814FEA9309BA
:100A800048F82950D1F8048008F48038B8F5803F40
:100A90000BD1DFF83C81D8F8008048EA0008DFF885
:100AA0003091C9F800800AE075E0DFF82481D8F8B9
:100AB000008028EA0008DFF81891C9F80080D1F812
:100AC000048008F40038B8F5003F0ED1DFF800814B
:100AD00008F10408D8F8008048EA0008DFF8F09030
:100AE00009F10409C9F800800DE0DFF8E48008F19D
:100AF0000408D8F8008028EA0008DFF8D49009F14B
:100B00000409C9F80080D1F8048008F48018B8F509
:100B1000801F0ED1DFF8B88008F10808D8F80080EF
:100B200048EA0008DFF8A89009F10809C9F8008030
:100B30000DE0DFF89C8008F10808D8F8008028EA6A
:100B40000008DFF88C9009F10809C9F80080D1F895
:100B5000048008F40018B8F5001F0ED1DFF870808B
:100B600008F10C08D8F8008048EA0008DFF8609027
:100B700009F10C09C9F800800DE0DFF8548008F194
:100B80000C08D8F8008028EA0008DFF8449009F142
:100B90000C09C9F800805B1CD1F8008028FA03F822
:100BA000B8F1000F7FF47CAEBDE8F88700001110AB
:100BB0000010024000080140000C014000100140FC
:100BC0000014014000180140001C014008000140D1
:100BD0000004014001480068704700000400002044
:100BE00003480068034909780844014908607047D0
:100BF000040000200C00002010B50848006840F0F8
:100C0000100006490860032000F080F80F2000F073
:100C100007F800F02BF8002010BD00000020024073
:100C200070B504460E4800784FF47A71B1FBF0F0CD
:100C30000C490968B1FBF0F5284600F0E3FB08B168
:100C4000012070BD102C07D200222146501E00F05A
:100C50001EF80548046001E00120F2E70020F0E7FB
:100C60000C00002000000020080000207047014612
:100C70000846002809DB00F01F0301229A404309BF
:100C80009B0003F1E023C3F8002100BF70472DE96A
:100C9000F05F80460D461646002700F0FDFE074631
:100CA00039462A46334601F00700C0F1070ABAF177
:100CB000040F02D94FF0040A01E0C0F1070AD1463F
:100CC00000F1040ABAF1070F02D24FF0000A01E066
:100CD000A0F1030AD4464FF0010A0AFA09FAAAF170
:100CE000010A0AEA020A0AFA0CFA4FF0010B0BFA9F
:100CF0000CFBABF1010B0BEA030B4AEA0B04214698
:100D0000404600F0D1FEBDE8F09F000000BF00F0BB
:100D10000702064B19684FF6FF031940044B0B43BB
:100D200043EA0221014B196000BF70470CED00E05F
:100D30000000FA0570B504460D460CB9012070BDDF
:100D40005A48006800F00700A8420ED257480068D1
:100D500020F007002843554908600846006800F065
:100D60000700A84201D00120E9E7207800F0020046
:100D700002281DD1207800F00400042805D14C4839
:100D8000406840F4E0604A494860207800F008007C
:100D9000082805D14648406840F4605044494860FE
:100DA0004348406820F0F000A1680843404948608B
:100DB000207800F0010078B36068012806D13C4833
:100DC000006800F4003090B90120B8E7606802289C
:100DD00006D13748006800F0007040B90120AEE746
:100DE0003348006800F0020008B90120A7E7304846
:100DF000406820F00300616808432D494860FFF710
:100E0000E9FE064609E0FFF7E5FE801B41F2883166
:100E1000884202D9032092E707E02548406800F0A5
:100E20000C006168B0EB810FEDD12048006800F044
:100E30000700A8420ED91D48006820F0070028438B
:100E40001A4908600846006800F00700A84201D06F
:100E5000012074E7207800F00400042807D114482A
:100E6000406820F4E060E168084311494860207858
:100E700000F00800082808D10D48406820F46050B0
:100E8000216940EAC1000A49486000F03FF808497A
:100E90004968C1F30311074A515CC840064908601C
:100EA00006480068FFF7BCFE002048E7002002402B
:100EB000001002407E2B00080000002008000020E7
:100EC00001480068704700000000002000B5FFF7EF
:100ED000F7FF04494968C1F30221034A515CC84045
:100EE00000BD0000001002408E2B000800B5FFF787
:100EF000E7FF04494968C1F3C221034A515CC84075
:100F000000BD0000001002408E2B0008F0B585B037
:100F10000FF26C0C9CE8E01001A8A0E8E0101CA502
:100F20002D68009500210022002300240020194D87
:100F3000696801F00C05F5B1042D02D0082D19D116
:100F400001E0154819E001ADC1F38346AC5D01F441
:100F5000803555B10F4D6D68C5F340451DF805202E
:100F60000D4D6543B5FBF2F302E00C4D04FB05F3B8
:100F7000184602E000BF084800BF00BF05B0F0BD42
:100F800002030405060708090A0B0C0D0E0F1010CA
:100F9000010200000010024000127A0000093D002A
:100FA000F8B504460CB90120F8BD207800F0010026
:100FB000002878D0F848406800F00C0004280CD0D5
:100FC000F548406800F00C00082811D1F24840684C
:100FD00000F48030B0F5803F0AD1EF48006800F49B
:100FE000003000285FD0606800285CD10120DBE77A
:100FF00000BF6068B0F5803F06D1E748006840F464
:101000008030E549086028E0606858B9E248006827
:1010100020F48030E04908600846006820F4802011
:1010200008601AE06068B0F5A02F0BD1DA480068BC
:1010300040F48020D84908600846006840F48030B9
:1010400008600AE0D448006820F48030D249086083
:101050000846006820F48020086000BF606888B1FE
:10106000FFF7B8FD054606E0FFF7B4FD401B642816
:1010700001D9032098E7C848006800F40030002830
:10108000F2D010E0FFF7A6FD054606E0FFF7A2FD4F
:10109000401B642801D9032086E7BF48006800F49C
:1010A00000300028F2D1207800F00200022857D149
:1010B000B948406800F00C0050B1B748406800F0F3
:1010C0000C00082818D1B448406800F4803098B962
:1010D000B148006800F0020020B12069012801D069
:1010E000012061E7AC48006820F0F800616940EA3F
:1010F000C100A949086033E02069E8B10120A7498F
:101100000860FFF767FD054606E0FFF763FD401B3B
:10111000022801D9032047E79F48006800F0020039
:101120000028F2D09C48006820F0F800616940EA8D
:10113000C1009949086013E0002098490860FFF752
:1011400049FD054606E0FFF745FD401B022801D991
:10115000032029E79048006800F002000028F2D13F
:10116000207800F0080008282DD1A069B8B101202E
:101170008B490860FFF72EFD054606E0FFF72AFDC4
:10118000401B022801D903200EE78348406A00F083
:1011900002000028F2D0012000F098FA13E00020AD
:1011A0007F490860FFF716FD054606E0FFF712FDD0
:1011B000401B022801D90320F6E67748406A00F078
:1011C00002000028F2D1207800F00400042873D136
:1011D00000277148C06900F0805070B900BF6E48A8
:1011E000C06940F080506C49C8610846C06900F091
:1011F0008050009000BF00BF01276A48006800F4DB
:101200008070B0B96748006840F480706549086034
:10121000FFF7E0FC054606E0FFF7DCFC401B642816
:1012200001D90320C0E65F48006800F48070002800
:10123000F2D000BFE068012806D15748006A40F0AC
:1012400001005549086227E0E06858B95248006A31
:1012500020F00100504908620846006A20F00400AE
:10126000086219E0E06805280BD14B48006A40F09D
:101270000400494908620846006A40F0010008621B
:101280000AE04548006A20F0010043490862084628
:10129000006A20F00400086200BFE068A0B1FFF718
:1012A00099FC054609E0FFF795FC401B41F28831A7
:1012B000884202D9032077E622E03748006A00F02E
:1012C00002000028EFD012E0FFF784FC054608E09A
:1012D000FFF780FC401B41F28831884201D903208E
:1012E00062E62D48006A00F002000028F0D1012FCC
:1012F00005D12948C06920F080502749C86100BF46
:10130000E069C8B32448406800F00C00082860D0A9
:10131000E069022848D1002020490866FFF75AFCFE
:10132000054606E0FFF756FC401B022801D90320C2
:101330003AE61948006800F000700028F2D1206AEF
:10134000B0F5803F07D11448406820F40030A16810
:10135000084311494860D4E9080108430E49496827
:1013600021F4741108430C49486001200B490866B8
:10137000FFF730FC054607E03DE0FFF72BFC401B84
:10138000022801D903200FE60348006800F000702E
:101390000028F2D02FE0000000100240000042427E
:1013A0008004424200700040002014490866FFF7A4
:1013B00011FC054606E0FFF70DFC401B022801D991
:1013C0000320F1E50E48006800F000700028F2D11B
:1013D00011E0E069012800D1E6E50948466806F415
:1013E0008031206A814204D106F47011606A814222
:1013F00001D00120D8E50020D6E5000000004242DF
:101400000010024070B504462546681EB0F1807F8A
:1014100001D301200FE0681E4FF0E02148610F2149
:101420004FF0FF3000F040FB00204FF0E0218861DA
:1014300007200861002070BD10B504460CB90120DA
:1014400010BDA06900B100E000BF94F8390028B9D0
:10145000002084F83800204600F028F8242084F882
:1014600039002068C06820F400502168C860204618
:1014700000F0E8F92068006920F4904021680861D4
:101480002068406920F02A00216848612068C0680F
:1014900040F400502168C8600020E063202084F8F8
:1014A000390084F83A000020CAE7000010B586B081
:1014B000044600BF2248806940F48040204988618A
:1014C0000846806900F48040019000BF00BF00BF63
:1014D0000846806940F0040088610846806900F091
:1014E0000400019000BF00BF00BF0846806940F0C3
:1014F000040088610846806900F00400019000BF84
:1015000000BF4815029002200390012004900320A0
:10151000059002A90B48FFF7BDF94FF480600290D7
:101520000020039002A90748FFF7B4F90122002127
:101530002520FFF7ACFB2520FFF799FB06B010BD77
:1015400000100240000801402DE9F84304460D4612
:1015500016461F464FF0000994F8390020285CD148
:1015600005B116B90120BDE8F88300BF94F8380032
:10157000012801D10220F6E7012084F8380000BFDD
:101580000020E063212084F83900FFF723FB814627
:10159000A684E6842BE0E08C401EE084A068B0F5D1
:1015A000805F16D14B46002280212046009700F034
:1015B00019FA08B10320D6E7A846B8F80000C0F32E
:1015C000080021684860206908B9AD1C0FE06D1C57
:1015D0000DE04B46002280212046009700F002FAE1
:1015E00008B10320BFE715F8010B21684860E08CC3
:1015F0000028D0D14B46002240212046009700F021
:10160000F1F908B10320AEE7202084F8390000BFCB
:10161000002084F8380000BFA5E70220A3E700BF40
:10162000FEE7000000B585B000BF2448806940F0A7
:101630000800224988610846806900F0080000908F
:1016400000BF00BF00BF0846806940F00800886105
:101650000846806900F00800009000BF00BF00BF8E
:101660000846806940F0080088610846806900F0FB
:101670000800009000BF00BF2020019001200290D0
:1016800003900320049001A90D48FFF703F90120FE
:10169000019001A90A48FFF7FDF80220019001A975
:1016A0000748FFF7F7F820200549103108600120AE
:1016B00008600220086005B000BD00000010024074
:1016C000000C014000BFFEE77047704708B50849AD
:1016D0000968C9084FF47A72B1FBF2F141430091F5
:1016E00000BF00BF00994A1E00920029F9D108BD31
:1016F000000000207047000010B5002407E01D48DE
:1017000050F82400401C1B4941F82400641C022CA2
:10171000F5DB18480068B0F57A7F08D3002015493A
:1017200008601548006880F00100134908601148FE
:101730004068B0F5FA7F1AD300200E4948600F4880
:101740000068A0B901210C2001F0FEF80C490880C6
:1017500001210E2001F0F8F80A49088001210A2031
:1017600001F0F2F808490880012004490860FFF7F9
:1017700037FA10BD140000200C0C01401C000020A2
:101780000E000020100000201200002000B58FB0D5
:1017900014210AA8FEF7FFFC28216846FEF7FBFC8F
:1017A0000120009000040190002002900220079088
:1017B000C10308914FF4E01109916846FFF7F0FB6F
:1017C00008B100BFFEE70F200A9002200B90002016
:1017D0000C900E904FF480600D9002210AA8FFF744
:1017E000A9FA08B100BFFEE70FB000BD11480068BC
:1017F00040F001000F490860084640680E49084063
:101800000C494860084600680C49084009490860CE
:101810000846006820F4802008600846406820F4EC
:10182000FE0048604FF41F008860C8030449086048
:1018300070470000001002400000FFF8FFFFF6FEB6
:1018400008ED00E070B504462168096921F44051B3
:10185000E2681143226811612269A168114362693B
:1018600041EA02052168C96841F20C6291432943AB
:101870002268D1602168496921F44071A26911434D
:1018800022685161564A2168914254D1FFF72EFBDC
:1018900000EBC00101EB001162689200B1FBF2F1B4
:1018A00000EBC00202EB001263689B00B2FBF3F294
:1018B0006423B2FBF3F202EBC20303EB0212A1EBCF
:1018C0008201322202EB01116422B1FBF2F101F03C
:1018D000F00100EBC00202EB001263689B00B2FB58
:1018E000F3F26423B2FBF3F201EB021200EBC0014E
:1018F00001EB001163689B00B1FBF3F100EBC00347
:1019000003EB00136668B600B3FBF6F36426B3FB83
:10191000F6F303EBC30606EB0313A1EB83013223BB
:1019200003EB01116423B1FBF3F101F00F0111444A
:101930002268916053E0FFF7C9FA00EBC00101EBA8
:10194000001162689200B1FBF2F100EBC00202EB01
:10195000001263689B00B2FBF3F26423B2FBF3F264
:1019600002EBC20303EB0212A1EB8201322202EB73
:1019700001116422B1FBF2F101F0F00100EBC002B1
:1019800002EB001263689B00B2FBF3F26423B2FB2C
:10199000F3F201EB021200EBC00101EB00116368EE
:1019A0009B00B1FBF3F100EBC00303EB001366688F
:1019B000B600B3FBF6F36426B3FBF6F303EBC30602
:1019C00006EB0313A1EB8301322303EB0111642324
:1019D000B1FBF3F101F00F0111442268916070BD79
:1019E000003801402DE9F04104460D46174698465F
:1019F000069E21E0701CF8B12EB1FFF7EBF8A0EBCA
:101A00000800B04218D92068C06820F4D07021685E
:101A1000C8602068406920F00100216848612020EA
:101A200084F8390084F83A0000BF002084F83800B8
:101A300000BF0320BDE8F081206800682840A8426C
:101A400001D1012000E00020B842D3D00020F1E70E
:101A50000020074909680968C1F3401131B1044900
:101A600009684968C8B202490968486070470000BF
:101A70002400002000BFFEE70FB4054B10B503A9FA
:101A8000044A029800F0E6F810BC5DF814FB000070
:101A9000212600082000002002480068C0F3022030
:101AA000704700000CED00E010B5002804DB0A07C9
:101AB000130E054A135406E00A07140E034A00F0F9
:101AC0000F031B1FD45410BD00E400E018ED00E02C
:101AD00002E008C8121F08C1002AFAD170477047F7
:101AE000002001E001C1121F002AFBD17047000055
:101AF0002DE9FF5FDDE90220010DDDF838B002437A
:101B000018D044F61050A1F2FF3141430D140F9844
:101B1000012820D0A5EB0B00401C5FEA000A4FF023
:101B20000004474EDFF81C91A046504616D5CAF176
:101B3000000728E00F98012443A2012808D00021C3
:101B400000980F9BC0E90021C0E90243BDE8FF9F58
:101B50006FEA0B01F4E7CBF10000DEE7074612E085
:101B6000F80707D02246334640464946FEF71EFB9B
:101B7000804689462246334610461946FEF716FB34
:101B800004460E467F10002FEAD1DDE90201BAF1CA
:101B9000000F42464B4602DAFEF708FB01E0FEF773
:101BA00077FB04460E460022284BFEF7CFFD03D8F4
:101BB0004FF0FF30014607E00022254B204631461A
:101BC000FEF705FDFEF7AAFD102409E0002C0ADB54
:101BD0000A220023FEF736FC019B30321A55641EA0
:101BE00050EA0102F2D1641C019AC4F111031444B9
:101BF0000F9A012A03D0012208430DD10AE00843BD
:101C000004D000204FF0110B0F9080E7A3EB0B05E1
:101C10006D1E0DE05B4504DD4FF0000205F101058E
:101C200004E003DA4FF00002A5F10105002AECD030
:101C300000980F99C0E90231C0E9004586E700002D
:101C4000000024400000F03F300000000000F0439E
:101C50000000E03F2DE9FF4F95B09B4689460646C0
:101C600000250FE2252877D100242746F84A0121D4
:101C7000059400E0044316F8013F203B01FA03F00D
:101C80001042F7D130782A2811D06FF02F03307826
:101C9000A0F13002092A16D8059A44F0020402EB9A
:101CA000820203EB42021044761C0590EFE759F8DC
:101CB000042B0592002A03DA504244F400540590A4
:101CC00044F00204761C30782E2816D116F8010F45
:101CD00044F004042A280DD06FF02F023078A0F1D0
:101CE0003003092B09D807EB870302EB4303C7181E
:101CF000761CF3E759F8047B761C30786C280FD0FB
:101D000006DC4C2817D068280DD06A2814D104E0CE
:101D1000742810D07A280FD10DE044F400140AE0A2
:101D200044F4801401E044F440147278824202D1F9
:101D300004F58014761C761C307866280BD013DCF2
:101D4000582877D009DC002875D04528F6D04628D9
:101D5000F4D047281AD19DE118E0632835D06428D3
:101D600079D0652812D195E1702873D008DC6728F6
:101D7000F1D069286FD06E280DD06F2806D1B5E05C
:101D800073282CD0752875D0782874D05A461799A6
:101D900090476D1C75E1C4F30250022809D0032856
:101DA0000DD0D9F8001004280DD00D6009F10409F8
:101DB00067E1D9F80010EA17C1E90052F6E7D9F84F
:101DC00000100D80F2E70D70F0E719F8041B8DF894
:101DD000001000208DF80100EA46012003E059F8C8
:101DE00004AB4FF0FF3061074FF0000102D40DE06B
:101DF00008F101018846B9420FDA8045F8DB1AF88C
:101E000008100029F4D108E008F101018846814258
:101E1000FADB1AF808100029F6D105985B46A0EB0A
:101E2000080721463846179A00F094FA284400EB38
:101E3000080507E04DE029E10DE01AF8010B5A46CC
:101E400017999047B8F10108F7D25B46214638460A
:101E5000179A13E142E00A220092C4F302524FF0B3
:101E6000000A022A08D059F804CB032A4FEAEC7181
:101E70000AD00DE029E02AE009F1070121F007026C
:101E8000F2E802C1914609E00FFA8CFC4FEAEC71CE
:101E9000042A03D14FFA8CFC4FEAEC71002907DACF
:101EA0000A460021DCF1000C61EB02012D2202E068
:101EB000220504D52B228DF80420012203E0E2073D
:101EC00001D02022F7E7904659E00A2102E01022D3
:101ED0000DE010214FF0000A00910BE010224FF0AE
:101EE000000A44F004040827009203E008224FF09F
:101EF000000A0092C4F30252022A05D059F804CB1A
:101F00000021032A08D009E009F1070121F00702A6
:101F1000F2E802C1914605E01FFA8CFC042A01D1C7
:101F20000CF0FF0C4FF00008220728D5702806D0CF
:101F3000009B83F0100353EA0A0305D00EE0402211
:101F40008DF80420012208E05CEA010206D030226C
:101F50008DF804208DF8050002229046009B83F046
:101F6000080353EA0A030AD15CEA010201D16207BD
:101F700005D530228DF804204FF001087F1E582827
:101F800004D034A003900EA802900DE036A0F9E72B
:101F900053466046009AFEF755FA84460398825CE1
:101FA0000298401E029002705CEA0100F0D1029893
:101FB00006A9081A00F1200A600702D524F480342B
:101FC00000E00127574502DDA7EB0A0000E00020F2
:101FD00000EB0A01009005984144401A0590E00387
:101FE00006D45B462146179A059800F0B3F90544DC
:101FF000002706E001A85A46C05D179990476D1C5E
:102000007F1C4745F6DBE0030CD55B462146179A5B
:10201000059800F09FF9054404E030205A461799CE
:1020200090476D1C0099481E00900029F5DC08E0DF
:10203000029802995A460078491C029117999047D4
:102040006D1CBAF10001AAF1010AF1DC65E10000A2
:10205000092801003031323334353637383961627E
:102060006364656600000000303132333435363742
:1020700038394142434445460000000000F058F919
:102080000544761C307800287FF4ECAD19B0284662
:10209000BDE8F08F620700D4062709F1070222F09D
:1020A000070CFCE80223E14603F000485FEA080C55
:1020B00002D00FF2702C0DE05FEA045C02D50FF243
:1020C000682C07E05FEAC47C02D00FF2602C01E0CC
:1020D000AFF2700C4FF0FF3823F00043CDF850C042
:1020E00065280CD006DC452809D046281DD0472895
:1020F0003DD13DE0662818D067287ED138E0002128
:10210000112F01DB112000E0781CCDE9000106A9A8
:102110000EA8FFF7EDFCDDE90F010E9A03910021F7
:10212000009207F1010A04914DE04FF00040009742
:10213000CDE9011006A90EA8FFF7DAFCDDE90F02D0
:1021400003920E9B11990022DDF80CA000930492DB
:1021500011B9791C00EB010AB7EB0A0004D4C0F1F5
:10216000FF3007F1010A0490AAEB0700019044E058
:10217000012F00DA01270021112F01DD112000E0DD
:102180003846CDE9000106A90EA8FFF7B1FCDDE94C
:102190000F010E9A0391002104910092BA46210783
:1021A0000CD40399514500DA8A46BAF1010F05DDD6
:1021B000009AAAF10101515C302908D0B84202DA34
:1021C00010F1040F06DA0121CDE9011015E0AAF1A2
:1021D0000101E9E7002805DC049901440491AAEB18
:1021E000000102E0411C514500DD8A460499401A75
:1021F000401C01904FF000400290200704D4019849
:10220000504501DBCDF8048000208DF84F00029886
:102210000DF14F07B0F1004F25D02B200E90029802
:102220004FF0020800280CDA404202902D200E9058
:1022300007E00A210298FEF7EFF83031029007F824
:10224000011DB8F10001A8F10108F2DC0298002894
:10225000EFD1791E0E980870307800F0200040F021
:10226000450007F8020D12A8C01B00F107081498DA
:10227000007800B1012000EB0A01019801EBE07148
:1022800005984144401A401E0590E00306D45B4681
:102290002146179A059800F05DF8054414980078D7
:1022A00018B15A46179990476D1CE00324D55B4638
:1022B0002146179A059800F04DF805441CE0049853
:1022C000002807DBDDE90301884203DD0098405C5C
:1022D000179901E0179930205A469047049805F164
:1022E0000105401C04900198401E019004D12E204D
:1022F0005A46179990476D1CBAF10001AAF1010ADC
:10230000DDDC05E017F8010B5A46179990476D1C64
:10231000B8F10001A8F10108F4DC5B462146179AE8
:102320000598ABE62D0000002B0000002000000007
:102330002DE9F041044600251E461746880404D4C2
:1023400005E039462020B0476D1C641EF9D52846AB
:10235000BDE8F0812DE9F041044600251E46904677
:10236000C80301D5302700E02027880404D505E004
:1023700041463846B0476D1C641EF9D52846BDE875
:10238000F081F8B505460C46172D73D2DFE805F04D
:102390000C121821722B31373D72434E72727272D9
:1023A000727272595F656B0022460121002000F0B5
:1023B000E4FA60E022460121022000F0DEFA5AE051
:1023C00022460121102000F0D8FA20780609267054
:1023D00051E022460121102000F0CFFA207800F0D1
:1023E0000F06267047E0224601211A2000F0C5FAA8
:1023F00041E0224601211B2000F0BFFA3BE02246CB
:1024000001211C2000F0B9FA35E0224601211D20EF
:1024100000F0B3FA2FE06A460121202000F0ADFA67
:102420009DF80000C0F38100207024E06A4601217D
:10243000202000F0A2FA9DF8000000F003002070B8
:1024400019E0224601212A2000F097FA13E02246E3
:1024500001212B2000F091FA0DE0224601212C20D1
:1024600000F08BFA07E0224601212D2000F085FACA
:1024700001E0FFE700BF00BFF8BD10B500F0FEF8B7
:1024800000F0B3FA6420FEF7F1F90321002000F018
:1024900025F86420FEF7EAF9FEF7A4F900F001F848
:1024A00010BD1CB56420ADF800004FF47A70ADF893
:1024B000020001208DF804000520DDE9001200F083
:1024C0009BFA7820ADF800004FF41670ADF80200CA
:1024D0001320DDE9001200F0FDFA1CBD38B50546F9
:1024E0000C46172D7ED2DFE805F00C11162C984211
:1024F000474C5198566C9898989898989884898EDB
:1025000093002146002000F017FB87E021460220BF
:1025100000F012FB82E06A460121102000F02DFA43
:102520009DF8000000F0CF0000909DF8000040EA08
:102530000410C0B200909DF80010102000F0FCFACA
:102540006CE0002000906A460121102000F015FA8E
:102550009DF8000000F0F00000909DF8000020437E
:1025600000909DF80010102000F0E6FA56E0214699
:102570001A2000F0E1FA51E021461B2000F0DCFABD
:102580004CE021461C2000F0D7FA47E021461D20F0
:1025900000F0D2FA42E0002000906A46012120209B
:1025A00000F0EBF99DF8000000F0F30000909DF8BA
:1025B0000000204300909DF80010202000F0BCFA9D
:1025C0002CE0002000906A460121202000F0D5F97F
:1025D0009DF8000000F0FC0000909DF800002043F2
:1025E000009000E019E09DF80010202000F0A4FA0F
:1025F00014E021462A2000F09FFA0FE021462B200C
:1026000000F09AFA0AE021462C2000F095FA05E045
:1026100021462D2000F090FA00E000BF00BF38BD39
:1026200013B50C464FF47A73012269460248FEF74F
:102630008BFF00981CBD00002400002010B58020F6
:102640000949086000F012F840200749091F086096
:1026500000F00CF840200449086000F007F88020E2
:102660000149091F086010BD140C0140002001E061
:10267000411CC8B20A28FBDB7047000000B585B0DA
:1026800000BF0E48806940F008000C498861084688
:10269000806900F00800009000BF00BFC0200190DA
:1026A00011200290032004900020039001A9044807
:1026B000FEF7F0F800F07EF805B000BD0010024013
:1026C000000C014010B5802007490860FFF7CEFFDD
:1026D000402005490860FFF7C9FF40200249091D55
:1026E0000860FFF7C3FF10BD100C014070B5002457
:1026F000002516E06006040E40200C490860FFF734
:10270000B5FF0A480838006800F0800008B1601C76
:10271000C4B240200549091D0860FFF7A7FF681CE7
:10272000C5B2082DE6DB204670BD0000100C01404C
:1027300070B50446002520E004F0800018B1802028
:102740000F49086003E080200D49091D0860FFF76C
:102750008DFF40200A490860FFF788FF40200849A4
:10276000091D0860072D02D18020091F086060063E
:10277000040EFFF77BFF681CC5B2082DDCDB70BDC3
:10278000100C014010B58020094908604020086005
:10279000FFF76CFF80200649091D0860FFF766FF00
:1027A00040200349091D0860FFF760FF10BD0000CD
:1027B000100C014010B58020054908604020091F19
:1027C0000860FFF753FF80200149091F086010BD12
:1027D000140C014010B580200C490860FFF746FF3B
:1027E00040200A490860FFF741FF084808380068A0
:1027F00000F0800008B1012400E0002440200349DB
:10280000091D0860FFF732FF204610BD100C014083
:10281000FEF7F2F9FEF7BAFF0520FEF701FAFEF720
:1028200005F8FEF7FFFE1AA0FFF726F922A0FFF732
:1028300023F92EA0FFF720F9FFF71FFE26E030480E
:102840000068012822D12F480088FDF790FD054639
:102850002D4A2E4BFDF7AAFC0746FDF7C1FD0446A5
:102860002046FDF7AAFD05462A460B4628A0FFF79D
:1028700003F92C4801882CA0FFF7FEF82D480188A9
:102880002DA0FFF7F9F800201D490860D7E70000E8
:102890000D0A20BBB6D3ADCAB9D3C3D2B0BBF020AA
:1028A00053544D3332204634323920BFAAB7A2B038
:1028B000E5A1A30D0A0000000D0A20D5E2CAC7D287
:1028C000BBB8F6C8FDBACFD2BBB9E2D5D5B4ABB868
:1028D000D0C6F7B6C1D0B4D4B4CAFDBEDDB2E2CA28
:1028E000D4C0FDB3CC200D0A0000000020D0BEC62D
:1028F000ACB3F5CABCBBAFD6D02E2E2E2E2E0A00FE
:102900001C0000200E0000200AD7A3703D0AD73F0C
:10291000BBB7BEB3B9E2A3BA252E32666C75782078
:102920000000000010000020BDD3BDFCD6B5A3BA46
:102930002564200012000020BAECCDE2B9E2A3BA6F
:1029400025640D0A00000000F8B504460D4600207D
:1029500000906A462946204600F00FF89DF8006076
:10296000611CC8B26A46294600F007F8E9009DF8E4
:102970000000884006443046F8BD70B506460C4657
:102980001546FFF717FFFFF7FDFE3C20FFF7D0FECF
:10299000FFF720FF00B124E03046FFF7C9FEFFF744
:1029A00019FF00B11DE0FFF705FFFFF7EBFE3D202B
:1029B000FFF7BEFEFFF70EFF00B112E00CE0FFF7DD
:1029C00095FE28706D1C012C02D1FFF77BFE01E003
:1029D000FFF734FE601EC4B2002CF0D1FFF7EAFE10
:1029E00070BDFFF7E7FE00BFFAE710B50421002035
:1029F00000F0A2F810BD00002DE9F74781B0824633
:102A000069460220FFF7BDFC9DF8000018B94FF0A1
:102A100066342A4D13E09DF80000012802D1284CAD
:102A2000284D0CE09DF80000022802D1244C264DD0
:102A300005E09DF80000032801D1244C244DBDF889
:102A40000800FDF794FC804622462B46FDF720FC4B
:102A50000646FDF799FC80B2ADF80800BDF80A0003
:102A6000FDF785FC064622462B46FDF711FC804605
:102A7000FDF78AFC80B2ADF80A00BDF80800C1B2CB
:102A80005046FFF72BFDBDF8082011120AF1010294
:102A9000D0B2FFF723FDBDF80A20D1B20AF102023D
:102AA000D0B2FFF71BFDBDF80A2011120AF1030294
:102AB000D0B2FFF713FDBDE8FF8700006666D63F82
:102AC000B1BFEC9E3C2CB43F3C2C943F6EA301BCA8
:102AD0000512743F37B50446BDF80400B0F57F7F9A
:102AE00006DDBDF8040000F003012046FFF7F6FC08
:102AF000BDF80450EA1705EB9272C2F38701621C1D
:102B0000D0B2FFF7EBFCBDF80600B0F57F7F07DD24
:102B1000BDF8062002F00301A21CD0B2FFF7DEFCD4
:102B2000BDF80650EA1705EB9272C2F38701E21C6A
:102B3000D0B2FFF7D3FC3EBD70B505460C46FFF79B
:102B400039FEFFF71FFE3C20FFF7F2FDFFF742FEC4
:102B500000B110E02846FFF7EBFDFFF73BFE00B1A8
:102B600009E02046FFF7E4FDFFF734FE00B102E084
:102B7000FFF720FE70BDFFF71DFE00BFFAE7000063
:102B8000000000000000010203040607080900001D
:102B90000000010203040000B82B00080000002020
:102BA00024000000D01A0008DC2B000824000020BC
:102BB00044040000E01A00080024F40000000000B3
:102BC00010000000010000000000000000000000F4
:0C2BD000000000000000000000000000F9
:0400000508000131BD
:00000001FF
