:020000040800F2
:10000000A004002045010008111500081315000880
:10001000171500081B1500081F1500080000000038
:100020000000000000000000000000002315000890
:1000300025150008000000002715000829150008F4
:100040005F0100085F0100085F0100085F01000810
:100050005F0100085F0100085F0100085F01000800
:100060005F0100085F0100085F0100085F010008F0
:100070005F0100085F0100085F0100085F010008E0
:100080005F0100085F0100085F0100085F010008D0
:100090005F0100085F0100085F0100085F010008C0
:1000A0005F0100085F0100085F0100085F010008B0
:1000B0005F0100085F0100085F0100085F010008A0
:1000C0005F0100085F0100085F0100085F01000890
:1000D0005F0100085F0100085F0100085F01000880
:1000E0005F0100085F0100085F0100085F01000870
:1000F0005F0100085F0100085F0100085F01000860
:100100005F0100085F0100085F0100085F0100084F
:100110005F0100085F0100085F0100085F0100083F
:100120005F0100085F0100085F0100085F0100082F
:10013000DFF80CD002F020F8004800475512000804
:10014000A00400200648804706480047FEE7FEE777
:10015000FEE7FEE7FEE7FEE7FEE7FEE7FEE7FEE777
:1001600047020008310100080CB500200190009002
:100170006C48006840F480306A49086000BF6948F4
:10018000006800F4003000900198401C0190009835
:1001900018B90198B0F5A06FF1D16248006800F479
:1001A000003010B10120009001E000200090009884
:1001B000012843D15C48006840F010005A490860AB
:1001C0000846006820F0030008600846006840F018
:1001D0000200086053484068524948600846406839
:1001E00048600846406840F48060486008464068BF
:1001F00020F47C1048600846406840F4E8104860ED
:100200000846006840F08070086000BF45480068FC
:1002100000F000700028F9D04248406820F0030048
:10022000404948600846406840F00200486000BF0E
:100230003C48406800F00C000828F9D10CBD10B50E
:10024000FFF792FF10BD10B53648006840F001007E
:1002500034490860084640683449084031494860DC
:1002600008460068324908402E4908600846006880
:1002700020F4802008600846406820F4FE004860B2
:100280004FF41F008860FFF7DAFF4FF00060294944
:10029000086010BD10B5002100200022214B5B68D2
:1002A00003F00C0121B1042906D0082928D107E068
:1002B000214B224C236027E01F4B204C236023E07E
:1002C000184B5B6803F47010164B5B6803F48032C4
:1002D000022303EB904022B9194B4343174C236090
:1002E0000DE0104B5B6803F4003323B1144B434320
:1002F000124C236003E0104B4343104C236003E097
:100300000D4B0E4C236000BF00BF064B5B68C3F370
:1003100003130C4CE15C094B1B68CB40074C23607A
:1003200010BD000000100240002002400000FFF855
:10033000FFFFF6FE08ED00E000127A00000000204A
:1003400000093D000400002010B50446CC4884425A
:1003500008D10121042000F02FFD0021042000F02D
:100360002BFD46E0C748844208D10121082000F057
:1003700023FD0021082000F01FFD3AE0C24884421E
:1003800008D10121102000F017FD0021102000F0FD
:1003900013FD2EE0BD48844208D10121202000F049
:1003A0000BFD0021202000F007FD22E0B848844228
:1003B00008D10121402000F0FFFC0021402000F086
:1003C000FBFC16E0B348844208D10121802000F0F4
:1003D000F3FC0021802000F0EFFC0AE0AE488442EC
:1003E00007D10121801500F0E7FC0021A01500F0E5
:1003F000E3FC10BD10B50121084600F0DDFC002132
:10040000012000F0D9FC10BD2DE9F0410246002585
:100410000026002000230024002791F803C00CF0E0
:100420000F0591F803C00CF0100CBCF1000F03D0C5
:1004300091F802C04CEA050591F800C0BCF1000F2C
:1004400031D0146800202BE04FF0010C0CFA00F3BF
:10045000B1F800C00CEA03069E4220D183004FF0A1
:100460000F0C0CFA03F7BC4305FA03FC4CEA040436
:1004700091F803C0BCF1280F06D14FF0010C0CFA23
:1004800000FCC2F814C00AE091F803C0BCF1480FA8
:1004900005D14FF0010C0CFA00FCC2F810C0401C52
:1004A0000828D1D31460B1F800C0BCF1FF0F34DDCF
:1004B000546800202EE000F1080C4FF0010808FA03
:1004C0000CF3B1F800C00CEA03069E4221D1830070
:1004D0004FF00F0C0CFA03F7BC4305FA03FC4CEA8F
:1004E000040491F803C0BCF1280F05D100F1080CF9
:1004F00008FA0CF8C2F8148091F803C0BCF1480F58
:1005000007D100F1080C4FF0010808FA0CF8C2F806
:100510001080401C0828CED35460BDE8F0814FF60F
:10052000FF710180022181700421C1707047024671
:10053000002093680B400BB1012000E000207047C1
:100540000146886880B2704702460020D3680B409D
:100550000BB1012000E0002070470146C86880B25E
:10056000704701617047416170470AB1016100E065
:1005700041617047C16070474FF480320A43826125
:100580008161826182698269704702460020434B23
:1005900018684FF68073184040EA021008433F4B3A
:1005A000186070473E49C8617047F0B50A4600239D
:1005B00000240021002500F00046B6F1004F02D1D2
:1005C000364EF16901E0354E7168C0F3034583B2E0
:1005D00000F44016B6F5401F08D121F070612F4E8F
:1005E000766826F070662D4F7E6012E000F480166B
:1005F000B6F5801F06D1032606FA05F4A14341F0A3
:10060000706106E0460D360103FA06F6B14341F08B
:10061000706122B1460D360103FA06F6314300F04F
:100620000046B6F1004F02D11C4EF16101E01B4EB5
:100630007160F0BD30B500228B071C0F0F2303FA49
:1006400004F2164B08338C1053F824309343134CA8
:1006500008348D1044F8253023468C1053F824308C
:100660008C07240F00FA04F423430C4C08348D103B
:1006700044F8253030BD0A49DC310860704700007D
:1006800000080140000C014000100140001401402E
:1006900000180140001C0140002001400000014002
:1006A0000000204210B50446F748844209D10121D8
:1006B000480500F08EFB00214FF4001000F089FB8C
:1006C00008E00121880500F084FB00214FF4800040
:1006D00000F07FFB10BD2DE9F04385B004460D46C8
:1006E0000026B1460427DFF8A483A6884FF6C07021
:1006F0000640684600F0D9FADDF80880E448B8FB07
:10070000F0F01FFA80F946EA0906A68020884FF625
:10071000FE71084020800026DE49286888420CD8F7
:1007200028684000B8FBF0F087B2042F00DA0427F5
:100730003E4309F10100208427E0E8884BF6FF7171
:10074000884206D1286800EB4000B8FBF0F087B281
:1007500009E0286800EBC00101EB0010B8FBF0F0E5
:1007600087B247F48047C7F30B0008B947F0010789
:1007700047F4004006434FF4967009FB00F04FF435
:100780007A7190FBF1F0401C2084A683208840F011
:100790000100208026884FF6F5300640A888698938
:1007A000084306432680A88929890843208105B08B
:1007B000BDE8F08341F288310160002181804BF671
:1007C000FF71C1800021018141814FF4804181810D
:1007D000704721B1028842F00102028004E00288E1
:1007E0004FF6FE731A400280704721B1828842F4AE
:1007F0000062828004E082884FF2FF731A40828098
:10080000704721B1828842F48052828004E082885D
:100810004EF6FF731A408280704721B1028842F47D
:100820008072028004E002884FF6FF631A40028063
:10083000704721B1028842F40072028004E002880D
:100840004FF6FF531A400280704721B1028842F4EC
:100850008062028004E002884FF6FF331A40028073
:1008600070470A46002181894FF60173194002F052
:10087000FE0319438181704721B1828942F0010250
:10088000828104E082894FF6FE731A4082817047AC
:1008900021B1028842F04002028004E002884FF653
:1008A000BF731A40028070471AB183880B4383805C
:1008B00002E083888B438380704701827047014642
:1008C000088AC0B2704712B141F0010102E04FF650
:1008D000FE7319400182704708B50246002000905F
:1008E00000920098084400900098008808BD21B14B
:1008F000028842F40042028003E00288C2F30E0242
:1009000002807047B1F5006F04D1028842F40062A2
:10091000028004E002884FF2FF731A4002807047A1
:10092000B1F5005F04D1028842F40052028004E075
:1009300002884DF6FF731A400280704721B1028889
:1009400042F48052028004E002884EF6FF731A409F
:1009500002807047B1F5006F04D1028842F4006252
:10096000028004E002884FF2FF731A400280704751
:1009700021B1028842F02002028004E002884FF692
:10098000DF731A40028070470146088B00127047DF
:1009900021B1028842F01002028004E002884FF682
:1009A000EF731A400280704721B9028842F080023A
:1009B000028004E002884FF67F731A40028070477D
:1009C000B1F5804F05D0828B4BF6FF731A408283BE
:1009D00003E0828B42F480428283704770B5024606
:1009E0000024002500230020958A138B1B0445EA70
:1009F000030626F07F4404EA01068E4201D101205D
:100A000000E0002070BD10B5014600200023002248
:100A10008B8A0A8B120443EA020424F07F4010BD43
:100A20000CB50246002000230193009300920B0FA7
:100A3000019321F07F41019B1BB1009B1433009374
:100A400003E0090C009B18330093009B1B680B40CC
:100A50000BB1012000E000200CBD002221F07F42FC
:100A6000D3438382704730B5024600200023948828
:100A700001F0E06504EA154321F07F41948A0C40BF
:100A800054B14BB1012008E00054004000127A003C
:100A900040420F00A0860100002030BD002221F05E
:100AA0007F42D34383827047DF48006840F00100F3
:100AB000DD49086008464068DC490840DA4948607A
:100AC00008460068DA490840D749086008460068C7
:100AD00020F4802008600846406820F4FE0048604A
:100AE0004FF41F0088607047CF49096821F48031B6
:100AF000CD4A11601146096821F480211160B0F5DA
:100B0000803F03D0B0F5802F0ED106E0C6490968BA
:100B100041F48031C44A116007E0C349096841F4D7
:100B2000A021C14A116000E000BF00BF704710B5AE
:100B300001460022002300204A11012A02D1BA4CAA
:100B4000236806E0022A02D1B74C236A01E0B64CC2
:100B5000636A01F01F02012494401C400CB1012083
:100B600000E0002010BD38B50020009000240025D2
:100B700000BF3120FFF7DBFF05460098401C0090C6
:100B80000098B0F5A06F01D0002DF2D03120FFF712
:100B9000CEFF08B1012400E00024204638BD014604
:100BA0000020A14A106820F0F80040EAC10010605F
:100BB0007047A04908607047024600209A4B586869
:100BC00020F47C1042EA01031843974B58607047A9
:100BD00098490866704701460020934A506820F003
:100BE00003000843506070478F48406800F00C00D5
:100BF0007047014600208C4A506820F0F0000843FE
:100C00005060704701460020874A506820F4E06039
:100C100008435060704701460020834A506820F422
:100C2000605040EAC1005060704729B17E4A527A54
:100C300002437D4B5A7204E07B4A527A82437A4BDC
:100C40005A7270477B49D8310860704701460020CE
:100C5000754A506820F440400843506070470021B6
:100C6000714A20321170704A82F82010012802D097
:100C700004280AD104E001216B4A2032117005E0FA
:100C80000521694A2032117000E000BF00BF7047A3
:100C90006949086070476449096A0143624A116200
:100CA0007047654944390860704730B5002100221B
:100CB000002400235C4D6D6805F00C0121B104296E
:100CC00005D0082923D105E05C4D056022E05B4D8D
:100CD00005601FE0544D6D6805F47012524D6D684B
:100CE00005F48034022505EB92421CB9544D55435E
:100CF00005600BE04C4D6D6805F400351DB1504D9D
:100D00005543056002E04D4D5543056002E04B4DF3
:100D1000056000BF00BF444D6D6805F0F001090992
:100D2000484D6B5C0568DD4045603F4D6D6805F4DE
:100D3000E061090A434D6B5C4568DD4085603A4DD2
:100D40006D6805F46051C90A3E4D6B5C4568DD4035
:100D5000C560354D6D6805F44041890B3A4D6B5CBB
:100D6000C568B5FBF3F5056130BD29B12E4A52695E
:100D700002432D4B5A6104E02B4A526982432A4BAD
:100D80005A61704729B1284A92690243264B9A61F9
:100D900004E0254A92698243234B9A61704729B146
:100DA000214AD2690243204BDA6104E01E4AD2692B
:100DB00082431D4BDA61704729B11B4AD268024356
:100DC000194BDA6004E0184AD2688243164BDA60A5
:100DD000704729B1144A12690243134B1A6104E0A7
:100DE000114A12698243104B1A6170471249403907
:100DF000086070470F49C86470470B49C871704755
:100E00000948406A40F080700749486270470146CF
:100E10000020054A92680A400AB1012000E0002043
:100E20007047014988727047001002400000FFF8C7
:100E3000FFFFF6FE000042428004424200127A00A8
:100E400000093D00140000202400002010B50446D5
:100E5000FB48844209D101218803FFF7ADFF00213F
:100E60004FF48040FFF7A8FF32E0F648844209D1F2
:100E700001214804FFF7ADFF00214FF40030FFF7D8
:100E8000A8FF25E0F048844209D101218804FFF73A
:100E9000A0FF00214FF48020FFF79BFF18E0EB48F4
:100EA000844209D10121C804FFF793FF00214FF4C8
:100EB0000020FFF78EFF0BE0E548844208D10121B6
:100EC0000805FFF786FF00214FF48010FFF781FF30
:100ED00010BD2DE9F04786B005460E460024A24617
:100EE00000BFA1460027B08900B100BF2F462C8A61
:100EF0004CF6FF700440F08804432C82AC894EF617
:100F0000F3100440B08831890843718908430443D1
:100F1000AC81AC8A4FF6FF400440B0890443AC82F8
:100F200001A8FFF7C2FEC648874202D1DDF810A033
:100F300001E0DDF80CA0A88900F4004040B10AEB04
:100F4000CA0000EB0A1031684900B0FBF1F807E075
:100F50000AEBCA0000EB0A1031688900B0FBF1F817
:100F60006420B8FBF0F004012009642101FB108922
:100F7000A88900F4004040B1322000EBC900B0FB6A
:100F8000F1F000F00700044308E0322000EB091004
:100F90006421B0FBF1F000F00F0004432C8106B097
:100FA000BDE8F0874FF41651016000218180C180B7
:100FB00001810C21418100218181704710B50246D9
:100FC0000020108A4FF2FF0318400B884C882343FF
:100FD0008C882343CC8823431843108210BD002102
:100FE000018041808180C180704721B1828942F4B3
:100FF0000052828104E082894DF6FF731A4082819B
:101000007047F0B50346002400260025002040F676
:101010006A17B94200D100BF1846C1F3421401F06B
:101020001F06012707FA06F5012C01D10C3004E058
:10103000022C01D1103000E014301AB107682F43A0
:10104000076002E00768AF430760F0BD1AB1838A0A
:101050000B43838202E0838A8B4383827047028A38
:101060004FF6F0731A400282028A0A4302827047E6
:1010700082894FF2FF731A40828182890A438281FA
:10108000704721B1828942F00202828104E08289A4
:101090004FF6FD731A4082817047028A4FF6DF7364
:1010A0001A400282028A0A430282704721B1028AF0
:1010B00042F48042028204E0028A4BF6FF731A4037
:1010C00002827047C1F30802828070470146888817
:1010D000C0F308007047818941F0010181817047A8
:1010E000028BD2B20283028B42EA01220283704752
:1010F000028B02F47F420283028B0A430283704711
:1011000021B1828A42F02002828204E0828A4FF674
:10111000DF731A408282704721B1828A42F0100246
:10112000828204E0828A4FF6EF731A40828270470F
:1011300021B1828A42F00802828204E0828A4FF65C
:10114000F7731A408282704721B1828942F40042CB
:10115000828103E08289C2F30E028281704721B14D
:10116000828A42F40062828204E0828A4FF2FF7334
:101170001A4082827047828A4FF6FB731A4082823D
:10118000828A0A438282704721B1828A42F0020237
:10119000828204E0828A4FF6FD731A408282704791
:1011A00002460020B1F5007F00D100BF13880B403C
:1011B0000BB1012000E00020704701F40072B2F58D
:1011C000007F00D100BFCA430280704770B502465D
:1011D000002400230025002040F66A16B14200D109
:1011E00000BFC1F3421501F01F03012606FA03F305
:1011F000012D02D19689334006E0022D02D1168AD4
:10120000334001E0968A33400C12012606FA04F4BA
:101210001688344013B10CB1012000E0002070BDED
:1012200010B50022002340F66A14A14200D100BF8D
:101230000A1201249440A3B2DC43048010BD0000D4
:10124000003801400044004000480040004C00408D
:101250000050004000F06AF9202068490860012031
:1012600008600220091D086000F090F964A000F0F9
:10127000A5FF00F028FA012200216E4800F016FCBC
:101280006C480078CD287BD06B4800F097FFCD20CC
:101290006849087001220021664800F0D7FA002052
:1012A0006649087029E06548007800F082FD044630
:1012B000634A644B00F0D6FC634A604B1B7802EB38
:1012C000C30203C25D48007800EB4001C1EBC010CF
:1012D000012101EB80015D48584A127840F8221044
:1012E0005B4856490978405C5A49544A12788854F8
:1012F00052480078401C514908705048007807282F
:10130000D1DB38220A21504800F0A0FA1C224621E5
:101310004E4800F09BFA072246214E4800F096FA0C
:101320004DA000F04BFF0020444908701EE04648E5
:101330004249097800EBC100D0E9004322464AA0A7
:1013400000F03CFF41483D4A127850F822104AA074
:1013500000F034FF3F48394A1278815C4AA000F01F
:101360002DFF36480078401C344908703348007817
:101370000728DCDB00E003E047A000F01FFF3BE0B4
:101380004FA000F01BFF38220A212F4800F08EFBEF
:101390001C2246212D4800F089FB072246212D48BA
:1013A00000F084FB4BA000F009FF002023490870E7
:1013B0001EE025482149097800EBC101D1E900432D
:1013C00022464AA000F0FAFE20481C4A127850F843
:1013D00022104BA000F0F2FE1E48184A1278815CE1
:1013E00029A000F0EBFE15480078401C1349087056
:1013F000124800780728DCDB00BFFEE7100C014034
:10140000D5E2CAC7D2BBB8F6493243CDE2C9E82813
:101410004154323443303229B6C1D0B4D0A1CAFDD0
:10142000BACDB3A4D5FBCAFDB2E2CAD4C0FDB3CCD9
:101430000D0A000028000020902A00082900002042
:101440009A9999999999B93F300000208400002019
:10145000680000206F000020CFF2D0BEC6ACD0B430
:10146000C8EBCAFDBEDD0000D0A1CAFD7478203DE6
:1014700020254C460D0A0000D5FBCAFD7478203D9E
:101480002025640D0A000000D7D6B7FB7478203DF4
:101490002025630D0A0000000D0AC7EBB8B4CEBBCF
:1014A000BFAAB7A2B0E5A3ACD2D4B6C1C8A1CAFD49
:1014B000BEDDBDF8D0D0BCECD1E90D0A00000000C3
:1014C0000D0ABCECB2E2B5BDCAFDBEDDB1EAD6BEC6
:1014D0000D0A00000D0AB4D3D0BEC6ACB6C1B5BD6E
:1014E000CAFDBEDDA3BA0D0A00000000D0A1CAFDEE
:1014F000207278203D20254C46200D0A0000000077
:10150000D5FBCAFD207278203D202564200D0A00FD
:10151000704700BFFEE700BFFEE700BFFEE700BF69
:10152000FEE77047704770477047000008B501211B
:101530000820FFF727FC2020ADF8000010208DF8D0
:10154000030003208DF8020069460F48FEF75CFF98
:101550000120ADF8000069460B48FEF755FF022058
:10156000ADF8000069460848FEF74EFF2021064806
:10157000FEF7F7FF01210448FEF7F3FF02210248BE
:10158000FEF7EFFF08BD0000000C014000B585B07C
:1015900001210420FFF7F6FB01218803FFF7F2FB8E
:1015A00018208DF813004FF40070ADF810000320E0
:1015B0008DF8120004A92148FEF726FF04208DF8BB
:1015C00013000002ADF8100004A91C48FEF71CFF30
:1015D0004FF4E13000900020ADF80400ADF80600B3
:1015E000ADF80800ADF80C000C20ADF80A00694613
:1015F0001348FFF76EFC01211148FFF7F6FC05B018
:1016000000BD70B504460D46E1B20D48FFF75AFD26
:1016100000BF80210A48FFF7C3FD0028F9D020460B
:1016200070BD10B5044600BF20210548FFF7B8FD86
:101630000028F9D00248FFF749FD10BD000801401D
:101640000038014008B501214805FFF7A8FB01213A
:101650000820FFF797FB1C208DF803004020ADF811
:10166000000003208DF802006946FB48FEF7CCFE1F
:101670001C208DF803008020ADF8000003208DF8B9
:1016800002006946F448FEF7BFFE08BD1FB54FF4DF
:101690008060ADF80A000001ADF80C00EF48009042
:1016A0004BF6FF70ADF806000020ADF804000A20EC
:1016B000ADF808006946EA48FFF70DF80121E8484F
:1016C000FFF787F81FBD10B5FFF7BCFFFFF7DEFF80
:1016D000A020E449088010BD10B5002400BF0121FE
:1016E000DF48FFF79AF81421DD48FFF7F5F80446C4
:1016F000DC4801780022DA48FFF7E5F81421D848E1
:10170000FFF7EAF800F002000028E8D0D649D448F4
:10171000FFF7A3F90121D248FFF78BF810BD10B5F0
:1017200004462146D1A000F049FD002010BD70B54F
:1017300004460E4615464FF48050D849086009E02B
:10174000D6490868411ED54A116018B90420FFF730
:10175000E6FF70BD4FF40031C148FFF761F9002882
:10176000EED10121BE48FFF758F84FF48050CB4925
:10177000086009E0C9490868411EC84A116018B9E3
:101780000520FFF7CCFFE4E7C549B548FFF726F988
:101790000028EFD0B34801780022B148FFF793F852
:1017A0004FF48050BD49086009E0BC490868411EFB
:1017B000BA4A116018B90620FFF7B1FFC9E7B94965
:1017C000A748FFF70BF90028EFD03146A448FFF7F0
:1017D00074F84FF48050B149086009E0AF490868D7
:1017E000411EAE4A116018B90720FFF798FFB0E715
:1017F000AC49891C9A48FFF7F1F80028EED01AE0AE
:1018000021789748FFF759F8641C4FF48050A3499A
:10181000086009E0A1490868411EA04A116018B992
:101820000820FFF77CFF94E79E49891C8C48FFF74E
:10183000D5F80028EED02800A5F10101CDB2DFD106
:1018400001218748FEF7F5FF012082E72DE9F047E7
:1018500007460D4614464FF00008C146C246002612
:101860002846E91705EB5171C910A5EBC10101F03C
:10187000FF0ACAF10800C6B22046E11704EB517115
:10188000C1F3C708E11704EB5171C910A4EBC10102
:1018900001F0FF09BAF1000F28D1B8F1000F07D10C
:1018A0004A4629463846FFF742FFFFF715FF60E03A
:1018B0000AE0082229463846FFF739FFFFF70CFFF8
:1018C00005F10800C5B208375FEA0800A8F1010178
:1018D00001F0FF08EDD1B9F1000F4AD04A46294680
:1018E0003846FFF724FFFFF7F7FE42E0B8F1000F9C
:1018F00007D14A4629463846FFF719FFFFF7ECFEA5
:1019000037E0A01B84B22046E11704EB5171C1F30C
:10191000C708E11704EB5171C910A4EBC10101F034
:10192000FF094EB1324629463846FFF700FFFFF760
:10193000D3FEA819C5B237440AE008222946384622
:10194000FFF7F5FEFFF7C8FE05F10800C5B208373E
:101950005FEA0800A8F1010101F0FF08EDD1B9F13B
:10196000000F06D04A4629463846FFF7E0FEFFF74B
:10197000B3FEBDE8F08770B504460D460121384836
:10198000FEF74BFF4FF480504449086009E043499B
:101990000868411E414A116018B90020FFF7BFFED8
:1019A00070BD3F492E48FFF719F80028EFD04FF4DB
:1019B00080503A4908602B48017800222848FEF7F9
:1019C00082FF09E035490868411E344A116018B9A0
:1019D0000120FFF7A4FEE3E732492148FEF7FEFFAE
:1019E0000028EFD029461E48FEF767FF4FF48050CD
:1019F0002A49086009E029490868411E274A116000
:101A000018B90220FFF78BFECAE727491448FEF7F2
:101A1000E5FF0028EFD021781148FEF74EFF4FF484
:101A200080501E49086009E01C490868411E1B4A95
:101A3000116018B90320FFF772FEB1E71949891C3C
:101A40000748FEF7CBFF0028EED001210448FEF73F
:101A5000F0FE0120A4E70000000C0140801A0600FF
:101A60000054004078000020000400103C3C2D454C
:101A70004550524F4D2D4552524F522D3E3E493208
:101A800043B5C8B4FDB3ACCAB1A3A16572726F729D
:101A9000436F6465203D2025640A00007C0000201F
:101AA00001000300820007008400060070B50546AF
:101AB0000E4614464FF480506549086009E06449B9
:101AC0000868411E624A116018B90920FFF727FE15
:101AD00070BD4FF400315F48FEF7A2FF0028EED141
:101AE00001215C48FEF799FE4FF480505849086088
:101AF00009E057490868411E554A116018B90A2083
:101B0000FFF70DFEE4E754495248FEF767FF00284F
:101B1000EFD05248017800224E48FEF7D4FE4FF431
:101B200080504B49086009E049490868411E484A0D
:101B3000116018B90B20FFF7F2FDC9E74849454885
:101B4000FEF74CFF0028EFD001214248FEF741FE8E
:101B500031464048FEF7B1FE4FF480503C490860E2
:101B600009E03B490868411E394A116018B90C2048
:101B7000FFF7D5FDACE73A49891C3648FEF72EFF42
:101B80000028EED001213348FEF747FE4FF4805085
:101B90002F49086009E02E490868411E2C4A11604F
:101BA00018B90D20FFF7BBFD92E72B492948FEF736
:101BB00015FF0028EFD02948017801222548FEF7BB
:101BC00082FE4FF480502249086009E020490868ED
:101BD000411E1F4A116018B90E20FFF7A0FD77E7DC
:101BE0001D49491C1B48FEF7F9FE0028EED026E0EF
:101BF000012C07D100211748FEF727FE01211548C7
:101C0000FEF717FE4FF480501149086009E01049B3
:101C10000868411E0E4A116018B90320FFF77FFDC6
:101C200056E70D493F310B48FEF7D8FE0028EED0AD
:101C30000848FEF744FE28706D1C601E84B2002C1C
:101C4000D6D101210348FEF700FE012040E7000045
:101C50007C000020005400400100030078000020B8
:101C6000820007002DE9FE4F804681EA0300C00F85
:101C70000C46009021F0004123F00045B8EB020033
:101C8000A94105D24046214690461C460B460246D5
:101C900023F00040104347D0270DC7F30A00C3F3D9
:101CA0000A510290401A019040286BDAC3F31300E6
:101CB00040F4801B0098924620B10023D2EB030A27
:101CC00063EB0B0B01985946C0F14002504600F0FF
:101CD000C4F806460D4650465946019A00F0CCF825
:101CE00010EB08006141002487EA115284EAE7738F
:101CF0001A4340D0009A62B3019A012A4FEA075270
:101D000015DC001B61EB02014FF0004202EA0752B2
:101D1000CDE90042001C41F5801132462B4600F00F
:101D2000CCF803B0BDE8F08F40462146F9E7001B30
:101D300061EB0201001C41F5801300185B41201883
:101D4000A2F5001747EB030140EAD570B6196D41C3
:101D500011E06D084FEA360645EAC0754FEA0752B2
:101D6000001B61EB0201001C41F5801149084FEA9C
:101D700030000019514132462B4603B0BDE8F04F08
:101D800000F08CB80098012240000023D0EB020242
:101D900063EBE073009821464FEAE074B8EB000073
:101DA00061EB0401E9E783F000435BE781F0004168
:101DB00058E70EB540F2334102910021CDE9001100
:101DC0000A460B4600F079F803B000BD30B50B466B
:101DD000014600202022012409E021FA02F59D425B
:101DE00005D303FA02F5491B04FA02F52844151E2F
:101DF000A2F10102F1DC30BD2DE9F05F05460020C3
:101E000092469B4688460646814640241BE028466B
:101E100041464746224600F0C1F953465A46C01A89
:101E2000914110D311461846224600F016F82D1A9B
:101E300067EB01084F4622460120002100F00DF813
:101E400017EB00094E41201EA4F10104DFDC4846D7
:101E500031462A464346BDE8F09F202A04DB203A5B
:101E600000FA02F1002070479140C2F1200320FAED
:101E700003F3194390407047202A06DBCB17203A22
:101E800041FA02F043EAE07306E041FA02F3D0407F
:101E9000C2F12002914008431946704710B5141E44
:101EA00073F1000408DA401C41F1000192185B4113
:101EB0001A4301D120F0010010BD2DE9F04D9246EA
:101EC0009B4611B1B1FA81F202E0B0FA80F2203201
:101ED0009046FFF7C2FF04460F4640EA0A0041EA77
:101EE0000B0153465A46084313D0114653EA0100EA
:101EF00019D0C8F14002504600F050F905460E4690
:101F0000504659464246FFF7A8FF084305D0012036
:101F100004E020463946BDE8F08D0020054346EA3E
:101F2000E0762C4337430A986305E40AA0EB0800E7
:101F30000022FD0A44EA47540A3002D50020014637
:101F4000E9E7010510196941DDE908450019694112
:101F5000BDE8F04DA2E72DE9FE4F81EA030404F04D
:101F6000004421F0004100944FF0000B23F00043A7
:101F700050EA01045ED052EA03045BD0C3F30A5472
:101F8000C1F30A552C44A4F2F3340194A0FB02548B
:101F9000C1F3130141F48011C3F3130343F480131D
:101FA00001FB024400FB034E840A970A44EA815471
:101FB00047EA8357A4FB076802958D0A05FB07854E
:101FC0004FEA932C04FB0C542705029D4FEA065858
:101FD00047EA1637B5EB08056EEB070C870E920E35
:101FE00047EA811742EA8312A7FB0201B6EB0B0115
:101FF00064EB00042B0D43EA0C335E1844EB1C50D9
:10200000DA465146E7FB0201C5F313044FEA0B33EE
:1020100043EA14534FEA0432019C43EA0603A4F155
:102020000C040294009CCDE900B4FFF746FF03B016
:10203000BDE8F08F00200146F9E72DE9F04D81EA77
:10204000030404F0004B21F0004514464FF0000A51
:1020500023F0004150EA050220D054EA01021DD0CD
:10206000C5F30A570246C5F31303C1F31300C1F3C6
:102070000A5640F4801543F48013A7EB0608101BA2
:10208000D64608F2FD3873EB050002D308F10108CB
:1020900001E092185B41B8F1000F03DA002001461D
:1020A000BDE8F08D00204FF48011064684460EE016
:1020B000171B73EB050705D3121B63EB05030643E0
:1020C0004CEA010C49084FEA300092185B4150EA93
:1020D0000107EDD152EA030012D082EA040083EA3C
:1020E0000501084305D0101BAB4106D20122002395
:1020F00006E000224FF0004302E06FF001025310AF
:102100001AEB06004CEB085110EB0A0041EB0B01F7
:10211000BDE8F04DFFF7C2BEC1F30A52C1F313018F
:1021200040F2FF3341F480119A4202DA0020014666
:10213000704740F233439A42A2F2334202DC5242E9
:1021400000F02CB8FFF789BE30B5041E71F1000411
:1021500004DB4FF00044404264EB0101141E73F1B4
:10216000000405DB1C464FF00043524263EB0403BE
:10217000994208BF904230BD064C074D06E0E0682A
:1021800040F0010394E8070098471034AC42F6D3BE
:10219000FDF7D2FFD42A0008F42A0008202A04DB25
:1021A000203A21FA02F00021704721FA02F3D040D0
:1021B000C2F1200291400843194670470FB4054B05
:1021C00010B503A9044A029800F0CAF810BC5DF8E3
:1021D00014FB0000031600088000002002E008C87D
:1021E000121F08C1002AFAD170477047002001E091
:1021F00001C1121F002AFBD1704700002DE9FF5FCB
:10220000DDE90220010DDDF838B0024318D044F6B4
:102210001050A1F2FF3141430D140F98012820D036
:10222000A5EB0B00401C5FEA000A4FF00004474E8C
:10223000DFF81C91A046504616D5CAF1000728E0E9
:102240000F98012443A2012808D0002100980F9B79
:10225000C0E90021C0E90243BDE8FF9F6FEA0B011E
:10226000F4E7CBF10000DEE7074612E0F80707D0FD
:102270002246334640464946FFF76DFE8046894672
:102280002246334610461946FFF765FE04460E46C1
:102290007F10002FEAD1DDE90201BAF1000F4246BA
:1022A0004B4602DAFFF757FE01E0FFF7C6FE044691
:1022B0000E460022284BFFF747FF03D84FF0FF30B0
:1022C000014607E00022254B20463146FFF7CAFCB5
:1022D000FFF722FF102409E0002C0ADB0A2200236A
:1022E000FFF78AFD019B30321A55641E50EA010245
:1022F000F2D1641C019AC4F1110314440F9A012A0B
:1023000003D0012208430DD10AE0084304D0002085
:102310004FF0110B0F9080E7A3EB0B056D1E0DE046
:102320005B4504DD4FF0000205F1010504E003DA2E
:102330004FF00002A5F10105002AECD000980F999A
:10234000C0E90231C0E9004586E7000000002440F2
:102350000000F03F300000000000F0430000E03FCC
:102360002DE9FF4F95B09B468946064600250FE2B2
:10237000252877D100242746F84A0121059400E05A
:10238000044316F8013F203B01FA03F01042F7D155
:1023900030782A2811D06FF02F033078A0F1300266
:1023A000092A16D8059A44F0020402EB820203EBD4
:1023B00042021044761C0590EFE759F8042B059271
:1023C000002A03DA504244F40054059044F0020419
:1023D000761C30782E2816D116F8010F44F004042C
:1023E0002A280DD06FF02F023078A0F13003092B8E
:1023F00009D807EB870302EB4303C718761CF3E702
:1024000059F8047B761C30786C280FD006DC4C28F9
:1024100017D068280DD06A2814D104E0742810D091
:102420007A280FD10DE044F400140AE044F480143B
:1024300001E044F440147278824202D104F5801421
:10244000761C761C307866280BD013DC582877D0A1
:1024500009DC002875D04528F6D04628F4D0472856
:102460001AD19DE118E0632835D0642879D0652819
:1024700012D195E1702873D008DC6728F1D0692863
:102480006FD06E280DD06F2806D1B5E073282CD000
:10249000752875D0782874D05A46179990476D1CC6
:1024A00075E1C4F30250022809D003280DD0D9F8F1
:1024B000001004280DD00D6009F1040967E1D9F876
:1024C0000010EA17C1E90052F6E7D9F800100D80B4
:1024D000F2E70D70F0E719F8041B8DF800100020EA
:1024E0008DF80100EA46012003E059F804AB4FF0F3
:1024F000FF3061074FF0000102D40DE008F1010147
:102500008846B9420FDA8045F8DB1AF8081000292E
:10251000F4D108E008F1010188468142FADB1AF89B
:1025200008100029F6D105985B46A0EB0807214664
:102530003846179A00F094FA284400EB080507E0A3
:102540004DE029E10DE01AF8010B5A461799904722
:10255000B8F10108F7D25B4621463846179A13E1D5
:1025600042E00A220092C4F302524FF0000A022A0B
:1025700008D059F804CB032A4FEAEC710AD00DE0D9
:1025800029E02AE009F1070121F00702F2E802C17F
:10259000914609E00FFA8CFC4FEAEC71042A03D152
:1025A0004FFA8CFC4FEAEC71002907DA0A46002149
:1025B000DCF1000C61EB02012D2202E0220504D5C2
:1025C0002B228DF80420012203E0E20701D0202213
:1025D000F7E7904659E00A2102E010220DE01021B1
:1025E0004FF0000A00910BE010224FF0000A44F077
:1025F00004040827009203E008224FF0000A00922A
:10260000C4F30252022A05D059F804CB0021032A50
:1026100008D009E009F1070121F00702F2E802C140
:10262000914605E01FFA8CFC042A01D10CF0FF0C46
:102630004FF00008220728D5702806D0009B83F0B1
:10264000100353EA0A0305D00EE040228DF804205F
:10265000012208E05CEA010206D030228DF8042055
:102660008DF8050002229046009B83F0080353EA90
:102670000A030AD15CEA010201D1620705D53022C2
:102680008DF804204FF001087F1E582804D034A094
:1026900003900EA802900DE036A0F9E7534660467D
:1026A000009AFFF7A9FB84460398825C0298401EBB
:1026B000029002705CEA0100F0D1029806A9081AA3
:1026C00000F1200A600702D524F4803400E00127DD
:1026D000574502DDA7EB0A0000E0002000EB0A01ED
:1026E000009005984144401A0590E00306D45B46EB
:1026F0002146179A059800F0B3F90544002706E033
:1027000001A85A46C05D179990476D1C7F1C47452C
:10271000F6DBE0030CD55B462146179A059800F0DE
:102720009FF9054404E030205A46179990476D1CE4
:102730000099481E00900029F5DC08E002980299F3
:102740005A460078491C0291179990476D1CBAF1BE
:102750000001AAF1010AF1DC65E10000092801008D
:102760003031323334353637383961626364656607
:1027700000000000303132333435363738394142C9
:10278000434445460000000000F058F90544761C1B
:10279000307800287FF4ECAD19B02846BDE8F08F02
:1027A000620700D4062709F1070222F0070CFCE8B3
:1027B0000223E14603F000485FEA080C02D00FF262
:1027C000702C0DE05FEA045C02D50FF2682C07E084
:1027D0005FEAC47C02D00FF2602C01E0AFF2700C13
:1027E0004FF0FF3823F00043CDF850C065280CD0DF
:1027F00006DC452809D046281DD047283DD13DE0BC
:10280000662818D067287ED138E00021112F01DB1F
:10281000112000E0781CCDE9000106A90EA8FFF701
:10282000EDFCDDE90F010E9A03910021009207F102
:10283000010A04914DE04FF000400097CDE90110EE
:1028400006A90EA8FFF7DAFCDDE90F0203920E9B42
:1028500011990022DDF80CA00093049211B9791CA3
:1028600000EB010AB7EB0A0004D4C0F1FF3007F116
:10287000010A0490AAEB0700019044E0012F00DA5E
:1028800001270021112F01DD112000E03846CDE99C
:10289000000106A90EA8FFF7B1FCDDE90F010E9AB1
:1028A0000391002104910092BA4621070CD40399A8
:1028B000514500DA8A46BAF1010F05DD009AAAF106
:1028C0000101515C302908D0B84202DA10F1040F3E
:1028D00006DA0121CDE9011015E0AAF10101E9E7CD
:1028E000002805DC049901440491AAEB000102E0F0
:1028F000411C514500DD8A460499401A401C019054
:102900004FF000400290200704D40198504501DBAD
:10291000CDF8048000208DF84F0002980DF14F078C
:10292000B0F1004F25D02B200E9002984FF00208F6
:1029300000280CDA404202902D200E9007E00A2178
:102940000298FFF743FA3031029007F8011DB8F101
:102950000001A8F10108F2DC02980028EFD1791EED
:102960000E980870307800F0200040F0450007F81D
:10297000020D12A8C01B00F107081498007800B1DE
:10298000012000EB0A01019801EBE0710598414438
:10299000401A401E0590E00306D45B462146179A74
:1029A000059800F05DF805441498007818B15A466F
:1029B000179990476D1CE00324D55B462146179A72
:1029C000059800F04DF805441CE00498002807DB4A
:1029D000DDE90301884203DD0098405C179901E0BE
:1029E000179930205A469047049805F10105401C7C
:1029F00004900198401E019004D12E205A46179948
:102A000090476D1CBAF10001AAF1010ADDDC05E076
:102A100017F8010B5A46179990476D1CB8F1000141
:102A2000A8F10108F4DC5B462146179A0598ABE64D
:102A30002D0000002B000000200000002DE9F041D7
:102A4000044600251E461746880404D405E039468E
:102A50002020B0476D1C641EF9D52846BDE8F081E2
:102A60002DE9F041044600251E469046C80301D5D5
:102A7000302700E02027880404D505E04146384689
:102A8000B0476D1C641EF9D52846BDE8F0810000F2
:102A90000D0A20C3BBD3D0BCECB2E2B5BDCAFDBEAB
:102AA000DDB1EAD6BEA3AC464C415348C3BBD3D03C
:102AB000B4E6B4A2CAFDBEDDA3ACBCB4BDABBDF8E8
:102AC000D0D0D0A1CAFDD0B4C8EBCAB5D1E9200D91
:102AD0000A000000F42A0008000000208400000022
:102AE000DC210008782B0008840000201C04000072
:102AF000EC21000800A24A040000000000000000D1
:102B00000102030406070809000000000102030493
:102B10000102030406070809020406080000000079
:102B200000000000000000000000000000000000A5
:102B30000000000000000000000000000000000095
:102B40000000000000000000000000000000000085
:102B5000000000000000000000000000414243446B
:102B60004546470000000000000000000000000093
:082B700000A0000000000000BD
:0400000508000131BD
:00000001FF
