:020000040800F2
:1000000038040020450100089512000897120008E6
:100010009B1200089F120008A312000800000000B5
:10002000000000000000000000000000A71200080F
:10003000A912000800000000AB120008AD12000871
:100040005F0100085F0100085F0100085F01000810
:100050005F0100085F0100085F0100085F01000800
:100060005F0100085F0100085F0100085F010008F0
:100070005F0100085F0100085F0100085F010008E0
:100080005F0100085F0100085F0100085F010008D0
:100090005F0100085F0100085F0100085F010008C0
:1000A0005F0100085F0100085F0100085F010008B0
:1000B0005F0100085F0100085F0100085F010008A0
:1000C0005F0100085F0100085F0100085F01000890
:1000D0005F010008B51200085F0100085F01000819
:1000E0005F0100085F0100085F0100085F01000870
:1000F0005F0100085F0100085F0100085F01000860
:100100005F0100085F0100085F0100085F0100084F
:100110005F0100085F0100085F0100085F0100083F
:100120005F0100085F0100085F0100085F0100082F
:10013000DFF80CD001F0E6FB004800473912000858
:10014000380400200648804706480047FEE7FEE7DF
:10015000FEE7FEE7FEE7FEE7FEE7FEE7FEE7FEE777
:1001600047020008310100080CB500200190009002
:100170006C48006840F480306A49086000BF6948F4
:10018000006800F4003000900198401C0190009835
:1001900018B90198B0F5A06FF1D16248006800F479
:1001A000003010B10120009001E000200090009884
:1001B000012843D15C48006840F010005A490860AB
:1001C0000846006820F0030008600846006840F018
:1001D0000200086053484068524948600846406839
:1001E00048600846406840F48060486008464068BF
:1001F00020F47C1048600846406840F4E8104860ED
:100200000846006840F08070086000BF45480068FC
:1002100000F000700028F9D04248406820F0030048
:10022000404948600846406840F00200486000BF0E
:100230003C48406800F00C000828F9D10CBD10B50E
:10024000FFF792FF10BD10B53648006840F001007E
:1002500034490860084640683449084031494860DC
:1002600008460068324908402E4908600846006880
:1002700020F4802008600846406820F4FE004860B2
:100280004FF41F008860FFF7DAFF4FF00060294944
:10029000086010BD10B5002100200022214B5B68D2
:1002A00003F00C0121B1042906D0082928D107E068
:1002B000214B224C236027E01F4B204C236023E07E
:1002C000184B5B6803F47010164B5B6803F48032C4
:1002D000022303EB904022B9194B4343174C236090
:1002E0000DE0104B5B6803F4003323B1144B434320
:1002F000124C236003E0104B4343104C236003E097
:100300000D4B0E4C236000BF00BF064B5B68C3F370
:1003100003130C4CE15C094B1B68CB40074C23607A
:1003200010BD000000100240002002400000FFF855
:10033000FFFFF6FE08ED00E000127A00000000204A
:1003400000093D000400002031490143314A116099
:10035000704770B5002100230F22C47804B32D4CE0
:10036000246804F4E064C4F5E064210AC1F10403E4
:10037000CA40447804FA03F1847814402143090107
:10038000254C0678A155047804F01F050124AC40E3
:1003900005786D11AD0005F1E025C5F8004109E0D3
:1003A000047804F01F050124AC401C4D067876113A
:1003B00045F8264070BD1A4A0A400243154B1B1FE0
:1003C0001A60704739B1134A121D12680243114B6B
:1003D0001B1D1A6006E00F4A121D126882430D4B66
:1003E0001B1D1A607047042808D14FF0E0210969ED
:1003F00041F004014FF0E022116107E04FF0E021ED
:10040000096921F004014FF0E022116170470000FA
:100410000000FA050CED00E000E400E080E100E0FF
:1004200080FFFF1F10B50446CC48844208D101214B
:10043000042000F02DFB0021042000F029FB46E001
:10044000C748844208D10121082000F021FB002187
:10045000082000F01DFB3AE0C248844208D1012187
:10046000102000F015FB0021102000F011FB2EE001
:10047000BD48844208D10121202000F009FB002161
:10048000202000F005FB22E0B848844208D1012179
:10049000402000F0FDFA0021402000F0F9FA16E0BB
:1004A000B348844208D10121802000F0F1FA0021F4
:1004B000802000F0EDFA0AE0AE48844207D1012125
:1004C000801500F0E5FA0021A01500F0E1FA10BD5A
:1004D00010B50121084600F0DBFA0021012000F0F0
:1004E000D7FA10BD2DE9F041024600250026002074
:1004F00000230024002791F803C00CF00F0591F8A9
:1005000003C00CF0100CBCF1000F03D091F802C036
:100510004CEA050591F800C0BCF1000F31D0146819
:1005200000202BE04FF0010C0CFA00F3B1F800C0F2
:100530000CEA03069E4220D183004FF00F0C0CFA08
:1005400003F7BC4305FA03FC4CEA040491F803C02A
:10055000BCF1280F06D14FF0010C0CFA00FCC2F8D8
:1005600014C00AE091F803C0BCF1480F05D14FF068
:10057000010C0CFA00FCC2F810C0401C0828D1D3B2
:100580001460B1F800C0BCF1FF0F34DD54680020E6
:100590002EE000F1080C4FF0010808FA0CF3B1F856
:1005A00000C00CEA03069E4221D183004FF00F0CDD
:1005B0000CFA03F7BC4305FA03FC4CEA040491F877
:1005C00003C0BCF1280F05D100F1080C08FA0CF8A3
:1005D000C2F8148091F803C0BCF1480F07D100F1B4
:1005E000080C4FF0010808FA0CF8C2F81080401C03
:1005F0000828CED35460BDE8F0814FF6FF7101802A
:10060000022181700421C170704702460020936866
:100610000B400BB1012000E00020704701468868C4
:1006200080B2704702460020D3680B400BB1012016
:1006300000E0002070470146C86880B27047016141
:100640007047416170470AB1016100E04161704744
:10065000C16070474FF480320A43826181618261D8
:1006600082698269704702460020434B18684FF642
:100670008073184040EA021008433F4B18607047EF
:100680003E49C8617047F0B50A46002300240021A6
:10069000002500F00046B6F1004F02D1364EF16958
:1006A00001E0354E7168C0F3034583B200F4401693
:1006B000B6F5401F08D121F070612F4E766826F004
:1006C00070662D4F7E6012E000F48016B6F5801F34
:1006D00006D1032606FA05F4A14341F0706106E055
:1006E000460D360103FA06F6B14341F0706122B1BE
:1006F000460D360103FA06F6314300F00046B6F126
:10070000004F02D11C4EF16101E01B4E7160F0BD43
:1007100030B500228B071C0F0F2303FA04F2164B8F
:1007200008338C1053F824309343134C08348D1045
:1007300044F8253023468C1053F824308C07240FBE
:1007400000FA04F423430C4C08348D1044F825308F
:1007500030BD0A49DC3108607047000000080140E4
:10076000000C01400010014000140140001801403D
:10077000001C014000200140000001400000204218
:10078000DF48006840F00100DD4908600846406825
:10079000DC490840DA49486008460068DA49084000
:1007A000D74908600846006820F4802008600846A1
:1007B000406820F4FE0048604FF41F0088607047D6
:1007C000CF49096821F48031CD4A1160114609688A
:1007D00021F480211160B0F5803F03D0B0F5802F67
:1007E0000ED106E0C649096841F48031C44A11605F
:1007F00007E0C349096841F4A021C14A116000E043
:1008000000BF00BF704710B5014600220023002042
:100810004A11012A02D1BA4C236806E0022A02D109
:10082000B74C236A01E0B64C636A01F01F02012451
:1008300094401C400CB1012000E0002010BD38B5F0
:10084000002000900024002500BF3120FFF7DBFFCF
:1008500005460098401C00900098B0F5A06F01D0AC
:10086000002DF2D03120FFF7CEFF08B1012400E0C7
:100870000024204638BD01460020A14A106820F01F
:10088000F80040EAC10010607047A0490860704756
:10089000024600209A4B586820F47C1042EA01037B
:1008A0001843974B5860704798490866704701464F
:1008B0000020934A506820F00300084350607047BE
:1008C0008F48406800F00C007047014600208C4AB9
:1008D000506820F0F0000843506070470146002047
:1008E000874A506820F4E060084350607047014632
:1008F0000020834A506820F4605040EAC1005060F4
:10090000704729B17E4A527A02437D4B5A7204E005
:100910007B4A527A82437A4B5A7270477B49D8316C
:100920000860704701460020754A506820F4404036
:100930000843506070470021714A20321170704A9C
:1009400082F82010012802D004280AD104E00121F5
:100950006B4A2032117005E00521694A203211707E
:1009600000E000BF00BF70476949086070476449F4
:10097000096A0143624A1162704765494439086057
:10098000704730B500210022002400235C4D6D68C3
:1009900005F00C0121B1042905D0082923D105E077
:1009A0005C4D056022E05B4D05601FE0544D6D68B5
:1009B00005F47012524D6D6805F48034022505EB84
:1009C00092421CB9544D554305600BE04C4D6D6887
:1009D00005F400351DB1504D5543056002E04D4D05
:1009E0005543056002E04B4D056000BF00BF444D1C
:1009F0006D6805F0F0010909484D6B5C0568DD4044
:100A000045603F4D6D6805F4E061090A434D6B5C3C
:100A10004568DD4085603A4D6D6805F46051C90A4E
:100A20003E4D6B5C4568DD40C560354D6D6805F435
:100A30004041890B3A4D6B5CC568B5FBF3F5056128
:100A400030BD29B12E4A526902432D4B5A6104E050
:100A50002B4A526982432A4B5A61704729B1284A6E
:100A600092690243264B9A6104E0254A92698243C7
:100A7000234B9A61704729B1214AD2690243204B26
:100A8000DA6104E01E4AD26982431D4BDA61704785
:100A900029B11B4AD2680243194BDA6004E0184AB4
:100AA000D2688243164BDA60704729B1144A126942
:100AB0000243134B1A6104E0114A12698243104B3E
:100AC0001A61704712494039086070470F49C8647D
:100AD00070470B49C87170470948406A40F0807000
:100AE00007494862704701460020054A92680A405B
:100AF0000AB1012000E00020704701498872704768
:100B0000001002400000FFF8FFFFF6FE0000424226
:100B10008004424200127A0000093D0014000020C7
:100B20002400002010B50446BE48844208D10121AB
:100B30008014FFF7ADFF0021A014FFF7A9FF16E016
:100B4000B948844208D101210014FFF7AEFF00210B
:100B50002014FFF7AAFF0AE0B448844207D101211C
:100B6000C013FFF7A2FF0021E013FFF79EFF10BDA7
:100B700010B50022028802F441520B884C882343AE
:100B80008C882343CC8823430C8923434C892343FB
:100B90008C892343CC8923431A430280838B4FF2F1
:100BA000FF74234083830B8A038210BD2DE9F04F2D
:100BB00085B005460C464FF0000902274FF00008AB
:100BC0004FF0010B0026B246A88B4FF240010840BF
:100BD000A88302202884B5F81C90A068022801D1BF
:100BE00000BF38E0A08810B94FF0010B01E04FF0D2
:100BF000020B8D48854200D100E000BF6846FFF738
:100C0000C0FEDDF800A0E088B0F5007F0AD14FEA11
:100C10001A2000EB80004000A168B0FBF1F0401DFD
:100C200086B20BE04FEA4B10BAFBF0F000EB80000D
:100C30004000A168B0FBF1F0401D86B20A20B6FB6F
:100C4000F0F606F00108A6EB0800C0F34F074FF6D8
:100C5000FF7000EA0828022F01DBFF2F02DD0227C8
:100C60004FF00008E08840EA080038432884A08854
:100C7000A1890843618808432188084340F4006043
:100C800040EA0909A5F81C9005B0BDE8F08F0021E5
:100C9000018041808180C180018141818181C18148
:100CA0000721018270470021018041808180C1803D
:100CB0000221816000218181704721B1028842F0C8
:100CC0004002028004E002884FF6BF731A4002809F
:100CD000704721B1828B42F48062828304E0828B70
:100CE0004FF6FF331A408283704730B5002400234B
:100CF0000C110125A540ABB21AB185881D43858032
:100D000002E085889D43858030BD1AB183880B43FE
:100D1000838002E083888B438380704781817047A2
:100D20000146888970474FF6FF62914204D00288DD
:100D300042F48072028004E002884FF6FF631A409A
:100D40000280704721B1828842F00402828004E070
:100D500082884FF6FB731A408280704702884FF2F8
:100D6000FF731A40028002880A430280704701889C
:100D700041F480510180704721B1028842F4005251
:100D8000028004E002884DF6FF731A40028070472B
:100D900002460020012901D0108B00E0908A7047A4
:100DA0000146088A7047B1F5804F04D1028842F4A9
:100DB0008042028004E002884BF6FF731A400280F2
:100DC00070470246002013890B400BB1012000E060
:100DD00000207047CA4302817047F0B502460020E8
:100DE00000240023002501F00F070126BE40B4B205
:100DF0000B1101269E40B3B2968806EA03051689B8
:100E0000264016B10DB1012000E00020F0BD10B564
:100E1000002201F00F040123A3409AB2D3430381BF
:100E200010BD00000030014000380040003C004090
:100E300010B50446FB48844209D101218803FFF71D
:100E400027FE00214FF48040FFF722FE32E0F648F3
:100E5000844209D101214804FFF727FE00214FF405
:100E60000030FFF722FE25E0F048844209D101213D
:100E70008804FFF71AFE00214FF48020FFF715FECB
:100E800018E0EB48844209D10121C804FFF70DFEA8
:100E900000214FF40020FFF708FE0BE0E5488442F4
:100EA00008D101210805FFF700FE00214FF4801052
:100EB000FFF7FBFD10BD2DE9F04786B005460E4655
:100EC0000024A24600BFA1460027B08900B100BFA0
:100ED0002F462C8A4CF6FF700440F08804432C8285
:100EE000AC894EF6F3100440B0883189084371890B
:100EF00008430443AC81AC8A4FF6FF400440B089FC
:100F00000443AC8201A8FFF73CFDC648874202D1EA
:100F1000DDF810A001E0DDF80CA0A88900F4004085
:100F200040B10AEBCA0000EB0A1031684900B0FB7F
:100F3000F1F807E00AEBCA0000EB0A1031688900FB
:100F4000B0FBF1F86420B8FBF0F004012009642143
:100F500001FB1089A88900F4004040B1322000EB69
:100F6000C900B0FBF1F000F00700044308E03220B4
:100F700000EB09106421B0FBF1F000F00F00044316
:100F80002C8106B0BDE8F0874FF4165101600021B6
:100F90008180C18001810C214181002181817047C4
:100FA00010B502460020108A4FF2FF0318400B884C
:100FB0004C8823438C882343CC88234318431082D6
:100FC00010BD0021018041808180C180704721B126
:100FD000828942F40052828104E082894DF6FF73D7
:100FE0001A4082817047F0B5034600240026002590
:100FF000002040F66A17B94200D100BF1846C1F37D
:10100000421401F01F06012707FA06F5012C01D151
:101010000C3004E0022C01D1103000E014301AB181
:1010200007682F43076002E00768AF430760F0BD21
:101030001AB1838A0B43838202E0838A8B438382C3
:101040007047028A4FF6F0731A400282028A0A43FE
:101050000282704782894FF2FF731A40828182892F
:101060000A438281704721B1828942F00202828163
:1010700004E082894FF6FD731A4082817047028A2C
:101080004FF6DF731A400282028A0A4302827047D7
:1010900021B1028A42F48042028204E0028A4BF6C5
:1010A000FF731A4002827047C1F3080282807047C2
:1010B00001468888C0F308007047818941F001012A
:1010C00081817047028BD2B20283028B42EA0122F5
:1010D00002837047028B02F47F420283028B0A4331
:1010E0000283704721B1828A42F02002828204E0AA
:1010F000828A4FF6DF731A408282704721B1828A5A
:1011000042F01002828204E0828A4FF6EF731A40A6
:101110008282704721B1828A42F00802828204E012
:10112000828A4FF6F7731A408282704721B1828912
:1011300042F40042828103E08289C2F30E0282817E
:10114000704721B1828A42F40062828204E0828A7E
:101150004FF2FF731A4082827047828A4FF6FB7308
:101160001A408282828A0A438282704721B1828A2F
:1011700042F00202828204E0828A4FF6FD731A4036
:101180008282704702460020B1F5007F00D100BF87
:1011900013880B400BB1012000E00020704701F4E0
:1011A0000072B2F5007F00D100BFCA4302807047D1
:1011B00070B50246002400230025002040F66A1680
:1011C000B14200D100BFC1F3421501F01F03012657
:1011D00006FA03F3012D02D19689334006E0022D71
:1011E00002D1168A334001E0968A33400C12012660
:1011F00006FA04F41688344013B10CB1012000E063
:10120000002070BD10B50022002340F66A14A142F0
:1012100000D100BF0A1201249440A3B2DC43048031
:1012200010BD00000038014000440040004800406C
:10123000004C00400050004047F6FF7400F0B0FA48
:1012400000F05FF807A000F06FFB00F04BFA00F031
:101250001DFA2146012000F0F6F901E000F01EFB26
:10126000FCE70000BBB6D3ADCAB9D3C3D2B0BBF064
:10127000204631303320414435363839B5A5CDA824
:10128000B5C0CAE4B3F6D5FDCFD2B2A820C0FDB335
:10129000CC0D0A00704700BFFEE700BFFEE700BFAD
:1012A000FEE700BFFEE770477047704710B500F0DB
:1012B00096FA10BD10B520210648FFF763FF38B13C
:1012C0000448FFF7F5FEC4B2214603A000F02CFB52
:1012D00010BD0000003801402563000008B54FF440
:1012E000A060FFF731F825208DF8000001208DF86F
:1012F00001008DF802008DF803006846FFF729F819
:1013000008BD00B585B001210420FFF7A7FB01212E
:101310008803FFF7A3FB18208DF813004FF400702B
:10132000ADF8100003208DF8120004A95248FFF711
:10133000D9F804208DF813000002ADF8100004A9BC
:101340004D48FFF7CFF84FF4E13000900020ADF8A2
:101350000400ADF80600ADF80800ADF80C000C2054
:10136000ADF80A0069464548FFF7A5FDFFF7B6FF4F
:10137000012240F225514148FFF735FE01213F4847
:10138000FFF725FE05B000BD70B504460D462946A1
:101390002046FFF789FE00BF80212046FFF7F2FEBE
:1013A0000028F9D070BD2DE9F04105460C46260A0B
:1013B000E7B231462846FFF777FE00BF8021284676
:1013C000FFF7E0FE0028F9D039462846FFF76CFE0B
:1013D00000BF80212846FFF7D5FE0028F9D0BDE8E0
:1013E000F0812DE9F04107460D461646002405E040
:1013F000295D3846FFF7C8FF601CC4B2B442F7DB72
:1014000000BF40213846FFF7BDFE0028F9D0BDE8F7
:10141000F08170B506460C46002500BF615D304680
:10142000FFF7B2FF6D1C605D0028F7D100BF4021BF
:101430003046FFF7A7FE0028F9D070BD70B504460E
:101440000D46E1B20D48FFF72FFE00BF80210B488B
:10145000FFF798FE0028F9D0204670BD10B504466D
:1014600000BF20210548FFF78DFE0028F9D0034872
:10147000FFF71EFE10BD00000008014000380140CB
:1014800010B586B004462020ADF810000120ADF85C
:101490000C000020ADF80A000720ADF81400002071
:1014A000ADF80800ADF80440ADF812004FF48270BA
:1014B000ADF806004FF40070ADF80E0001A98048A9
:1014C000FFF756FB06B010BD08B501210803FFF772
:1014D000C5FA01210420FFF7C1FA2020ADF8000071
:1014E00018208DF8030001208DF802006946754828
:1014F000FEF7F8FF4020ADF8000069467148FEF79E
:10150000F1FF8020ADF8000069466E48FEF7EAFF63
:101510001020ADF800008DF8030001208DF80200C6
:1015200069466848FEF7DEFF4FF44040FFF7A8FF2A
:1015300001216348FFF7C1FB08BD002002E000BFA6
:10154000411C88B23228FADB704710B504462146A8
:101550005DA000F0E9F9002010BD2DE9F04106463C
:101560000F4690464446002524E007E02000A4F101
:10157000010403D1FFF7E9FFBDE8F08102215048E3
:10158000FFF71FFC0028F1D0715D4D48FFF7C6FB47
:10159000A04607E02000A4F1010403D10120FFF7D9
:1015A000D4FFE9E701214648FFF70BFC0028F1D002
:1015B000681CC5B2BD42D8DB00BFDDE7F8B5054603
:1015C0000E4614460020009046EA0510C0B28DF881
:1015D0000000200A8DF80100E0B28DF80200102111
:1015E0003848FFF72EF8FFF7A8FF0F2203216846BF
:1015F000FFF7B3FFFFF7A1FF10213248FFF71FF8F5
:10160000F8BD70B504460D46E6B246EAC500C6B25E
:10161000324609210520FFF7D1FF70BD10B5002229
:1016200009210620FFF7CAFF10BD70B504460D461C
:101630003C2644EA85103043C6B2324609210420D4
:10164000FFF7BCFF70BD70B504460D462A46214623
:101650000320FFF7B3FF70BD70B504460D462A4660
:1016600021460120FFF7AAFF70BD70B504460D4664
:101670002A4621460220FFF7A1FF70BD10B504469F
:10168000224609210820FFF799FF10BD10B5FFF78A
:101690001BFF4FF400410B48FEF7D3FF052000F07D
:1016A000CBF84FF400410748FEF7C9FF052000F0D2
:1016B000C3F8FFF7B3FF00210846FFF7A2FF10BDF4
:1016C0000030014000080140535049B5C8B4FDB393
:1016D000ACCAB1A3A16572726F72436F6465203D9D
:1016E0002025640008B501210420FFF7B7F9012087
:1016F000ADF8000004208DF8030069461348FEF79A
:10170000F1FE01211020FFF7A9F94FF40050ADF8C8
:10171000000004208DF8030069460D48FEF7E2FE44
:1017200008BD70B504460D4629462046FEF76DFFFC
:10173000012808D100BF29462046FEF766FF002891
:10174000F9D0012070BD0020FCE700000008014036
:101750000010014030B50146B1F1807F01D3012076
:1017600030BD21F07F40401E4FF0E0225061501705
:101770000F22002807DA13071D0E424B00F00F045A
:10178000241F1D5503E013071C0E3F4B1C5400BFC4
:1017900000204FF0E0229061072010610020DFE779
:1017A00010B53A4800683A49B0FBF1F42046FFF71B
:1017B000D1FF08B100BFFEE710BD01B53549009863
:1017C00008604FF0E020006940F001004FF0E02198
:1017D000086100BF2F4800680028FBD108BD2D48D4
:1017E000006820B12B480068401E2A4908607047F5
:1017F00031B5264800682849B0FBF1F52846FFF7C7
:10180000A9FF00240CE000BF4FF0E020006908B9F8
:10181000012000E0002000F480300028F4D1641C96
:1018200000988442EFD34FF0E020006920F00100DF
:101830004FF0E021086138BD31B5144800684FF41D
:101840007A71B0FBF1F52846FFF784FF00240CE025
:1018500000BF4FF0E020006908B9012000E000203F
:1018600000F480300028F4D1641C00988442EFD347
:101870004FF0E020006920F001004FF0E021086106
:1018800038BD000018ED00E000E400E0000000209A
:10189000A08601002800002040420F0010B50C482F
:1018A0000C49096830F811400A480068401C094991
:1018B000086021460120FFF7C6FE06480068802820
:1018C00002D10020034908600520FFF7B5FF10BDD5
:1018D000201B00082C00002030B50B4601460020DC
:1018E0002022012409E021FA02F59D4205D303FAE2
:1018F00002F5491B04FA02F52844151EA2F1010263
:10190000F1DC30BD064C074D06E0E06840F0010315
:1019100094E8070098471034AC42F6D3FEF70CFC6D
:10192000201C0008401C00080FB4054B10B503A98B
:10193000044A029800F018F810BC5DF814FB00008F
:101940003D1400083000002002E008C8121F08C142
:10195000002AFAD170477047002001E001C1121F30
:10196000002AFBD1704700002DE9FF4F8BB09A464B
:101970000F460546002606E025280BD052460D9955
:1019800090476D1C761C28780028F5D10FB03046A2
:10199000BDE8F08F0024A0460122604900E0044326
:1019A00015F8013F203B02FA03F00842F7D12878EE
:1019B0002E2817D115F8010F44F004042A280ED060
:1019C0006FF02F022878A0F1300109290AD808EB1E
:1019D000880102EB410100EB01086D1CF2E757F8AA
:1019E000048B6D1C287869283ED006DC0028CDD0F9
:1019F00063280BD0642804D136E0732810D07528F2
:101A00004BD052460D999047761C85E017F8040B91
:101A10008DF8000000208DF80100E946012003E068
:101A200057F8049B4FF0FF3061074FF0000401D4DA
:101A30000AE0641C44450DDA8442FADB19F804100C
:101A40000029F6D106E0641C8442FCDB19F804107E
:101A50000029F8D1264404E019F8010B52460D99EB
:101A60009047641EF8D257E001CF4FF00A0B0028D0
:101A700002DA40422D2102E0210504D52B218DF808
:101A80002410012103E0E10705D02021F7E70DF143
:101A9000200908910CE00021F9E701CF4FF00A0B73
:101AA000F9E75946FFF718FF01F1300209F8012D57
:101AB0000028F6D1ADEB090000F1200B600701D43E
:101AC0004FF00108D84502DDA8EB0B0000E0002034
:101AD0008046002406E009A85246005D0D99904713
:101AE000641C761C08988442F5DB04E030205246E2
:101AF0000D999047761CB8F10001A8F10108F5DCBA
:101B000005E019F8010B52460D999047761CBBF180
:101B10000001ABF1010BF4DC6D1C34E70928010076
:101B200000805486A58CEE922A99579F71A573ABBD
:101B300059B121B7C6BC45C29BC7C4CCBDD182D662
:101B400011DB68DF82E35EE7FAEA52EE65F131F419
:101B5000B5F6EEF8DBFA7BFCCEFDD1FE85FFE9FFA2
:101B6000FDFFC1FF35FF59FE2EFDB5FBEEF9DBF79A
:101B70007CF5D4F2E4EFAEEC34E978E57CE144DDC9
:101B8000D1D826D446CF35CAF6C48BBFF8B941B4F4
:101B90006AAE75A867A2439C0E96CB8F7E892A8376
:101BA000D67C82763570F269BD63995D8B5796510C
:101BB000BF4B084675400A3BCB35BA30DA2B2F278E
:101BC000BC22841E881ACC1652131C102C0D840AB9
:101BD000250812064B04D202A701CB003F000300E8
:101BE00017007B002F0132028503250512074B09E0
:101BF000CF0B9B0EAE110615A2187E1C9820EF2469
:101C00007E29432E3C336538BB3D3A43DF48A74E1F
:101C10008D548F5AA960D666126D5B73AC790080C3
:101C2000401C000800000020340000004819000893
:101C3000741C000834000020040400005819000837
:101C400000A24A040000000000000000010203049A
:101C50000607080900000000010203040102030452
:101C60000607080902040608000000000000000042
:041C70000000000070
:0400000508000131BD
:00000001FF
