:020000040800F2
:100000007848002045010008611A0008631A0008BA
:10001000671A00086B1A00086F1A00080000000039
:10002000000000000000000000000000731A00083B
:10003000751A000800000000771A0008791A0008F5
:100040005F0100085F0100085F0100085F01000810
:100050005F0100085F0100085F0100085F01000800
:100060005F0100085F0100085F0100085F010008F0
:100070005F0100085F0100085F0100085F010008E0
:100080005F0100085F0100085F0100085F010008D0
:100090005F0100085F0100085F0100085F010008C0
:1000A0005F0100085F0100085F0100085F010008B0
:1000B0005F0100085F0100085F0100085F010008A0
:1000C0005F0100085F0100085F0100085F01000890
:1000D0005F0100085F0100085F0100085F01000880
:1000E0005F0100085F0100085F0100085F01000870
:1000F0005F0100085F0100085F0100085F01000860
:100100005F0100085F0100085F0100085F0100084F
:100110005F0100085F0100085F0100085F0100083F
:100120005F0100085F0100085F0100085F0100082F
:10013000DFF80CD003F0AAFF004800476917000859
:10014000784800200648804706480047FEE7FEE75B
:10015000FEE7FEE7FEE7FEE7FEE7FEE7FEE7FEE777
:1001600047020008310100080CB500200190009002
:100170006C48006840F480306A49086000BF6948F4
:10018000006800F4003000900198401C0190009835
:1001900018B90198B0F5A06FF1D16248006800F479
:1001A000003010B10120009001E000200090009884
:1001B000012843D15C48006840F010005A490860AB
:1001C0000846006820F0030008600846006840F018
:1001D0000200086053484068524948600846406839
:1001E00048600846406840F48060486008464068BF
:1001F00020F47C1048600846406840F4E8104860ED
:100200000846006840F08070086000BF45480068FC
:1002100000F000700028F9D04248406820F0030048
:10022000404948600846406840F00200486000BF0E
:100230003C48406800F00C000828F9D10CBD10B50E
:10024000FFF792FF10BD10B53648006840F001007E
:1002500034490860084640683449084031494860DC
:1002600008460068324908402E4908600846006880
:1002700020F4802008600846406820F4FE004860B2
:100280004FF41F008860FFF7DAFF4FF00060294944
:10029000086010BD10B5002100200022214B5B68D2
:1002A00003F00C0121B1042906D0082928D107E068
:1002B000214B224C236027E01F4B204C236023E07E
:1002C000184B5B6803F47010164B5B6803F48032C4
:1002D000022303EB904022B9194B4343174C236090
:1002E0000DE0104B5B6803F4003323B1144B434320
:1002F000124C236003E0104B4343104C236003E097
:100300000D4B0E4C236000BF00BF064B5B68C3F370
:1003100003130C4CE15C094B1B68CB40074C23607A
:1003200010BD000000100240002002400000FFF855
:10033000FFFFF6FE08ED00E000127A00000000204A
:1003400000093D000400002030B943F2DB028100C7
:10035000A1F1C0410A6005E043F2D2028100A1F19F
:10036000C0410A606FF07042411C8900A1F1C04198
:100370000A608100A1F1C041C1F804217047102832
:100380000AD118214FF020421166402151664FF0EA
:10039000FC319166D16610E01821F74A11604021C6
:1003A0004FF02042C2F884104FF0FC31F24A08327C
:1003B00011604FF02042C2F88C1070471820EE49AF
:1003C0002031086000200906C1F8A4004FF0FC307D
:1003D000E94928310860091D0860091D0860704757
:1003E000D0E901121143C268114302691143426905
:1003F000114382691143C2691143026A1143426A7F
:100400001143826A1143C26A1143026B11430268AD
:100410009200A2F1C0421160816808290BD10168E5
:100420008900A1F1C041096841F0400201688900DA
:10043000A1F1C0410A60416B0968426B526841EA10
:100440000211426B926841EA0221426B928941EAB1
:100450000241426B128A41EA0251426B127D41EA2B
:100460000261426B926911430268521C9200A2F130
:10047000C0421160C16AB1F5804F1BD1816B096820
:10048000826B526841EA0211826B926841EA022152
:10049000826B128A41EA0251826B127D41EA02614B
:1004A000826B9269114302689200A2F1C042C2F8C5
:1004B000041107E06FF0704201688900A1F1C041AA
:1004C000C1F80421704730B50021002200234468A0
:1004D00044F0080485682C43C5682C4305692C4307
:1004E000456944EA4524856944EA4531C46924687C
:1004F000C5696D6844EA0524C5692D8944EA054447
:10050000C5692D7B44EA0562046A2468056A6D6842
:1005100044EA0524056A2D8944EA0544056A2D7BD1
:1005200044EA05630468102C05D14FF0204421668D
:10053000A266E36608E0904C21604FF02044C4F8C6
:1005400088208D4C0C34236030BD016841F01001CF
:10055000426841EA4221826841EA4231864A2032B9
:100560001160C1680968C268526841EA0221C26824
:10057000128941EA0241C268127B41EA02617E4A65
:1005800028321160016909680269526841EA022152
:100590000269128941EA02410269127B41EA026161
:1005A000754A2C321160416909684269526841EA12
:1005B00002214269128941EA02414269127B41EA01
:1005C00002614FF02042C2F8B01070470021016074
:1005D0000221416000218160C1600161416181614E
:1005E000C16101624FF48051416249008162002182
:1005F000C16201630F21426B1160426B5160FF21A8
:10060000426B91600F21426BD160426B1161426B72
:1006100051610021426B91610F21826B1160826BED
:100620005160FF21826B91600F21826BD160826BE0
:100630001161826B51610021826B916170471021C1
:100640000160002141608160C1600161416181619F
:10065000FC21C2691160C2695160C2699160C269BE
:10066000D160026A1160026A5160026A9160026A96
:10067000D16070470021016041608160FC21C26847
:100680001160C2685160C2689160C268D16002693D
:10069000116002695160026991600269D16042692A
:1006A000116042695160426991604269D16070474E
:1006B00051B18200A2F1C042126842F001038200EF
:1006C000A2F1C042136009E08200A2F1C0421268A8
:1006D0002A4B1A408300A3F1C0431A60704799B1B6
:1006E000102808D14FF02042126E42F004024FF061
:1006F00020431A661DE0204A126842F004024FF0BF
:100700002043C3F8802014E0102809D14FF0204284
:10071000126E1A4BDB1E1A404FF020431A6608E097
:10072000154A1268154BDB1E1A404FF02043C3F8E0
:100730008020704748B110492031096841F0040118
:100740004FF02042C2F8A01009E00B49203109689F
:100750000A4AD21E11404FF02042C2F8A010704742
:10076000B9B110280CD14FF02042126E42F0400275
:100770004FF020431A661FE0800000A0FEFF0F002C
:10078000724A126842F040024FF02043C3F88020C2
:1007900012E0102808D14FF02042126E6C4B1A4024
:1007A0004FF020431A6607E0684A1268684B1A4007
:1007B0004FF02043C3F880207047014600201029E5
:1007C00003D14FF02042506F02E0604A14321068AB
:1007D000704710B5F2B1102807D14FF020435B6E7F
:1007E0000B434FF02044636632E0B0F5807F08D1C0
:1007F000564B1B1D1B680B434FF02044C4F884303C
:1008000026E0524B24331B680B434FF02044C4F8BE
:10081000A4301DE0102807D14FF020435B6E8B43BE
:100820004FF02044636613E0B0F5807F08D1474B5A
:100830001B1D1B688B434FF02044C4F8843007E035
:10084000424B24331B688B434FF02044C4F8A43040
:1008500010BD10B5024600200023102A03D14FF02E
:100860002044636E09E0B2F5807F03D1374C241D2C
:10087000236802E0354C2434236803EA01040CB1F8
:10088000012000E0002010BD102807D14FF02042C9
:10089000526E8A434FF020435A6613E0B0F5807FD2
:1008A00008D12A4A121D12688A434FF02043C3F828
:1008B000842007E0254A243212688A434FF02043FF
:1008C000C3F8A420704770B502460020002300241E
:1008D0000025102A03D14FF02046736E09E0B2F5CF
:1008E000807F03D1194E361D336802E0174E24363F
:1008F000336803EA010403EAD10514B10DB1012004
:1009000000E0002070BD102808D14FF02042526E48
:1009100022EAD1024FF020435A6615E0B0F5807FFD
:1009200009D10A4A121D126822EAD1024FF020436F
:10093000C3F8842008E0054A2432126822EAD10272
:100940004FF02043C3F8A42070470000800000A0AF
:10095000BFFF0F0010B50446CC48844208D10121E6
:10096000042000F02DFB0021042000F029FB46E0CC
:10097000C748844208D10121082000F021FB002152
:10098000082000F01DFB3AE0C248844208D1012152
:10099000102000F015FB0021102000F011FB2EE0CC
:1009A000BD48844208D10121202000F009FB00212C
:1009B000202000F005FB22E0B848844208D1012144
:1009C000402000F0FDFA0021402000F0F9FA16E086
:1009D000B348844208D10121802000F0F1FA0021BF
:1009E000802000F0EDFA0AE0AE48844207D10121F0
:1009F000801500F0E5FA0021A01500F0E1FA10BD25
:100A000010B50121084600F0DBFA0021012000F0BA
:100A1000D7FA10BD2DE9F04102460025002600203E
:100A200000230024002791F803C00CF00F0591F873
:100A300003C00CF0100CBCF1000F03D091F802C001
:100A40004CEA050591F800C0BCF1000F31D01468E4
:100A500000202BE04FF0010C0CFA00F3B1F800C0BD
:100A60000CEA03069E4220D183004FF00F0C0CFAD3
:100A700003F7BC4305FA03FC4CEA040491F803C0F5
:100A8000BCF1280F06D14FF0010C0CFA00FCC2F8A3
:100A900014C00AE091F803C0BCF1480F05D14FF033
:100AA000010C0CFA00FCC2F810C0401C0828D1D37D
:100AB0001460B1F800C0BCF1FF0F34DD54680020B1
:100AC0002EE000F1080C4FF0010808FA0CF3B1F821
:100AD00000C00CEA03069E4221D183004FF00F0CA8
:100AE0000CFA03F7BC4305FA03FC4CEA040491F842
:100AF00003C0BCF1280F05D100F1080C08FA0CF86E
:100B0000C2F8148091F803C0BCF1480F07D100F17E
:100B1000080C4FF0010808FA0CF8C2F81080401CCD
:100B20000828CED35460BDE8F0814FF6FF710180F4
:100B3000022181700421C170704702460020936831
:100B40000B400BB1012000E000207047014688688F
:100B500080B2704702460020D3680B400BB10120E1
:100B600000E0002070470146C86880B2704701610C
:100B70007047416170470AB1016100E0416170470F
:100B8000C16070474FF480320A43826181618261A3
:100B900082698269704702460020434B18684FF60D
:100BA0008073184040EA021008433F4B18607047BA
:100BB0003E49C8617047F0B50A4600230024002171
:100BC000002500F00046B6F1004F02D1364EF16923
:100BD00001E0354E7168C0F3034583B200F440165E
:100BE000B6F5401F08D121F070612F4E766826F0CF
:100BF00070662D4F7E6012E000F48016B6F5801FFF
:100C000006D1032606FA05F4A14341F0706106E01F
:100C1000460D360103FA06F6B14341F0706122B188
:100C2000460D360103FA06F6314300F00046B6F1F0
:100C3000004F02D11C4EF16101E01B4E7160F0BD0E
:100C400030B500228B071C0F0F2303FA04F2164B5A
:100C500008338C1053F824309343134C08348D1010
:100C600044F8253023468C1053F824308C07240F89
:100C700000FA04F423430C4C08348D1044F825305A
:100C800030BD0A49DC3108607047000000080140AF
:100C9000000C014000100140001401400018014008
:100CA000001C0140002001400000014000002042E3
:100CB000DF48006840F00100DD49086008464068F0
:100CC000DC490840DA49486008460068DA490840CB
:100CD000D74908600846006820F48020086008466C
:100CE000406820F4FE0048604FF41F0088607047A1
:100CF000CF49096821F48031CD4A11601146096855
:100D000021F480211160B0F5803F03D0B0F5802F31
:100D10000ED106E0C649096841F48031C44A116029
:100D200007E0C349096841F4A021C14A116000E00D
:100D300000BF00BF704710B501460022002300200D
:100D40004A11012A02D1BA4C236806E0022A02D1D4
:100D5000B74C236A01E0B64C636A01F01F0201241C
:100D600094401C400CB1012000E0002010BD38B5BB
:100D7000002000900024002500BF3120FFF7DBFF9A
:100D800005460098401C00900098B0F5A06F01D077
:100D9000002DF2D03120FFF7CEFF08B1012400E092
:100DA0000024204638BD01460020A14A106820F0EA
:100DB000F80040EAC10010607047A0490860704721
:100DC000024600209A4B586820F47C1042EA010346
:100DD0001843974B5860704798490866704701461A
:100DE0000020934A506820F0030008435060704789
:100DF0008F48406800F00C007047014600208C4A84
:100E0000506820F0F0000843506070470146002011
:100E1000874A506820F4E0600843506070470146FC
:100E20000020834A506820F4605040EAC1005060BE
:100E3000704729B17E4A527A02437D4B5A7204E0D0
:100E40007B4A527A82437A4B5A7270477B49D83137
:100E50000860704701460020754A506820F4404001
:100E60000843506070470021714A20321170704A67
:100E700082F82010012802D004280AD104E00121C0
:100E80006B4A2032117005E00521694A2032117049
:100E900000E000BF00BF70476949086070476449BF
:100EA000096A0143624A1162704765494439086022
:100EB000704730B500210022002400235C4D6D688E
:100EC00005F00C0121B1042905D0082923D105E042
:100ED0005C4D056022E05B4D05601FE0544D6D6880
:100EE00005F47012524D6D6805F48034022505EB4F
:100EF00092421CB9544D554305600BE04C4D6D6852
:100F000005F400351DB1504D5543056002E04D4DCF
:100F10005543056002E04B4D056000BF00BF444DE6
:100F20006D6805F0F0010909484D6B5C0568DD400E
:100F300045603F4D6D6805F4E061090A434D6B5C07
:100F40004568DD4085603A4D6D6805F46051C90A19
:100F50003E4D6B5C4568DD40C560354D6D6805F400
:100F60004041890B3A4D6B5CC568B5FBF3F50561F3
:100F700030BD29B12E4A526902432D4B5A6104E01B
:100F80002B4A526982432A4B5A61704729B1284A39
:100F900092690243264B9A6104E0254A9269824392
:100FA000234B9A61704729B1214AD2690243204BF1
:100FB000DA6104E01E4AD26982431D4BDA61704750
:100FC00029B11B4AD2680243194BDA6004E0184A7F
:100FD000D2688243164BDA60704729B1144A12690D
:100FE0000243134B1A6104E0114A12698243104B09
:100FF0001A61704712494039086070470F49C86448
:1010000070470B49C87170470948406A40F08070CA
:1010100007494862704701460020054A92680A4025
:101020000AB1012000E00020704701498872704732
:10103000001002400000FFF8FFFFF6FE00004242F1
:101040008004424200127A0000093D001400002092
:101050002400002010B50446BE48844208D1012176
:101060008014FFF7ADFF0021A014FFF7A9FF16E0E1
:10107000B948844208D101210014FFF7AEFF0021D6
:101080002014FFF7AAFF0AE0B448844207D10121E7
:10109000C013FFF7A2FF0021E013FFF79EFF10BD72
:1010A00010B50022028802F441520B884C88234379
:1010B0008C882343CC8823430C8923434C892343C6
:1010C0008C892343CC8923431A430280838B4FF2BC
:1010D000FF74234083830B8A038210BD2DE9F04FF8
:1010E00085B005460C464FF0000902274FF0000876
:1010F0004FF0010B0026B246A88B4FF2400108408A
:10110000A88302202884B5F81C90A068022801D189
:1011100000BF38E0A08810B94FF0010B01E04FF09C
:10112000020B8D48854200D100E000BF6846FFF702
:10113000C0FEDDF800A0E088B0F5007F0AD14FEADC
:101140001A2000EB80004000A168B0FBF1F0401DC8
:1011500086B20BE04FEA4B10BAFBF0F000EB8000D8
:101160004000A168B0FBF1F0401D86B20A20B6FB3A
:10117000F0F606F00108A6EB0800C0F34F074FF6A3
:10118000FF7000EA0828022F01DBFF2F02DD022793
:101190004FF00008E08840EA080038432884A0881F
:1011A000A1890843618808432188084340F400600E
:1011B00040EA0909A5F81C9005B0BDE8F08F0021B0
:1011C000018041808180C180018141818181C18113
:1011D0000721018270470021018041808180C18008
:1011E0000221816000218181704721B1028842F093
:1011F0004002028004E002884FF6BF731A4002806A
:10120000704721B1828B42F48062828304E0828B3A
:101210004FF6FF331A408283704730B50024002315
:101220000C110125A540ABB21AB185881D438580FC
:1012300002E085889D43858030BD1AB183880B43C9
:10124000838002E083888B4383807047818170476D
:101250000146888970474FF6FF62914204D00288A8
:1012600042F48072028004E002884FF6FF631A4065
:101270000280704721B1828842F00402828004E03B
:1012800082884FF6FB731A408280704702884FF2C3
:10129000FF731A40028002880A4302807047018867
:1012A00041F480510180704721B1028842F400521C
:1012B000028004E002884DF6FF731A4002807047F6
:1012C00002460020012901D0108B00E0908A70476F
:1012D0000146088A7047B1F5804F04D1028842F474
:1012E0008042028004E002884BF6FF731A400280BD
:1012F00070470246002013890B400BB1012000E02B
:1013000000207047CA4302817047F0B502460020B2
:1013100000240023002501F00F070126BE40B4B2CF
:101320000B1101269E40B3B2968806EA0305168982
:10133000264016B10DB1012000E00020F0BD10B52F
:10134000002201F00F040123A3409AB2D34303818A
:1013500010BD00000030014000380040003C00405B
:1013600010B50446FB48844209D101218803FFF7E8
:1013700027FE00214FF48040FFF722FE32E0F648BE
:10138000844209D101214804FFF727FE00214FF4D0
:101390000030FFF722FE25E0F048844209D1012108
:1013A0008804FFF71AFE00214FF48020FFF715FE96
:1013B00018E0EB48844209D10121C804FFF70DFE73
:1013C00000214FF40020FFF708FE0BE0E5488442BF
:1013D00008D101210805FFF700FE00214FF480101D
:1013E000FFF7FBFD10BD2DE9F04786B005460E4620
:1013F0000024A24600BFA1460027B08900B100BF6B
:101400002F462C8A4CF6FF700440F08804432C824F
:10141000AC894EF6F3100440B088318908437189D5
:1014200008430443AC81AC8A4FF6FF400440B089C6
:101430000443AC8201A8FFF73CFDC648874202D1B5
:10144000DDF810A001E0DDF80CA0A88900F4004050
:1014500040B10AEBCA0000EB0A1031684900B0FB4A
:10146000F1F807E00AEBCA0000EB0A1031688900C6
:10147000B0FBF1F86420B8FBF0F00401200964210E
:1014800001FB1089A88900F4004040B1322000EB34
:10149000C900B0FBF1F000F00700044308E032207F
:1014A00000EB09106421B0FBF1F000F00F000443E1
:1014B0002C8106B0BDE8F0874FF416510160002181
:1014C0008180C18001810C2141810021818170478F
:1014D00010B502460020108A4FF2FF0318400B8817
:1014E0004C8823438C882343CC88234318431082A1
:1014F00010BD0021018041808180C180704721B1F1
:10150000828942F40052828104E082894DF6FF73A1
:101510001A4082817047F0B503460024002600255A
:10152000002040F66A17B94200D100BF1846C1F347
:10153000421401F01F06012707FA06F5012C01D11C
:101540000C3004E0022C01D1103000E014301AB14C
:1015500007682F43076002E00768AF430760F0BDEC
:101560001AB1838A0B43838202E0838A8B4383828E
:101570007047028A4FF6F0731A400282028A0A43C9
:101580000282704782894FF2FF731A4082818289FA
:101590000A438281704721B1828942F0020282812E
:1015A00004E082894FF6FD731A4082817047028AF7
:1015B0004FF6DF731A400282028A0A4302827047A2
:1015C00021B1028A42F48042028204E0028A4BF690
:1015D000FF731A4002827047C1F30802828070478D
:1015E00001468888C0F308007047818941F00101F5
:1015F00081817047028BD2B20283028B42EA0122C0
:1016000002837047028B02F47F420283028B0A43FB
:101610000283704721B1828A42F02002828204E074
:10162000828A4FF6DF731A408282704721B1828A24
:1016300042F01002828204E0828A4FF6EF731A4071
:101640008282704721B1828A42F00802828204E0DD
:10165000828A4FF6F7731A408282704721B18289DD
:1016600042F40042828103E08289C2F30E02828149
:10167000704721B1828A42F40062828204E0828A49
:101680004FF2FF731A4082827047828A4FF6FB73D3
:101690001A408282828A0A438282704721B1828AFA
:1016A00042F00202828204E0828A4FF6FD731A4001
:1016B0008282704702460020B1F5007F00D100BF52
:1016C00013880B400BB1012000E00020704701F4AB
:1016D0000072B2F5007F00D100BFCA43028070479C
:1016E00070B50246002400230025002040F66A164B
:1016F000B14200D100BFC1F3421501F01F03012622
:1017000006FA03F3012D02D19689334006E0022D3B
:1017100002D1168A334001E0968A33400C1201262A
:1017200006FA04F41688344013B10CB1012000E02D
:10173000002070BD10B50022002340F66A14A142BB
:1017400000D100BF0A1201249440A3B2DC430480FC
:1017500010BD000000380140004400400048004037
:10176000004C00400050004094B001F090F806207A
:1017700001F004F86A4801F084FE00214FF478403B
:1017800001F085FE4FF4A073F0220021084601F01D
:10179000D9F801F079FEC48862A1204601F0A3FACD
:1017A00000F0AAF900F0D8F900F0EEFA00F093FB8F
:1017B00000F0B5FB002823D160A002F089FC2020B6
:1017C000664908600120091F0860022008600021A6
:1017D0001F2001F05CFE01F057FEC0888004040C5D
:1017E0005FA1204601F07FFA01F04EFEC08800EBB9
:1017F000800084B25FA1204601F075FA00BFFEE7C9
:1018000066A002F065FC6EA002F062FC00F0E4FA53
:101810004FF0E020006940F001004FF0E021086146
:101820007DE06F480068002879D06E48B0F9043038
:10183000B0F90220B0F900106BA002F049FC6F482B
:10184000B0F90430B0F90220B0F900106CA002F039
:101850003FFC7148006802F04CFA044622460B46F1
:101860006EA002F035FC01F00FFEC088C0EBC00096
:1018700084B26EA1204601F036FA5A48B0F904004D
:1018800000905848B0F90230B0F9002058A102A8E1
:1018900002F02EFC01F0F8FDC088C004040C02A97F
:1018A000204601F020FA01F0EFFDC08800EB400176
:1018B00001EBC00084B261A1204601F014FA4F4848
:1018C000B0F9040000904D48B0F90230B0F90020A2
:1018D00047A102A802F00CFC01F0D6FDC08800EB85
:1018E00040008004040C02A9204601F0FCF94A489B
:1018F000006802F0FEF9044622460B4653A102A8F6
:1019000002F0F6FB01F0C0FDC088C0EB001084B20D
:1019100002A9204601F0E7F900203149086080E77C
:1019200044000020546869732069732061204D5081
:1019300055363035302064656D6F00000D0A20C3C8
:10194000BBD3D0BCECB2E2B5BD4D505536303530CE
:10195000B4ABB8D0C6F7A3A1200D0A00140C014007
:101960004E6F204D505536303530206465746563B8
:1019700074656400506C6561736520636865636BB2
:101980002074686520686172647761726520636F96
:101990006E6E656374696F6E210000000D0A20BBD6
:1019A000B6D3ADCAB9D3C3D2B0BBF0202053544D87
:1019B000333220BFAAB7A2B0E5A1A30D0A000000F0
:1019C0000D0A20D5E2CAC7D2BBB8F64D5055363005
:1019D0003530B2E2CAD4C0FDB3CC200D0A000000FD
:1019E0004000002028000020BCD3CBD9B6C8A3BA41
:1019F0002538642538642538640000002E00002056
:101A000020202020CDD3C2DDD2C7A3BA253864253B
:101A10003864253864000000340000202020202095
:101A2000CEC2B6C825382E32660D0A004163636502
:101A30006C65726174696F6E000000004779726FA7
:101A4000202020202020203A0000000054656D70E6
:101A500065727475726520203A25382E3266000052
:101A6000704700BFFEE700BFFEE700BFFEE700BF14
:101A7000FEE770477047704710B5002407E018482C
:101A800050F82400401C164941F82400641C022C24
:101A9000F5DB13480068B0F57A7F08D300201049C1
:101AA00008601048006880F001000E4908600C488A
:101AB0004068B0F5FA7F11D30020094948600A4810
:101AC000006858B9094800F042FA094800F05FFA86
:101AD000084800F08CFA01200349086010BD00009E
:101AE000380000200C0C014040000020280000209D
:101AF0002E0000203400002008B501210820FFF747
:101B000045FA2020ADF8000010208DF803000320D6
:101B10008DF8020069460F48FEF77CFF0120ADF802
:101B2000000069460B48FEF775FF0220ADF8000083
:101B300069460848FEF76EFF20210648FFF717F8B0
:101B400001210448FFF713F802210248FFF70FF8BC
:101B500008BD0000000C014000B585B00121042043
:101B6000FFF714FA01218803FFF710FA18208DF807
:101B700013004FF40070ADF8100003208DF8120030
:101B800004A92148FEF746FF04208DF81300000247
:101B9000ADF8100004A91C48FEF73CFF4FF4E130FB
:101BA00000900020ADF80400ADF80600ADF8080084
:101BB000ADF80C000C20ADF80A0069461348FFF799
:101BC00012FC01211148FFF79AFC05B000BD70B569
:101BD00004460D46E1B20D48FFF7FEFC00BF802130
:101BE0000A48FFF767FD0028F9D0204670BD10B500
:101BF000044600BF20210548FFF75CFD0028F9D00E
:101C00000248FFF7EDFC10BD00080140003801401C
:101C1000002001E0411CC8B20A28FBDB704710B568
:101C200080206C49086040200860FFF7F1FF8020A9
:101C30006849091D0860FFF7EBFF40206549091D51
:101C40000860FFF7E5FF10BD10B580206149091D50
:101C500008604020091F0860FFF7DAFF80205D4917
:101C6000086010BD70B50446002520E004F0800037
:101C700018B180205749086003E080205549091DAC
:101C80000860FFF7C5FF402052490860FFF7C0FF1A
:101C900040205049091D0860072D02D18020091FEE
:101CA00008606006040EFFF7B3FF681CC5B2082D7C
:101CB000DCDB70BD10B580204649091D0860FFF7C8
:101CC000A7FF402043490860FFF7A2FF4020414999
:101CD000091D0860FFF79CFF80203E49086010BD89
:101CE00010B580203B490860FFF792FF402039493A
:101CF0000860FFF78DFF40203649091D0860FFF797
:101D000087FF10BD70B505460024002616E060066A
:101D1000040E40202F490860FFF77AFF2D4808384D
:101D2000006800F0800008B1601CC4B2402029495E
:101D3000091D0860FFF76CFF701CC6B2082EE6DBB9
:101D400015B9FFF7CDFF01E0FFF7B4FF204670BDE6
:101D500010B580201F490860FFF75AFF40201D4939
:101D60000860FFF755FF1B480838006800F0800046
:101D700008B1012400E0002440201649091D086034
:101D8000FFF746FF204610BD08B501210820FFF7E8
:101D9000FDF8C020ADF8000003208DF802001420EB
:101DA0008DF8030069460B481038FEF733FEFFF745
:101DB0004BFF08BD70B50446FFF7E6FFFFF72FFFA6
:101DC0002046FFF74FFFFFF7C3FF0546FFF73CFF35
:101DD000284670BD100C014030B51A4800684FF419
:101DE0007A72B0FBF2F1B1F1807F01D301201DE0E6
:101DF00021F07F40401E4FF0E022506150170F222B
:101E0000002807DA13071D0E0F4B00F00F04241FE4
:101E10001D5503E013071C0E0C4B1C5400BF002083
:101E20004FF0E022906107201061002008B100BF50
:101E3000FEE74FF0E020006940F001004FF0E021A4
:101E4000086130BD0000002018ED00E000E400E073
:101E500070B505460C46FFF7E2FED020FFF702FF03
:101E6000FFF776FF2846FFF7FDFEFFF771FF2046DC
:101E7000FFF7F8FEFFF76CFFFFF7E6FE70BD2DE9F8
:101E8000F04107460C461546FFF7C9FED020FFF784
:101E9000E9FEFFF75DFF3846FFF7E4FEFFF758FF66
:101EA000FFF7BDFED120FFF7DDFEFFF751FF002653
:101EB00006E00120FFF726FF2070641C701CC6B2EC
:101EC000681EB042F5DC0020FFF71CFF2070FFF712
:101ED000BBFEBDE8F08170B50024002500BF06E020
:101EE000002500E06D1CB5F57A7FFBDB641CB4F5C2
:101EF0007A7FF5DB00216B20FFF7AAFF072119206D
:101F0000FFF7A6FF06211A20FFF7A2FF00211C20E1
:101F1000FFF79EFF18211B20FFF79AFF70BD08B541
:101F200000200090012269467520FFF7A8FF9DF868
:101F30000000682804D0404802F0CAF8002008BD1C
:101F40009DF800103DA002F0C3F80120F7E71CB592
:101F50000446062269463B20FFF791FF9DF80100E9
:101F60009DF8001040EA012000B220809DF8030097
:101F70009DF8021040EA012000B260809DF8050043
:101F80009DF8041040EA012000B2A0801CBD1CB5E1
:101F90000446062269464320FFF771FF9DF80100C1
:101FA0009DF8001040EA012000B220809DF8030057
:101FB0009DF8021040EA012000B260809DF8050003
:101FC0009DF8041040EA012000B2A0801CBD38B585
:101FD0000446022269464120FFF751FF9DF80100A7
:101FE0009DF8001040EA012000B2208038BD2DE9A4
:101FF000F84F8246022269464120FFF740FF9DF8D4
:1020000001009DF8001040EA01200FFA80FB5846BD
:1020100001F05EFE804600220D4B01F0EAFD06460F
:102020000C4A0D4B01F03EFD044601F075FECAF866
:102030000000BDE8F88F0000348500084D5055368B
:10204000303530204944203D202564200D0A000011
:1020500000407540A4703D0AD74342402DE9F0414D
:1020600080460C461048007820B901F04BFA012058
:102070000D4908702512E6B2A5F1A101C1EB0112CC
:1020800002EB411106EB4101A1390802C11700EB37
:102090005171CF10054839182022404601F0DFFB6E
:1020A0000020BDE8F08100005C0000200030180036
:1020B00001B502E00098401E009000980028F9D178
:1020C00008BD08B501216020FEF760FF18208DF8DB
:1020D000030003208DF802004FF48040ADF80000AB
:1020E0006946FE48FEF796FC4FF40040ADF800004C
:1020F0006946FA48FEF78EFC0120ADF800006946FB
:10210000F648FEF787FC0220ADF800006946F34868
:10211000FEF780FC8020ADF800006946F048FEF72D
:1021200079FC4FF48070ADF800006946EC48FEF78A
:1021300071FC4FF40070ADF800006946E848FEF706
:1021400069FC4FF48060ADF800006946E448FEF792
:1021500061FC4FF40060ADF800006946E048FEF70E
:1021600059FC4FF48050ADF800006946DC48FEF79A
:1021700051FC4FF40050ADF800006946D848FEF716
:1021800049FC4FF48040ADF800006946D448FEF7A2
:1021900041FC4FF40040ADF800006946D048FEF71E
:1021A00039FC4FF48070ADF800006946CB48FEF76B
:1021B00031FC4FF40070ADF800006946C748FEF7E7
:1021C00029FC4FF48060ADF800006946C348FEF773
:1021D00021FC18208DF8030003208DF802008020D8
:1021E000ADF800006946BD48FEF714FC2020ADF8AC
:1021F00000006946B948FEF70DFC1020ADF800005C
:102200006946B648FEF706FC4FF40060ADF80000E2
:102210006946B248FEF7FEFB10208DF8030003204C
:102220008DF802000220ADF800006946AC48FEF7C8
:10223000F1FB10208DF8030003208DF802004FF40D
:102240008050ADF800006946A448FEF7E3FB08BDE6
:1022500000B597B03C2108A801F019FC1C2101A889
:1022600001F015FC01210802FEF783FE0120019018
:1022700004200390800607900020029004900590AF
:1022800006900890099008200A9010200B900020DA
:102290000C900E900F9010904FF4805011900020F1
:1022A00012901390149001A81590169008A8FEF7AC
:1022B00097F801210020FEF7FBF917B000BD10B51B
:1022C0000024042001F002F900BF8648008800BF06
:1022D0008448008801F001F904464FF6FF7000EAD7
:1022E000042401F0FAF8044348F25250844201D128
:1022F000204610BDD32001F0E9F800BF79480088DE
:1023000000BF7848008801F0E8F804464FF6FF70F7
:1023100000EA042401F0E1F8044349F24130844228
:1023200001D12046E5E70020E3E710B5FFF7C7FF3E
:102330006D4908800846008849F2413188427CD1C5
:10234000CF2001F0C3F8002001F0C4F8812001F093
:10235000C1F8302001F0BEF8ED2001F0B7F864209C
:1023600001F0B8F8032001F0B5F8122001F0B2F83E
:10237000812001F0AFF8E82001F0A8F8852001F0F5
:10238000A9F8102001F0A6F8782001F0A3F8CB20DE
:1023900001F09CF8392001F09DF82C2001F09AF80A
:1023A000002001F097F8342001F094F8062001F0A5
:1023B00091F8F72001F08AF8202001F08BF8EA204C
:1023C00001F084F8002001F085F8002001F082F887
:1023D000B12001F07BF8002001F07CF81B2001F017
:1023E00079F8B62001F072F80A2001F073F8A22003
:1023F00001F070F8C02001F069F8352001F06AF8AA
:10240000C12001F063F8112001F064F8C52001F04B
:102410005DF8452001F05EF8452001F05BF8C7202B
:1024200001F054F8A22001F055F8F22001F04EF826
:10243000002001F04FF8262000E0A2E001F046F86D
:10244000012001F047F8E02001F040F80F2001F0F2
:1024500041F8262001F03EF8242001F03BF80B2043
:1024600001F038F80E2001F035F8092001F032F8BB
:10247000542001F02FF8A82001F02CF8462001F09C
:1024800029F80C2001F026F8172001F023F8092084
:1024900001F020F80F2001F01DF8072001F01AF8D4
:1024A000002001F017F8E12001F010F8002001F001
:1024B00011F8192001F00EF81B2001F00BF8042090
:1024C00001F008F8102001F005F8072001F002F8EB
:1024D0002A2000F0FFFF472008E000000014014020
:1024E00000180140000002606600002000F0F2FFCA
:1024F000392000F0EFFF032000F0ECFF062000F091
:10250000E9FF062000F0E6FF302000F0E3FF38206E
:1025100000F0E0FF0F2000F0DDFF362000F0D6FFD6
:10252000C82000F0D7FF2A2000F0D0FF002000F0E4
:10253000D1FF002000F0CEFF002000F0CBFFEF2005
:1025400000F0C8FF2B2000F0C1FF002000F0C2FF08
:10255000002000F0BFFF012000F0BCFF3F2000F092
:10256000B9FF3A2000F0B2FF552000F0B3FF112070
:1025700000F0ACFFFD48FFF79BFD292000F0A6FF0F
:10258000FBE0FB48008848F252518842F8D1CF2046
:1025900000F09CFF002000F09DFFC12000F09AFF9A
:1025A000302000F097FFED2000F090FF642000F055
:1025B00091FF032000F08EFF122000F08BFF81209E
:1025C00000F088FFE82000F081FF852000F082FF06
:1025D000102000F07FFF782000F07CFFCB2000F07F
:1025E00075FF392000F076FF2C2000F073FF0020EB
:1025F00000F070FF342000F06DFF022000F06AFF51
:10260000F72000F063FF202000F064FFEA2000F0D4
:102610005DFF002000F05EFF002000F05BFFC020A7
:1026200000F054FF212000F055FFC12000F04EFFC4
:10263000112000F04FFFC52000F048FF2D2000F0D2
:1026400049FF332000F046FF362000F03FFF002016
:1026500000F040FF3A2000F039FF552000F03AFF2B
:10266000B12000F033FF002000F034FF172000F00D
:1026700031FFB62000F02AFF0A2000F02BFFA22035
:1026800000F028FFF62000F021FF012000F022FFDB
:10269000302000F01FFFF22000F018FF002000F0B3
:1026A00019FF262000F012FF012000F013FFE020A8
:1026B00000F00CFFD02000F00DFF002000F00AFF1A
:1026C000022000F007FF072000F004FF0B2000F0BD
:1026D00001FF1A2000F0FEFE312000F0FBFE542026
:1026E00000F0F8FE402000F0F5FE292000F0F2FE98
:1026F000122000F0EFFE122000F0ECFE122000F09D
:10270000E9FE172000F0E6FEE12000F0DFFED02019
:1027100000F0E0FE002000F0DDFE022000F0DAFE16
:10272000072000F0D7FE052000F0D4FE252000F0A1
:10273000D1FE2D2000F0CEFE442000F0CBFE45203F
:1027400000F0C8FE1C2000F0C5FE182000F0C2FEFC
:10275000162000F0BFFE1C2000F0BCFE1D2000F083
:10276000B9FE112000F0B2FE8048FFF7A1FC29203D
:1027700000F0ACFE2C2000F0A9FE10BD10B5044600
:10278000072C00DD10BD7B480470204604EBD0719F
:102790004910A4EB410139B9F020774908804FF482
:1027A000A0707649088006E04FF4A0707249088056
:1027B000F02072490880362000F088FE6C480088BE
:1027C00049F24131884205D1082141EA441000F024
:1027D00081FE0AE06648008848F25251884204D1DE
:1027E000002141EA441000F075FE2A2000F06EFE40
:1027F000002000F06FFE002000F06CFE5E490988AA
:10280000491EC1F3072000F065FE5B490978491EA7
:10281000C8B200F05FFE2B2000F058FE002000F050
:1028200059FE002000F056FE54490988491EC1F3A4
:10283000072000F04FFE51490978491EC8B200F048
:1028400049FE2C2000F042FE00BF9BE710B502219C
:102850004B48FEF78EF940F6FF20FFF729FC0221D6
:102860004748FEF784F940F6FF20FFF721FC10BD32
:1028700010B504462CB14FF480514248FEF779F967
:1028800004E04FF480513F48FEF771F910BD10B5D8
:10289000FFF717FCFFF7DCFC0120FFF7E9FFFFF76C
:1028A000D5FFFFF742FD33480078FFF767FF10BD03
:1028B0002DE9F04104460D4616461F462A2000F039
:1028C00005FE201200F006FEE0B200F003FEA119A2
:1028D000491EC1F30F2000F0FDFDA119491EC8B229
:1028E00000F0F8FD2B2000F0F1FD281200F0F2FDC1
:1028F000E8B200F0EFFDE919491EC1F30F2000F026
:10290000E9FDE919491EC8B200F0E4FDBDE8F08117
:1029100070B504460D4601231A4629462046FFF7A6
:10292000C7FF70BD70B504460D4600262C2000F090
:10293000CDFD00BF03E0284600F0CCFD761CA6428A
:10294000F9D370BD2DE9F04106460F4614461D46E9
:102950002B46224639463046FFF7AAFF04FB05F016
:1029600009490988FFF7DEFFBDE8F081FCBF0200DE
:10297000660000206400002060000020620000204B
:1029800000180140001401406E00002070B505469B
:102990000C46FE48008885420CDAFD4800888442D7
:1029A00008DA21462846FFF7B3FFFA4801880120DC
:1029B000FFF7B8FF70BD70B5002400252E2000F091
:1029C00085FD00BFF448008800F087FD044600F054
:1029D00084FD054604F478404FF4FC6101EAC4012B
:1029E000084340EAE52070BD70B504460D4629460F
:1029F0002046FFF78DFFFFF7DEFF0646304670BD2D
:102A00002DE9FF4F83B081464FF0000AD346059869
:102A1000A0EB090504990698461ACDF8049004988D
:102A20000090002D01DD012705E00DB9002702E02F
:102A30004FF0FF376D42002E02DD4FF0010806E037
:102A400016B94FF0000802E04FF0FF387642B54269
:102A500001DD2C4600E034460020029019E0DDE95B
:102A60000010FFF793FFAA44B344A24505DDAAEB8B
:102A7000040A0198384480B20190A34505DDABEB10
:102A8000040B0098404480B200900298401C80B231
:102A90000290611C02988842E1DD07B0BDE8F08F2A
:102AA0002DE9F04104460D4616461F46DDF8188014
:102AB000B8F1000F0CD03B46324629462046FFF7BE
:102AC000F7FE06FB07F0B3490988FFF72BFF27E065
:102AD000A019401E82B22B4629462046FFF790FFE0
:102AE000E819401E83B2224629462046FFF788FF98
:102AF000E819401E83B2A019401E82B2E819401E98
:102B000081B22046FFF77CFFE919491E8BB2A1195B
:102B1000491E8AB2A119491E88B22946FFF770FFE3
:102B2000BDE8F0812DE9F05F05460E4691469B46D3
:102B300000240FFA89F70320A0EB49000FFA80FA6E
:102B400087E0BBF1000F40D0A0463BE006EB080257
:102B500091B22A1990B2FFF719FF06EB080291B261
:102B60002A1B90B2FFF712FF321991B2A5EB0802AF
:102B700090B2FFF70BFF321B91B2A5EB080290B2A7
:102B8000FFF704FFA6EB080291B22A1B90B2FFF7F1
:102B9000FDFEA6EB080291B22A1990B2FFF7F6FEED
:102BA000321B91B205EB080290B2FFF7EFFE32192B
:102BB00091B205EB080290B2FFF7E8FE08F10100C0
:102BC0000FFA80F8B845C1DD2FE0F21991B22A1949
:102BD00090B2FFF7DBFEF21991B22A1B90B2FFF719
:102BE000D5FE321991B2EA1B90B2FFF7CFFE321B2D
:102BF00091B2EA1B90B2FFF7C9FEF21B91B22A1BF9
:102C000090B2FFF7C3FEF21B91B22A1990B2FFF700
:102C1000BDFE321B91B2EA1990B2FFF7B7FE32192E
:102C200091B2EA1990B2FFF7B1FE601C04B2BAF19A
:102C3000000F05DAA000801D50440FFA80FA07E06B
:102C4000E01B80000A3050440FFA80FA781E07B269
:102C500000BFBC427FF775AFBDE8F09F2DE9F05F84
:102C6000804689461646A6F120001FFA80FA4B4995
:102C700009688988494A1268D28801FB02F0C117A5
:102C800000EB5171C1F3C7074448006800680AFBB4
:102C9000070B42480068C38840480068828849465C
:102CA0004046FFF705FE2C2000F010FC002416E043
:102CB000002510E01BF8040080212941084020B1C4
:102CC0003448008800F006FC03E03548008800F036
:102CD00001FC681CC5B2082DECDB601CC4B2BC4210
:102CE000E6DBBDE8F09F70B504460D46002624E003
:102CF00030462A4909688988084424490988884255
:102D000005DD002625480068C088204484B220469E
:102D100022490968C98808441D490988884201DD9B
:102D20000026A4B22A7821463046FFF797FF6D1C93
:102D30001A4800688088304486B228780028D7D1A5
:102D400070BD70B506460C46154631E03046134955
:102D50000968898808440D490988884205DD0026EC
:102D60000E480068C088204484B220460B49096898
:102D7000C988084406490988884201DD0026A4B2B2
:102D80002A7821463046FFF769FF0BE060000020FB
:102D9000620000206C00002000000260680000203B
:102DA0006E0000206D1CFB4800688088304486B2AD
:102DB00028780028CAD170BD70B506460C46154665
:102DC00024E02046F3490968C9880844F249098883
:102DD000884205DD0024EF4800688088304486B2D0
:102DE0003046EC49096889880844EC4909888842DA
:102DF00001DD0026A4B22A7821463046FFF72EFFD7
:102E00006D1CE4480068C088204484B228780028FB
:102E1000D7D170BD2DE9F04389B080468946174669
:102E200010231A4649464046FFF742FD2C2000F089
:102E30004DFB394601A8FFF711F9002422E001A853
:102E400010F814604FF6FF7000EA0626012000EB30
:102E5000440001A9085C064300250FE04FF4004040
:102E60002841304020B1CE48008800F033FB03E019
:102E7000CC48008800F02EFB681CC5B2102DEDDB9D
:102E8000601CC4B2102CDADB09B0BDE8F0832DE978
:102E9000F04105460F4614461FE028461030BF4952
:102EA0000988884203DD002507F1100087B2384603
:102EB0001030B9490988884201DD0025002726889D
:102EC000300200EB262086B2324639462846FFF70C
:102ED000A1FF05F1100085B2A41C20780028DCD1E8
:102EE000BDE8F0812DE9F04105460C46002648E09A
:102EF00020787E2825DC3046A64909688988084460
:102F0000A6490988884205DD0026A2480068C088D5
:102F1000284485B228469F490968C98808449E49C3
:102F20000988884201DD002600252278294630469E
:102F3000FFF794FE974800688088304486B2641C8E
:102F40001FE03046103095490988884203DD00268D
:102F500005F1100085B2284610308F490988884253
:102F600001DD002600252788380200EB272087B2E4
:102F70003A4629463046FFF74DFF06F1100086B26B
:102F8000A41C20780028B3D1BDE8F0812DE9F041E0
:102F900005460E46144648E020787E2825DC284663
:102FA0007C490968898808447C490988884205DD8C
:102FB000002578480068C088304486B2304675499C
:102FC0000968C988084474490988884201DD0025D8
:102FD0000026227831462846FFF740FE6D480068FB
:102FE0008088284485B2641C1FE0284610306B4955
:102FF0000988884203DD002506F1100086B23046BC
:10300000103065490988884201DD0025002627889F
:10301000380200EB272087B23A4631462846FFF7B0
:10302000F9FE05F1100085B2A41C20780028B3D168
:10303000BDE8F0812DE9F04106460D4614462CE02E
:103040002846103054490988884203DD002506F1DE
:10305000100086B23046103050490988884201DDA0
:103060000026002520787E2809DC22782946304673
:10307000FFF7F4FD641C05F1100085B20DE0278810
:10308000380200EB272087B23A4629463046FFF740
:10309000C1FE05F1100085B2A41C20780028CFD114
:1030A000BDE8F0812DE9FC4F0C461E464FEA004A70
:1030B0009AFBF2FA0AF1010ACDF804A04FEA044A99
:1030C0009AFBF6FA0AF1010ACDF800A04FF00009C8
:1030D000202801DDBDE8FC8F00FB04FABAF1000FE7
:1030E00000D1F7E700FB04FABAF5806F00DBF1E7E7
:1030F00002FB06FABAF1000F00D1EBE702FB06FA79
:10310000BAF5804F00DBE5E7274BDDF834A0BAF1D4
:10311000000F2BD100211FE0002517E0DDF82CA0C7
:103120001AF801A04FF0800B4BFA05FB0AEA0B0AD4
:10313000BAF1000F02D04FF0010A01E04FF0000A8F
:1031400003F801AB05F1010A1FFA8AF5082DE5DB4A
:1031500001F1010A1FFA8AF104FB00FA4FEAEA7B47
:103160000AEB5B7BB1EBEB0FD6DB36E000212BE00B
:10317000002523E0DDF82CA01AF801A04FF0800B09
:103180004BFA05FB0AEA0B0ABAF1000F0ED04FF01A
:10319000010A0DE0680000206200002060000020AD
:1031A0006C0000206E000020784000204FF0000AE4
:1031B00003F801AB05F1010A1FFA8AF5082DD9DBE6
:1031C00001F1010A1FFA8AF104FB00FA4FEAEA7BD7
:1031D0000AEB5B7BB1EBEB0FCADBC14BC14F4FF08E
:1031E000000C1AE04FF0000A4FEA194B00FB0B3EAF
:1031F000D0460AE00EEB1A4B9BF800B007F808B077
:10320000DDF804B0DA4408F101089045F2D3DDF8A6
:1032100000B0D94417440CF1010CB445E2D3DFF8F7
:10322000C4A2CDF830A0DDF830A00AF1010ACDF833
:1032300030A000BF4EE72DE9F05F81468A46144674
:103240001D46DDE90A6B0027B8462B46224651464B
:103250004846FFF72DFB2C2000F038F900BF14E0A2
:103260004FF000080EE016F8011B594504D19E48A6
:10327000008800F02FF903E09C48008800F02AF94C
:1032800008F10108A045EED37F1CAF42E8D3BDE8AA
:10329000F09F2DE9F04F8FB00646884614469946B8
:1032A000DDE9185B274669E03046384490490988D3
:1032B000884204DD002608EB09001FFA80F840462A
:1032C00048448C490988884201DD0026B0462878A8
:1032D000802825DD2746B5F800A04FEA0A2000EB3C
:1032E0002A201FFA80FA514605A8FEF7B7FE0121F1
:1032F00005AA0E984B46CDE9002002913A461021CE
:103300000846FFF7CFFE77484B463A464146CDE99F
:10331000000B3046FFF78FFFF01986B2AD1C2DE091
:10332000204604EBD071C1F34F0728782038C0B293
:103330000D9000237048C288DDE90D0150436E4AAC
:1033400092885043C217049000EB52706A4A126888
:1033500002EBE0008DE80B004B463A4618211020A6
:10336000FFF7A0FE5F484B463A464146CDE9000BC9
:103370003046FFF760FFF01986B26D1C28780028F0
:1033800092D10FB0BDE8F08F2DE9F04F8FB080469D
:103390000E4614461F46DDE9185A0E946BE030467F
:1033A000204453490988884204DD002608EB0400C4
:1033B0001FFA80F8404638444E490988884201DDAA
:1033C0000026B0462878802825DD0E94B5F80090B8
:1033D0004FEA092000EB29201FFA80F9494604A88A
:1033E000FEF73CFE012104AA0D983B46CDE90020E2
:1033F0000291102108460E9AFFF754FE39483B46C9
:10340000CDE9000A314640460E9AFFF714FFF01945
:1034100086B2AD1C2FE0204604EBD071C1F34F0102
:103420000E9128782038C0B20C9000233248C28810
:10343000DDE90C015043304A928800FB02FB4FEA61
:10344000EB700BEB50702C4A126802EBE0008DE839
:103450000B003B46182110200E9AFFF723FE21484F
:103460003B46CDE9000A314640460E9AFFF7E3FE9F
:10347000F01986B26D1C2878002890D10FB0BDE8F5
:10348000F08F1E49086070471C4800687047174A53
:103490001080154A11807047144A12880280124A1F
:1034A00012880A8070471149088070470E490880C9
:1034B000704770B50446FFF7E7FFC5882B460C48F8
:1034C000028821460020FFF73DFA70BD4FF0C04151
:1034D000088070470A49088070470948008870478B
:1034E00078400020780000206E0000206C00002052
:1034F00060000020620000204C00002068000020D6
:103500000000026000B587B001210803FDF73EFD11
:103510000121D420FDF73AFD0120ADF8040003207D
:103520008DF8060010208DF8070001A9FE48FDF770
:1035300071FA2020ADF8040018208DF8070001A9C9
:10354000FA48FDF767FA4020ADF8040001A9F748F2
:10355000FDF760FA8020ADF8040001A9F348FDF7FB
:1035600059FA0121F048FDF702FB0820ADF81400DC
:103570000120ADF810000220ADF80E000720ADF8D4
:1035800018000020ADF80C00ADF80800ADF81600EA
:103590004FF48270ADF80A004FF40070ADF81200DD
:1035A00002A9E348FDF77CFD0121E148FDF71DFE7E
:1035B00007B000BD10B504462146DEA000F088FD2E
:1035C000002010BD10B504464FF48050E549086056
:1035D0000AE0E4490868411EE24A116020B900206F
:1035E000FFF7E8FFC0B210BD0221D148FDF781FE10
:1035F0000028EED02146CE48FDF728FE4FF480503B
:10360000D84908600AE0D7490868411ED54A1160C8
:1036100020B90120FFF7CEFFC0B2E4E70121C44882
:10362000FDF767FE0028EED0C148FDF711FEC0B2DD
:10363000D9E710B500240121BB48FDF79AFA05200F
:10364000FFF7C0FF00BFFF20FFF7BCFF044604F0F8
:1036500001000028F7D10121B348FDF788FA10BD19
:1036600010B50121B048FDF784FA0620FFF7AAFF44
:103670000121AD48FDF77BFA10BD10B50446FFF7F8
:10368000EFFFFFF7D6FF0121A748FDF772FA2020D0
:10369000FFF798FFC4F30740FFF794FFC4F3072038
:1036A000FFF790FFE0B2FFF78DFF01219E48FDF785
:1036B0005EFAFFF7BEFF10BD10B5FFF7D1FF012185
:1036C0009948FDF756FAC720FFF77CFF012196487D
:1036D000FDF74DFAFFF7ADFF10BD70B505460C467E
:1036E0001646FFF7BDFF01218F48FDF742FA022081
:1036F000FFF768FFC4F30740FFF764FFC4F3072038
:10370000FFF760FFE0B2FFF75DFFB6F5807F04DDF5
:103710004FF4807694A000F0DBFC03E02878FFF7FC
:1037200051FF6D1C3000A6F101018EB2F6D10121CE
:103730007D48FDF71CFAFFF77CFF70BD2DE9F05FB7
:1037400007460E4614464FF00008C146C246002503
:10375000AB4606F0FF0ACAF10000C5B22046E117E9
:1037600004EB1161C1F30728E11704EB11610912A1
:10377000A4EB012101F0FF09BAF1000F20D1B8F14B
:10378000000F05D1224631463846FFF7A6FF64E018
:1037900009E04FF4807231463846FFF79EFF06F588
:1037A000807607F580775FEA0800A8F1010101F053
:1037B000FF08EED14A4631463846FFF78EFF4CE00F
:1037C000B8F1000F18D1A84510DDA9EB050000F0F5
:1037D000FF0B2A4631463846FFF77FFF2E442F4421
:1037E0005A4631463846FFF778FF36E022463146E2
:1037F0003846FFF772FF30E0601B84B22046E117C5
:1038000004EB1161C1F30728E11704EB1161091200
:10381000A4EB012101F0FF092A4631463846FFF7A3
:103820005CFF2E442F4409E04FF480723146384645
:10383000FFF753FF06F5807607F580775FEA08000B
:10384000A8F1010101F0FF08EED1B9F1000F04D099
:103850004A4631463846FFF740FFBDE8F09F70B555
:1038600005460C46164601212F48FDF782F9032034
:10387000FFF7A8FEC4F30740FFF7A4FEC4F3072038
:10388000FFF7A0FEE0B2FFF79DFE04E0FF20FFF788
:1038900099FE28706D1C3000A6F101018EB2F5D1A1
:1038A00001212148FDF763F970BD2DE9F0410024A5
:1038B00000250026002701211B48FDF75AF99F200B
:1038C000FFF780FEFF20FFF77DFE0546FF20FFF794
:1038D00079FE0646FF20FFF775FE074601211248D4
:1038E000FDF745F9280440EA062040EA070420468F
:1038F000BDE8F08110B5002401210B48FDF739F92E
:10390000AB20FFF75FFEFF20FFF75CFEFF20FFF715
:1039100059FEFF20FFF756FEFF20FFF753FE044637
:10392000012101483AE00000001001400008014078
:10393000003001403C3C2D464C4153482D455252ED
:103940004F522D3E3E535049B5C8B4FDB3ACCAB139
:10395000A3A16572726F72436F6465203D20256478
:103960000A000000700000203C3C2D464C415348AA
:103970002D4552524F522D3E3E5350495F464C41C9
:1039800053485F50616765577269746520746F6F43
:10399000206C61726765210A00000000FDF7E7F8FE
:1039A000204610BD10B5044601213248FDF7E1F86C
:1039B0000320FFF707FEC4F30740FFF703FEC4F33D
:1039C0000720FFF7FFFDE0B2FFF7FCFD10BD10B5CB
:1039D000FF20FFF7F7FD10BD10B504464FF48050EF
:1039E0002549086009E024490868411E224A1160FF
:1039F00018B90020FFF7DEFD10BD02211F48FDF7BA
:103A000078FC0028EFD021461C48FDF71FFC4FF43E
:103A100080501949086009E017490868411E164A94
:103A2000116018B90120FFF7C5FDE5E70121134832
:103A3000FDF75FFC0028EFD01048FDF709FCDBE73D
:103A400010B501210B48FDF794F8B920FFF7BAFD36
:103A500001210848FDF78BF810BD10B5012105487C
:103A6000FDF787F8AB20FFF7ADFD01210148FDF719
:103A70007EF810BD001001407000002000300140B1
:103A8000D2B201E000F8012B491EFBD270470022A0
:103A9000F6E710B513460A4604461946FFF7F0FF4D
:103AA000204610BD2DE9FE4F804681EA0300C00F7D
:103AB0000C46009021F0004123F00045B8EB0200D5
:103AC000A94105D24046214690461C460B46024677
:103AD00023F00040104347D0270DC7F30A00C3F37B
:103AE0000A510290401A019040286BDAC3F3130088
:103AF00040F4801B0098924620B10023D2EB030AC9
:103B000063EB0B0B01985946C0F14002504600F0A0
:103B100066F906460D4650465946019A00F06EF980
:103B200010EB08006141002487EA115284EAE77330
:103B30001A4340D0009A62B3019A012A4FEA075211
:103B400015DC001B61EB02014FF0004202EA075254
:103B5000CDE90042001C41F5801132462B4600F0B1
:103B6000A5F903B0BDE8F08F40462146F9E7001BF8
:103B700061EB0201001C41F5801300185B41201825
:103B8000A2F5001747EB030140EAD570B6196D4165
:103B900011E06D084FEA360645EAC0754FEA075254
:103BA000001B61EB0201001C41F5801149084FEA3E
:103BB00030000019514132462B4603B0BDE8F04FAA
:103BC00000F065B90098012240000023D0EB02020A
:103BD00063EBE073009821464FEAE074B8EB000015
:103BE00061EB0401E9E783F000435BE781F000410A
:103BF00058E72DE9F04D81EA030404F0004B21F071
:103C0000004514464FF0000A23F0004150EA050237
:103C100020D054EA01021DD0C5F30A570246C5F36D
:103C20001303C1F31300C1F30A5640F4801543F4A3
:103C30008013A7EB0608101BD64608F2FD3873EB7D
:103C4000050002D308F1010801E092185B41B8F1C8
:103C5000000F03DA00200146BDE8F08D00204FF48C
:103C60008011064684460EE0171B73EB050705D34B
:103C7000121B63EB050306434CEA010C49084FEAAB
:103C8000300092185B4150EA0107EDD152EA03007F
:103C900012D082EA040083EA0501084305D0101B14
:103CA000AB4106D20122002306E000224FF0004380
:103CB00002E06FF0010253101AEB06004CEB0851C2
:103CC00010EB0A0041EB0B01BDE8F04D00F0DFB84E
:103CD0000EB5C10F80EAE0700844CA07002140F227
:103CE00033438DE80E000A460B4600F0DFF803B0C0
:103CF00000BD00F0004230F000400AD0C10D01F5D7
:103D00006071C0F3160042EA0151C2084007114336
:103D1000704700200146704701F0004330B421F0A5
:103D2000004150EA010206D00A0DA2F56072C1F30B
:103D30001301002A02DC30BC00207047440F44EA23
:103D4000C104C100E01830BC00EBC25000F068B8FC
:103D500030B50B46014600202022012409E021FA5B
:103D600002F59D4205D303FA02F5491B04FA02F558
:103D70002844151EA2F10102F1DC30BD2DE9F05FEF
:103D80000546002092469B468846064681464024CA
:103D90001BE0284641464746224600F089F9534633
:103DA0005A46C01A914110D311461846224600F0D7
:103DB00016F82D1A67EB01084F4622460120002114
:103DC00000F00DF817EB00094E41201EA4F101048C
:103DD000DFDC484631462A464346BDE8F09F202AAC
:103DE00004DB203A00FA02F1002070479140C2F152
:103DF000200320FA03F3194390407047202A06DB82
:103E0000CB17203A41FA02F043EAE07306E041FAA8
:103E100002F3D040C2F12002914008431946704796
:103E20000029A8BF7047401C490008BF20F00100CE
:103E3000704710B4B0FA80FC00FA0CF050EA0104AC
:103E400004BF10BC704749B1CCF1200421FA04F43E
:103E500011FA0CF118BF012121430843A3EB0C0117
:103E6000CB1D4FEA00614FEA102042BF002010BC7A
:103E7000704700EBC35010440029A4BF10BC70472A
:103E8000401C490008BF20F0010010BC704710B56D
:103E9000141E73F1000408DA401C41F1000192186D
:103EA0005B411A4301D120F0010010BD2DE9F04D16
:103EB00092469B4611B1B1FA81F202E0B0FA80F26B
:103EC00020329046FFF78BFF04460F4640EA0A0077
:103ED00041EA0B0153465A46084313D0114653EAB0
:103EE000010019D0C8F14002504600F0E1F8054643
:103EF0000E46504659464246FFF771FF084305D02B
:103F0000012004E020463946BDE8F08D002005433D
:103F100046EAE0762C4337430A986305E40AA0EBAF
:103F200008000022FD0A44EA47540A3002D5002066
:103F30000146E9E7010510196941DDE90845001965
:103F40006941BDE8F04DA2E72DE9FE4F81EA030487
:103F500004F0004421F0004100944FF0000B23F0E6
:103F6000004350EA01045ED052EA03045BD0C3F37D
:103F70000A54C1F30A552C44A4F2F3340194A0FB73
:103F80000254C1F3130141F48011C3F3130343F44A
:103F9000801301FB024400FB034E840A970A44EAA3
:103FA000815447EA8357A4FB076802958D0A05FBF5
:103FB00007854FEA932C04FB0C542705029D4FEA1A
:103FC000065847EA1637B5EB08056EEB070C870E67
:103FD000920E47EA811742EA8312A7FB0201B6EB71
:103FE0000B0164EB00042B0D43EA0C335E1844EB29
:103FF0001C50DA465146E7FB0201C5F313044FEAB1
:104000000B3343EA14534FEA0432019C43EA06039C
:10401000A4F10C040294009CCDE900B4FFF746FF24
:1040200003B0BDE8F08F00200146F9E7C1F30A5262
:10403000C1F3130140F2FF3341F480119A4202DAD6
:1040400000200146704740F233439A42A2F23342C5
:1040500002DC524200F02CB8FFF7C1BE30B5041E9E
:1040600071F1000404DB4FF00044404264EB0101B5
:10407000141E73F1000405DB1C464FF0004352424E
:1040800063EB0403994208BF904230BD064C074DD4
:1040900006E0E06840F0010394E807009847103418
:1040A000AC42F6D3FCF748F880850008A0850008EC
:1040B000202A04DB203A21FA02F00021704721FA7D
:1040C00002F3D040C2F120029140084319467047E4
:1040D0000FB4054B10B503A9044A029800F0DEF8AE
:1040E00010BC5DF814FB0000CF1B0008740000201A
:1040F0000FB4084B10B504A902AA039800F0CEF83B
:10410000044602A9002000F060FC204610BC5DF8C7
:1041100014FB0000CB49000802E008C8121F08C1C8
:10412000002AFAD170477047002001E001C1121F38
:10413000002AFBD1704700002DE9FF5FDDE9022076
:10414000010DDDF838B0024318D044F61050A1F24A
:10415000FF3141430D140F98012820D0A5EB0B002F
:10416000401C5FEA000A4FF00004474EDFF81C9144
:10417000A046504616D5CAF1000728E00F98012442
:1041800043A2012808D0002100980F9BC0E900211C
:10419000C0E90243BDE8FF9F6FEA0B01F4E7CBF1F2
:1041A0000000DEE7074612E0F80707D02246334654
:1041B00040464946FFF7C8FE8046894622463346B8
:1041C00010461946FFF7C0FE04460E467F10002F2A
:1041D000EAD1DDE90201BAF1000F42464B4602DAAC
:1041E000FFF7B2FE01E0FFF704FD04460E46002291
:1041F000284BFFF733FF03D84FF0FF30014607E0AD
:104200000022254B20463146FFF74CFCFFF70EFFFE
:10421000102409E0002C0ADB0A220023FFF7AEFD80
:10422000019B30321A55641E50EA0102F2D1641C1F
:10423000019AC4F1110314440F9A012A03D00122F8
:1042400008430DD10AE0084304D000204FF0110BC1
:104250000F9080E7A3EB0B056D1E0DE05B4504DDC1
:104260004FF0000205F1010504E003DA4FF000020F
:10427000A5F10105002AECD000980F99C0E90231A0
:10428000C0E9004586E70000000024400000F03F40
:10429000300000000000F0430000E03F2DE9FF4F38
:1042A00095B09B468946064600250FE2252877D122
:1042B00000242746F84A0121059400E0044316F83B
:1042C000013F203B01FA03F01042F7D130782A2851
:1042D00011D06FF02F033078A0F13002092A16D8E0
:1042E000059A44F0020402EB820203EB42021044FE
:1042F000761C0590EFE759F8042B0592002A03DAA3
:10430000504244F40054059044F00204761C307886
:104310002E2816D116F8010F44F004042A280DD0D7
:104320006FF02F023078A0F13003092B09D807EB8A
:10433000870302EB4303C718761CF3E759F8047BA5
:10434000761C30786C280FD006DC4C2817D06828F3
:104350000DD06A2814D104E0742810D07A280FD127
:104360000DE044F400140AE044F4801401E044F445
:1043700040147278824202D104F58014761C761CB7
:10438000307866280BD013DC582877D009DC002859
:1043900075D04528F6D04628F4D047281AD19DE19B
:1043A00018E0632835D0642879D0652812D195E1CA
:1043B000702873D008DC6728F1D069286FD06E2888
:1043C0000DD06F2806D1B5E073282CD0752875D094
:1043D000782874D05A46179990476D1C75E1C4F33C
:1043E0000250022809D003280DD0D9F80010042863
:1043F0000DD00D6009F1040967E1D9F80010EA1742
:10440000C1E90052F6E7D9F800100D80F2E70D700F
:10441000F0E719F8041B8DF8001000208DF801005A
:10442000EA46012003E059F804AB4FF0FF30610782
:104430004FF0000102D40DE008F101018846B942B5
:104440000FDA8045F8DB1AF808100029F4D108E0EB
:1044500008F1010188468142FADB1AF808100029A8
:10446000F6D105985B46A0EB080721463846179A17
:1044700000F094FA284400EB080507E04DE029E13C
:104480000DE01AF8010B5A4617999047B8F1010848
:10449000F7D25B4621463846179A13E142E00A22DA
:1044A0000092C4F302524FF0000A022A08D059F8D1
:1044B00004CB032A4FEAEC710AD00DE029E02AE090
:1044C00009F1070121F00702F2E802C1914609E073
:1044D0000FFA8CFC4FEAEC71042A03D14FFA8CFCE2
:1044E0004FEAEC71002907DA0A460021DCF1000CE2
:1044F00061EB02012D2202E0220504D52B228DF86A
:104500000420012203E0E20701D02022F7E79046D1
:1045100059E00A2102E010220DE010214FF0000ABC
:1045200000910BE010224FF0000A44F00404082729
:10453000009203E008224FF0000A0092C4F30252F6
:10454000022A05D059F804CB0021032A08D009E03B
:1045500009F1070121F00702F2E802C1914605E0E6
:104560001FFA8CFC042A01D10CF0FF0C4FF000085C
:10457000220728D5702806D0009B83F0100353EA49
:104580000A0305D00EE040228DF80420012208E045
:104590005CEA010206D030228DF804208DF8050077
:1045A00002229046009B83F0080353EA0A030AD1D3
:1045B0005CEA010201D1620705D530228DF80420A2
:1045C0004FF001087F1E582804D034A003900EA895
:1045D00002900DE036A0F9E753466046009AFFF7D7
:1045E000CDFB84460398825C0298401E02900270C4
:1045F0005CEA0100F0D1029806A9081A00F1200A2D
:10460000600702D524F4803400E00127574502DD1D
:10461000A7EB0A0000E0002000EB0A0100900598DB
:104620004144401A0590E00306D45B462146179AA0
:10463000059800F0B3F90544002706E001A85A46A2
:10464000C05D179990476D1C7F1C4745F6DBE00362
:104650000CD55B462146179A059800F09FF9054452
:1046600004E030205A46179990476D1C0099481E67
:1046700000900029F5DC08E0029802995A4600787B
:10468000491C0291179990476D1CBAF10001AAF1DB
:10469000010AF1DC65E10000092801003031323304
:1046A000343536373839616263646566000000006E
:1046B0003031323334353637383941424344454658
:1046C0000000000000F058F90544761C30780028FE
:1046D0007FF4ECAD19B02846BDE8F08F620700D436
:1046E000062709F1070222F0070CFCE80223E14645
:1046F00003F000485FEA080C02D00FF2702C0DE0C6
:104700005FEA045C02D50FF2682C07E05FEAC47C24
:1047100002D00FF2602C01E0AFF2700C4FF0FF38C6
:1047200023F00043CDF850C065280CD006DC4528A6
:1047300009D046281DD047283DD13DE0662818D035
:1047400067287ED138E00021112F01DB112000E025
:10475000781CCDE9000106A90EA8FFF7EDFCDDE904
:104760000F010E9A03910021009207F1010A0491B2
:104770004DE04FF000400097CDE9011006A90EA8CA
:10478000FFF7DAFCDDE90F0203920E9B119900227C
:10479000DDF80CA00093049211B9791C00EB010A1A
:1047A000B7EB0A0004D4C0F1FF3007F1010A04900E
:1047B000AAEB0700019044E0012F00DA0127002155
:1047C000112F01DD112000E03846CDE9000106A9D6
:1047D0000EA8FFF7B1FCDDE90F010E9A039100214D
:1047E00004910092BA4621070CD40399514500DA8E
:1047F0008A46BAF1010F05DD009AAAF10101515C68
:10480000302908D0B84202DA10F1040F06DA01218B
:10481000CDE9011015E0AAF10101E9E7002805DC66
:10482000049901440491AAEB000102E0411C5145A6
:1048300000DD8A460499401A401C01904FF0004068
:104840000290200704D40198504501DBCDF8048084
:1048500000208DF84F0002980DF14F07B0F1004F86
:1048600025D02B200E9002984FF0020800280CDA79
:10487000404202902D200E9007E00A210298FFF797
:1048800067FA3031029007F8011DB8F10001A8F174
:104890000108F2DC02980028EFD1791E0E9808700A
:1048A000307800F0200040F0450007F8020D12A813
:1048B000C01B00F107081498007800B1012000EB3C
:1048C0000A01019801EBE07105984144401A401E2D
:1048D0000590E00306D45B462146179A059800F040
:1048E0005DF805441498007818B15A461799904716
:1048F0006D1CE00324D55B462146179A059800F00D
:104900004DF805441CE00498002807DBDDE90301AD
:10491000884203DD0098405C179901E01799302028
:104920005A469047049805F10105401C04900198EF
:10493000401E019004D12E205A46179990476D1CB5
:10494000BAF10001AAF1010ADDDC05E017F8010B5C
:104950005A46179990476D1CB8F10001A8F101085B
:10496000F4DC5B462146179A0598ABE62D00000063
:104970002B000000200000002DE9F0410446002536
:104980001E461746880404D405E039462020B04767
:104990006D1C641EF9D52846BDE8F0812DE9F04173
:1049A000044600251E469046C80301D5302700E086
:1049B0002027880404D505E041463846B0476D1CE1
:1049C000641EF9D52846BDE8F0810A68531C0B60C7
:1049D00010707047000000000000000000000000A0
:1049E0000000000000000018181818181808000827
:1049F00018000000000000342424240000000000FF
:104A0000000000000000000016247F2424247E24DF
:104A100024000000000000083E6848681C161212BE
:104A20007C10100000000061D2967408101629490D
:104A3000C6000000000000003C646438724ACE46A4
:104A40007F00000000000018181818000000000087
:104A50000000000000000004081810303030301052
:104A600010180C04000000201008080C0404040CAA
:104A700008181020000000080A341C6A0800000012
:104A8000000000000000000000001818187F18182F
:104A900018000000000000000000000000000018E6
:104AA000180830000000000000000000003C00007A
:104AB00000000000000000000000000000000018DE
:104AC000180000000000000206040C080810102066
:104AD00020400000000000003C6642475B734266D5
:104AE0003C0000000000000018784808080808088A
:104AF0007E000000000000003C460606040810206E
:104B00007E000000000000007C0606043C02020655
:104B10007C000000000000000C1C14246444FF040E
:104B200004000000000000007E6060607E0202065B
:104B30007C000000000000001E30604876424262A7
:104B40003C000000000000007E0206040C08181063
:104B500030000000000000003C6242361C66424209
:104B60003C000000000000003C664242661A02045D
:104B70007800000000000000000018180000001875
:104B800018000000000000000000181800000018C5
:104B90001808300000000000000004183060100CFD
:104BA0000600000000000000000000007E007E0003
:104BB00000000000000000000000301804060C1087
:104BC00020000000000000301C060606181000102F
:104BD000100000000000001C224141DDB5A5A5AF7A
:104BE00094C0403C00000000181C342426627E4320
:104BF000C1000000000000007C4642467C42424268
:104C00007C000000000000001E204040404040604A
:104C10003E000000000000007C4642434343424601
:104C200078000000000000007E6060607E606060D0
:104C30007E000000000000007E6060607E606060BA
:104C400060000000000000001E604040CE42426252
:104C50003E00000000000000424242427E424242CA
:104C600042000000000000007E18181818181818DC
:104C70007E000000000000007C04040404040444DE
:104C800078000000000000004244485070584C4436
:104C900042000000000000002020202020202020D2
:104CA0003E000000000000006266675F5B5BC1C100
:104CB000C100000000000000626272525A4A4E4673
:104CC00046000000000000003C6243C3C3C34362CF
:104CD0003C000000000000007C4642424678404014
:104CE00040000000000000003C6243C3C3C34362B5
:104CF0003C180F00000000007C6662667C6C6466F5
:104D000062000000000000003E6040601C060202DD
:104D10007C000000000000007F18181818181818F0
:104D2000180000000000000042424242424242623B
:104D30003C00000000000000C14342622624341CF5
:104D40001800000000000000C1C141495B5B7666AD
:104D5000660000000000000043663418181C24663A
:104D6000C300000000000000C14266341C1818187F
:104D700018000000000000007E02040C18102060E3
:104D80007E0000000000001C101010101010101009
:104D90001010101C000000402020101008080C0407
:104DA000060200000000003C0C0C0C0C0C0C0C0C5F
:104DB0000C0C0C3C00000000181C246200000000D9
:104DC00000000000000000000000000000000000E3
:104DD000000000FF000000201000000000000000A4
:104DE000000000000000000000003C06023E4246B9
:104DF0007A0000000000004040405C6242424242B3
:104E00007C0000000000000000001E2060406020C8
:104E10003E0000000000000202023E624242426682
:104E20003A0000000000000000003C62427E40604A
:104E30003E0000000000000F1810107E101010102F
:104E4000100000000000000000003F66426658406D
:104E50003E43423C0000004040405C6242424242CD
:104E60004200000000000018180078080808080830
:104E70007E000000000000040C007C040404040414
:104E800004040C78000000606060626C78706864F4
:104E900062000000000000780808080808080808F8
:104EA0007E000000000000000000764B4B4B4B4B97
:104EB0004B0000000000000000005C6242424242E1
:104EC000420000000000000000003C6242434262D9
:104ED0003C0000000000000000005C6242424242D0
:104EE0007C4040400000000000003E6242424266BA
:104EF0003A0202020000000000006E72636060600F
:104F0000600000000000000000003E20203C06027F
:104F10007C000000000000001010FE1010101010A7
:104F20001E000000000000000000424242424266B3
:104F30003A000000000000000000434266243418DC
:104F400018000000000000000000C1C15B5A5E664E
:104F50006600000000000000000062261C181C26ED
:104F60006200000000000000000043426624341C80
:104F7000181830E00000000000007E060C18102019
:104F80007E0000000000000E18101010307010108D
:104F90001010180E0000080808080808080808087B
:104FA0000808080800000030180808080C0E080857
:104FB000080818300000000000000000714B0600D7
:104FC00000000000000000000000000000000000E1
:104FD00000000000000000000000000000000000D1
:104FE00000000000000000000000000000000000C1
:104FF000000000000000000000000000000003802E
:105000000180018001800180018001800180018098
:1050100001800000000003C003C000000000000089
:1050200000000000000000000000000000000E7002
:105030000E700E700C300000000000000000000038
:105040000000000000000000000000000000000060
:105050000000000000000000000000000000000050
:105060000618063806307FFE0C300C300C300C3041
:105070007FFE0C601C6018601860000000000000DB
:1050800000000000000000000000000000C000C0A0
:105090000FF83CC831C031803D801F8003F001F81B
:1050A000031C030C031C3FF83FE007000600000050
:1050B0000000000000000000000000001C007E0E48
:1050C000630C631863307E6000C001800300077CBE
:1050D0000EE61CC618C630C6607C0000000000004A
:1050E00000000000000000000000000000000FE0D1
:1050F0001CF0387038701C601FC00F003F8C71CCE2
:1051000060EC607C70383CFC1FCE000000000000AA
:10511000000000000000000000000000000003C0CC
:1051200001800180018000000000000000000000FC
:10513000000000000000000000000000000000006F
:10514000000000000000000000000000003000E04F
:1051500001C0018003000700060006000E000E00DB
:105160000E000E00060007000300038001C000E0EF
:105170000030000000000000000000000C000600ED
:105180000380018001C000E00060006000700070DA
:1051900000700060006000E000C001800380060035
:1051A0000C00000000000000000000000000018072
:1051B00011881DB803C007E03DBC018801800000D4
:1051C00000000000000000000000000000000000DF
:1051D00000000000000000000000000000000000CF
:1051E00000000000018001800180018001807FFEBD
:1051F00001800180018001800000000000000000AB
:10520000000000000000000000000000000000009E
:10521000000000000000000000000000000000008E
:105220000000000003C003C001C001C003801F00D4
:10523000000000000000000000000000000000006E
:1052400000000000000000000000000000000FF05F
:10525000000000000000000000000000000000004E
:10526000000000000000000000000000000000003E
:10527000000000000000000000000000000000002E
:105280000000000003C003C003C0000000000000D5
:1052900000000000000000000000000000000018F6
:1052A00000380030006000E000C001C00180030051
:1052B000030006000E000C001C0018003000000067
:1052C000000000000000000000000000000001805D
:1052D0000FF01C38381C301C707E70EE738E7E0E02
:1052E0007C0C300C381C1E780FE000000000000021
:1052F00000000000000000000000000000000000AE
:1053000007C01FC039C001C001C001C001C001C039
:1053100001C001C001C03FFC3FFC000000000000D4
:1053200000000000000000000000000000000380FA
:105330001FF018380038001800380038007001E0FD
:10534000038007001C003FFC3FFC00000000000041
:1053500000000000000000000000000000000780C6
:105360001FF0003800380038003007E007F0003840
:10537000001C001C001820F83FE0000000000000A6
:10538000000000000000000000000000000000001D
:1053900000F001B0033007300E301C303830703070
:1053A0007FFE7FFE00300030003000000000000073
:1053B00000000000000000000000000000000000ED
:1053C0001FF818001800180018001FE000F8001C53
:1053D000001C001C003800F01FC00000000000008E
:1053E00000000000000000000000000000000000BD
:1053F00003F80F001C001800300037F83C3C300C5C
:10540000300C380C381C1E380FF000000000000073
:10541000000000000000000000000000000000008C
:105420003FFC001C001800380070006000E001C064
:1054300001800380070006000E000000000000004D
:10544000000000000000000000000000000003C099
:105450001FF8381C381C381C1C380FF007F01C785B
:10546000381C300C381C3C380FF0000000000000E5
:1054700000000000000000000000000000000380A9
:105480001FF03838301C701C700C380C1FFC0FCC0F
:10549000001C001800701FE01F80000000000000CA
:1054A00000000000000000000000000000000000FC
:1054B00000000000000003C003C0018000000000E5
:1054C0000000000003C003C003C000000000000093
:1054D00000000000000000000000000000000000CC
:1054E00000000000000003C003C0018000000000B5
:1054F0000000000003C003C001C001C003800F0012
:10550000000000000000000000000000000000009B
:1055100000000000003800F001C007001E00380045
:105520000E00078001C00070003000000000000085
:10553000000000000000000000000000000000006B
:10554000000000000000000000003FFC0000000020
:105550003FFC3FFC000000000000000000000000D5
:10556000000000000000000000000000000000003B
:10557000000000001C000F00038001E00078001C08
:10558000007001E003800E000C000000000000002D
:1055900000000000000000000000000000000FC03C
:1055A00000F0003800380038003803F003800300B2
:1055B00003000000000007800780000000000000DA
:1055C00000000000000000000000000000E007F8FC
:1055D0000C0C18063006700363F36633C673CC6395
:1055E000CC62CC66CCE6C7FCE000600070003810EE
:1055F0001FF000000000000000000000000000009C
:1056000003C007E006E00E700E700C301C3818184E
:105610003FFC3FFC700E600EE00700000000000041
:10562000000000000000000000000000000000007A
:105630003FF03838381C381C38383FF03FF8381CF9
:10564000380C380C381C3FF83FE000000000000028
:10565000000000000000000000000000000000E06A
:1056600007FC1E0438003800300070007000700025
:10567000300038003C001F9C07FC000000000000C8
:10568000000000000000000000000000000000001A
:105690003FF03078301C300C300E300E300E300EB3
:1056A000300E301C30383FF03FC0000000000000DA
:1056B00000000000000000000000000000000000EA
:1056C0001FF818001800180018001FF81FF818001D
:1056D0001800180018001FF81FF800000000000054
:1056E00000000000000000000000000000000000BA
:1056F0001FF818001800180018001FF81FF81800ED
:105700001800180018001800180000000000000021
:10571000000000000000000000000000000000F099
:1057200007FC1E04380030007000700070FC700C24
:10573000700C300C380C1F1C07FC0000000000002F
:105740000000000000000000000000000000000059
:10575000300C300C300C300C300C3FFC3FFC300C6B
:10576000300C300C300C300C300C0000000000000D
:105770000000000000000000000000000000000029
:105780003FFC018001800180018001800180018057
:105790000180018001803FFC3FFC00000000000010
:1057A00000000000000000000000000000000000F9
:1057B0001FF000300030003000300030003000308A
:1057C0000030003000701DE01FC00000000000002D
:1057D00000000000000000000000000000000000C9
:1057E000381C387038E039C03B803F003F003B80B8
:1057F00039C038E038703838381C0000000000002C
:105800000000000000000000000000000000000098
:105810001C001C001C001C001C001C001C001C00A8
:105820001C001C001C001FFC1FFC000000000000EE
:105830000000000000000000000000000000000068
:10584000381C7C3C6C3E6E6E666E66CE63C66386AC
:1058500061866006600660066006000000000000C9
:105860000000000000000000000000000000000038
:105870003C0C3C0C3E0C360C330C338C318C31CC54
:1058800030EC306C307C303C301C000000000000FC
:10589000000000000000000000000000000001C047
:1058A0000FF81C3C381C700E700E60066006700EFF
:1058B000700E700C381C1E780FE000000000000015
:1058C00000000000000000000000000000000000D8
:1058D0003FF0383C381C380C380C381C38783FE026
:1058E00038003800380038003800000000000000A0
:1058F000000000000000000000000000000001C0E7
:105900000FF81C3C381C700E700E60066006700E9E
:10591000700E700C381C1E780FE0018001C000FF73
:10592000003C00000000000000000000000000003B
:105930003FF0383838183818383838F03FC038E079
:10594000387038383838381C380E00000000000035
:10595000000000000000000000000000000001E066
:105960000FF83800380038003C001F8003F0007842
:10597000001C001C001C38783FE000000000000004
:105980000000000000000000000000000000000017
:105990007FFE018001800180018001800180018003
:1059A0000180018001800180018000000000000072
:1059B00000000000000000000000000000000000E7
:1059C000300C300C300C300C300C300C300C300CF7
:1059D000300C300C381C1C380FF0000000000000A8
:1059E00000000000000000000000000000000000B7
:1059F000E006700E700E381C381C1C181C380C3059
:105A00000E70066007E003C003C000000000000045
:105A10000000000000000000000000000000000086
:105A200060066006600660066186638673C673CE94
:105A3000766C366C3C3C3C3C381C0000000000009E
:105A40000000000000000000000000000000000056
:105A5000301C38181C380E7007E003C003C007E084
:105A60000E701C381838381C700E00000000000042
:105A70000000000000000000000000000000000026
:105A8000700E700C381C1C380E70066007E003C0E6
:105A90000180018001800180018000000000000081
:105AA00000000000000000000000000000000000F6
:105AB0003FFC001C0038007000E001C003800700BC
:105AC0000E000C0018003FFC3FFC0000000000002E
:105AD00000000000000000000000000007F007F0D8
