:020000040800F2
:10000000A835002045010008191800081B18000831
:1000100025180008291800082D1800080000000005
:10002000000000000000000000000000311800087F
:1000300033180008000000003518000837180008C1
:100040005F0100085F0100085F0100085F01000810
:100050005F0100085F0100085F0100085F01000800
:100060005F0100085F0100085F0100085F010008F0
:100070005F0100085F0100085F0100085F010008E0
:100080005F0100085F0100085F0100085F010008D0
:100090005F0100085F0100085F0100085F010008C0
:1000A0005F0100085F0100085F0100085F010008B0
:1000B0005F0100085F0100085F0100085F010008A0
:1000C0005F0100085F0100085F0100085F01000890
:1000D0005F0100085F0100085F0100085F01000880
:1000E0005F0100085F0100085F0100085F01000870
:1000F0005F0100085F0100085F0100085F01000860
:100100005F0100083F1800085F0100085F01000858
:100110005F0100085F0100085F0100085F0100083F
:100120005F0100085F0100085F0100085F0100082F
:10013000DFF80CD006F0C0FE004800478517000825
:10014000A83500200648804706480047FEE7FEE73E
:10015000FEE7FEE7FEE7FEE7FEE7FEE7FEE7FEE777
:1001600047020008310100080CB500200190009002
:100170006C48006840F480306A49086000BF6948F4
:10018000006800F4003000900198401C0190009835
:1001900018B90198B0F5A06FF1D16248006800F479
:1001A000003010B10120009001E000200090009884
:1001B000012843D15C48006840F010005A490860AB
:1001C0000846006820F0030008600846006840F018
:1001D0000200086053484068524948600846406839
:1001E00048600846406840F48060486008464068BF
:1001F00020F47C1048600846406840F4E8104860ED
:100200000846006840F08070086000BF45480068FC
:1002100000F000700028F9D04248406820F0030048
:10022000404948600846406840F00200486000BF0E
:100230003C48406800F00C000828F9D10CBD10B50E
:10024000FFF792FF10BD10B53648006840F001007E
:1002500034490860084640683449084031494860DC
:1002600008460068324908402E4908600846006880
:1002700020F4802008600846406820F4FE004860B2
:100280004FF41F008860FFF7DAFF4FF00060294944
:10029000086010BD10B5002100200022214B5B68D2
:1002A00003F00C0121B1042906D0082928D107E068
:1002B000214B224C236027E01F4B204C236023E07E
:1002C000184B5B6803F47010164B5B6803F48032C4
:1002D000022303EB904022B9194B4343174C236090
:1002E0000DE0104B5B6803F4003323B1144B434320
:1002F000124C236003E0104B4343104C236003E097
:100300000D4B0E4C236000BF00BF064B5B68C3F370
:1003100003130C4CE15C094B1B68CB40074C23607A
:1003200010BD000000100240002002400000FFF855
:10033000FFFFF6FE08ED00E000127A00000000204A
:1003400000093D000400002031490143314A116099
:10035000704770B5002100230F22C47804B32D4CE0
:10036000246804F4E064C4F5E064210AC1F10403E4
:10037000CA40447804FA03F1847814402143090107
:10038000254C0678A155047804F01F050124AC40E3
:1003900005786D11AD0005F1E025C5F8004109E0D3
:1003A000047804F01F050124AC401C4D067876113A
:1003B00045F8264070BD1A4A0A400243154B1B1FE0
:1003C0001A60704739B1134A121D12680243114B6B
:1003D0001B1D1A6006E00F4A121D126882430D4B66
:1003E0001B1D1A607047042808D14FF0E0210969ED
:1003F00041F004014FF0E022116107E04FF0E021ED
:10040000096921F004014FF0E022116170470000FA
:100410000000FA050CED00E000E400E080E100E0FF
:1004200080FFFF1F01684FF6FE721140016000213E
:10043000016041608160C1608D49884208D18C496A
:100440000839496841F00F01894A083A51608AE049
:1004500087491431884208D185490839496841F0F3
:10046000F001834A083A51607DE081492831884291
:1004700008D17F490839496841F470617C4A083ADB
:10048000516070E07A493C31884208D17849083996
:10049000496841F47041764A083A516063E0744912
:1004A0005031884208D172490839496841F47021B5
:1004B0006F4A083A516056E06D496431884208D16C
:1004C0006B490839496841F47001694A083A51603A
:1004D00049E067497831884208D165490839496857
:1004E00041F07061624A083A51603CE061498842DB
:1004F00006D1011F096841F00F01021F116032E0AF
:100500005C491431884208D15A49091F096841F0F1
:10051000F001584A121F116025E0564928318842DF
:1005200008D15449091F096841F47061514A121FEA
:10053000116018E04F493C31884208D14D49091FEC
:10054000096841F470414B4A121F11600BE04949A0
:100550005031884207D14749091F096841F4702189
:10056000444A121F1160704710B50022026847F616
:10057000F0739A430C6A8B6823430C6923434C69DC
:1005800023438C692343CC6923434C6A23438C6AFD
:1005900023431A430260CB6843600B6883604B6857
:1005A000C36010BD0021016041608160C1600161D4
:1005B00041618161C161016241628162704721B123
:1005C000026842F00102026004E002684FF6FE7326
:1005D0001A40026070471AB103680B43036002E0DF
:1005E00003688B4303607047416070470146486869
:1005F00080B2704701460020002201F080531BB1F9
:100600001C4B083B1A6802E0194B083B1A6802EAC7
:1006100001030BB1012000E00020704700F0805181
:1006200019B11449091F086002E0114908394860EE
:10063000704701460020002201F080531BB10D4B92
:10064000083B1A6802E00A4B083B1A6802EA0103F9
:100650000BB1012000E00020704700F0805119B17B
:100660000449091F086002E00149083948607047E1
:100670000800024008040240002044490860091DA7
:100680000860091D0860091D086041483F49143190
:100690000860704700213D498279002A3AD00A4615
:1006A000126803689A430B461A600A1D12680368B1
:1006B0009A430B1D1A60027911440A6803681A43B1
:1006C0000A60324A0832126803689A432F4B083393
:1006D0001A601A1D126803689A432C4B0C331A6077
:1006E0004279102A0ED11A1F126803681A43274B49
:1006F00008331A601A1D126803681A43234B0C331F
:100700001A600DE02149427911440A6803681A43CE
:100710000A6005E0027911440A6803689A430A6096
:1007200070470021016001710C214171002181712C
:1007300070471649103109680143144A103211609C
:10074000704701460020114A143212680A400AB16B
:10075000012000E0002070470C4914310860704708
:10076000014600200022094B1B6803EA0102074BE7
:1007700014331B680B4013B10AB1012000E00020C4
:1007800070470249143108607047000000040140BE
:10079000FFFF0F0010B50446CC48844208D1012168
:1007A000042000F02DFB0021042000F029FB46E08E
:1007B000C748844208D10121082000F021FB002114
:1007C000082000F01DFB3AE0C248844208D1012114
:1007D000102000F015FB0021102000F011FB2EE08E
:1007E000BD48844208D10121202000F009FB0021EE
:1007F000202000F005FB22E0B848844208D1012106
:10080000402000F0FDFA0021402000F0F9FA16E047
:10081000B348844208D10121802000F0F1FA002180
:10082000802000F0EDFA0AE0AE48844207D10121B1
:10083000801500F0E5FA0021A01500F0E1FA10BDE6
:1008400010B50121084600F0DBFA0021012000F07C
:10085000D7FA10BD2DE9F041024600250026002000
:1008600000230024002791F803C00CF00F0591F835
:1008700003C00CF0100CBCF1000F03D091F802C0C3
:100880004CEA050591F800C0BCF1000F31D01468A6
:1008900000202BE04FF0010C0CFA00F3B1F800C07F
:1008A0000CEA03069E4220D183004FF00F0C0CFA95
:1008B00003F7BC4305FA03FC4CEA040491F803C0B7
:1008C000BCF1280F06D14FF0010C0CFA00FCC2F865
:1008D00014C00AE091F803C0BCF1480F05D14FF0F5
:1008E000010C0CFA00FCC2F810C0401C0828D1D33F
:1008F0001460B1F800C0BCF1FF0F34DD5468002073
:100900002EE000F1080C4FF0010808FA0CF3B1F8E2
:1009100000C00CEA03069E4221D183004FF00F0C69
:100920000CFA03F7BC4305FA03FC4CEA040491F803
:1009300003C0BCF1280F05D100F1080C08FA0CF82F
:10094000C2F8148091F803C0BCF1480F07D100F140
:10095000080C4FF0010808FA0CF8C2F81080401C8F
:100960000828CED35460BDE8F0814FF6FF710180B6
:10097000022181700421C1707047024600209368F3
:100980000B400BB1012000E0002070470146886851
:1009900080B2704702460020D3680B400BB10120A3
:1009A00000E0002070470146C86880B270470161CE
:1009B0007047416170470AB1016100E041617047D1
:1009C000C16070474FF480320A4382618161826165
:1009D00082698269704702460020434B18684FF6CF
:1009E0008073184040EA021008433F4B186070477C
:1009F0003E49C8617047F0B50A4600230024002133
:100A0000002500F00046B6F1004F02D1364EF169E4
:100A100001E0354E7168C0F3034583B200F440161F
:100A2000B6F5401F08D121F070612F4E766826F090
:100A300070662D4F7E6012E000F48016B6F5801FC0
:100A400006D1032606FA05F4A14341F0706106E0E1
:100A5000460D360103FA06F6B14341F0706122B14A
:100A6000460D360103FA06F6314300F00046B6F1B2
:100A7000004F02D11C4EF16101E01B4E7160F0BDD0
:100A800030B500228B071C0F0F2303FA04F2164B1C
:100A900008338C1053F824309343134C08348D10D2
:100AA00044F8253023468C1053F824308C07240F4B
:100AB00000FA04F423430C4C08348D1044F825301C
:100AC00030BD0A49DC310860704700000008014071
:100AD000000C0140001001400014014000180140CA
:100AE000001C0140002001400000014000002042A5
:100AF000DF48006840F00100DD49086008464068B2
:100B0000DC490840DA49486008460068DA4908408C
:100B1000D74908600846006820F48020086008462D
:100B2000406820F4FE0048604FF41F008860704762
:100B3000CF49096821F48031CD4A11601146096816
:100B400021F480211160B0F5803F03D0B0F5802FF3
:100B50000ED106E0C649096841F48031C44A1160EB
:100B600007E0C349096841F4A021C14A116000E0CF
:100B700000BF00BF704710B50146002200230020CF
:100B80004A11012A02D1BA4C236806E0022A02D196
:100B9000B74C236A01E0B64C636A01F01F020124DE
:100BA00094401C400CB1012000E0002010BD38B57D
:100BB000002000900024002500BF3120FFF7DBFF5C
:100BC00005460098401C00900098B0F5A06F01D039
:100BD000002DF2D03120FFF7CEFF08B1012400E054
:100BE0000024204638BD01460020A14A106820F0AC
:100BF000F80040EAC10010607047A04908607047E3
:100C0000024600209A4B586820F47C1042EA010307
:100C10001843974B586070479849086670470146DB
:100C20000020934A506820F003000843506070474A
:100C30008F48406800F00C007047014600208C4A45
:100C4000506820F0F00008435060704701460020D3
:100C5000874A506820F4E0600843506070470146BE
:100C60000020834A506820F4605040EAC100506080
:100C7000704729B17E4A527A02437D4B5A7204E092
:100C80007B4A527A82437A4B5A7270477B49D831F9
:100C90000860704701460020754A506820F44040C3
:100CA0000843506070470021714A20321170704A29
:100CB00082F82010012802D004280AD104E0012182
:100CC0006B4A2032117005E00521694A203211700B
:100CD00000E000BF00BF7047694908607047644981
:100CE000096A0143624A11627047654944390860E4
:100CF000704730B500210022002400235C4D6D6850
:100D000005F00C0121B1042905D0082923D105E003
:100D10005C4D056022E05B4D05601FE0544D6D6841
:100D200005F47012524D6D6805F48034022505EB10
:100D300092421CB9544D554305600BE04C4D6D6813
:100D400005F400351DB1504D5543056002E04D4D91
:100D50005543056002E04B4D056000BF00BF444DA8
:100D60006D6805F0F0010909484D6B5C0568DD40D0
:100D700045603F4D6D6805F4E061090A434D6B5CC9
:100D80004568DD4085603A4D6D6805F46051C90ADB
:100D90003E4D6B5C4568DD40C560354D6D6805F4C2
:100DA0004041890B3A4D6B5CC568B5FBF3F50561B5
:100DB00030BD29B12E4A526902432D4B5A6104E0DD
:100DC0002B4A526982432A4B5A61704729B1284AFB
:100DD00092690243264B9A6104E0254A9269824354
:100DE000234B9A61704729B1214AD2690243204BB3
:100DF000DA6104E01E4AD26982431D4BDA61704712
:100E000029B11B4AD2680243194BDA6004E0184A40
:100E1000D2688243164BDA60704729B1144A1269CE
:100E20000243134B1A6104E0114A12698243104BCA
:100E30001A61704712494039086070470F49C86409
:100E400070470B49C87170470948406A40F080708C
:100E500007494862704701460020054A92680A40E7
:100E60000AB1012000E000207047014988727047F4
:100E7000001002400000FFF8FFFFF6FE00004242B3
:100E80008004424200127A0000093D001400002054
:100E90002400002000206F49086048608860C86016
:100EA00048628862C8626C4888630020C8637047E3
:100EB0000021684A516847F6FF629143027D8368CA
:100EC0001A4343681A43C3681A4303681A43036901
:100ED0001A4311435F4A5160704700210175016058
:100EE00041608160C160016170475C490860704782
:100EF0005849096821F00301564A116011460968F2
:100F00000143116070475348006800F003007047C8
:100F100029B1504AD26B02434E4BDA6304E04D4A8A
:100F2000D26B82434B4BDA6370474D490860704780
:100F30000021484B02689A601A46D1686FF30A0193
:100F4000D0E901231A43C3681A4303691A431143C2
:100F5000404AD16070470021016041608160C160FA
:100F6000016170473B480069C0B2704708B501464F
:100F70000020009037481430084400900098006822
:100F800008BD0021334B02685A6242689A621A46D1
:100F9000D16A21F0F701D0E902231A4303691A4309
:100FA00043691A4311432B4AD16270474FF0FF3116
:100FB0000160002141608160C16001614161704751
:100FC0002448006B704723488030006870472149EF
:100FD0008031086070471F48806C70472049143189
:100FE000086070471E491831086070471C491C3161
:100FF000086070471A492031086070471949086035
:1010000070471849091D0860704701218143154A3E
:1010100008321160704713490C310860704701466F
:1010200000200C4A526B0A400AB1012000E0002067
:10103000704708498863704701460020054A526B93
:101040000A400AB1012000E000207047014988638E
:101050007047000000800140FF07C000A000304240
:101060008C053042AC01304210B50446BE48844283
:1010700008D101218014FFF7C3FE0021A014FFF75F
:10108000BFFE16E0B948844208D101210014FFF7E1
:10109000C4FE00212014FFF7C0FE0AE0B4488442D9
:1010A00007D10121C013FFF7B8FE0021E013FFF7BD
:1010B000B4FE10BD10B50022028802F441520B8824
:1010C0004C8823438C882343CC8823430C892343B7
:1010D0004C8923438C892343CC8923431A430280C0
:1010E000838B4FF2FF74234083830B8A038210BDEE
:1010F0002DE9F04F85B005460C464FF00009022758
:101100004FF000084FF0010B0026B246A88B4FF2BB
:1011100040010840A88302202884B5F81C90A068EC
:10112000022801D100BF38E0A08810B94FF0010BB0
:1011300001E04FF0020B8D48854200D100E000BF76
:101140006846FFF7D6FDDDF800A0E088B0F5007F27
:101150000AD14FEA1A2000EB80004000A168B0FBE2
:10116000F1F0401D86B20BE04FEA4B10BAFBF0F0F5
:1011700000EB80004000A168B0FBF1F0401D86B29A
:101180000A20B6FBF0F606F00108A6EB0800C0F353
:101190004F074FF6FF7000EA0828022F01DBFF2FF0
:1011A00002DD02274FF00008E08840EA08003843DB
:1011B0002884A088A18908436188084321880843BE
:1011C00040F4006040EA0909A5F81C9005B0BDE8AC
:1011D000F08F0021018041808180C18001814181A7
:1011E0008181C181072101827047002101804180F6
:1011F0008180C1800221816000218181704721B1FD
:10120000028842F04002028004E002884FF6BF7379
:101210001A400280704721B1828B42F4806282833F
:1012200004E0828B4FF6FF331A408283704730B55B
:10123000002400230C110125A540ABB21AB185880A
:101240001D43858002E085889D43858030BD1AB1AD
:1012500083880B43838002E083888B4383807047BD
:10126000818170470146888970474FF6FF6291423D
:1012700004D0028842F48072028004E002884FF6B3
:10128000FF631A400280704721B1828842F0040255
:10129000828004E082884FF6FB731A408280704798
:1012A00002884FF2FF731A40028002880A430280CC
:1012B0007047018841F480510180704721B1028854
:1012C00042F40052028004E002884DF6FF731A4097
:1012D0000280704702460020012901D0108B00E0F7
:1012E000908A70470146088A7047B1F5804F04D153
:1012F000028842F48042028004E002884BF6FF73C9
:101300001A40028070470246002013890B400BB13F
:10131000012000E000207047CA4302817047F0B509
:101320000246002000240023002501F00F070126BB
:10133000BE40B4B20B1101269E40B3B2968806EAB5
:1013400003051689264016B10DB1012000E00020EA
:10135000F0BD10B5002201F00F040123A3409AB2A2
:10136000D343038110BD000000300140003800402D
:10137000003C004010B50446FB48844209D10121DD
:101380008803FFF73DFD00214FF48040FFF738FD53
:1013900032E0F648844209D101214804FFF73DFDBF
:1013A00000214FF40030FFF738FD25E0F04884427B
:1013B00009D101218804FFF730FD00214FF480207E
:1013C000FFF72BFD18E0EB48844209D10121C80446
:1013D000FFF723FD00214FF40020FFF71EFD0BE077
:1013E000E548844208D101210805FFF716FD0021D8
:1013F0004FF48010FFF711FD10BD2DE9F04786B0C6
:1014000005460E460024A24600BFA1460027B0892B
:1014100000B100BF2F462C8A4CF6FF700440F088C4
:1014200004432C82AC894EF6F3100440B088318915
:101430000843718908430443AC81AC8A4FF6FF40EE
:101440000440B0890443AC8201A8FFF752FCC648AF
:10145000874202D1DDF810A001E0DDF80CA0A889D8
:1014600000F4004040B10AEBCA0000EB0A103168FA
:101470004900B0FBF1F807E00AEBCA0000EB0A10E4
:1014800031688900B0FBF1F86420B8FBF0F004018A
:101490002009642101FB1089A88900F4004040B1B3
:1014A000322000EBC900B0FBF1F000F0070004436C
:1014B00008E0322000EB09106421B0FBF1F000F0ED
:1014C0000F0004432C8106B0BDE8F0874FF416519D
:1014D000016000218180C18001810C2141810021B6
:1014E0008181704710B502460020108A4FF2FF0339
:1014F00018400B884C8823438C882343CC88234393
:101500001843108210BD0021018041808180C1807C
:10151000704721B1828942F40052828104E08289BD
:101520004DF6FF731A4082817047F0B503460024E0
:1015300000260025002040F66A17B94200D100BFFE
:101540001846C1F3421401F01F06012707FA06F5F9
:10155000012C01D10C3004E0022C01D1103000E04C
:1015600014301AB107682F43076002E00768AF43E1
:101570000760F0BD1AB1838A0B43838202E0838A3D
:101580008B4383827047028A4FF6F0731A400282BF
:10159000028A0A430282704782894FF2FF731A401F
:1015A000828182890A438281704721B1828942F017
:1015B0000202828104E082894FF6FD731A40828123
:1015C0007047028A4FF6DF731A400282028A0A438A
:1015D0000282704721B1028A42F48042028204E012
:1015E000028A4BF6FF731A4002827047C1F3080269
:1015F0008280704701468888C0F30800704781895F
:1016000041F0010181817047028BD2B20283028BCB
:1016100042EA012202837047028B02F47F42028376
:10162000028B0A430283704721B1828A42F0200272
:10163000828204E0828A4FF6DF731A40828270470A
:1016400021B1828A42F01002828204E0828A4FF63F
:10165000EF731A408282704721B1828A42F00802F9
:10166000828204E0828A4FF6F7731A4082827047C2
:1016700021B1828942F40042828103E08289C2F36F
:101680000E028281704721B1828A42F40062828216
:1016900004E0828A4FF2FF731A4082827047828A86
:1016A0004FF6FB731A408282828A0A438282704715
:1016B00021B1828A42F00202828204E0828A4FF6DD
:1016C000FD731A408282704702460020B1F5007F08
:1016D00000D100BF13880B400BB1012000E00020B7
:1016E000704701F40072B2F5007F00D100BFCA4319
:1016F0000280704770B502460024002300250020B8
:1017000040F66A16B14200D100BFC1F3421501F0A4
:101710001F03012606FA03F3012D02D196893340F7
:1017200006E0022D02D1168A334001E0968A33404A
:101730000C12012606FA04F41688344013B10CB1D9
:10174000012000E0002070BD10B50022002340F60B
:101750006A14A14200D100BF0A1201249440A3B22E
:10176000DC43048010BD000000380140004400400C
:1017700000480040004C0040005000400220194941
:101780000870704701F066FC00F07EF800F0ACF8DD
:10179000012215A1154803F03DFE02F064F901F0A5
:1017A000F0FC01F051FF0446214611A005F096FB24
:1017B000124801F084FC01F0EAFE01F0BAFE01F0EB
:1017C0006BFEFFF7DBFF0BE00D49097801EB8101B0
:1017D0000C4A02EB810002F0A9F80BA005F07EFB99
:1017E000F2E7000051000020303A00008C00002099
:1017F0007673313035333A2534580A00A08601001B
:1018000028000020290000204D75736963506C6129
:101810007920456E640A0000704716A005F05EFB53
:1018200000BFFEE700BFFEE700BFFEE700BFFEE728
:1018300070477047704710B501F053FC10BD10B5EC
:1018400001F0CFFB10BD10B50120FEF789FF20B1DC
:1018500001200C490870FEF794FF10BD10B54FF43D
:101860000050FEF77DFF18B14FF40050FEF789FFDE
:1018700010BD00000D0A20686172646661756C74A9
:10188000000000007800002008B501210820FFF7C3
:101890009DFA2020ADF8000010208DF803000320F1
:1018A0008DF8020069460F48FEF7D4FF0120ADF81D
:1018B000000069460B48FEF7CDFF0220ADF800009E
:1018C00069460848FEF7C6FF20210648FFF76FF873
:1018D00001210448FFF76BF802210248FFF767F87F
:1018E00008BD0000000C014000B585B001210420B6
:1018F000FFF76CFA01218803FFF768FA18208DF8CA
:1019000013004FF40070ADF8100003208DF81200A2
:1019100004A92148FEF79EFF04208DF81300000261
:10192000ADF8100004A91C48FEF794FF4FF4E13015
:1019300000900020ADF80400ADF80600ADF80800F6
:10194000ADF80C000C20ADF80A0069461348FFF70B
:1019500054FD01211148FFF7DCFD05B000BD70B555
:1019600004460D46E1B20D48FFF740FE00BF80215E
:101970000A48FFF7A9FE0028F9D0204670BD10B52F
:10198000044600BF20210548FFF79EFE0028F9D03D
:101990000248FFF72FFE10BD00080140003801404B
:1019A00008B50020FFF7A1FA0020FFF7A1FAFFF722
:1019B00071FA00214FF48060FFF7FBF94FF470607B
:1019C000ADF8000004208DF803006946FB48FEF7DF
:1019D00041FF0420ADF800006946F948FEF73AFFE0
:1019E00008BD08B54FF4C060FEF7AEFC31208DF89D
:1019F000000001208DF8030000208DF801008DF813
:101A000002006846FEF7A5FC08BD10B5ED48FEF7DC
:101A1000F1FD10BD30B58BB004460D46EA48FEF727
:101A2000FDFD0021E948FEF7CAFDA808039000204B
:101A300002900A9001944FF4006007908020059076
:101A400000200890E2480090401506900020049085
:101A50004FF4005009906946DC48FEF785FD0121EE
:101A6000DA48FEF7ACFD0BB030BD30B58BB00446A4
:101A70000D46D548FEF7D2FD0021D448FEF79FFD64
:101A8000A80803901020029000200A9001944FF4BF
:101A9000006007908020059000200890CC480090BE
:101AA00040150690002004904FF4005009906946BC
:101AB000C648FEF759FD0121C448FEF780FD0BB072
:101AC00030BD08B501213020FFF780F94FF4F85000
:101AD000ADF8000018208DF8030003208DF80200F7
:101AE0006946B648FEF7B6FE0420ADF80000694628
:101AF000B348FEF7AFFE01218802FFF75AF9012132
:101B00000220FFF756F908BD014600BFB0488038F3
:101B1000406B00F045000028F8D040F2FF50AC4A7E
:101B2000803A90631046406908221040C0B2704766
:101B30002DE9FC4107460D460026002400200090B8
:101B400001900820A3490860102048604020886068
:101B50000020C8604FF4806008610846FFF7E8F98C
:101B60001020FFF7D1FF044614B12046BDE8FC81E8
:101B70009948008800049749086037204860402051
:101B800088600020C8604FF4806008610846FFF755
:101B9000CFF93720FFF7B8FF04460CB12046E5E740
:101BA0004FF0FF308D490860082048603020886081
:101BB0000220C86000200861012048610846FFF744
:101BC000E0F90020834908603320486040208860A5
:101BD0000020C8604FF4806008610846FFF7A8F94C
:101BE0003320FFF791FF04460CB12046BEE709E021
:101BF0004FF40010FFF713FA20B1FFF7E4F94DF8A6
:101C00002600761C72488038406B40F22A610840FA
:101C10000028EDD00820FFF702FA28B10820FFF7CE
:101C200008FA04242046A1E70220FFF7F8F928B1BA
:101C30000220FFF7FEF90224204697E72020FFF755
:101C4000EEF928B12020FFF7F4F9062420468DE7AD
:101C50004FF40070FFF7E3F930B14FF40070FFF775
:101C6000E8F90724204681E740F2FF50FFF7E1F949
:101C700000980006009901F47F4140EA0120009994
:101C800001F47F0140EA1120009940EA1160686088
:101C900001980006019901F47F4140EA0120019971
:101CA00001F47F0140EA1120019940EA11602860A7
:101CB00020465BE77CB5054600240020009001909B
:101CC000FFF754F900F0007010B10E2420467CBDDF
:101CD0004149098888B26946FFF72AFF04460CB1DA
:101CE0002046F4E7012D36D1019800F48020002829
:101CF0002ED03948008800043649086037204860F3
:101D0000402088600020C860A80208610846FFF7EC
:101D10000FF93720FFF7F8FE04460CB12046D6E74E
:101D200002202C490860062048604020886000207E
:101D3000C8604FF4806008610846FFF7F9F8062094
:101D4000FFF7E2FE04460CB12046C0E72046BEE79E
:101D500025242046BBE7019800F4803068B31E4874
:101D6000008800041B4908603720486040208860D4
:101D70000020C8604FF4806008610846FFF7D8F87B
:101D80003720FFF7C1FE04460CB120469FE7002034
:101D90001049086006204860402088600020C86024
:101DA0004FF4806008610846FFF7C2F80620FFF78D
:101DB000ABFE0446A4B1204689E713E000100140C1
:101DC0000014014000200010807000104404024004
:101DD000808001405411002058000020681100202C
:101DE000204674E72524204671E770B50446002597
:101DF000FA480068032802D12725284670BDF74815
:101E0000006838B1F5480068012803D0F34800683D
:101E100002282ED1B4F5805F02D127252846EDE7B0
:101E2000B4F5006F14D10120FFF744FF054605BB50
:101E30000120EB49087500200860486088604FF475
:101E40000060C860002008610846FFF731F810E024
:101E50000020FFF72FFF05465DB90120E049087516
:101E60000020086048608860C86008610846FFF785
:101E70001FF82846C2E770B504460025D94804601B
:101E80000720D8494860402088600020C8604FF48F
:101E9000806008610846FFF74BF80720FFF734FE23
:101EA0000546284670BD30B5014600200022CB4BC8
:101EB0001B7881F84E30CC4B1B88A1F84C30CB4BB3
:101EC0001B681A0E93090B70C2F383034B7002F068
:101ED00003038B70C54B1B68C3F30742CA70C34B27
:101EE0001B88C3F307220A71C04B1A784A715B68DA
:101EF0001A0E1301CB80BD4B5B68C3F30742CB883E
:101F000043EA1213CB8002F00F030B72B74B9B888E
:101F1000C3F30722D3094B72C2F380138B72C2F34F
:101F20004013CB72C2F300130B7300234B73AB4B04
:101F30001B681BB1A94B1B68012B3CD193071B0DE0
:101F40000B61AA4B1A790B6943EA82030B61A74B19
:101F50009B681A0E0B6943EA92130B61C2F3C2032A
:101F60000B7502F007034B75A04B9B68C3F3074248
:101F700053098B75C2F38203CB7593075B0F0B7606
:101F80009A4B1B89C3F307220B7E43EAD2130B76CD
:101F90000B695B1C4B640C7E4B6CA41C0125A5409B
:101FA0006B434B640C7A0123A3408B64D1E9113459
:101FB00063434B6421E0894B1B68022B1DD18B4B83
:101FC0001A7993069B0A0B61884B9B681A0E0B6962
:101FD00043EA02230B61854B9B68C3F307420B69FD
:101FE00013430B61814B1B89C3F307220B695B1CF5
:101FF000DB044B644FF400738B64C2F3801301F86D
:10200000193F93065B0E4B70784B1A7A4B7843EA74
:10201000D2134B7002F07F038B70744BDB681A0E87
:10202000D309CB70C2F341130B71C2F382034B711E
:1020300093071B0F8B716D4BDB68C3F307428B79E2
:1020400043EA92138B71C2F34013CB7100230B72DE
:1020500002F001034B72654B9B89C3F30722D3093E
:102060008B72C2F38013CB72C2F340130B73C2F3B3
:1020700000134B73C2F381038B7302F00303CB7322
:102080005A4B1A7B53080B7401234B74584B1B6833
:102090001A0ECA741939564B1B68C3F3074214024F
:1020A000CC85534B1B88C3F30722CB8D1343CB85C1
:1020B0004F4B1A7814060C635B681A0E0B6B43EADD
:1020C00002440C634A4B5B68C3F307420B6B43EA61
:1020D00002240C63464B9B88C3F307220B6B13430C
:1020E0000B63434B1A7934235A54414B9B681A0EA5
:1020F00035235A543E4B9B68C3F3074214068C6346
:102100003B4B1B89C3F307228B6B43EA02448C636E
:10211000374B1A7A8B6B43EA02248C63344BDB68AF
:102120001A0E8B6B13438B63314BDB68C3F307428F
:102130003C235B5C43EA12143C235C5413071C0DE4
:10214000CC872B4B9B89C3F30722CB8F1343CB87C1
:10215000274B1A7B540840235C54012441235C54D0
:1021600030BD70B500252348446B01E02148446B25
:1021700004F045000028F9D004F0040028B103253C
:102180000420FEF756FF284670BD04F0010028B178
:1021900001250120FEF74DFF2846F5E740F2FF50EC
:1021A000FEF747FF2846EFE72DE9F04106460F46C8
:1021B0004FF000080F48456B01E00E48456B05F0F5
:1021C00045000028F9D005F00400A8B14FF003083D
:1021D0000420FEF72EFF4046BDE8F08154000020A9
:1021E0003C1100205411002058000020BC10002099
:1021F000CC1000200080014005F0010030B14FF00C
:1022000001080120FEF715FF4046E5E7FEF7AAFEAC
:10221000B04203D04FF010084046DDE740F2FF50D7
:10222000FEF707FF0020FEF7A1FE044604F460401D
:1022300018B9200C38804046CEE704F4005008B1AD
:102240001320C9E704F4804008B11020C4E704F467
:10225000004008B10F20BFE74046BDE738B5002475
:1022600001200090FEF74FFE10B92524204638BD0E
:10227000F8480068042828D00020F74908600220A8
:102280004860C02088600020C8604FF4806008610A
:102290000846FEF74DFEFFF764FF04460CB12046EA
:1022A000E5E70020FEF762FEEC4908600420FEF737
:1022B0005DFEEA4948600820FEF758FEE74988605D
:1022C0000C20FEF753FEE549C860E248006858B1AB
:1022D000E0480068012807D0DE480068062803D0DF
:1022E000DC480068022816D10020DB490860032082
:1022F0004860402088600020C8604FF4806008611A
:102300000846FEF715FE69460320FFF74DFF044619
:102310000CB12046ABE7CF48006804282ED0BDF8AA
:102320000000CF490860BDF800000004CA490860F9
:1023300009204860C02088600020C8604FF4806099
:1023400008610846FEF7F4FDFFF70BFF04460CB1E9
:1023500020468CE70020FEF709FEC24908600420F1
:10236000FEF704FEBF4948600820FEF7FFFDBD49A7
:1023700088600C20FEF7FAFDBA49C86000242046A8
:1023800075E770B50025B848446B01E0B648446B6A
:1023900004F045000028F9D004F0040028B103251A
:1023A0000420FEF746FE284670BD40F2FF50FEF7BF
:1023B00040FE2846F8E770B500264FF48035AA485D
:1023C000446B02E06D1EA848446B04F0450008B958
:1023D000002DF7D115B104F0040028B10326042024
:1023E000FEF727FE304670BD04F0400028B10026FD
:1023F0004020FEF71EFE3046F5E73046F3E770B5A5
:1024000000254FF4803400E0641E24B18020FEF7E4
:1024100006FE0028F8D014B90325284670BD40F206
:10242000FF50FEF706FE2846F8E72DE9F0410024AC
:10243000002600250027A046B2208C490875002000
:10244000086048608860C86008610846FEF730FD93
:102450000320FEF74DFD0120FEF747FD00207E49D9
:10246000086048608860C8604FF480600861084672
:10247000FEF75EFDFFF7C3FF044614B12046BDE83A
:10248000F0814FF4D57074490860082048604020FE
:1024900088600020C8604FF4806008610846FEF73D
:1024A00047FDFFF788FF04462CB901206949086001
:1024B0004FF0804812E000206749086037204860EC
:1024C000402088600020C8604FF4806008610846A2
:1024D000FEF72EFD3720FFF717FB044600205E496C
:1024E000086037204860402088600020C8604FF4B2
:1024F000806008610846FEF71BFD3720FFF704FBEC
:102500000446002C4AD136E00020534908603720A9
:102510004860402088600020C8604FF480600861F7
:102520000846FEF705FD3720FFF7EEFA04460CB12A
:102530002046A4E74E4848EA0000474908602920A1
:102540004860402088600020C8604FF480600861C7
:102550000846FEF7EDFCFFF714FF04460CB12046D9
:102560008DE70020FEF702FD0646012080EAD670C6
:1025700080F001076D1C1FB94FF6FF708542C3D371
:102580004FF6FF70854202D31B24204677E706F002
:102590008040060002D002202E49086020466EE7E7
:1025A00010B50024FFF71DFAFFF78BFAFEF772FC57
:1025B000FFF73BFF04460CB1204610BDFFF74EFE6F
:1025C00004460CB12046F8E7012028490875002090
:1025D000086048608860C86008610846FEF768FCCB
:1025E0001CB92448FFF75FFC044634B92149B1F80F
:1025F0004C100804FFF73FFC044624B94FF4006078
:10260000FFF7F3FB04462046D7E770B504460025E4
:102610001348008800041449886040F24D40C860A7
:102620000D20FFF771FA05460DB1284670BD0E4822
:10263000406920602846F9E708B500200090684608
:10264000FFF7E3FF08B1FF2008BD0098C0F3432067
:10265000FAE700005400002054110020CC100020A4
:1026600058000020BC100020008001403C110020D8
:1026700000001080EC10002010B50424FFF7DCFFF0
:102680000446042C01D1002010BDFF2C01D10220F2
:10269000FAE70120F8E710B500240020FEF728FC37
:1026A000204610BD70B50446002500260020FEF728
:1026B0005DFC00F0007010B10E25284670BD402072
:1026C000FE49086010204860402088600020C860F3
:1026D0004FF4806008610846FEF72AFC1020FFF7DF
:1026E00013FA05460DB12846E8E7F54800880004CE
:1026F000F249086037204860402088600020C860A8
:102700004FF4806008610846FEF712FC3720FFF79F
:10271000FBF905460DB12846D0E74FF0FF30E949F7
:10272000086040204860602088600220C860002067
:102730000861012048610846FEF723FC0020DF49BC
:1027400008600D204860402088600020C8604FF479
:10275000806008610846FEF7EBFB0D20FFF7D4F917
:1027600005460DB12846A9E70EE04FF40040FEF7FC
:1027700056FC48B1002604E0FEF725FC44F826008C
:10278000761C082EF8D32034CF48406B40F22A61E3
:1027900008400028E9D00820FEF741FC28B10820B5
:1027A000FEF747FC0425284688E70220FEF737FCA1
:1027B00028B10220FEF73DFC022528467EE72020B6
:1027C000FEF72DFC28B12020FEF733FC0625284615
:1027D00074E74FF40070FEF722FC30B14FF4007044
:1027E000FEF727FC0725284668E703E0FEF7EBFB2A
:1027F0002060241D4FF40010FEF711FC0028F5D1D5
:1028000040F2FF50FEF715FC284657E770B5044626
:1028100000260025AD48FFF745FF06460EB13046BD
:1028200070BDAA48007885092570A8480078C0F3D3
:1028300040156570A548857828026080A348C57852
:10284000608828436080A1480579280660609F4819
:102850004579606840EA054060609C488579606819
:1028600040EA052060609948C57960682843606047
:102870009648057A2572457A6572807A0509A572AF
:102880009248C57A2802A0819048057BA0892843F8
:10289000A0818E48407B8508A5738C48407B00F062
:1028A0000305E5733046BBE72DE9F0418046144649
:1028B0001D46069E0027002085490870854908604E
:1028C000854908608049C86284480068022808D1A8
:1028D0000602020200232046294604F079FA044643
:1028E0000D46764806601020744948604020886094
:1028F0000020C8604FF4806008610846FEF718FBAE
:102900001020FFF701F9074617B13846BDE8F081FE
:102910004FF0FF306B4908600846466090208860A1
:102920000220C86000200861012048610846FEF7C7
:1029300028FB62480460112060494860402088609C
:102940000020C8604FF4806008610846FEF7F0FA86
:102950001120FFF7D9F807460FB13846D6E7012115
:102960000802FEF7D5FA0120FEF7DFFA31464046AD
:10297000FFF750F83846C9E72DE9F047814614467D
:102980001D46DDE9086800270020514908705149BB
:10299000086001205049086000204B49C8624F4838
:1029A0000068022808D106020202002320462946B8
:1029B00004F00EFA04460D464048066010203F49D8
:1029C0004860402088600020C8604FF48060086143
:1029D0000846FEF7ADFA1020FFF796F8074617B144
:1029E0003846BDE8F0874FF0FF303649086008FBF5
:1029F00006F04860902088600220C86000200861CE
:102A0000012048610846FEF7BCFA2C4804601220F9
:102A10002A494860402088600020C8604FF48060E8
:102A200008610846FEF784FA1220FFF76DF80746A2
:102A30000FB13846D5E701210802FEF769FA0120F7
:102A4000FEF773FA08FB06F14846FEF7E3FF384647
:102A5000C7E710B5002400BFFEF7D7FF30B91D4807
:102A6000006818B91A4800780028F5D0184800788E
:102A700010B11748007810BD2046FCE72DE9F04161
:102A8000804614461D46069E002700201049087007
:102A900010490860104908600B49C8620F48006877
:102AA000022808D10602020200232046294604F02B
:102AB0008FF904460D460148066011E054110020CC
:102AC000580000206811002000800140DC10002028
:102AD00060000020640000205C0000205400002002
:102AE0001020FE494860402088600020C8604FF4F4
:102AF000806008610846FEF71BFA1020FFF704F813
:102B0000074617B13846BDE8F081F4480460182044
:102B1000F2494860402088600020C8604FF480601F
:102B200008610846FEF704FA1820FEF7EDFF074695
:102B30000FB13846E7E74FF0FF30E9490860084633
:102B40004660902088600020C860086101204861CC
:102B50000846FEF716FA01210802FEF7D9F93146B8
:102B60004046FEF782FF0120FEF7DFF93846CAE74C
:102B70002DE9F843814615461E46DDE90878002414
:102B800000200090D7490870D74908600120D74934
:102B900008600020D649C862D6480068022808D1DB
:102BA0000702020200232846314604F011F90546C7
:102BB0000E46CA4807601020C84948604020886017
:102BC0000020C8604FF4806008610846FEF7B0F945
:102BD0001020FEF799FF044614B12046BDE8F883A3
:102BE000C54800880004BD4908603720486040207F
:102BF00088600020C8604FF4806008610846FEF7D6
:102C000097F93720FEF780FF04460CB12046E5E730
:102C1000B248C0F800801720B04948604020886062
:102C20000020C8604FF4806008610846FEF780F914
:102C30001720FEF769FF04460CB12046CEE7A748EF
:102C400005601920A5494860402088600020C860C0
:102C50004FF4806008610846FEF76AF91920FEF714
:102C600053FF04460CB12046B8E74FF0FF309C49B3
:102C7000086008FB07F04860902088600020C8606A
:102C80000861012048610846FEF77BF9012108022E
:102C9000FEF73EF90120FEF748F908FB07F1484628
:102CA000FEF7E3FE204699E710B5002400BFFEF7CB
:102CB000ACFE30B98C48006818B98A480078002802
:102CC000F5D08848007810B18648007810BD40F2F1
:102CD000FF50FEF7AEF92046F8E78548406B00F458
:102CE000405008B1012070470020FCE710B50024D7
:102CF00000207F49886040F24C40C8600C20FEF7FD
:102D000003FF0446204610BD7CB504460025002084
:102D100001900090784800880004704908600D20F8
:102D20004860402088600020C8604FF480600861DF
:102D30000846FEF7FDF86E48406B009002E06C48D4
:102D4000406B0090009800F045000028F7D00098F4
:102D500000F0040028B103250420FEF76AF9284694
:102D60007CBD009800F0010028B101250120FEF78C
:102D700060F92846F4E7FEF7F5F8009000980D2872
:102D800002D010252846EBE740F2FF50FEF751F93C
:102D90000020FEF7EBF801900198C0F3432020706B
:102DA00056490198084008B92846D9E7019800F02B
:102DB000004008B11C20D3E7019800F0804008B122
:102DC0000920CDE7019800F0005008B10A20C7E7BC
:102DD000019800F0805008B10B20C1E7019800F085
:102DE000006008B10C20BBE7019800F0806008B1DA
:102DF0000D20B5E7019800F0807008B10E20AFE714
:102E0000019800F4000008B10F20A9E7019800F430
:102E1000800008B11020A3E7019800F4001008B169
:102E200011209DE7019800F4801008B1122097E767
:102E3000019800F4002008B1132091E7019800F4F4
:102E4000802008B114208BE7019800F4003008B10D
:102E5000152085E7019800F4803008B116207FE73F
:102E6000019800F4004008B1172079E7019800F4B8
:102E7000804008B1182073E7019800F4005008B1B1
:102E800019206DE7019800F0080008B11A2067E7E3
:102E9000284665E72DE9FC4105460E46002400273B
:102EA00000200190009016484068202101EA10504F
:102EB00018B925242046BDE8FC810D484068C0B201
:102EC000801C1049B1FBF0F001900020FEF74EF895
:102ED00000F00070C0B10E242046ECE75411002031
:102EE0006811002060000020640000205C000020C9
:102EF00000800140540000205800002008E0FFFD41
:102F0000BC100020C0D401004C480068022801D148
:102F10006D0A760A4948006838B1484800680128B7
:102F200003D04648006802282BD145480560202080
:102F300043494860402088600020C8604FF48060AA
:102F400008610846FDF7F4FF2020FEF7DDFD04468A
:102F50000CB12046AFE73A48066021203849486066
:102F6000402088600020C8604FF4806008610846F7
:102F7000FDF7DEFF2120FEF7C7FD04460CB1204619
:102F800099E700202E49086026204860402088608C
:102F90000020C8604FF4806008610846FDF7C8FF54
:102FA0002620FEF7B1FD04460CB1204683E700273A
:102FB00000E07F1C01988742FBD36846FFF7A4FE20
:102FC000044603E06846FFF79FFE04463CB99DF8BF
:102FD00000000728F6D09DF800000628F2D0204611
:102FE00069E710B51748006801280BD10020164981
:102FF000886040F24C40C8600C20FEF785FD134904
:10300000087002E00020114908704FF48070FEF74C
:103010001DF800214FF48070FDF77AFF01200C4964
:1030200008600A48007810BD0146002002E04910FF
:10303000421CD0B20129FAD1704700005400002090
:10304000541100205C00002000800140600000203E
:103050006400002030B527480068274AB0FBF2F131
:10306000B1F1807F01D301201DE021F07F40401E9F
:103070004FF0E022506150170F22002807DA1307A3
:103080001D0E1E4B00F00F04241F1D5503E01307F7
:103090001C0E1B4B1C5400BF00204FF0E02290611F
:1030A00007201061002008B100BFFEE74FF0E020CC
:1030B000006920F001004FF0E021086130BD01B54A
:1030C0001049009808604FF0E020006940F00100CE
:1030D0004FF0E021086100BF0A4800680028FBD1DA
:1030E00008BD0848006820B106480068401E054930
:1030F000086070470000002040420F0018ED00E01B
:1031000000E400E06800002010B5044603E021461A
:10311000F848FEF7A5F80221F648FEF7F4F8002873
:10312000F5D004E0F348FEF79DF8C0B210BD0121D0
:10313000F048FEF7E8F80028F4D000BFF6E710B535
:1031400004462046FFF7E0FF10BD10B50446E948ED
:1031500000884FF6C7710840E64908800846008895
:10316000204308800121E348FEF749F810BD10B55F
:103170002020FFF7EAFF10BD10B51020FFF7E5FF94
:1031800010BD00B587B001211820FDF71FFE4FF4D8
:103190008050ADF8180010208DF81B0003208DF82A
:1031A0001A0006A9D448FDF755FB4FF40050ADF8BE
:1031B000180018208DF81B0003208DF81A0006A9AE
:1031C000CD48FDF747FB4FF48040ADF818001820BC
:1031D0008DF81B0003208DF81A0006A9C648FDF7DC
:1031E00039FB4FF40040ADF8180018208DF81B0093
:1031F00003208DF81A0006A9BF48FDF72BFB4020DD
:10320000ADF8180048208DF81B0003208DF81A0037
:1032100006A9BA48FDF71EFB4020ADF818001020A3
:103220008DF81B0003208DF81A0006A9B348FDF79E
:1032300011FB4020ADF8180010208DF81B00032072
:103240008DF81A0006A9AD48FDF704FB012188039B
:10325000FDF7C9FD3820ADF810000120ADF80C00D5
:103260000220ADF80A000720ADF814000020ADF8E8
:103270000800ADF80400ADF812004FF48270ADF80C
:1032800006004FF40070ADF80E0001A99948FDF753
:1032900011FF01219748FDF7B2FFFF20FFF734FF30
:1032A00007B000BD70B505460C4600BF40219348ED
:1032B000FDF763FB0028F9D0FFF759FF40218F4845
:1032C000FDF775FB4FF480518B48FDF772FB022030
:1032D000FFF735FF2846FFF732FF2012FFF72FFFD9
:1032E000E0B2FFF72CFF4FF480518348FDF75FFBFE
:1032F000FFF742FF70BD10B50446FFF73DFF4021C8
:103300007E48FDF756FB2046FFF719FF40217B481A
:10331000FDF74DFB10BD70B50546002400BF4021F0
:103320007648FDF72AFB0028F9D0FFF720FF40215F
:103330007248FDF73CFB4FF480516F48FDF739FBB5
:103340000320FFF7FCFE2846FFF7F9FEFF20FFF7FA
:10335000F6FE04464FF6FF7000EA0424FF20FFF754
:10336000EEFE204484B24FF480516348FDF71FFB0A
:10337000FFF702FF204670BD70B5044600252146C8
:103380000720FFF78FFF0620FFF7C5FF05462846F9
:1033900070BD70B504460D4621460720FFF782FF39
:1033A00000BF40215548FDF7E8FA0028F9D029462A
:1033B0000620FFF777FF70BD70B50820FFF7ABFF61
:1033C00005460920FFF7A7FF044644F66771601A17
:1033D0008C421BD00DDCA4F58040A0F5A270B0B1EA
:1033E000012810D0B0F53F6F12D0B0F5416F26D153
:1033F0000BE0A0F2E67038B1A0F61F7048B1A0F65D
:10340000F970E0B900BF00BF00BF00BF00BF00BF40
:1034100000BF68001921B0FBF1F40A20B4FBF0F101
:1034200000FB1140052805D90A20B4FBF0F0401C30
:1034300080B270BD0A20B4FBF0F080B2F9E7E40876
:1034400004F00304032C01D1012400E000242C48E3
:1034500000EB4410290B30F81100EAE710B541F6F3
:103460000560FFF789FF10BD10B541F60660FFF754
:1034700083FF10BD10B500210420FFF713FF0021CA
:103480000420FFF70FFF10BD10B500240420FFF744
:1034900042FF0446204610BD10B5002400BF402165
:1034A0001648FDF76AFA0028F9D0FF20FFF747FE1B
:1034B00000240EE040F604010020FFF7F3FE4FF475
:1034C000FA60FFF7FCFD2046611CCCB2642800DDE9
:1034D00005E00020FFF71FFFB0F5006FEAD100BF45
:1034E00000BF40210548FDF748FA0028F9D0002424
:1034F00013E0000000380040000C014000100140C3
:10350000F09D00084FF418410320FFF7CBFE204642
:10351000611CCCB2642800DD05E00320FFF7FBFE50
:10352000B0F5184FEED100BF44F62060FFF7C7FD9D
:1035300010BD10B500244021F748FDF73AFA44F6D3
:103540002060FFF7BCFD4021F348FDF730FA4FF44F
:103550008051F248FDF72BFA4021EF48FDF727FA9A
:1035600004E0601CC4B23220FFF7A9FD4021EA4804
:10357000FDF703FA08B9C82CF3DB44F62060FFF727
:103580009EFDC82C01DB012010BD0020FCE710B51A
:10359000FFF7CFFF42F220010B20FFF783FE4FF42D
:1035A00002610020FFF77EFE00BF4021DA48FDF7F0
:1035B000E4F90028F9D0FFF7DAFD4021D648FDF7FD
:1035C000F8F95320FFF7BBFDEF20FFF7B8FD6E20A1
:1035D000FFF7B5FD2420FFF7B2FD0020FFF7AFFD98
:1035E0000020FFF7ACFD0020FFF7A9FD0020FFF74A
:1035F000A6FDCB48FFF763FD4021C748FDF7D7F98B
:103600004021C548FDF7D5F94520FFF798FD782002
:10361000FFF795FD6920FFF792FD7420FFF78FFDFE
:103620000020FFF78CFD0020FFF789FD0020FFF749
:1036300086FD0020FFF783FDB948FFF740FD4021DC
:10364000B548FDF7B4F910BD10B5FFF772FF42F2AF
:1036500020010B20FFF726FE4FF402610020FFF748
:1036600021FE00BF4021AC48FDF787F90028F9D0C2
:10367000FFF77DFD4021A848FDF79BF94D20FFF79E
:103680005EFDEA20FFF75BFD6D20FFF758FD54203B
:10369000FFF755FD0020FFF752FD0020FFF74FFD1B
:1036A0000020FFF74CFD0020FFF749FD9D48FFF784
:1036B00006FD40219848FDF77AF90820FFF72BFE18
:1036C00010BD70B5054640219348FDF756F988B105
:1036D00040219148FDF76DF9002404E0285DFFF7D3
:1036E0002EFD601CC4B2202CF8DB40218A48FDF777
:1036F0005EF901E0012070BD0020FCE710B5044632
:10370000214641F60460FFF744FE10BD70B588B055
:10371000002604E000200DF80600701CC6B2202E22
:10372000F8DB0020FFF7F7FD044644F0080444F0FE
:10373000040421460020FFF7B5FD00250EE0684691
:10374000FFF7BFFF50B905F1200085B20020FFF759
:10375000E2FD044604F0080000B902E0B5F5006F90
:10376000EDDB00BFB5F5006F19DAFFF77DFEC4B2DF
:10377000002604E0E0B20DF80600701CC6B2202E50
:10378000F8DB002506E06846FFF79BFF10B905F15E
:10379000200085B240F604008542F4DB01E0FFF72B
:1037A0007BFE0820FFF7B7FD04460920FFF7B3FDB5
:1037B000204484B21CB1FFF7BCFEFFF76DFE08B0D9
:1037C00070BD2DE9F0470446884600252DE02846C7
:1037D000691C8DB234F810702846691C8DB234F81B
:1037E000106006F4004088B1C6F30E062846691C36
:1037F0008DB234F8109003E0F8B24946FFF752FD5D
:103800003000A6F101018EB20FD0F5E708E028469E
:10381000691C8DB234F81090F8B24946FFF742FDAA
:103820003000A6F101018EB2F1D14545CFDBBDE8F4
:10383000F08770B505460024C5F1FE0084B24FF64E
:10384000FF7000EA0424C5F1FE00204484B2214642
:103850000B20FFF727FD70BD2DE9F04706460F4608
:1038600090461D460024A14605B90AE0082D04DD56
:10387000A5F108004FFA80F903E0A5F109004FFA1D
:1038800080F909F00F044FF6FF7000EA041408F005
:103890000F0004444FF6FF7000EA041407F00F0015
:1038A00004444FF6FF7000EA041406F00F002044B1
:1038B00084B221460220FFF7F5FCBDE8F08770B521
:1038C00005460020FFF727FD044605F0010010B172
:1038D00044F0100401E024F0200405F0020010B1CF
:1038E00044F0800401E024F0800421460020FFF72A
:1038F000D9FC70BD10B50C490878FFF79AFF0A4C47
:103900002379E278A1786078FFF7A6FF214648790D
:10391000FFF7D5FF10BD000000100140000C014072
:10392000A0860100F04902006C00002070B5054639
:103930000024FFF7EBFEFFF7DDFFFFF79BFD30A153
:10394000284603F088FA20B92FA1284603F083FA0D
:1039500020B141F239512E48FFF733FF01222946A9
:103960002C4801F082FD2C49087008460078002898
:1039700045D1FFF701FC2EE00024284B4FF4805284
:103980002749244801F030FE2349087000BF24492C
:103990000819FFF796FE58B904F1200084B22148B7
:1039A000007828B1FFF7B2FE00201E49087015E02C
:1039B0001A4800688442EAD318480068B0F5805F6E
:1039C00002D11548007800B106E01748006880F081
:1039D000010015490860CFE700BF00BF0D4802F0A5
:1039E00051F812480078401C1049087008460078C9
:1039F0000F490978884202D100200C49087070BD37
:103A00002E666C61630000002E464C4143000000AE
:103A10007E730008801100207200002074000020D6
:103A2000A4210020780000200C0C01402800002078
:103A30005100002008B54FF4C060FCF785FC06205B
:103A40008DF8000001208DF801008DF802008DF83E
:103A500003006846FCF77DFC28208DF800006846CE
:103A6000FCF777FC08BD0EB501210520FDF7AEF986
:103A7000FFF7E0FF0120ADF8080004208DF80B00EF
:103A800002A91948FCF7E6FE00210846FCF7F8FFFA
:103A9000012000908DF8060000208DF80400082019
:103AA0008DF805006846FCF7F5FD4FF40050ADF8C1
:103AB000080004208DF80B0002A90C48FCF7CAFE90
:103AC0000D210220FCF7DCFF4FF400500090012094
:103AD0008DF8060000208DF8040008208DF8050000
:103AE0006846FCF7D7FD0EBD0008014000100140FC
:103AF0000146012011B1012904D102E020F00100AA
:103B000002E001E0012000BF00BF704770B504462D
:103B1000012514B1012C09D107E0FEF741FD10B9D0
:103B200025F0010500E0012502E001E0012500BFCC
:103B300000BF284670BD2DE9F04FADF5017D8146EF
:103B40000C4615461E464FF0040B4FF0000AB9F123
:103B5000000F03D0B9F1010F42D140E004F003009F
:103B6000E8B1002711E02A466D1C012301A90020BD
:103B7000FFF7E1FF074607B10BE04FF4007201A920
:103B8000204603F056F904F500743000A6F1010652
:103B9000E9D100BF38460DF5017DBDE8F08F4FF447
:103BA0000070A5FB00713A460B46CDE900062046A1
:103BB000FEF7E2FE8246BAF1000F07D1FEF749FF99
:103BC000824600BFFEF758FD0028FBD1BAF1000F76
:103BD00002D04FF0040B01E04FF0000B03E002E0D5
:103BE0004FF0040B00BF00BF5846D4E72DE9F04F5B
:103BF000ADF5017D81460C4616461D464FF0040B7F
:103C00004FF0000A25B904200DF5017DBDE8F08FC5
:103C1000B9F1000F03D0B9F1010F3FD13DE004F03D
:103C20000300D0B1002711E04FF40072214601A833
:103C300003F0FFF83246761C012301A90020FFF7AC
:103C4000D5FF074607B105E004F500742800A5F18B
:103C50000105E9D100BF3846D6E74FF40070A6FB56
:103C600000713A460B46CDE900052046FEF784FE7A
:103C70008246BAF1000F07D1FFF716F8824600BF5F
:103C8000FEF7FAFC0028FBD1BAF1000F02D04FF08A
:103C9000040B01E04FF0000B03E002E04FF0040BD7
:103CA00000BF00BF5846AFE730B50346042013B14C
:103CB000012B1CD11AE0A9B101290BD0022902D095
:103CC000032910D103E04FF4007414800BE00124A9
:103CD000146008E0094C646C084DAD6CB4FBF5F45D
:103CE000146000E000BF00BF002002E001E00420FB
:103CF00000BF00BF30BD024870470000EC1000203C
:103D00000000214670B503460C4603E014F8015B41
:103D100003F8015B1500A2F10102F7D170BD30B5C7
:103D2000034601E003F8011B1400A2F10102F9D1DE
:103D300030BDF0B503461C460D46002000BF1600FE
:103D4000A2F1010207D014F8017B15F801CBA7EB13
:103D50000C063000F3D0F0BD024600E0521C107893
:103D600010B110788842F9D1107870472DE9F041F0
:103D7000044600272079F8B1E56A607801232A46D5
:103D800004F13001FFF732FF08B1012714E00020F1
:103D90002071206A281AA16988420DD2E67809E0CC
:103DA000A0690544607801232A4604F13001FFF739
:103DB0001DFF761E022EF3D23846BDE8F08170B5A5
:103DC00004460D460026E06AA84210D02046FFF7C0
:103DD000CDFF06465EB9607801232A4604F1300122
:103DE000FFF7A9FE10B14FF0FF350126E56230461E
:103DF00070BD70B504462046FFF7B8FF0546002D9C
:103E000059D1207803284FD1607901284CD162899B
:103E1000002104F13000FFF782FF552184F82E12B3
:103E2000AA2184F82F12522084F830005221312028
:103E30000155612132200155412133200155722164
:103E400084F8141284F81512412184F816126121A5
:103E500084F81712217C84F81812208A010A84F849
:103E600019122069010C84F81A122069010E84F8D5
:103E70001B12217B84F81C12A089010A84F81D12F0
:103E8000E068010C84F81E12E068010E84F81F122D
:103E9000E069401CE0626078012304F13001E26ACD
:103EA000FFF7A4FE00206071607800221146FFF742
:103EB000FBFE00B10125284670BD0246891E5069EF
:103EC000801E884201D8002070479378906A01FBD9
:103ED0000300F9E72DE9F05F04460D46022D02D3F9
:103EE0006069A84202D84FF001098FE04FF0FF3916
:103EF0002078012804D002283CD003287ED157E046
:103F00002F4607EB57076089B7FBF0F0216A00EBFB
:103F1000010A51462046FFF752FF00B175E03846CE
:103F20007F1C6189B0FBF1F201FB120104F130004A
:103F300010F801806089B7FBF0F0216A00EB010AFC
:103F400051462046FFF73BFF00B15EE06089B7FBBA
:103F5000F0F100FB117104F13000405C48EA0028E8
:103F600005F0010010B14FEA181001E0C8F30B0092
:103F700081464AE0B4F80AA00AEBDA704010B5FBBB
:103F8000F0F0216A00EB010B59462046FFF717FFBE
:103F900000B13AE068006189B0FBF1F201FB120167
:103FA00004F130000E183078717840EA01292CE0D5
:103FB000B4F80AA04FEAEA700AEB90708010B5FBE3
:103FC000F0F0216A00EB010B59462046FFF7F7FE9F
:103FD00000B11AE0A8006189B0FBF1F201FB120107
:103FE00004F130000E18F0780006B17840EA014084
:103FF000717840EA01203178084300E002E020F0C7
:10400000704902E04FF0010900BF00BF4846BDE81B
:10401000F09F2DE9F05F04460E461746022E02D3AC
:104020006069B04202D84FF00208B3E0207801285E
:1040300004D0022852D0032872D172E0B14609EBB5
:1040400059096089B9FBF0F0216A00EB010A514679
:104050002046FFF7B4FE8046B8F1000F00D098E08C
:10406000484609F101096189B0FBF1F201FB120137
:1040700004F130000D1806F0010020B1F9B22878E3
:1040800061F31F1000E0384628700120207160891C
:10409000B9FBF0F0216A00EB010A51462046FFF718
:1040A0008EFE8046B8F1000F00D072E06089B9FB47
:1040B000F0F100FB119104F130000D1806F0010041
:1040C00010B1C7F3071005E0287800F0F000C7F33F
:1040D000032108432870012020715AE0B4F80AA097
:1040E0000AEBDA704010B6FBF0F0216A00EB010B2E
:1040F00059462046FFF763FE8046B8F1000F00D016
:1041000047E070006189B0FBF1F201FB120104F19C
:1041100030000D182F70380A68700120207138E0C7
:1041200034E0B4F80AA04FEAEA700AEB907080100D
:10413000B6FBF0F0216A00EB010B59462046FFF771
:104140003EFE8046B8F1000F00D022E0B000618949
:10415000B0FBF1F201FB120104F130000D18E87818
:104160000006A97840EA0140697840EA01202978F0
:10417000084300F0704007432F70380A6870380C0D
:10418000A870380EE8700120207102E04FF002089C
:1041900000BF00BF4046BDE8F09F2DE9F041044656
:1041A0000E46022E02D36069B04201D8022727E0F2
:1041B000002721E031462046FFF78CFE054605B971
:1041C0001DE0012D01D1022719E0681C08B9012763
:1041D00015E0002231462046FFF71BFF074607B1D6
:1041E0000DE02069401C30B12069401C20616079DD
:1041F00040F0010060712E466069B042DAD800BF1D
:104200003846BDE8F0812DE9F04704468946B9F10A
:10421000000F06D1E76817B16069B84215D80127C9
:1042200013E049462046FFF755FE0646022E02D20D
:104230000120BDE8F087701C08B93046F9E76069D5
:10424000B04201D93046F4E74F463D4600BF6D1CF1
:104250006069A84204D80225BD4201D90020E8E7E0
:1042600029462046FFF736FE064606B909E0701CCF
:1042700008B1012E01D13046DBE7BD42E7D1002075
:10428000D7E700BF6FF0704229462046FFF7C1FE16
:104290008046B8F1000F08D1B9F1000F05D02A46C9
:1042A00049462046FFF7B5FE8046B8F1000F0BD116
:1042B000E5602069401C78B12069401E206160796A
:1042C00040F00100607107E0B8F1010F02D14FF03A
:1042D000FF3000E0012005462846AAE72DE9F0411D
:1042E00004460E46E680A568012D03D0206840698B
:1042F000A84202D80220BDE8F0812DB920680078DC
:10430000032801D12068456A45B920680089B04278
:1043100001D80220EFE72068476A24E02168488935
:10432000C11700EBD16149112268927801FB02F8B4
:1043300012E029462068FFF7CDFD0546681C08B944
:104340000120D8E7022D03D320684069A84201D894
:104350000220D0E7A6EB08064645EAD229462068A7
:10436000FFF7ABFD0746E5600FB90220C3E7216800
:104370004889C11700EBD1614911B6FBF1F139440D
:10438000216121684889C11700EBD1614911B6FB51
:10439000F1F201FB12612268303202EB41116161DE
:1043A0000020A8E72DE9F04104468846E088461C35
:1043B000B0B208B1206910B90420BDE8F0812168CD
:1043C0004889C11700EBD1614911B6FBF1F201FB3D
:1043D0001261002971D12069401C2061E06828B970
:1043E00020680089B04268D80420E6E7216848893F
:1043F000C11700EBD1614911B6FBF1F12268927847
:10440000521E1140002958D1E1682068FFF762FD73
:104410000546012D01D80220CFE7681C08B901200C
:10442000CBE720684069A84241D8B8F1000F01D11C
:104430000420C2E7E1682068FFF7E5FE05460DB9F4
:104440000720BAE7012D01D10220B6E7681C08B9A0
:104450000120B2E72068FFF789FC08B10120ACE732
:1044600021684A8901F130000021FFF758FC2946F4
:104470002068FFF722FD2168C86200270EE00120B6
:10448000216808712068FFF771FC08B1012094E7EA
:104490002068C06A401C2168C8627F1C2068807840
:1044A000B842ECD82068C06AC01B2168C862E560C9
:1044B00029462068FFF701FD2061E68021684889D0
:1044C000C11700EBD1614911B6FBF1F201FB12619A
:1044D0002268303202EB4111616100206DE72DE965
:1044E000F04104460E4600212046FFF7F7FE054640
:1044F000EDB9002700BF21692068FFF760FC054681
:1045000005B113E060690078E52802D060690078A1
:1045100020B9781C0746B04201D107E000270121ED
:104520002046FFF73FFF0546002DE4D000BF042DD5
:1045300000D107252846BDE8F08110B502468C7EE3
:10454000CB7E44EA03201378032B05D10C7D4B7DF1
:1045500044EA032340EA034010BD81760B0AC37688
:104560000A0C02750B0E437570472DE9F047804623
:104570000C46A17EE07E41EA002010B10020BDE89B
:10458000F087207800F03F00401E00EB800101EB37
:10459000C0064FF00109002524E0F848405D205C8A
:1045A000F649495D2144497840EA0127B9F1000FF5
:1045B00011D0FF2E0BD2384602F0EAFB824631467C
:1045C000761C38F8110002F0E3FB824501D0002090
:1045D000D5E7B94605E04FF6FF70874201D00020CD
:1045E000CDE76D1C0D2DD8D3207800F0400038B1F8
:1045F000B9F1000F04D038F8160008B10020BEE76A
:104600000120BCE7F0B504468F7EC87E47EA002053
:1046100008B10020F0BD087800F03F00401E00EB1C
:10462000800707EBC002012600231AE0D348C05CD4
:10463000085CD24FFF5C0F447F7840EA07254EB1FB
:10464000FF2A01D30020E5E72E461046521C24F82D
:10465000105005E04FF6FF70854201D00020D9E7E9
:104660005B1C0D2BE2D3087800F0400030B1FF2A2C
:1046700001D30020CEE7002024F812000120C9E772
:10468000F0B504461D464D730F27CF7200270F73F8
:104690008F76BC4681F81BC0571E07EB870C0CEBCE
:1046A000C706002738463B4600BF4FF6FF77B842A3
:1046B00003D03746761C34F81700DFF8C0C21CF868
:1046C00003C001F80C000712DFF8B0C21CF803C0E9
:1046D0008C448CF8017008B94FF6FF705F1C3B46A4
:1046E0000D2FE2D34FF6FF77B84202D034F81670A0
:1046F0000FB942F040020A70F0BD2DE9FF4F83B0C0
:10470000074691461E460B2238460499FFF7FAFAEF
:10471000052E19D9B04612E039F802BB00250CE08D
:10472000584668F35F0080464FEA6B0B08F4803010
:1047300010B1934888EA00086D1C102DF0D3B9F829
:1047400000000028E8D14646072500BF06F00F000C
:1047500000F1300ABAF1390F03DD0AF1070000F069
:10476000FF0A28466D1E01A901F800A03609002E97
:10477000ECD17E20485500240BE0385D812807DB12
:10478000385DFE2804DC681EA04200D106E0641CEF
:10479000641CAC4202D2385D2028EED100BF00BFBD
:1047A000082D04D228466D1C01A9095C00E02021D7
:1047B0002046641C3954082CF2D307B0BDE8F08FB2
:1047C00030B5014600200B2200BF431003EBC0149C
:1047D00011F8015B6319D8B2531E1A00F5D130BD30
:1047E0002DE9F047044600212046FFF777FD0746F4
:1047F00017B13846BDE8F0874FF0FF09CA464FF6BB
:10480000FF70208400BF21692068FFF7D8FA0746AF
:1048100007B157E065692E780EB9042752E0E87AAF
:1048200000F03F08E52E05D008F0080040B1B8F1CF
:104830000F0F05D04FF0FF094FF6FF7020843AE0CC
:10484000B8F10F0F1CD1E06978B306F0400030B129
:1048500095F80DA026F04006B146E08820844E452C
:104860000AD1687B504507D12946E069FFF77DFEF4
:1048700010B1A9F1010000E0FF2000F0FF091AE0EB
:10488000B9F1000F05D12846FFF79AFF504500D136
:1048900018E0A069C07A00F0010038B90B22284660
:1048A000A169FFF746FA08B90CE004E04FF0FF09F0
:1048B0004FF6FF70208400212046FFF773FD074666
:1048C000002FA0D000BF384694E72DE9F05F0446E2
:1048D0008A464FF0FF09CB46042753E02169206840
:1048E000FFF76DFA074607B14FE0666935780DB9F5
:1048F00004274AE0F07A00F03F08E52D0AD02E2D7B
:1049000008D028F02000082801D1012000E0002074
:10491000504502D04FF0FF0929E0B8F10F0F1AD12E
:1049200005F0400030B196F80DB025F04005A946DD
:10493000E08820844D450AD1707B584507D1314627
:10494000E069FFF75FFE10B1A9F1010000E0FF2070
:1049500000F0FF090BE0B9F1000F04D13046FFF77A
:104960002FFF584502D04FF6FF7020840DE0002144
:104970002046FFF717FD074627B106E0309E0008E6
:104980002110010020690028A8D100BF0FB100202C
:1049900020613846BDE8F09F2DE9FE4F0446D4F86B
:1049A0001880D4F81C900C2241466846FFF7AAF9FB
:1049B00000BF9DF80B0000F0010020B3002088F834
:1049C0000B00E06101260CE033464A46694640464A
:1049D000FFF793FE2046FFF703FF054605B102E00F
:1049E000761C642EF0D300BF642E02D10720BDE8F0
:1049F000FE8F042D01D02846F9E79DF80B0088F8BA
:104A00000B00C4F81C909DF80B0000F0020060B190
:104A1000002600E0761C39F816000028FAD106F1CD
:104A200019000D21B0FBF1F700E0012739462046BF
:104A3000FFF755FD054645BB781E070025D0E088E9
:104A4000C11B2046FFF74AFC0546F5B9A069FFF7F0
:104A5000B7FE824600BF21692068FFF7B0F905461E
:104A600005B111E0FAB253466169E069FFF708FE4B
:104A700001202168087100212046FFF793FC0546BC
:104A800015B9781E0700E6D100BFC5B921692068B5
:104A9000FFF795F9054695B9202200216069FFF7D7
:104AA0003EF90B22D4E90501FFF72CF9A069C07A81
:104AB00000F0180061690873012021680871284618
:104AC00095E770B50446E688208C4FF6FF72904259
:104AD00001D1304600E0208C01462046FFF7FEFB66
:104AE00005460DBB00BF21692068FFF768F9054640
:104AF00005B115E0202200216069FFF710F9E520DB
:104B000061690870012021680871E088B04200D313
:104B100006E000212046FFF745FC0546002DE2D0C7
:104B200000BF042D00D10225284670BD2DE9F05F9D
:104B300080460D4605F10907D8F81000002843D03B
:104B4000D8F81440002626E03046761C14F8009071
:104B5000B9F1200F00D11EE0B9F1050F01D14FF0DE
:104B6000E509092E02D12E2007F8010BB9F1410FFA
:104B70000EDBB9F15A0F0BDC207B092E01D310217B
:104B800000E00821084018B109F1200000F0FF09F9
:104B900007F8019B00BF0B2ED6D3E07A2872E07F86
:104BA0000106A07F41EA0041607F41EA0020217FA9
:104BB00008432860217E607E41EA0020A880A17D14
:104BC000E07D41EA0020E88000203870A86998B3B1
:104BD0000026AF69D8F8100060B3E86950B3B8F8A0
:104BE00020004FF6FF71884224D0D8F81CB01BE09B
:104BF0000021504602F092F88246BAF1000F01D12E
:104C0000002616E0BAF1FF0F04DD4FEA2A223046F3
:104C1000761C3A54E869401EB04201D8002608E0EC
:104C20003046761C07F800A03BF8021B5FEA010A39
:104C3000DED100BF0020B855BDE8F09F2DE9F34F4D
:104C400083B0814604980068019002E00198401CFE
:104C50000190019800782F28F8D0019800785C28FE
:104C6000F4D0D9F81CA000252F4600BF38467F1C81
:104C700001990C5C202C03DB2F2C01D05C2C00D183
:104C800032E0FF2D03D3062005B0BDE8F08FE4B27B
:104C9000812C13DBE0B2FE2810DC38467F1C019922
:104CA0000E5C06EB042084B2402E01DB7E2E05DD77
:104CB000802E01DBFE2E01DD0620E5E701212046E6
:104CC00002F02CF804460CB90620DDE7802C06DA49
:104CD0002146F8A0FFF740F808B10620D4E728469F
:104CE0006D1C2AF81040C1E700BF0198C119049853
:104CF0000160202C01DA042000E00020804608E05A
:104D0000681E3AF81040202C02D02E2C00D002E071
:104D10006D1E002DF4D100BF0DB90620B4E70020B0
:104D20002AF815000B222021D9F81800FEF7F7FF0A
:104D3000002700E07F1C3AF817002028FAD03AF844
:104D400017002E28F6D00FB148F0030800E06D1EC2
:104D500025B1681E3AF810002E28F8D1002006462A
:104D600002904FF0080B00BF38467F1C3AF8104005
:104D700004B963E0202C03D02E2C04D1AF4202D022
:104D800048F00308F0E70298584501D2AF4214D129
:104D9000BBF10B0F02D148F003084FE0AF4201D046
:104DA00048F00308AF4200D948E02F46082002909F
:104DB0004FF00B0BB006060ED6E7802C09DB204621
:104DC00001F0E6FF0021009001F0A8FF044648F042
:104DD0000208FF2C11DDABF101000299884204D8D2
:104DE00048F00308CDF808B0BEE72212D9F8183011
:104DF0000298411C02911A5419E024B12146B0A036
:104E0000FEF7AAFF18B15F2448F003080FE0412C19
:104E100004DB5A2C02DC46F0020608E0612C06DBBB
:104E20007A2C04DC46F00106A4F1200084B2D9F803
:104E300018300298411C02911C5495E700BFD9F824
:104E400018000078E52803D10520D9F8181008705B
:104E5000BBF1080F01D1B006060E06F00C000C28BD
:104E600003D006F00300032801D148F0020808F03F
:104E7000020058B906F00300012801D148F01008DB
:104E800006F00C00042801D148F00808D9F81800F1
:104E900080F80B800020F7E62DE9F34104460198E5
:104EA00000782F2803D0019800785C2802D101985F
:104EB000401C01900020A06001980078202807D2B3
:104EC00000212046FFF70AFA05460020606128E02D
:104ED00000BF01A92046FFF7B1FE054605B11FE05E
:104EE0002046FFF77DFC0546A069C67A3DB1042D3A
:104EF00004D100BF06F0040000B9052510E006F05B
:104F0000040000B10CE06769F87A00F0100008B9FD
:104F1000052505E039462068FFF70FFBA060D8E7BC
:104F200000BF2846BDE8FC8170B502464FF0FF3057
:104F30001568E5B1116800E0491C0D78202D02D3F9
:104F40000D783A2DF8D10D783A2D0FD1146814F858
:104F5000015BA5F130030A2B07D28C4205D1022B4D
:104F600003D218464D1C2946156070BD002000BFB5
:104F7000FBE770B504460D4600202071401EE0623C
:104F800029462046FEF71BFF08B1032070BD94F8A8
:104F90002E1294F82F0241EA00204AF65521884249
:104FA00001D00220F2E794F86900010694F8680045
:104FB00041EA004194F8670041EA002094F8661045
:104FC000084320F07F404049884201D10020DDE7BE
:104FD00094F88500010694F8840041EA004194F8B1
:104FE000830041EA002094F88210084320F07F40BB
:104FF0003549884201D10020C8E70120C6E72DE9E4
:10500000F74F8AB000210A9801600B98FFF78CFFD8
:1050100009900998002803DA0B200DB0BDE8F08F45
:105020002A49099851F820400CB90C20F5E70A9854
:105030000460207878B16078FEF75AFD814609F067
:10504000010040B90C9820B109F0040008B10A2011
:10505000E3E70020E1E700202070099860706078A5
:10506000FEF754FD814609F0010008B10320D4E7A2
:105070000C9820B109F0040008B10A20CDE760784F
:1050800004F10A020221FEF70FFE38B96089B0F57B
:10509000007F03DB6089B0F5805F01DD0120BCE7A4
:1050A000002739462046FFF764FF0546012D0FD043
:1050B000D5BB41E0222A3A3C3E3F7C7F0000000005
:1050C0002B2C3B3D5B5D0000464154007C000020E2
:1050D00000261AE004F5F77000EB061898F80400B3
:1050E00070B198F80B00010698F80A0041EA0041F7
:1050F00098F8090041EA002098F80810084300E0F9
:10510000002002A941F82600761C042EE2D30026D6
:1051100006B1761E00BF02A850F826702FB139469E
:105120002046FFF726FF01E006E0022005461DB1FC
:10513000701C06460428EED3032D01D101206CE734
:105140000DB10D2069E73B20015D94F83C0041EA78
:1051500000206189884201D00D205EE74620015D74
:1051600094F8470041EA002ABAF1000F0ED194F8F2
:105170005700010694F8560041EA004194F85500A2
:1051800041EA002094F8541040EA010AC4F818A03B
:105190004020005DE070E078012804D0E07802282B
:1051A00001D00D2039E7E0780AFB00FA3D20005DD0
:1051B000A070A07818B1A078411E084008B10D2059
:1051C0002BE74120015D94F8420041EA0020208154
:1051D0006089C11700EBD1614911228992FBF1F37B
:1051E00001FB132109B10D2017E74320015D94F85D
:1051F000440041EA00200890089870B994F85300E0
:10520000010694F8520041EA004194F8510041EA45
:10521000002094F85010084308903E20015D94F857
:105220003F0041EA00200190019808B90D20F4E602
:105230006089C11700EBD1614911228992FBF1F21B
:105240000199514411440791DDE90710884201D2C8
:105250000D20E2E6DDE90710401AA178B0FBF1FB72
:10526000BBF1000F01D10D20D7E6012540F6F67005
:10527000834500D302254FF6F670834500D30325FE
:105280000BF102006061E7610198384420620798E1
:105290003844A062032D16D1208908B10D20BCE648
:1052A00094F85F00010694F85E0041EA004194F82A
:1052B0005D0041EA002094F85C1008436062606978
:1052C0008000069014E0208908B90D20A5E6206A28
:1052D00050446062022D02D16069400007E0207DE9
:1052E00000F00100616901EB410100EB5100069003
:1052F0006089401E069908446189B0FBF1F0A169FC
:10530000884201D90D2088E64FF0FF302061E0602F
:1053100080206071032D5AD194F8601094F86100D8
:1053200041EA0020012852D1791C2046FEF747FDB2
:10533000E8BB0020607194F82E1294F82F0241EA25
:1053400000204AF65521884241D13320005D0106F4
:105350003220005D41EA00413120005D41EA002039
:1053600094F830100843F549884230D194F8170278
:10537000010694F8160241EA004194F8150241EA48
:10538000002094F814120843ED4988421FD194F884
:105390001B02010694F81A0241EA004194F819022E
:1053A00041EA002094F818120843206100E00EE062
:1053B00094F81F02010694F81E0241EA004194F895
:1053C0001D0241EA002094F81C120843E060257099
:1053D000DC480088401C80B2DA490880E080002068
:1053E0001BE670B505462C4684B1206870B1206874
:1053F000007858B12068C088A188884206D1216809
:105400004878FEF775FB00F0010008B1092070BD77
:105410000020FCE7F7B582B016460398019001A87A
:10542000FFF782FD0546002D02DA0B2005B0F0BD26
:10543000C54850F825400CB100202070029810B1EA
:10544000002002990870C049029841F8250002988E
:1054500008B1012E01D00020E8E7002203A902A82C
:10546000FFF7CDFD07463846E0E72DE9F743ADF5F8
:105470000C7D0546164625B909200DF50F7DBDE8C2
:10548000F0830020286006F01F0626F001028DA997
:1054900083A8FFF7B4FD0746002F74D180A8899038
:1054A000CDF828D283A88D99FFF7F6FC0746889C93
:1054B0000FB904B9062706F01C0000285CD04FB1D4
:1054C000042F03D183A8FFF767FA074646F00806C2
:1054D000889C09E0E07A00F0110008B1072703E09A
:1054E00006F0040000B10827002F55D106F008008F
:1054F000002851D0FEF7FFFB804684F80E804FEA6B
:105500001821E1734FEA184121744FEA1861617460
:1055100084F816804FEA1821E1754FEA1841217688
:105520004FEA186161760020E072207700216177F0
:10553000A177E17721468398FEF7FFFF814600219E
:105540002046FFF70AF8012083990871B9F1000F8E
:1055500022D08398D0F82C8049468398FEF71DFE10
:105560000746CFB9A9F101008399C86041468398E5
:10557000FEF725FC07460FE077B9E07A00F010004F
:1055800010B1042708E02DE006F0020020B1E07A17
:1055900000F0010000B1072747B906F0080008B184
:1055A00046F020068398C06AE8612C62D7B9AE71D4
:1055B0000020E87121468398FEF7BFFF2861E07F55
:1055C0000106A07F41EA0041607F41EA0020217F7F
:1055D0000843E8600020A860A861839828602868D4
:1055E000C088A880384648E72DE9FF4F85B00446BB
:1055F00015469A46DDF818B00020CAF8000020468B
:10560000FFF7EFFE0490049818B1049809B0BDE8C4
:10561000F08FE07908B1E079F8E7A07900F00100B7
:1056200008B90720F2E7D4E90210401A0290029864
:10563000854200D9029DC2E021684989A068B0FB7B
:10564000F1F201FB1200002877D121684989A06896
:10565000B0FBF1F021688978491E084000F0FF098D
:10566000B9F1000F17D1A06810B92069039004E0C8
:1056700061692068FEF72EFC03900398022802D28D
:105680000220E071C2E70398401C10B90120E071CC
:10569000BCE70398606161692068FEF70EFC06466E
:1056A00016B90220E071B1E74E4420684089B5FB8D
:1056B000F0F8B8F1000F2DD009EB080021688978C7
:1056C000884203D920688078A0EB090821684878CF
:1056D000434632465946FEF72EFA10B10120E071DA
:1056E00094E7A07900F0400078B1A069801B4045A4
:1056F0000BD2A169891B23685B8901FB03B0216878
:105700004A8904F12401FEF7FDFA2068408900FB74
:1057100008F74AE0A069B04228D0A07900F0400024
:10572000C0B121684878012304F12401A269FEF781
:105730005DFA58B10120E07168E718E0525261410A
:1057400072724161840000207C000020A07920F06A
:105750004000A071216848780123324604F12401F9
:10576000FEF7E9F910B10120E0714FE7A661216869
:105770004989A068B0FBF1F201FB12002168498958
:105780000F1AAF4200D92F4621684989A068B0FBA3
:10579000F1F201FB120104F1240008443A460146EB
:1057A00001905846FEF7AEFA00BFBB44A0683844EB
:1057B000A060DAF800003844CAF80000ED1B002DA4
:1057C0007FF43AAF002021E72DE9FF4F83B0044674
:1057D00015469B46049801900020CBF80000204617
:1057E000FFF7FFFD0290029818B1029807B0BDE8DC
:1057F000F08FE07908B1E079F8E7A07900F00200D5
:1058000008B90720F2E7A0682844A168884200D2BE
:105810000025CFE021684989A068B0FBF1F201FBC7
:10582000120000287ED121684989A068B0FBF1F000
:1058300021688978491E084000F0FF0ABAF1000F7C
:105840001ED1A06838B9276957B900212068FEF732
:10585000DAFC074604E061692068FEF7D4FC0746DD
:1058600007B9AAE0012F02D10220E071BEE7781C3F
:1058700010B90120E071B9E76761206900B92761BB
:10588000A07900F0400078B121684878012304F144
:105890002401A269FEF7AAF910B10120E071A5E781
:1058A000A07920F04000A07161692068FEF705FB37
:1058B000064616B90220E07198E7564420684089F0
:1058C000B5FBF0F9B9F1000F31D00AEB09002168FE
:1058D0008978884203D920688078A0EB0A0921687A
:1058E00048784B4632460199FEF780F910B1012005
:1058F000E0717BE7A069801B484511D2A069831B3A
:105900002068B0F80AC0019803FB0C0120684289A6
:1059100004F12400FEF7F6F9A07920F04000A07110
:10592000206800E017E0408900FB09F835E0A06935
:10593000B0420FD0D4E9020188420BD221684878E6
:105940000123324604F12401FEF7F5F810B10120DD
:10595000E0714BE7A66121684989A068B0FBF1F2CC
:1059600001FB120021684989A1EB0008A84500D974
:10597000A84621684989A068B0FBF1F201FB120139
:1059800004F124000844424600900199FEF7BAF958
:10599000A07940F04000A07100BF01984044019000
:1059A000A0684044A060DBF800004044CBF8000051
:1059B000A5EB0805002D7FF42DAF00BFD4E902014F
:1059C000884201D9A068E060A07940F02000A07171
:1059D00000200BE72DE9F04104462046FFF701FDCA
:1059E0000746002F4CD1A07900F02000002847D0B6
:1059F000A07900F0400078B121684878012304F1D3
:105A00002401A269FEF7F2F810B10120BDE8F0818F
:105A1000A07920F04000A071E1692068FEF7CFF97D
:105A20000746002F2CD1256AE87A40F02000E87262
:105A3000207B2877A089010A6977E068010CA977A3
:105A4000E068010EE97728462169FEF786FDFEF73A
:105A500052F90646AE75310AE975310C2976310ED8
:105A600069760020A8740021E974A07920F0200054
:105A7000A0710120216808712068FEF7BAF9074675
:105A80003846C3E770B505462846FFF7A3FF04462E
:105A900034B92846FFF7A5FC04460CB9002028605D
:105AA000204670BD2DE9F04704460E462046FFF71C
:105AB00098FC8246BAF1000F02D05046BDE8F0874C
:105AC000E07908B1E079F9E7E068B04204D2A07962
:105AD00000F0020000B9E668D4F808904FF0000822
