:020000040800F2
:10000000580C002045010008F50F0008F70F000804
:10001000FB0F0008FF0F000803100008000000009D
:1000200000000000000000000000000007100008B1
:1000300009100008000000000B1000080D10000857
:100040005F0100085F0100085F0100085F01000810
:100050005F0100085F0100085F0100085F01000800
:100060005F0100085F0100085F0100085F010008F0
:100070005F0100085F0100085F0100085F010008E0
:100080005F0100085F0100085F0100085F010008D0
:100090005F0100085F0100085F0100085F010008C0
:1000A0005F0100085F0100085F0100085F010008B0
:1000B0005F0100085F0100085F0100085F010008A0
:1000C0005F0100085F0100085F0100085F01000890
:1000D0005F0100080F1000085F0100088110000890
:1000E0005F0100085F0100085F0100085F01000870
:1000F0005F0100085F0100085F0100085F01000860
:100100005F0100085F0100085F0100085F0100084F
:100110005F0100085F0100085F0100085F0100083F
:100120005F0100085F0100085F0100085F0100082F
:10013000DFF80CD002F06EF8004800472D0F0008E1
:10014000580C00200648804706480047FEE7FEE7B7
:10015000FEE7FEE7FEE7FEE7FEE7FEE7FEE7FEE777
:1001600047020008310100080CB500200190009002
:100170006C48006840F480306A49086000BF6948F4
:10018000006800F4003000900198401C0190009835
:1001900018B90198B0F5A06FF1D16248006800F479
:1001A000003010B10120009001E000200090009884
:1001B000012843D15C48006840F010005A490860AB
:1001C0000846006820F0030008600846006840F018
:1001D0000200086053484068524948600846406839
:1001E00048600846406840F48060486008464068BF
:1001F00020F47C1048600846406840F4E8104860ED
:100200000846006840F08070086000BF45480068FC
:1002100000F000700028F9D04248406820F0030048
:10022000404948600846406840F00200486000BF0E
:100230003C48406800F00C000828F9D10CBD10B50E
:10024000FFF792FF10BD10B53648006840F001007E
:1002500034490860084640683449084031494860DC
:1002600008460068324908402E4908600846006880
:1002700020F4802008600846406820F4FE004860B2
:100280004FF41F008860FFF7DAFF4FF00060294944
:10029000086010BD10B5002100200022214B5B68D2
:1002A00003F00C0121B1042906D0082928D107E068
:1002B000214B224C236027E01F4B204C236023E07E
:1002C000184B5B6803F47010164B5B6803F48032C4
:1002D000022303EB904022B9194B4343174C236090
:1002E0000DE0104B5B6803F4003323B1144B434320
:1002F000124C236003E0104B4343104C236003E097
:100300000D4B0E4C236000BF00BF064B5B68C3F370
:1003100003130C4CE15C094B1B68CB40074C23607A
:1003200010BD000000100240002002400000FFF855
:10033000FFFFF6FE08ED00E000127A00000000204A
:1003400000093D000400002031490143314A116099
:10035000704770B5002100230F22C47804B32D4CE0
:10036000246804F4E064C4F5E064210AC1F10403E4
:10037000CA40447804FA03F1847814402143090107
:10038000254C0678A155047804F01F050124AC40E3
:1003900005786D11AD0005F1E025C5F8004109E0D3
:1003A000047804F01F050124AC401C4D067876113A
:1003B00045F8264070BD1A4A0A400243154B1B1FE0
:1003C0001A60704739B1134A121D12680243114B6B
:1003D0001B1D1A6006E00F4A121D126882430D4B66
:1003E0001B1D1A607047042808D14FF0E0210969ED
:1003F00041F004014FF0E022116107E04FF0E021ED
:10040000096921F004014FF0E022116170470000FA
:100410000000FA050CED00E000E400E080E100E0FF
:1004200080FFFF1F10B50446CC48844208D101214B
:10043000042000F02DFB0021042000F029FB46E001
:10044000C748844208D10121082000F021FB002187
:10045000082000F01DFB3AE0C248844208D1012187
:10046000102000F015FB0021102000F011FB2EE001
:10047000BD48844208D10121202000F009FB002161
:10048000202000F005FB22E0B848844208D1012179
:10049000402000F0FDFA0021402000F0F9FA16E0BB
:1004A000B348844208D10121802000F0F1FA0021F4
:1004B000802000F0EDFA0AE0AE48844207D1012125
:1004C000801500F0E5FA0021A01500F0E1FA10BD5A
:1004D00010B50121084600F0DBFA0021012000F0F0
:1004E000D7FA10BD2DE9F041024600250026002074
:1004F00000230024002791F803C00CF00F0591F8A9
:1005000003C00CF0100CBCF1000F03D091F802C036
:100510004CEA050591F800C0BCF1000F31D0146819
:1005200000202BE04FF0010C0CFA00F3B1F800C0F2
:100530000CEA03069E4220D183004FF00F0C0CFA08
:1005400003F7BC4305FA03FC4CEA040491F803C02A
:10055000BCF1280F06D14FF0010C0CFA00FCC2F8D8
:1005600014C00AE091F803C0BCF1480F05D14FF068
:10057000010C0CFA00FCC2F810C0401C0828D1D3B2
:100580001460B1F800C0BCF1FF0F34DD54680020E6
:100590002EE000F1080C4FF0010808FA0CF3B1F856
:1005A00000C00CEA03069E4221D183004FF00F0CDD
:1005B0000CFA03F7BC4305FA03FC4CEA040491F877
:1005C00003C0BCF1280F05D100F1080C08FA0CF8A3
:1005D000C2F8148091F803C0BCF1480F07D100F1B4
:1005E000080C4FF0010808FA0CF8C2F81080401C03
:1005F0000828CED35460BDE8F0814FF6FF7101802A
:10060000022181700421C170704702460020936866
:100610000B400BB1012000E00020704701468868C4
:1006200080B2704702460020D3680B400BB1012016
:1006300000E0002070470146C86880B27047016141
:100640007047416170470AB1016100E04161704744
:10065000C16070474FF480320A43826181618261D8
:1006600082698269704702460020434B18684FF642
:100670008073184040EA021008433F4B18607047EF
:100680003E49C8617047F0B50A46002300240021A6
:10069000002500F00046B6F1004F02D1364EF16958
:1006A00001E0354E7168C0F3034583B200F4401693
:1006B000B6F5401F08D121F070612F4E766826F004
:1006C00070662D4F7E6012E000F48016B6F5801F34
:1006D00006D1032606FA05F4A14341F0706106E055
:1006E000460D360103FA06F6B14341F0706122B1BE
:1006F000460D360103FA06F6314300F00046B6F126
:10070000004F02D11C4EF16101E01B4E7160F0BD43
:1007100030B500228B071C0F0F2303FA04F2164B8F
:1007200008338C1053F824309343134C08348D1045
:1007300044F8253023468C1053F824308C07240FBE
:1007400000FA04F423430C4C08348D1044F825308F
:1007500030BD0A49DC3108607047000000080140E4
:10076000000C01400010014000140140001801403D
:10077000001C014000200140000001400000204218
:10078000DF48006840F00100DD4908600846406825
:10079000DC490840DA49486008460068DA49084000
:1007A000D74908600846006820F4802008600846A1
:1007B000406820F4FE0048604FF41F0088607047D6
:1007C000CF49096821F48031CD4A1160114609688A
:1007D00021F480211160B0F5803F03D0B0F5802F67
:1007E0000ED106E0C649096841F48031C44A11605F
:1007F00007E0C349096841F4A021C14A116000E043
:1008000000BF00BF704710B5014600220023002042
:100810004A11012A02D1BA4C236806E0022A02D109
:10082000B74C236A01E0B64C636A01F01F02012451
:1008300094401C400CB1012000E0002010BD38B5F0
:10084000002000900024002500BF3120FFF7DBFFCF
:1008500005460098401C00900098B0F5A06F01D0AC
:10086000002DF2D03120FFF7CEFF08B1012400E0C7
:100870000024204638BD01460020A14A106820F01F
:10088000F80040EAC10010607047A0490860704756
:10089000024600209A4B586820F47C1042EA01037B
:1008A0001843974B5860704798490866704701464F
:1008B0000020934A506820F00300084350607047BE
:1008C0008F48406800F00C007047014600208C4AB9
:1008D000506820F0F0000843506070470146002047
:1008E000874A506820F4E060084350607047014632
:1008F0000020834A506820F4605040EAC1005060F4
:10090000704729B17E4A527A02437D4B5A7204E005
:100910007B4A527A82437A4B5A7270477B49D8316C
:100920000860704701460020754A506820F4404036
:100930000843506070470021714A20321170704A9C
:1009400082F82010012802D004280AD104E00121F5
:100950006B4A2032117005E00521694A203211707E
:1009600000E000BF00BF70476949086070476449F4
:10097000096A0143624A1162704765494439086057
:10098000704730B500210022002400235C4D6D68C3
:1009900005F00C0121B1042905D0082923D105E077
:1009A0005C4D056022E05B4D05601FE0544D6D68B5
:1009B00005F47012524D6D6805F48034022505EB84
:1009C00092421CB9544D554305600BE04C4D6D6887
:1009D00005F400351DB1504D5543056002E04D4D05
:1009E0005543056002E04B4D056000BF00BF444D1C
:1009F0006D6805F0F0010909484D6B5C0568DD4044
:100A000045603F4D6D6805F4E061090A434D6B5C3C
:100A10004568DD4085603A4D6D6805F46051C90A4E
:100A20003E4D6B5C4568DD40C560354D6D6805F435
:100A30004041890B3A4D6B5CC568B5FBF3F5056128
:100A400030BD29B12E4A526902432D4B5A6104E050
:100A50002B4A526982432A4B5A61704729B1284A6E
:100A600092690243264B9A6104E0254A92698243C7
:100A7000234B9A61704729B1214AD2690243204B26
:100A8000DA6104E01E4AD26982431D4BDA61704785
:100A900029B11B4AD2680243194BDA6004E0184AB4
:100AA000D2688243164BDA60704729B1144A126942
:100AB0000243134B1A6104E0114A12698243104B3E
:100AC0001A61704712494039086070470F49C8647D
:100AD00070470B49C87170470948406A40F0807000
:100AE00007494862704701460020054A92680A405B
:100AF0000AB1012000E00020704701498872704768
:100B0000001002400000FFF8FFFFF6FE0000424226
:100B10008004424200127A0000093D0014000020C7
:100B20002400002010B50446FB48844209D101216D
:100B30008803FFF7ADFF00214FF48040FFF7A8FFC7
:100B400032E0F648844209D101214804FFF7ADFFA5
:100B500000214FF40030FFF7A8FF25E0F048844261
:100B600009D101218804FFF7A0FF00214FF4802064
:100B7000FFF79BFF18E0EB48844209D10121C8042C
:100B8000FFF793FF00214FF40020FFF78EFF0BE0EB
:100B9000E548844208D101210805FFF786FF0021BE
:100BA0004FF48010FFF781FF10BD2DE9F04786B0AC
:100BB00005460E460024A24600BFA1460027B08984
:100BC00000B100BF2F462C8A4CF6FF700440F0881D
:100BD00004432C82AC894EF6F3100440B08831896E
:100BE0000843718908430443AC81AC8A4FF6FF4047
:100BF0000440B0890443AC8201A8FFF7C2FEC64896
:100C0000874202D1DDF810A001E0DDF80CA0A88930
:100C100000F4004040B10AEBCA0000EB0A10316852
:100C20004900B0FBF1F807E00AEBCA0000EB0A103C
:100C300031688900B0FBF1F86420B8FBF0F00401E2
:100C40002009642101FB1089A88900F4004040B10B
:100C5000322000EBC900B0FBF1F000F007000443C4
:100C600008E0322000EB09106421B0FBF1F000F045
:100C70000F0004432C8106B0BDE8F0874FF41651F5
:100C8000016000218180C18001810C21418100210E
:100C90008181704710B502460020108A4FF2FF0391
:100CA00018400B884C8823438C882343CC882343EB
:100CB0001843108210BD0021018041808180C180D5
:100CC000704721B1828942F40052828104E0828916
:100CD0004DF6FF731A4082817047F0B50346002439
:100CE00000260025002040F66A17B94200D100BF57
:100CF0001846C1F3421401F01F06012707FA06F552
:100D0000012C01D10C3004E0022C01D1103000E0A4
:100D100014301AB107682F43076002E00768AF4339
:100D20000760F0BD1AB1838A0B43838202E0838A95
:100D30008B4383827047028A4FF6F0731A40028217
:100D4000028A0A430282704782894FF2FF731A4077
:100D5000828182890A438281704721B1828942F06F
:100D60000202828104E082894FF6FD731A4082817B
:100D70007047028A4FF6DF731A400282028A0A43E2
:100D80000282704721B1028A42F48042028204E06A
:100D9000028A4BF6FF731A4002827047C1F30802C1
:100DA0008280704701468888C0F3080070478189B7
:100DB00041F0010181817047028BD2B20283028B24
:100DC00042EA012202837047028B02F47F420283CF
:100DD000028B0A430283704721B1828A42F02002CB
:100DE000828204E0828A4FF6DF731A408282704763
:100DF00021B1828A42F01002828204E0828A4FF698
:100E0000EF731A408282704721B1828A42F0080251
:100E1000828204E0828A4FF6F7731A40828270471A
:100E200021B1828942F40042828103E08289C2F3C7
:100E30000E028281704721B1828A42F4006282826E
:100E400004E0828A4FF2FF731A4082827047828ADE
:100E50004FF6FB731A408282828A0A43828270476D
:100E600021B1828A42F00202828204E0828A4FF635
:100E7000FD731A408282704702460020B1F5007F60
:100E800000D100BF13880B400BB1012000E000200F
:100E9000704701F40072B2F5007F00D100BFCA4371
:100EA0000280704770B50246002400230025002010
:100EB00040F66A16B14200D100BFC1F3421501F0FD
:100EC0001F03012606FA03F3012D02D19689334050
:100ED00006E0022D02D1168A334001E0968A3340A3
:100EE0000C12012606FA04F41688344013B10CB132
:100EF000012000E0002070BD10B50022002340F664
:100F00006A14A14200D100BF0A1201249440A3B286
:100F1000DC43048010BD0000003801400044004064
:100F200000480040004C00400050004000F00FF925
:100F300000F0BAFE01F000F900F04CFA0BA001F04D
:100F40007BF9144801F078F9134801F075F900F0C5
:100F500055FF12A001F070F90F4801F06DF91FA0C4
:100F600001F06AF901E000F097FFFCE70D0AD2B04A
:100F7000BBF02057462D455350383236362057693E
:100F80004669C4A3BFE9B2E2CAD4C0FDB3CC0D0A1E
:100F900000000000C0240008642400080D0AD4DA10
:100FA000CDF8C2E7B5F7CAD4D6FACAD6BBF2D5DFB8
:100FB000B4AEBFDAB5F7CAD4D6FACAD62020B7A2E3
:100FC000CBCDD2D4CFC2C3FCC1EEBFD8D6C6B0E51C
:100FD000D4D8524742B5C6A3BA0D0A000D0AB9DBF0
:100FE000B2EC524742B5C6B5C4D7B4CCACB1E4BB41
:100FF000AF0D0A00704700BFFEE700BFFEE700BF6D
:10100000FEE700BFFEE7704770477047704710B5B6
:1010100040F225513C48FFF745FFD8B13A48FFF769
:10102000C1FEC4B23948B0F80004C0F30E0040F26B
:10103000FF3188420EDA3549B1F80014C1F30E00D1
:10104000411C324AB2F8002461F30E022F49A1F884
:1010500000240C5440F224412B48FFF723FF0128C1
:101060000DD12A48B0F8000420F4004000F50040FB
:101070002649A1F800042448FFF794FEC4B210BD2D
:1010800010B540F225512248FFF70CFFD8B1204897
:10109000FFF788FEC4B21F48B0F80004C0F30E008A
:1010A00040F2FF3188420EDA1A49B1F80014C1F358
:1010B0000E00411C174AB2F8002461F30E021549D4
:1010C000A1F800240C5440F224411148FFF7EAFE35
:1010D000012817D10F48B0F8000420F4004000F5B3
:1010E00000400C49A1F800040948FFF75BFEC4B2B8
:1010F00009A1084801F066F808B1012000E00020CD
:101100000849087010BD000000380140520400205A
:101110000048004050000020434C4F5345440D0A06
:10112000000000004800002008B54FF4A060FFF761
:101130000BF925208DF8000001208DF801008DF8B5
:1011400002008DF803006846FFF703F908BD00B5FB
:1011500085B001210420FFF781FC01218803FFF7FE
:101160007DFC4FF40070ADF8100018208DF81300CE
:1011700003208DF8120004A95548FFF7B3F94FF486
:101180008060ADF8100004208DF8130004A95048C9
:10119000FFF7A8F94FF4E13000900020ADF804000B
:1011A000ADF80600ADF80800ADF80C000C20ADF865
:1011B0000A0069464748FFF7F8FCFFF7B5FF012230
:1011C00040F225514348FFF788FD012240F22441B7
:1011D0004048FFF782FD01213E48FFF772FD05B050
:1011E00000BD70B504460D4629462046FFF7D6FDE2
:1011F00000BF80212046FFF73FFE0028F9D070BDD8
:101200002DE9F04107460D461646002405E0295D0C
:101210003846FFF7E6FF601CC4B2B442F7DB00BFFC
:1012200040213846FFF728FE0028F9D0BDE8F081BC
:1012300070B506460C46002500BF615D3046FFF7DD
:10124000D0FF6D1C605D0028F7D100BF4021304603
:10125000FFF712FE0028F9D070BD2DE9F0410546D8
:101260000C46260AE7B231462846FFF797FD00BF35
:1012700080212846FFF700FE0028F9D0394628468D
:10128000FFF78CFD00BF80212846FFF7F5FD002801
:10129000F9D0BDE8F08170B504460D46E1B20D48C5
:1012A000FFF77CFD00BF80210A48FFF7E5FD00281D
:1012B000F9D0204670BD10B5044600BF2021054876
:1012C000FFF7DAFD0028F9D00248FFF76BFD10BDEB
:1012D000000801400038014008B54FF4A060FFF756
:1012E00033F827208DF8000000208DF801008DF8DC
:1012F000020001208DF803006846FFF72AF808BDB8
:1013000000B585B001218804FFF7B5FB0121082055
:10131000FFF7A4FB4FF48060ADF8100018208DF8A3
:10132000130003208DF8120004A9FB48FFF7DAF838
:101330004FF40060ADF8100004208DF8130004A9EC
:10134000F548FFF7CFF84FF4E13000900020ADF8FA
:101350000400ADF80600ADF80800ADF80C000C2054
:10136000ADF80A006946ED48FFF71FFC012240F284
:101370002551EA48FFF7B1FC012240F22441E74839
:10138000FFF7ABFCFFF7A8FF0121E448FFF799FC4A
:1013900005B000BD08B501210820FFF75FFB4FF441
:1013A0008070ADF8000010208DF8030003208DF848
:1013B00002006946D848FFF795F801210820FFF799
:1013C0004DFB4FF40070ADF800006946D248FFF7BE
:1013D00089F808BD10B5FFF7DDFFFFF791FF4FF467
:1013E0000071CD48FFF72BF94FF48071CA48FFF721
:1013F00026F910BD10B54FF40071C748FFF721F969
:10140000C74800F063FC4FF40071C348FFF717F9B9
:1014100010BD2DE9F04106460C4615461F46C14851
:10142000B0F800046FF30E00BE49A1F80004324684
:10143000BDA1BA4800F0B5FB1CB915B90120BDE843
:10144000F0814FF47A7107FB01F000F03FFC0020BF
:10145000B449B1F80014C1F30E01B24A5054114618
:10146000B3A000F0E9FEB4B1ADB12146AD4800F043
:10147000A9FE08B1012000E0002040B92946A94892
:1014800000F0A0FE08B1012000E0002008B101201A
:10149000D5E70020D3E744B12146A24800F092FEF0
:1014A00008B10120CBE70020C9E729469D4800F09C
:1014B00089FE08B10120C2E70020C0E700B58BB06B
:1014C0009CA101A800F0C8FE4FF4FA7300229EA16F
:1014D00001A8FFF79EFF0BB000BD10B500244FF42C
:1014E00000718D48FFF7ABF898A000F0A5FE9C486E
:1014F00000F0ECFB15E021469AA000F09DFE4FF4B1
:10150000FA73002290A19EA0FFF783FF28B1214625
:101510009CA000F091FE012010BDFFF76BFF601C46
:10152000C4B20A2CE7DB0020F6E710B5044624B16C
:10153000012C0AD0022C18D10FE040F6C41399A256
:1015400081A19BA0FFF765FF10BD40F6C41395A2D3
:101550007DA19AA0FFF75DFFF6E740F6C41391A2C4
:1015600079A199A0FFF755FFEEE70020ECE730B531
:101570009FB004460D462B46224696A101A800F0D6
:101580006BFE41F2883300226FA101A8FFF741FFF3
:101590001FB030BD70B5A0B004460D4616462B46B0
:1015A000224691A102A8009600F056FE4FF47A73ED
:1015B000002265A102A8FFF72CFF20B070BD10B576
:1015C00086B004460CB1012000E0002002468CA148
:1015D00001A800F041FE4FF4FA7300225AA101A8BD
:1015E000FFF717FF06B010BDF0B5B9B006460F46BD
:1015F00014461D46642120A800F0D9FD16B1012E25
:1016000010D107E03B4682A282A120A8009400F0FE
:1016100023FE08E03B4683A27EA120A8009400F0B0
:101620001BFE00E000BF00BF052D06DA20AB2A46F6
:101630007DA102A800F010FE04E020AA7FA102A86C
:1016400000F00AFE4FF47A6380A23FA102A8FFF7E0
:10165000E0FE39B0F0BD70B5BCB004460D4616468C
:10166000FCB12B4601227DA11EA800F0F5FD3246FB
:101670007FA1684600F0F0FD4FF4FA73002232A11A
:101680001EA8FFF7C6FE50B14FF4FA7300222EA138
:101690006846FFF7BEFE10B101203CB070BD0020CF
:1016A000FBE72B4600226DA11EA800F0D5FD4FF4EC
:1016B000FA73002224A11EA8FFF7ABFEEDE710B5D8
:1016C0004FF4FA73002220A16DA0FFF7A2FEA0B193
:1016D0006FA1144800F076FD08B1022010BD6FA183
:1016E000104800F06FFD08B10320F7E76EA10D4828
:1016F00000F068FD08B10420F0E70020EEE710B527
:1017000000244FF4FA7300220FA15DA0FFF781FEC1
:10171000002800D0CEE0FFE0000C0140004800406F
:1017200020A107005000002025730D0A00000000D2
:101730002573000041542B4357444843505F4355A1
:10174000523D312C310000004F4B00000D0A20416A
:1017500054B2E2CAD42E2E2E2E2E2E200D0A0000B8
:1017600080841E000D0A204154B2E2CAD4B4CECA0D
:10177000FD2025642E2E2E2E2E2E200D0A00000078
:10178000415400000D0A204154B2E2CAD4C6F4B656
:10179000AFB3C9B9A62025642E2E2E2E2E2E200DD5
:1017A0000A0000006E6F206368616E6765000000CC
:1017B00041542B43574D4F44453D310041542B4339
:1017C000574D4F44453D320041542B43574D4F44F4
:1017D000453D330041542B43574A41503D22257328
:1017E000222C22257322000041542B435753415091
:1017F0003D222573222C222573222C312C256400B6
:1018000041542B4349504D55583D2564000000007C
:1018100054435000222573222C222573222C257339
:10182000000000005544500041542B43495053548C
:101830004152543D25642C257300000041542B4334
:10184000495053544152543D25730000414C524578
:10185000415920434F4E4E454354000041542B43C1
:1018600049505345525645523D25642C257300007E
:1018700041542B43495053544F3D25730000000001
:1018800041542B43495053544154555300000000D8
:101890005354415455533A320D0A000053544154A5
:1018A00055533A330D0A00005354415455533A34BA
:1018B0000D0A00006EA1724800F084FC10B144F0E3
:1018C000010401E024F001046EA16D4800F07AFCEF
:1018D00010B144F0020401E024F002046DA1684854
:1018E00000F070FC10B144F0040401E024F00404A2
:1018F0006CA1634800F066FC10B144F0080401E0FC
:1019000024F008046BA15E4800F05CFC10B144F0C8
:10191000100401E024F01004204610BD2DE9F04130
:1019200005460F464FF4FA730022AFF2E41165A0AA
:10193000FFF76FFD66A1524800F044FC06460EB169
:10194000B61D02E00020BDE8F081002409E0305D12
:101950002855285D222802D10020285503E0601C6C
:10196000C4B2BC42F3DB00BF0120ECE710B54FF47A
:10197000FA730022AFF2302157A0FFF74AFD08B9F1
:10198000002010BD4FF4FA7357A2AFF2442157A0C4
:10199000FFF73FFDF5E710B5574800F097F957A15D
:1019A000574800F0FEF8574800F090F910BD2DE9B7
:1019B000F04186B007460C4615461E464FF000081B
:1019C00047B12246AFF298214D4800F0EAF84FF0B7
:1019D00001081CE0052E06DAAB1C32464AA101A81C
:1019E00000F03AFC04E0AA1C4CA101A800F034FC71
:1019F0004FF47A7300224DA101A8FFF70AFD4FF4BE
:101A00007A7300224AA12046FFF703FD8046404634
:101A100006B0BDE8F08170B5044600251848B0F85E
:101A200000046FF30E001649A1F800040846B0F850
:101A3000000420F40040A1F8000400BF1048B0F8F2
:101A40000004C00B0028F9D000200D49B1F80014A3
:101A5000C1F30E010A4A50540CB1154605E036A1F7
:101A6000074800F0AFFB00B1054D284670BD0000EF
:101A70002B4349505354415455533A302C000000E5
:101A8000500000202B4349505354415455533A3190
:101A90002C0000002B4349505354415455533A32C3
:101AA0002C0000002B4349505354415455533A33B2
:101AB0002C0000002B4349505354415455533A34A1
:101AC0002C00000041542B434946535200000000B3
:101AD000415049502C22000041542B4349504D4F56
:101AE00044453D31000000003E00000041542B43BE
:101AF000495053454E44000040420F002B2B2B0011
:101B00000048004020A1070041542B434950534551
:101B10004E443D25642C25640000000041542B43B5
:101B2000495053454E443D25640000003E200000CE
:101B300053454E44204F4B002B49504400000000B9
:101B4000F0B503460D461646002729460A2E03D057
:101B5000002008702846F0BD33B9302001F8010B91
:101B6000002008702846F6E7002B03DA2D2001F844
:101B7000010B5B4242F210720DE093FBF2F404B9E8
:101B800037B104F1300001F8010B04FB12330127D7
:101B90000A2092FBF0F2002AEFDC002008702846B1
:101BA000D9E70FB470B586B006460CA8019073E073
:101BB0000B9800785C281CD10B98401C0B90007887
:101BC0006E2809D072280FD10D213046FFF7E6F8B4
:101BD0000B98401C0B900BE00A213046FFF7DEF813
:101BE0000B98401C0B9003E00B98401C0B9000BF1F
:101BF0004BE00B980078252840D10B98401C0B90A7
:101C00000078642818D0732833D1019810C8019047
:101C10000BE021783046FFF7C1F800BF8021304645
:101C2000FFF72AF90028F9D0641C20780028F0D1A9
:101C30000B98401C0B9020E0019820C801900A22CC
:101C400002A92846FFF77CFF02AC0BE02178304662
:101C5000FFF7A4F800BF80213046FFF70DF90028F8
:101C6000F9D0641C20780028F0D10B98401C0B9010
:101C700003E00B98401C0B9000BF06E00B9810F897
:101C8000011B0B903046FFF789F800BF80213046DA
:101C9000FFF7F2F80028F9D00B980078002887D1D8
:101CA00006B070BC5DF814FB1A48006840F0807004
:101CB000184908600020184948600846006840F04C
:101CC00001000860704714484068704731B5002330
:101CD00012480068124DB0FBF5F0009D00FB05F4C2
:101CE00000BFFFF7F0FF024611E0FFF7ECFF0146EF
:101CF00091420CD0914202D9881A034403E0C2F108
:101D0000FF30084403440A46A34200D300E0ECE756
:101D100000BF38BDFCED00E0001000E00000002036
:101D200040420F0070B5054600240DE09F4850F872
:101D30002410284600F046FA08B1012000E00020F7
:101D400000B103E0601CC4B2082CEFDB00BF082C1C
:101D500051D2DFE804F0040D18222B353F47202034
:101D6000934908600120091F08600220086043E0D1
:101D700020208F49091F08600120091D08600220EA
:101D8000091F086038E020208949091F08600120E8
:101D900008600220091D08602EE0202084490860A8
:101DA000012008600220091F086025E020208049EA
:101DB00008600120091F08600220091D08601BE05F
:101DC00020207B49091F08600120091D08600220AE
:101DD000086011E020207649086001200860022098
:101DE000086009E020207249091F0860012008608E
:101DF0000220086000E000BF00BF70BD10B56DA0FC
:101E000000F01AFA73A000F017FA4FF480716848D6
:101E10001438FEF714FC00BFFFF75FFB0028FBD06F
:101E200000BFFFF74BFB0028FBD071A000F004FAC5
:101E300000BF0020FFF779FB0028FAD075A000F062
:101E4000FBF900BF7AA17DA0FFF791FB0028F9D034
:101E50007EA000F0F1F900BF0020FFF7B0FB0028E2
:101E6000FAD080A000F0E8F900BF052384A286A183
:101E70000020FFF7B9FB0028F7D086A000F0DCF9BE
:101E800000BFFFF773FD0028FBD08AA000F0D4F953
:101E90008EA000F0D1F910BD70B59248B0F80004E2
:101EA0000121B1EBD03F28D100240DE08D48015D28
:101EB0008D48FEF773FF00BF40218B48FEF7DCFF23
:101EC0000028F9D0601C84B28648B0F80004C0F342
:101ED0000E00A042EADC8348B0F800046FF30E0065
:101EE0008049A1F800040846B0F8000420F400403E
:101EF000A1F800040846FFF715FF7C48B0F800047D
:101F0000C00B40B300240DE07848015D7848FEF72F
:101F100045FF00BF40217648FEF7AEFF0028F9D00C
:101F2000601C84B27148B0F80004C0F30E00A042F7
:101F3000EADC6E48B0F800046FF30E006B49A1F8BC
:101F400000040846B0F8000420F40040A1F80004A2
:101F50000846FFF7E7FE67480078002824D0FFF71F
:101F60001AFD00BFFFF7ABFB0546002DFAD0042D8C
:101F700015D161A000F060F900BF2DA12FA0FFF7DF
:101F8000F6FA0028F9D000BF05233DA23EA10020AB
:101F9000FFF72AFB0028F7D060A000F04DF900BF42
:101FA000FFF7E4FC0028FBD070BD000028000020F3
:101FB000140C01400D0A20D5FDD4DAC5E4D6C320A7
:101FC000455350383236362E2E2E2E2E2E200D0A08
:101FD000000000000D0A20CAB9C4DC204553503867
:101FE000323636202E2E2E2E2E2E200D0A000000E8
:101FF0000D0A20D5FDD4DAC5E4D6C3B9A4D7F7C4F9
:10200000A3CABD20535441202E2E2E2E2E2E200D3D
:102010000A0000000D0A20D5FDD4DAC1ACBDD320E2
:1020200057494649202E2E2E2E2E2E200D0A000016
:10203000313233343536373839000000485541578E
:1020400045492D4146314353380000000D0A20BD5B
:10205000FBD6B9B6E0C1ACBDD32E2E2E2E2E2E202F
:102060000D0A00000D0A20D5FDD4DAC1ACBDD32085
:102070005365727665722E2E2E2E2E2E200D0A009E
:1020800038303830000000003139322E3136382EE9
:10209000332E38000D0A20BDF8C8EBCDB8B4ABB76D
:1020A000A2CBCDC4A3CABD2E2E2E2E2E2E200D0ABD
:1020B000000000000D0A20C5E4D6C3204553503867
:1020C00032363620CDEAB1CF200D0A000D0A20BFEE
:1020D000AACABCCDB8B4AB2E2E2E2E2E2E200D0AA1
:1020E0000000000052040020004800405000002082
:1020F00000380140480000200D0A20D5FDD4DAD672
:10210000D8C1ACC8C8B5E3BACDB7FECEF1C6F72E7C
:102110002E2E2E2E2E200D0A000000000D0A20D695
:10212000D8C1ACC8C8B5E3BACDB7FECEF1C6F7B3D7
:10213000C9B9A6200D0A000008B501210820FEF744
:102140008DFC2020ADF8000010208DF80300032046
:102150008DF8020069461148FEF7C4F90120ADF878
:10216000000069460D48FEF7BDF90220ADF80000F9
:1021700069460A48FEF7B6F920210848FEF75FFADB
:1021800001210648FEF75BFA02210448FEF757FAE0
:1021900008BD2022014B14331A607047000C014027
:1021A000D2B201E000F8012B491EFBD27047002299
:1021B000F6E710B513460A4604461946FFF7F0FF46
:1021C000204610BD30B505462A460B4612F8010BD5
:1021D00013F8014B08B1A042F8D01CB1002802D07E
:1021E0006D1CF1E7284630BD30B50B460146002096
:1021F0002022012409E021FA02F59D4205D303FAC9
:1022000002F5491B04FA02F52844151EA2F1010249
:10221000F1DC30BD064C074D06E0E06840F00103FC
:1022200094E8070098471034AC42F6D3FDF784FFDA
:1022300060250008802500080FB4054B10B503A9E0
:10224000044A029800F02CF810BC5DF814FB000062
:10225000971200084C0000200FB4084B10B504A9D9
:1022600002AA039800F01CF8044602A9002000F01E
:10227000F3F8204610BC5DF814FB00005924000858
:1022800002E008C8121F08C1002AFAD1704770473F
:10229000002001E001C1121F002AFBD1704700009D
:1022A0002DE9FF4F8BB09A460F460546002606E003
:1022B00025280BD052460D9990476D1C761C287826
:1022C0000028F5D10FB03046BDE8F08F0024A046BD
:1022D0000122604900E0044315F8013F203B02FA67
:1022E00003F00842F7D128782E2817D115F8010FEE
:1022F00044F004042A280ED06FF02F022878A0F1B1
:10230000300109290AD808EB880102EB410100EBF2
:1023100001086D1CF2E757F8048B6D1C28786928BA
:102320003ED006DC0028CDD063280BD0642804D131
:1023300036E0732810D075284BD052460D9990473F
:10234000761C85E017F8040B8DF8000000208DF84E
:102350000100E946012003E057F8049B4FF0FF30ED
:1023600061074FF0000401D40AE0641C44450DDA13
:102370008442FADB19F804100029F6D106E0641C47
:102380008442FCDB19F804100029F8D1264404E04B
:1023900019F8010B52460D999047641EF8D257E088
:1023A00001CF4FF00A0B002802DA40422D2102E053
:1023B000210504D52B218DF82410012103E0E1072C
:1023C00005D02021F7E70DF1200908910CE000214C
:1023D000F9E701CF4FF00A0BF9E75946FFF704FF81
:1023E00001F1300209F8012D0028F6D1ADEB09000A
:1023F00000F1200B600701D44FF00108D84502DD41
:10240000A8EB0B0000E000208046002406E009A8AD
:102410005246005D0D999047641C761C08988442D2
:10242000F5DB04E0302052460D999047761CB8F158
:102430000001A8F10108F5DC05E019F8010B52468E
:102440000D999047761CBBF10001ABF1010BF4DC58
:102450006D1C34E7092801000A68531C0B601070DA
:10246000704700000D0A4C45445F5245440D0A4C2C
:1024700045445F475245454E0D0A4C45445F424C2A
:1024800055450D0A4C45445F59454C4C4F570D0A74
:102490004C45445F505552504C450D0A4C45445FE5
:1024A0004359414E0D0A4C45445F57484954450D28
:1024B0000A4C45445F5247424F46460D0A00000011
:1024C0000D0AD4DACDF8C2E7B5F7CAD4D6FACAD61F
:1024D000BBF2D5DFB4AEBFDAB5F7CAD4D6FACAD6E6
:1024E000C9CFB7A2CBCDD2D4CFC2C3FCC1EEBFC936
:1024F000D2D4BFD8D6C6B0E5D4D8524742B5C60D5F
:102500000A0000004C45445F524544004C45445F7E
:10251000505552504C4500004C45445F5748495473
:10252000450000004C45445F424C5545000000000A
:102530004C45445F5247424F464600004C45445F7D
:102540004359414E000000004C45445F4752454509
:102550004E0000004C45445F59454C4C4F5700001D
:1025600080250008000000205000000080220008A4
:10257000D025000850000020080C00009022000820
:1025800000A24A0400000000000000000102030451
:102590000607080900000000010203040102030409
:1025A0000607080902040608042500084825000853
:1025B00024250008542500080C2500083C250008A7
:1025C0001825000830250008000000000000000069
:0400000508000131BD
:00000001FF
